{
	"src/Mediscan.sol": {
		"Mediscan": {
			"abi": [
				{
					"inputs": [],
					"stateMutability": "nonpayable",
					"type": "constructor"
				},
				{
					"inputs": [],
					"name": "AccessControlBadConfirmation",
					"type": "error"
				},
				{
					"inputs": [
						{
							"internalType": "address",
							"name": "account",
							"type": "address"
						},
						{
							"internalType": "bytes32",
							"name": "neededRole",
							"type": "bytes32"
						}
					],
					"name": "AccessControlUnauthorizedAccount",
					"type": "error"
				},
				{
					"anonymous": false,
					"inputs": [
						{
							"indexed": true,
							"internalType": "bytes32",
							"name": "_faceHash",
							"type": "bytes32"
						},
						{
							"indexed": true,
							"internalType": "address",
							"name": "_account",
							"type": "address"
						}
					],
					"name": "PayoutChainBaseTokenToFaceHash",
					"type": "event"
				},
				{
					"anonymous": false,
					"inputs": [
						{
							"indexed": true,
							"internalType": "bytes32",
							"name": "_faceHash",
							"type": "bytes32"
						},
						{
							"indexed": true,
							"internalType": "address",
							"name": "_token",
							"type": "address"
						},
						{
							"indexed": true,
							"internalType": "uint256",
							"name": "_amount",
							"type": "uint256"
						}
					],
					"name": "PayoutTokenForFaceHash",
					"type": "event"
				},
				{
					"anonymous": false,
					"inputs": [
						{
							"indexed": true,
							"internalType": "bytes32",
							"name": "_faceHash",
							"type": "bytes32"
						}
					],
					"name": "RegisterFaceHash",
					"type": "event"
				},
				{
					"anonymous": false,
					"inputs": [
						{
							"indexed": true,
							"internalType": "bytes32",
							"name": "role",
							"type": "bytes32"
						},
						{
							"indexed": true,
							"internalType": "bytes32",
							"name": "previousAdminRole",
							"type": "bytes32"
						},
						{
							"indexed": true,
							"internalType": "bytes32",
							"name": "newAdminRole",
							"type": "bytes32"
						}
					],
					"name": "RoleAdminChanged",
					"type": "event"
				},
				{
					"anonymous": false,
					"inputs": [
						{
							"indexed": true,
							"internalType": "bytes32",
							"name": "role",
							"type": "bytes32"
						},
						{
							"indexed": true,
							"internalType": "address",
							"name": "account",
							"type": "address"
						},
						{
							"indexed": true,
							"internalType": "address",
							"name": "sender",
							"type": "address"
						}
					],
					"name": "RoleGranted",
					"type": "event"
				},
				{
					"anonymous": false,
					"inputs": [
						{
							"indexed": true,
							"internalType": "bytes32",
							"name": "role",
							"type": "bytes32"
						},
						{
							"indexed": true,
							"internalType": "address",
							"name": "account",
							"type": "address"
						},
						{
							"indexed": true,
							"internalType": "address",
							"name": "sender",
							"type": "address"
						}
					],
					"name": "RoleRevoked",
					"type": "event"
				},
				{
					"anonymous": false,
					"inputs": [
						{
							"indexed": true,
							"internalType": "bytes32",
							"name": "_faceHash",
							"type": "bytes32"
						},
						{
							"indexed": true,
							"internalType": "uint256",
							"name": "_amount",
							"type": "uint256"
						}
					],
					"name": "SendChainBaseTokenToFaceHash",
					"type": "event"
				},
				{
					"anonymous": false,
					"inputs": [
						{
							"indexed": true,
							"internalType": "bytes32",
							"name": "_faceHash",
							"type": "bytes32"
						},
						{
							"indexed": true,
							"internalType": "address",
							"name": "_token",
							"type": "address"
						},
						{
							"indexed": true,
							"internalType": "uint256",
							"name": "_amount",
							"type": "uint256"
						}
					],
					"name": "SendTokenToFaceHash",
					"type": "event"
				},
				{
					"anonymous": false,
					"inputs": [
						{
							"indexed": true,
							"internalType": "address",
							"name": "_account",
							"type": "address"
						},
						{
							"indexed": true,
							"internalType": "uint256",
							"name": "_accessLevel",
							"type": "uint256"
						}
					],
					"name": "VerifyHealthWorker",
					"type": "event"
				},
				{
					"inputs": [],
					"name": "DEFAULT_ADMIN_ROLE",
					"outputs": [
						{
							"internalType": "bytes32",
							"name": "",
							"type": "bytes32"
						}
					],
					"stateMutability": "view",
					"type": "function"
				},
				{
					"inputs": [],
					"name": "HEALTH_PROFESSIONAL_FULL",
					"outputs": [
						{
							"internalType": "bytes32",
							"name": "",
							"type": "bytes32"
						}
					],
					"stateMutability": "view",
					"type": "function"
				},
				{
					"inputs": [],
					"name": "HEALTH_PROFESSIONAL_LOW",
					"outputs": [
						{
							"internalType": "bytes32",
							"name": "",
							"type": "bytes32"
						}
					],
					"stateMutability": "view",
					"type": "function"
				},
				{
					"inputs": [],
					"name": "HEALTH_PROFESSIONAL_MID",
					"outputs": [
						{
							"internalType": "bytes32",
							"name": "",
							"type": "bytes32"
						}
					],
					"stateMutability": "view",
					"type": "function"
				},
				{
					"inputs": [],
					"name": "PAYMENT_ADMIN_ROLE",
					"outputs": [
						{
							"internalType": "bytes32",
							"name": "",
							"type": "bytes32"
						}
					],
					"stateMutability": "view",
					"type": "function"
				},
				{
					"inputs": [],
					"name": "USER_ADMIN_ROLE",
					"outputs": [
						{
							"internalType": "bytes32",
							"name": "",
							"type": "bytes32"
						}
					],
					"stateMutability": "view",
					"type": "function"
				},
				{
					"inputs": [
						{
							"internalType": "address",
							"name": "_account",
							"type": "address"
						}
					],
					"name": "addPaymentAdmin",
					"outputs": [],
					"stateMutability": "nonpayable",
					"type": "function"
				},
				{
					"inputs": [
						{
							"internalType": "address",
							"name": "_account",
							"type": "address"
						}
					],
					"name": "addUserAdmin",
					"outputs": [],
					"stateMutability": "nonpayable",
					"type": "function"
				},
				{
					"inputs": [
						{
							"internalType": "bytes32",
							"name": "",
							"type": "bytes32"
						},
						{
							"internalType": "address",
							"name": "",
							"type": "address"
						}
					],
					"name": "balanceForTokenForFaceHash",
					"outputs": [
						{
							"internalType": "uint256",
							"name": "",
							"type": "uint256"
						}
					],
					"stateMutability": "view",
					"type": "function"
				},
				{
					"inputs": [
						{
							"internalType": "bytes32",
							"name": "",
							"type": "bytes32"
						}
					],
					"name": "baseTokenBalanceForFaceHash",
					"outputs": [
						{
							"internalType": "uint256",
							"name": "",
							"type": "uint256"
						}
					],
					"stateMutability": "view",
					"type": "function"
				},
				{
					"inputs": [
						{
							"internalType": "address",
							"name": "_address",
							"type": "address"
						}
					],
					"name": "getAccessLevelForAddress",
					"outputs": [
						{
							"internalType": "uint256",
							"name": "",
							"type": "uint256"
						}
					],
					"stateMutability": "view",
					"type": "function"
				},
				{
					"inputs": [
						{
							"internalType": "bytes32",
							"name": "role",
							"type": "bytes32"
						}
					],
					"name": "getRoleAdmin",
					"outputs": [
						{
							"internalType": "bytes32",
							"name": "",
							"type": "bytes32"
						}
					],
					"stateMutability": "view",
					"type": "function"
				},
				{
					"inputs": [
						{
							"internalType": "bytes32",
							"name": "role",
							"type": "bytes32"
						},
						{
							"internalType": "address",
							"name": "account",
							"type": "address"
						}
					],
					"name": "grantRole",
					"outputs": [],
					"stateMutability": "nonpayable",
					"type": "function"
				},
				{
					"inputs": [
						{
							"internalType": "bytes32",
							"name": "role",
							"type": "bytes32"
						},
						{
							"internalType": "address",
							"name": "account",
							"type": "address"
						}
					],
					"name": "hasRole",
					"outputs": [
						{
							"internalType": "bool",
							"name": "",
							"type": "bool"
						}
					],
					"stateMutability": "view",
					"type": "function"
				},
				{
					"inputs": [
						{
							"internalType": "bytes32",
							"name": "_hash",
							"type": "bytes32"
						}
					],
					"name": "isFaceHashRegistered",
					"outputs": [
						{
							"internalType": "bool",
							"name": "",
							"type": "bool"
						}
					],
					"stateMutability": "view",
					"type": "function"
				},
				{
					"inputs": [
						{
							"internalType": "bytes32",
							"name": "_faceHash",
							"type": "bytes32"
						},
						{
							"internalType": "address",
							"name": "_account",
							"type": "address"
						}
					],
					"name": "payoutChainBaseTokenToFaceHash",
					"outputs": [],
					"stateMutability": "nonpayable",
					"type": "function"
				},
				{
					"inputs": [
						{
							"internalType": "bytes32",
							"name": "_faceHash",
							"type": "bytes32"
						},
						{
							"internalType": "address",
							"name": "_token",
							"type": "address"
						},
						{
							"internalType": "address",
							"name": "_account",
							"type": "address"
						}
					],
					"name": "payoutTokenForFaceHash",
					"outputs": [],
					"stateMutability": "nonpayable",
					"type": "function"
				},
				{
					"inputs": [
						{
							"internalType": "bytes32",
							"name": "_faceHash",
							"type": "bytes32"
						}
					],
					"name": "registerFaceHash",
					"outputs": [],
					"stateMutability": "nonpayable",
					"type": "function"
				},
				{
					"inputs": [
						{
							"internalType": "bytes32",
							"name": "",
							"type": "bytes32"
						}
					],
					"name": "registeredFaceHashes",
					"outputs": [
						{
							"internalType": "bool",
							"name": "",
							"type": "bool"
						}
					],
					"stateMutability": "view",
					"type": "function"
				},
				{
					"inputs": [
						{
							"internalType": "address",
							"name": "_account",
							"type": "address"
						}
					],
					"name": "removePaymentAdmin",
					"outputs": [],
					"stateMutability": "nonpayable",
					"type": "function"
				},
				{
					"inputs": [
						{
							"internalType": "address",
							"name": "_account",
							"type": "address"
						}
					],
					"name": "removeUserAdmin",
					"outputs": [],
					"stateMutability": "nonpayable",
					"type": "function"
				},
				{
					"inputs": [
						{
							"internalType": "bytes32",
							"name": "role",
							"type": "bytes32"
						},
						{
							"internalType": "address",
							"name": "callerConfirmation",
							"type": "address"
						}
					],
					"name": "renounceRole",
					"outputs": [],
					"stateMutability": "nonpayable",
					"type": "function"
				},
				{
					"inputs": [
						{
							"internalType": "bytes32",
							"name": "role",
							"type": "bytes32"
						},
						{
							"internalType": "address",
							"name": "account",
							"type": "address"
						}
					],
					"name": "revokeRole",
					"outputs": [],
					"stateMutability": "nonpayable",
					"type": "function"
				},
				{
					"inputs": [
						{
							"internalType": "bytes32",
							"name": "_faceHash",
							"type": "bytes32"
						}
					],
					"name": "sendChainBaseTokenToFaceHash",
					"outputs": [],
					"stateMutability": "payable",
					"type": "function"
				},
				{
					"inputs": [
						{
							"internalType": "bytes32",
							"name": "_faceHash",
							"type": "bytes32"
						},
						{
							"internalType": "address",
							"name": "_token",
							"type": "address"
						},
						{
							"internalType": "uint256",
							"name": "_amount",
							"type": "uint256"
						}
					],
					"name": "sendTokenToFaceHash",
					"outputs": [],
					"stateMutability": "nonpayable",
					"type": "function"
				},
				{
					"inputs": [
						{
							"internalType": "bytes4",
							"name": "interfaceId",
							"type": "bytes4"
						}
					],
					"name": "supportsInterface",
					"outputs": [
						{
							"internalType": "bool",
							"name": "",
							"type": "bool"
						}
					],
					"stateMutability": "view",
					"type": "function"
				},
				{
					"inputs": [
						{
							"internalType": "address",
							"name": "_account",
							"type": "address"
						},
						{
							"internalType": "uint256",
							"name": "_accessLevel",
							"type": "uint256"
						}
					],
					"name": "verifyHealthWorker",
					"outputs": [],
					"stateMutability": "nonpayable",
					"type": "function"
				}
			],
			"devdoc": {
				"errors": {
					"AccessControlBadConfirmation()": [
						{
							"details": "The caller of a function is not the expected one. NOTE: Don't confuse with {AccessControlUnauthorizedAccount}."
						}
					],
					"AccessControlUnauthorizedAccount(address,bytes32)": [
						{
							"details": "The `account` is missing a role."
						}
					]
				},
				"events": {
					"RoleAdminChanged(bytes32,bytes32,bytes32)": {
						"details": "Emitted when `newAdminRole` is set as ``role``'s admin role, replacing `previousAdminRole` `DEFAULT_ADMIN_ROLE` is the starting admin for all roles, despite {RoleAdminChanged} not being emitted signaling this."
					},
					"RoleGranted(bytes32,address,address)": {
						"details": "Emitted when `account` is granted `role`. `sender` is the account that originated the contract call, an admin role bearer except when using {AccessControl-_setupRole}."
					},
					"RoleRevoked(bytes32,address,address)": {
						"details": "Emitted when `account` is revoked `role`. `sender` is the account that originated the contract call:   - if using `revokeRole`, it is the admin role bearer   - if using `renounceRole`, it is the role bearer (i.e. `account`)"
					}
				},
				"kind": "dev",
				"methods": {
					"getRoleAdmin(bytes32)": {
						"details": "Returns the admin role that controls `role`. See {grantRole} and {revokeRole}. To change a role's admin, use {_setRoleAdmin}."
					},
					"grantRole(bytes32,address)": {
						"details": "Grants `role` to `account`. If `account` had not been already granted `role`, emits a {RoleGranted} event. Requirements: - the caller must have ``role``'s admin role. May emit a {RoleGranted} event."
					},
					"hasRole(bytes32,address)": {
						"details": "Returns `true` if `account` has been granted `role`."
					},
					"renounceRole(bytes32,address)": {
						"details": "Revokes `role` from the calling account. Roles are often managed via {grantRole} and {revokeRole}: this function's purpose is to provide a mechanism for accounts to lose their privileges if they are compromised (such as when a trusted device is misplaced). If the calling account had been revoked `role`, emits a {RoleRevoked} event. Requirements: - the caller must be `callerConfirmation`. May emit a {RoleRevoked} event."
					},
					"revokeRole(bytes32,address)": {
						"details": "Revokes `role` from `account`. If `account` had been granted `role`, emits a {RoleRevoked} event. Requirements: - the caller must have ``role``'s admin role. May emit a {RoleRevoked} event."
					},
					"supportsInterface(bytes4)": {
						"details": "See {IERC165-supportsInterface}."
					}
				},
				"version": 1
			},
			"evm": {
				"assembly": "    /* \"src/Mediscan.sol\":231:5551  contract Mediscan is AccessControl {... */\n  mstore(0x40, 0x80)\n    /* \"src/Mediscan.sol\":1867:2205  constructor() {... */\n  callvalue\n  dup1\n  iszero\n  tag_1\n  jumpi\n  0x00\n  dup1\n  revert\ntag_1:\n  pop\n    /* \"src/Mediscan.sol\":1891:1933  _grantRole(DEFAULT_ADMIN_ROLE, msg.sender) */\n  tag_4\n    /* \"@openzeppelin/contracts/access/AccessControl.sol\":2232:2236  0x00 */\n  0x00\n    /* \"src/Mediscan.sol\":1902:1920  DEFAULT_ADMIN_ROLE */\n  dup1\n  shl\n    /* \"src/Mediscan.sol\":1922:1932  msg.sender */\n  caller\n    /* \"src/Mediscan.sol\":1891:1901  _grantRole */\n  shl(0x20, tag_5)\n    /* \"src/Mediscan.sol\":1891:1933  _grantRole(DEFAULT_ADMIN_ROLE, msg.sender) */\n  0x20\n  shr\n  jump\t// in\ntag_4:\n  pop\n    /* \"src/Mediscan.sol\":1943:1993  _setRoleAdmin(USER_ADMIN_ROLE, DEFAULT_ADMIN_ROLE) */\n  tag_6\n    /* \"src/Mediscan.sol\":368:403  abi.encodePacked(\"USER_ADMIN_ROLE\") */\n  add(0x20, mload(0x40))\n  tag_7\n  swap1\n  tag_8\n  jump\t// in\ntag_7:\n  mload(0x40)\n  0x20\n  dup2\n  dup4\n  sub\n  sub\n  dup2\n  mstore\n  swap1\n  0x40\n  mstore\n    /* \"src/Mediscan.sol\":358:404  keccak256(abi.encodePacked(\"USER_ADMIN_ROLE\")) */\n  dup1\n  mload\n  swap1\n  0x20\n  add\n  keccak256\n    /* \"@openzeppelin/contracts/access/AccessControl.sol\":2232:2236  0x00 */\n  0x00\n    /* \"src/Mediscan.sol\":1974:1992  DEFAULT_ADMIN_ROLE */\n  dup1\n  shl\n    /* \"src/Mediscan.sol\":1943:1956  _setRoleAdmin */\n  shl(0x20, tag_9)\n    /* \"src/Mediscan.sol\":1943:1993  _setRoleAdmin(USER_ADMIN_ROLE, DEFAULT_ADMIN_ROLE) */\n  0x20\n  shr\n  jump\t// in\ntag_6:\n    /* \"src/Mediscan.sol\":2003:2062  _setRoleAdmin(HEALTH_PROFESSIONAL_FULL, DEFAULT_ADMIN_ROLE) */\n  tag_10\n    /* \"src/Mediscan.sol\":571:615  abi.encodePacked(\"HEALTH_PROFESSIONAL_FULL\") */\n  add(0x20, mload(0x40))\n  tag_11\n  swap1\n  tag_12\n  jump\t// in\ntag_11:\n  mload(0x40)\n  0x20\n  dup2\n  dup4\n  sub\n  sub\n  dup2\n  mstore\n  swap1\n  0x40\n  mstore\n    /* \"src/Mediscan.sol\":561:616  keccak256(abi.encodePacked(\"HEALTH_PROFESSIONAL_FULL\")) */\n  dup1\n  mload\n  swap1\n  0x20\n  add\n  keccak256\n    /* \"@openzeppelin/contracts/access/AccessControl.sol\":2232:2236  0x00 */\n  0x00\n    /* \"src/Mediscan.sol\":2043:2061  DEFAULT_ADMIN_ROLE */\n  dup1\n  shl\n    /* \"src/Mediscan.sol\":2003:2016  _setRoleAdmin */\n  shl(0x20, tag_9)\n    /* \"src/Mediscan.sol\":2003:2062  _setRoleAdmin(HEALTH_PROFESSIONAL_FULL, DEFAULT_ADMIN_ROLE) */\n  0x20\n  shr\n  jump\t// in\ntag_10:\n    /* \"src/Mediscan.sol\":2072:2130  _setRoleAdmin(HEALTH_PROFESSIONAL_MID, DEFAULT_ADMIN_ROLE) */\n  tag_13\n    /* \"src/Mediscan.sol\":682:725  abi.encodePacked(\"HEALTH_PROFESSIONAL_MID\") */\n  add(0x20, mload(0x40))\n  tag_14\n  swap1\n  tag_15\n  jump\t// in\ntag_14:\n  mload(0x40)\n  0x20\n  dup2\n  dup4\n  sub\n  sub\n  dup2\n  mstore\n  swap1\n  0x40\n  mstore\n    /* \"src/Mediscan.sol\":672:726  keccak256(abi.encodePacked(\"HEALTH_PROFESSIONAL_MID\")) */\n  dup1\n  mload\n  swap1\n  0x20\n  add\n  keccak256\n    /* \"@openzeppelin/contracts/access/AccessControl.sol\":2232:2236  0x00 */\n  0x00\n    /* \"src/Mediscan.sol\":2111:2129  DEFAULT_ADMIN_ROLE */\n  dup1\n  shl\n    /* \"src/Mediscan.sol\":2072:2085  _setRoleAdmin */\n  shl(0x20, tag_9)\n    /* \"src/Mediscan.sol\":2072:2130  _setRoleAdmin(HEALTH_PROFESSIONAL_MID, DEFAULT_ADMIN_ROLE) */\n  0x20\n  shr\n  jump\t// in\ntag_13:\n    /* \"src/Mediscan.sol\":2140:2198  _setRoleAdmin(HEALTH_PROFESSIONAL_LOW, DEFAULT_ADMIN_ROLE) */\n  tag_16\n    /* \"src/Mediscan.sol\":792:835  abi.encodePacked(\"HEALTH_PROFESSIONAL_LOW\") */\n  add(0x20, mload(0x40))\n  tag_17\n  swap1\n  tag_18\n  jump\t// in\ntag_17:\n  mload(0x40)\n  0x20\n  dup2\n  dup4\n  sub\n  sub\n  dup2\n  mstore\n  swap1\n  0x40\n  mstore\n    /* \"src/Mediscan.sol\":782:836  keccak256(abi.encodePacked(\"HEALTH_PROFESSIONAL_LOW\")) */\n  dup1\n  mload\n  swap1\n  0x20\n  add\n  keccak256\n    /* \"@openzeppelin/contracts/access/AccessControl.sol\":2232:2236  0x00 */\n  0x00\n    /* \"src/Mediscan.sol\":2179:2197  DEFAULT_ADMIN_ROLE */\n  dup1\n  shl\n    /* \"src/Mediscan.sol\":2140:2153  _setRoleAdmin */\n  shl(0x20, tag_9)\n    /* \"src/Mediscan.sol\":2140:2198  _setRoleAdmin(HEALTH_PROFESSIONAL_LOW, DEFAULT_ADMIN_ROLE) */\n  0x20\n  shr\n  jump\t// in\ntag_16:\n    /* \"src/Mediscan.sol\":231:5551  contract Mediscan is AccessControl {... */\n  jump(tag_19)\n    /* \"@openzeppelin/contracts/access/AccessControl.sol\":6179:6495  function _grantRole(bytes32 role, address account) internal virtual returns (bool) {... */\ntag_5:\n    /* \"@openzeppelin/contracts/access/AccessControl.sol\":6256:6260  bool */\n  0x00\n    /* \"@openzeppelin/contracts/access/AccessControl.sol\":6277:6299  hasRole(role, account) */\n  tag_21\n    /* \"@openzeppelin/contracts/access/AccessControl.sol\":6285:6289  role */\n  dup4\n    /* \"@openzeppelin/contracts/access/AccessControl.sol\":6291:6298  account */\n  dup4\n    /* \"@openzeppelin/contracts/access/AccessControl.sol\":6277:6284  hasRole */\n  shl(0x20, tag_22)\n    /* \"@openzeppelin/contracts/access/AccessControl.sol\":6277:6299  hasRole(role, account) */\n  0x20\n  shr\n  jump\t// in\ntag_21:\n    /* \"@openzeppelin/contracts/access/AccessControl.sol\":6272:6489  if (!hasRole(role, account)) {... */\n  tag_23\n  jumpi\n    /* \"@openzeppelin/contracts/access/AccessControl.sol\":6347:6351  true */\n  0x01\n    /* \"@openzeppelin/contracts/access/AccessControl.sol\":6315:6321  _roles */\n  0x00\n    /* \"@openzeppelin/contracts/access/AccessControl.sol\":6315:6327  _roles[role] */\n  dup1\n    /* \"@openzeppelin/contracts/access/AccessControl.sol\":6322:6326  role */\n  dup6\n    /* \"@openzeppelin/contracts/access/AccessControl.sol\":6315:6327  _roles[role] */\n  dup2\n  mstore\n  0x20\n  add\n  swap1\n  dup2\n  mstore\n  0x20\n  add\n  0x00\n  keccak256\n    /* \"@openzeppelin/contracts/access/AccessControl.sol\":6315:6335  _roles[role].hasRole */\n  0x00\n  add\n    /* \"@openzeppelin/contracts/access/AccessControl.sol\":6315:6344  _roles[role].hasRole[account] */\n  0x00\n    /* \"@openzeppelin/contracts/access/AccessControl.sol\":6336:6343  account */\n  dup5\n    /* \"@openzeppelin/contracts/access/AccessControl.sol\":6315:6344  _roles[role].hasRole[account] */\n  0xffffffffffffffffffffffffffffffffffffffff\n  and\n  0xffffffffffffffffffffffffffffffffffffffff\n  and\n  dup2\n  mstore\n  0x20\n  add\n  swap1\n  dup2\n  mstore\n  0x20\n  add\n  0x00\n  keccak256\n  0x00\n    /* \"@openzeppelin/contracts/access/AccessControl.sol\":6315:6351  _roles[role].hasRole[account] = true */\n  0x0100\n  exp\n  dup2\n  sload\n  dup2\n  0xff\n  mul\n  not\n  and\n  swap1\n  dup4\n  iszero\n  iszero\n  mul\n  or\n  swap1\n  sstore\n  pop\n    /* \"@openzeppelin/contracts/access/AccessControl.sol\":6397:6409  _msgSender() */\n  tag_24\n    /* \"@openzeppelin/contracts/access/AccessControl.sol\":6397:6407  _msgSender */\n  shl(0x20, tag_25)\n    /* \"@openzeppelin/contracts/access/AccessControl.sol\":6397:6409  _msgSender() */\n  0x20\n  shr\n  jump\t// in\ntag_24:\n    /* \"@openzeppelin/contracts/access/AccessControl.sol\":6370:6410  RoleGranted(role, account, _msgSender()) */\n  0xffffffffffffffffffffffffffffffffffffffff\n  and\n    /* \"@openzeppelin/contracts/access/AccessControl.sol\":6388:6395  account */\n  dup3\n    /* \"@openzeppelin/contracts/access/AccessControl.sol\":6370:6410  RoleGranted(role, account, _msgSender()) */\n  0xffffffffffffffffffffffffffffffffffffffff\n  and\n    /* \"@openzeppelin/contracts/access/AccessControl.sol\":6382:6386  role */\n  dup5\n    /* \"@openzeppelin/contracts/access/AccessControl.sol\":6370:6410  RoleGranted(role, account, _msgSender()) */\n  0x2f8788117e7eff1d82e926ec794901d17c78024a50270940304540a733656f0d\n  mload(0x40)\n  mload(0x40)\n  dup1\n  swap2\n  sub\n  swap1\n  log4\n    /* \"@openzeppelin/contracts/access/AccessControl.sol\":6431:6435  true */\n  0x01\n    /* \"@openzeppelin/contracts/access/AccessControl.sol\":6424:6435  return true */\n  swap1\n  pop\n  jump(tag_20)\n    /* \"@openzeppelin/contracts/access/AccessControl.sol\":6272:6489  if (!hasRole(role, account)) {... */\ntag_23:\n    /* \"@openzeppelin/contracts/access/AccessControl.sol\":6473:6478  false */\n  0x00\n    /* \"@openzeppelin/contracts/access/AccessControl.sol\":6466:6478  return false */\n  swap1\n  pop\n    /* \"@openzeppelin/contracts/access/AccessControl.sol\":6179:6495  function _grantRole(bytes32 role, address account) internal virtual returns (bool) {... */\ntag_20:\n  swap3\n  swap2\n  pop\n  pop\n  jump\t// out\n    /* \"@openzeppelin/contracts/access/AccessControl.sol\":5698:5945  function _setRoleAdmin(bytes32 role, bytes32 adminRole) internal virtual {... */\ntag_9:\n    /* \"@openzeppelin/contracts/access/AccessControl.sol\":5781:5806  bytes32 previousAdminRole */\n  0x00\n    /* \"@openzeppelin/contracts/access/AccessControl.sol\":5809:5827  getRoleAdmin(role) */\n  tag_28\n    /* \"@openzeppelin/contracts/access/AccessControl.sol\":5822:5826  role */\n  dup4\n    /* \"@openzeppelin/contracts/access/AccessControl.sol\":5809:5821  getRoleAdmin */\n  shl(0x20, tag_29)\n    /* \"@openzeppelin/contracts/access/AccessControl.sol\":5809:5827  getRoleAdmin(role) */\n  0x20\n  shr\n  jump\t// in\ntag_28:\n    /* \"@openzeppelin/contracts/access/AccessControl.sol\":5781:5827  bytes32 previousAdminRole = getRoleAdmin(role) */\n  swap1\n  pop\n    /* \"@openzeppelin/contracts/access/AccessControl.sol\":5862:5871  adminRole */\n  dup2\n    /* \"@openzeppelin/contracts/access/AccessControl.sol\":5837:5843  _roles */\n  0x00\n    /* \"@openzeppelin/contracts/access/AccessControl.sol\":5837:5849  _roles[role] */\n  dup1\n    /* \"@openzeppelin/contracts/access/AccessControl.sol\":5844:5848  role */\n  dup6\n    /* \"@openzeppelin/contracts/access/AccessControl.sol\":5837:5849  _roles[role] */\n  dup2\n  mstore\n  0x20\n  add\n  swap1\n  dup2\n  mstore\n  0x20\n  add\n  0x00\n  keccak256\n    /* \"@openzeppelin/contracts/access/AccessControl.sol\":5837:5859  _roles[role].adminRole */\n  0x01\n  add\n    /* \"@openzeppelin/contracts/access/AccessControl.sol\":5837:5871  _roles[role].adminRole = adminRole */\n  dup2\n  swap1\n  sstore\n  pop\n    /* \"@openzeppelin/contracts/access/AccessControl.sol\":5928:5937  adminRole */\n  dup2\n    /* \"@openzeppelin/contracts/access/AccessControl.sol\":5909:5926  previousAdminRole */\n  dup2\n    /* \"@openzeppelin/contracts/access/AccessControl.sol\":5903:5907  role */\n  dup5\n    /* \"@openzeppelin/contracts/access/AccessControl.sol\":5886:5938  RoleAdminChanged(role, previousAdminRole, adminRole) */\n  0xbd79b86ffe0ab8e8776151514217cd7cacd52c909f66475c3af44e129f0b00ff\n  mload(0x40)\n  mload(0x40)\n  dup1\n  swap2\n  sub\n  swap1\n  log4\n    /* \"@openzeppelin/contracts/access/AccessControl.sol\":5771:5945  {... */\n  pop\n    /* \"@openzeppelin/contracts/access/AccessControl.sol\":5698:5945  function _setRoleAdmin(bytes32 role, bytes32 adminRole) internal virtual {... */\n  pop\n  pop\n  jump\t// out\n    /* \"@openzeppelin/contracts/access/AccessControl.sol\":2854:2990  function hasRole(bytes32 role, address account) public view virtual returns (bool) {... */\ntag_22:\n    /* \"@openzeppelin/contracts/access/AccessControl.sol\":2931:2935  bool */\n  0x00\n    /* \"@openzeppelin/contracts/access/AccessControl.sol\":2954:2960  _roles */\n  dup1\n    /* \"@openzeppelin/contracts/access/AccessControl.sol\":2954:2966  _roles[role] */\n  0x00\n    /* \"@openzeppelin/contracts/access/AccessControl.sol\":2961:2965  role */\n  dup5\n    /* \"@openzeppelin/contracts/access/AccessControl.sol\":2954:2966  _roles[role] */\n  dup2\n  mstore\n  0x20\n  add\n  swap1\n  dup2\n  mstore\n  0x20\n  add\n  0x00\n  keccak256\n    /* \"@openzeppelin/contracts/access/AccessControl.sol\":2954:2974  _roles[role].hasRole */\n  0x00\n  add\n    /* \"@openzeppelin/contracts/access/AccessControl.sol\":2954:2983  _roles[role].hasRole[account] */\n  0x00\n    /* \"@openzeppelin/contracts/access/AccessControl.sol\":2975:2982  account */\n  dup4\n    /* \"@openzeppelin/contracts/access/AccessControl.sol\":2954:2983  _roles[role].hasRole[account] */\n  0xffffffffffffffffffffffffffffffffffffffff\n  and\n  0xffffffffffffffffffffffffffffffffffffffff\n  and\n  dup2\n  mstore\n  0x20\n  add\n  swap1\n  dup2\n  mstore\n  0x20\n  add\n  0x00\n  keccak256\n  0x00\n  swap1\n  sload\n  swap1\n  0x0100\n  exp\n  swap1\n  div\n  0xff\n  and\n    /* \"@openzeppelin/contracts/access/AccessControl.sol\":2947:2983  return _roles[role].hasRole[account] */\n  swap1\n  pop\n    /* \"@openzeppelin/contracts/access/AccessControl.sol\":2854:2990  function hasRole(bytes32 role, address account) public view virtual returns (bool) {... */\n  swap3\n  swap2\n  pop\n  pop\n  jump\t// out\n    /* \"@openzeppelin/contracts/utils/Context.sol\":656:752  function _msgSender() internal view virtual returns (address) {... */\ntag_25:\n    /* \"@openzeppelin/contracts/utils/Context.sol\":709:716  address */\n  0x00\n    /* \"@openzeppelin/contracts/utils/Context.sol\":735:745  msg.sender */\n  caller\n    /* \"@openzeppelin/contracts/utils/Context.sol\":728:745  return msg.sender */\n  swap1\n  pop\n    /* \"@openzeppelin/contracts/utils/Context.sol\":656:752  function _msgSender() internal view virtual returns (address) {... */\n  swap1\n  jump\t// out\n    /* \"@openzeppelin/contracts/access/AccessControl.sol\":3810:3930  function getRoleAdmin(bytes32 role) public view virtual returns (bytes32) {... */\ntag_29:\n    /* \"@openzeppelin/contracts/access/AccessControl.sol\":3875:3882  bytes32 */\n  0x00\n    /* \"@openzeppelin/contracts/access/AccessControl.sol\":3901:3907  _roles */\n  dup1\n    /* \"@openzeppelin/contracts/access/AccessControl.sol\":3901:3913  _roles[role] */\n  0x00\n    /* \"@openzeppelin/contracts/access/AccessControl.sol\":3908:3912  role */\n  dup4\n    /* \"@openzeppelin/contracts/access/AccessControl.sol\":3901:3913  _roles[role] */\n  dup2\n  mstore\n  0x20\n  add\n  swap1\n  dup2\n  mstore\n  0x20\n  add\n  0x00\n  keccak256\n    /* \"@openzeppelin/contracts/access/AccessControl.sol\":3901:3923  _roles[role].adminRole */\n  0x01\n  add\n  sload\n    /* \"@openzeppelin/contracts/access/AccessControl.sol\":3894:3923  return _roles[role].adminRole */\n  swap1\n  pop\n    /* \"@openzeppelin/contracts/access/AccessControl.sol\":3810:3930  function getRoleAdmin(bytes32 role) public view virtual returns (bytes32) {... */\n  swap2\n  swap1\n  pop\n  jump\t// out\n    /* \"#utility.yul\":7:155   */\ntag_33:\n    /* \"#utility.yul\":109:120   */\n  0x00\n    /* \"#utility.yul\":146:149   */\n  dup2\n    /* \"#utility.yul\":131:149   */\n  swap1\n  pop\n    /* \"#utility.yul\":7:155   */\n  swap3\n  swap2\n  pop\n  pop\n  jump\t// out\n    /* \"#utility.yul\":161:326   */\ntag_34:\n    /* \"#utility.yul\":301:318   */\n  0x555345525f41444d494e5f524f4c450000000000000000000000000000000000\n    /* \"#utility.yul\":297:298   */\n  0x00\n    /* \"#utility.yul\":289:295   */\n  dup3\n    /* \"#utility.yul\":285:299   */\n  add\n    /* \"#utility.yul\":278:319   */\n  mstore\n    /* \"#utility.yul\":161:326   */\n  pop\n  jump\t// out\n    /* \"#utility.yul\":332:734   */\ntag_35:\n    /* \"#utility.yul\":492:495   */\n  0x00\n    /* \"#utility.yul\":513:598   */\n  tag_46\n    /* \"#utility.yul\":595:597   */\n  0x0f\n    /* \"#utility.yul\":590:593   */\n  dup4\n    /* \"#utility.yul\":513:598   */\n  tag_33\n  jump\t// in\ntag_46:\n    /* \"#utility.yul\":506:598   */\n  swap2\n  pop\n    /* \"#utility.yul\":607:700   */\n  tag_47\n    /* \"#utility.yul\":696:699   */\n  dup3\n    /* \"#utility.yul\":607:700   */\n  tag_34\n  jump\t// in\ntag_47:\n    /* \"#utility.yul\":725:727   */\n  0x0f\n    /* \"#utility.yul\":720:723   */\n  dup3\n    /* \"#utility.yul\":716:728   */\n  add\n    /* \"#utility.yul\":709:728   */\n  swap1\n  pop\n    /* \"#utility.yul\":332:734   */\n  swap2\n  swap1\n  pop\n  jump\t// out\n    /* \"#utility.yul\":740:1121   */\ntag_8:\n    /* \"#utility.yul\":925:928   */\n  0x00\n    /* \"#utility.yul\":947:1095   */\n  tag_49\n    /* \"#utility.yul\":1091:1094   */\n  dup3\n    /* \"#utility.yul\":947:1095   */\n  tag_35\n  jump\t// in\ntag_49:\n    /* \"#utility.yul\":940:1095   */\n  swap2\n  pop\n    /* \"#utility.yul\":1112:1115   */\n  dup2\n    /* \"#utility.yul\":1105:1115   */\n  swap1\n  pop\n    /* \"#utility.yul\":740:1121   */\n  swap2\n  swap1\n  pop\n  jump\t// out\n    /* \"#utility.yul\":1127:1301   */\ntag_36:\n    /* \"#utility.yul\":1267:1293   */\n  0x4845414c54485f50524f46455353494f4e414c5f46554c4c0000000000000000\n    /* \"#utility.yul\":1263:1264   */\n  0x00\n    /* \"#utility.yul\":1255:1261   */\n  dup3\n    /* \"#utility.yul\":1251:1265   */\n  add\n    /* \"#utility.yul\":1244:1294   */\n  mstore\n    /* \"#utility.yul\":1127:1301   */\n  pop\n  jump\t// out\n    /* \"#utility.yul\":1307:1709   */\ntag_37:\n    /* \"#utility.yul\":1467:1470   */\n  0x00\n    /* \"#utility.yul\":1488:1573   */\n  tag_52\n    /* \"#utility.yul\":1570:1572   */\n  0x18\n    /* \"#utility.yul\":1565:1568   */\n  dup4\n    /* \"#utility.yul\":1488:1573   */\n  tag_33\n  jump\t// in\ntag_52:\n    /* \"#utility.yul\":1481:1573   */\n  swap2\n  pop\n    /* \"#utility.yul\":1582:1675   */\n  tag_53\n    /* \"#utility.yul\":1671:1674   */\n  dup3\n    /* \"#utility.yul\":1582:1675   */\n  tag_36\n  jump\t// in\ntag_53:\n    /* \"#utility.yul\":1700:1702   */\n  0x18\n    /* \"#utility.yul\":1695:1698   */\n  dup3\n    /* \"#utility.yul\":1691:1703   */\n  add\n    /* \"#utility.yul\":1684:1703   */\n  swap1\n  pop\n    /* \"#utility.yul\":1307:1709   */\n  swap2\n  swap1\n  pop\n  jump\t// out\n    /* \"#utility.yul\":1715:2096   */\ntag_12:\n    /* \"#utility.yul\":1900:1903   */\n  0x00\n    /* \"#utility.yul\":1922:2070   */\n  tag_55\n    /* \"#utility.yul\":2066:2069   */\n  dup3\n    /* \"#utility.yul\":1922:2070   */\n  tag_37\n  jump\t// in\ntag_55:\n    /* \"#utility.yul\":1915:2070   */\n  swap2\n  pop\n    /* \"#utility.yul\":2087:2090   */\n  dup2\n    /* \"#utility.yul\":2080:2090   */\n  swap1\n  pop\n    /* \"#utility.yul\":1715:2096   */\n  swap2\n  swap1\n  pop\n  jump\t// out\n    /* \"#utility.yul\":2102:2275   */\ntag_38:\n    /* \"#utility.yul\":2242:2267   */\n  0x4845414c54485f50524f46455353494f4e414c5f4d4944000000000000000000\n    /* \"#utility.yul\":2238:2239   */\n  0x00\n    /* \"#utility.yul\":2230:2236   */\n  dup3\n    /* \"#utility.yul\":2226:2240   */\n  add\n    /* \"#utility.yul\":2219:2268   */\n  mstore\n    /* \"#utility.yul\":2102:2275   */\n  pop\n  jump\t// out\n    /* \"#utility.yul\":2281:2683   */\ntag_39:\n    /* \"#utility.yul\":2441:2444   */\n  0x00\n    /* \"#utility.yul\":2462:2547   */\n  tag_58\n    /* \"#utility.yul\":2544:2546   */\n  0x17\n    /* \"#utility.yul\":2539:2542   */\n  dup4\n    /* \"#utility.yul\":2462:2547   */\n  tag_33\n  jump\t// in\ntag_58:\n    /* \"#utility.yul\":2455:2547   */\n  swap2\n  pop\n    /* \"#utility.yul\":2556:2649   */\n  tag_59\n    /* \"#utility.yul\":2645:2648   */\n  dup3\n    /* \"#utility.yul\":2556:2649   */\n  tag_38\n  jump\t// in\ntag_59:\n    /* \"#utility.yul\":2674:2676   */\n  0x17\n    /* \"#utility.yul\":2669:2672   */\n  dup3\n    /* \"#utility.yul\":2665:2677   */\n  add\n    /* \"#utility.yul\":2658:2677   */\n  swap1\n  pop\n    /* \"#utility.yul\":2281:2683   */\n  swap2\n  swap1\n  pop\n  jump\t// out\n    /* \"#utility.yul\":2689:3070   */\ntag_15:\n    /* \"#utility.yul\":2874:2877   */\n  0x00\n    /* \"#utility.yul\":2896:3044   */\n  tag_61\n    /* \"#utility.yul\":3040:3043   */\n  dup3\n    /* \"#utility.yul\":2896:3044   */\n  tag_39\n  jump\t// in\ntag_61:\n    /* \"#utility.yul\":2889:3044   */\n  swap2\n  pop\n    /* \"#utility.yul\":3061:3064   */\n  dup2\n    /* \"#utility.yul\":3054:3064   */\n  swap1\n  pop\n    /* \"#utility.yul\":2689:3070   */\n  swap2\n  swap1\n  pop\n  jump\t// out\n    /* \"#utility.yul\":3076:3249   */\ntag_40:\n    /* \"#utility.yul\":3216:3241   */\n  0x4845414c54485f50524f46455353494f4e414c5f4c4f57000000000000000000\n    /* \"#utility.yul\":3212:3213   */\n  0x00\n    /* \"#utility.yul\":3204:3210   */\n  dup3\n    /* \"#utility.yul\":3200:3214   */\n  add\n    /* \"#utility.yul\":3193:3242   */\n  mstore\n    /* \"#utility.yul\":3076:3249   */\n  pop\n  jump\t// out\n    /* \"#utility.yul\":3255:3657   */\ntag_41:\n    /* \"#utility.yul\":3415:3418   */\n  0x00\n    /* \"#utility.yul\":3436:3521   */\n  tag_64\n    /* \"#utility.yul\":3518:3520   */\n  0x17\n    /* \"#utility.yul\":3513:3516   */\n  dup4\n    /* \"#utility.yul\":3436:3521   */\n  tag_33\n  jump\t// in\ntag_64:\n    /* \"#utility.yul\":3429:3521   */\n  swap2\n  pop\n    /* \"#utility.yul\":3530:3623   */\n  tag_65\n    /* \"#utility.yul\":3619:3622   */\n  dup3\n    /* \"#utility.yul\":3530:3623   */\n  tag_40\n  jump\t// in\ntag_65:\n    /* \"#utility.yul\":3648:3650   */\n  0x17\n    /* \"#utility.yul\":3643:3646   */\n  dup3\n    /* \"#utility.yul\":3639:3651   */\n  add\n    /* \"#utility.yul\":3632:3651   */\n  swap1\n  pop\n    /* \"#utility.yul\":3255:3657   */\n  swap2\n  swap1\n  pop\n  jump\t// out\n    /* \"#utility.yul\":3663:4044   */\ntag_18:\n    /* \"#utility.yul\":3848:3851   */\n  0x00\n    /* \"#utility.yul\":3870:4018   */\n  tag_67\n    /* \"#utility.yul\":4014:4017   */\n  dup3\n    /* \"#utility.yul\":3870:4018   */\n  tag_41\n  jump\t// in\ntag_67:\n    /* \"#utility.yul\":3863:4018   */\n  swap2\n  pop\n    /* \"#utility.yul\":4035:4038   */\n  dup2\n    /* \"#utility.yul\":4028:4038   */\n  swap1\n  pop\n    /* \"#utility.yul\":3663:4044   */\n  swap2\n  swap1\n  pop\n  jump\t// out\n    /* \"src/Mediscan.sol\":231:5551  contract Mediscan is AccessControl {... */\ntag_19:\n  dataSize(sub_0)\n  dup1\n  dataOffset(sub_0)\n  0x00\n  codecopy\n  0x00\n  return\nstop\n\nsub_0: assembly {\n        /* \"src/Mediscan.sol\":231:5551  contract Mediscan is AccessControl {... */\n      mstore(0x40, 0x80)\n      jumpi(tag_1, lt(calldatasize, 0x04))\n      shr(0xe0, calldataload(0x00))\n      dup1\n      0x585f4c49\n      gt\n      tag_29\n      jumpi\n      dup1\n      0xd6770522\n      gt\n      tag_30\n      jumpi\n      dup1\n      0xe096cfed\n      gt\n      tag_31\n      jumpi\n      dup1\n      0xe096cfed\n      eq\n      tag_25\n      jumpi\n      dup1\n      0xe6d6384a\n      eq\n      tag_26\n      jumpi\n      dup1\n      0xf0f7af4d\n      eq\n      tag_27\n      jumpi\n      dup1\n      0xf2c80089\n      eq\n      tag_28\n      jumpi\n      jump(tag_1)\n    tag_31:\n      dup1\n      0xd6770522\n      eq\n      tag_22\n      jumpi\n      dup1\n      0xd7b8a07a\n      eq\n      tag_23\n      jumpi\n      dup1\n      0xdd65ab1f\n      eq\n      tag_24\n      jumpi\n      jump(tag_1)\n    tag_30:\n      dup1\n      0xa217fddf\n      gt\n      tag_32\n      jumpi\n      dup1\n      0xa217fddf\n      eq\n      tag_18\n      jumpi\n      dup1\n      0xb24b56b0\n      eq\n      tag_19\n      jumpi\n      dup1\n      0xb89f9ac1\n      eq\n      tag_20\n      jumpi\n      dup1\n      0xd547741f\n      eq\n      tag_21\n      jumpi\n      jump(tag_1)\n    tag_32:\n      dup1\n      0x585f4c49\n      eq\n      tag_15\n      jumpi\n      dup1\n      0x5ea06a9c\n      eq\n      tag_16\n      jumpi\n      dup1\n      0x91d14854\n      eq\n      tag_17\n      jumpi\n      jump(tag_1)\n    tag_29:\n      dup1\n      0x2f2ff15d\n      gt\n      tag_33\n      jumpi\n      dup1\n      0x3fd2c4f1\n      gt\n      tag_34\n      jumpi\n      dup1\n      0x3fd2c4f1\n      eq\n      tag_11\n      jumpi\n      dup1\n      0x48570ee6\n      eq\n      tag_12\n      jumpi\n      dup1\n      0x51fea917\n      eq\n      tag_13\n      jumpi\n      dup1\n      0x55f93e6e\n      eq\n      tag_14\n      jumpi\n      jump(tag_1)\n    tag_34:\n      dup1\n      0x2f2ff15d\n      eq\n      tag_8\n      jumpi\n      dup1\n      0x2f432261\n      eq\n      tag_9\n      jumpi\n      dup1\n      0x36568abe\n      eq\n      tag_10\n      jumpi\n      jump(tag_1)\n    tag_33:\n      dup1\n      0x01ffc9a7\n      eq\n      tag_2\n      jumpi\n      dup1\n      0x09c19362\n      eq\n      tag_3\n      jumpi\n      dup1\n      0x0adbbdd3\n      eq\n      tag_4\n      jumpi\n      dup1\n      0x0fa750ff\n      eq\n      tag_5\n      jumpi\n      dup1\n      0x248a9ca3\n      eq\n      tag_6\n      jumpi\n      dup1\n      0x24ccc1a6\n      eq\n      tag_7\n      jumpi\n    tag_1:\n      0x00\n      dup1\n      revert\n        /* \"@openzeppelin/contracts/access/AccessControl.sol\":2565:2767  function supportsInterface(bytes4 interfaceId) public view virtual override returns (bool) {... */\n    tag_2:\n      callvalue\n      dup1\n      iszero\n      tag_35\n      jumpi\n      0x00\n      dup1\n      revert\n    tag_35:\n      pop\n      tag_36\n      0x04\n      dup1\n      calldatasize\n      sub\n      dup2\n      add\n      swap1\n      tag_37\n      swap2\n      swap1\n      tag_38\n      jump\t// in\n    tag_37:\n      tag_39\n      jump\t// in\n    tag_36:\n      mload(0x40)\n      tag_40\n      swap2\n      swap1\n      tag_41\n      jump\t// in\n    tag_40:\n      mload(0x40)\n      dup1\n      swap2\n      sub\n      swap1\n      return\n        /* \"src/Mediscan.sol\":2618:2743  function isFaceHashRegistered(bytes32 _hash) external view returns (bool) {... */\n    tag_3:\n      callvalue\n      dup1\n      iszero\n      tag_42\n      jumpi\n      0x00\n      dup1\n      revert\n    tag_42:\n      pop\n      tag_43\n      0x04\n      dup1\n      calldatasize\n      sub\n      dup2\n      add\n      swap1\n      tag_44\n      swap2\n      swap1\n      tag_45\n      jump\t// in\n    tag_44:\n      tag_46\n      jump\t// in\n    tag_43:\n      mload(0x40)\n      tag_47\n      swap2\n      swap1\n      tag_41\n      jump\t// in\n    tag_47:\n      mload(0x40)\n      dup1\n      swap2\n      sub\n      swap1\n      return\n        /* \"src/Mediscan.sol\":2749:3125  function sendTokenToFaceHash(bytes32 _faceHash, address _token, uint256 _amount) external {... */\n    tag_4:\n      callvalue\n      dup1\n      iszero\n      tag_48\n      jumpi\n      0x00\n      dup1\n      revert\n    tag_48:\n      pop\n      tag_49\n      0x04\n      dup1\n      calldatasize\n      sub\n      dup2\n      add\n      swap1\n      tag_50\n      swap2\n      swap1\n      tag_51\n      jump\t// in\n    tag_50:\n      tag_52\n      jump\t// in\n    tag_49:\n      stop\n        /* \"src/Mediscan.sol\":3131:3416  function sendChainBaseTokenToFaceHash(bytes32 _faceHash) external payable {... */\n    tag_5:\n      tag_53\n      0x04\n      dup1\n      calldatasize\n      sub\n      dup2\n      add\n      swap1\n      tag_54\n      swap2\n      swap1\n      tag_45\n      jump\t// in\n    tag_54:\n      tag_55\n      jump\t// in\n    tag_53:\n      stop\n        /* \"@openzeppelin/contracts/access/AccessControl.sol\":3810:3930  function getRoleAdmin(bytes32 role) public view virtual returns (bytes32) {... */\n    tag_6:\n      callvalue\n      dup1\n      iszero\n      tag_56\n      jumpi\n      0x00\n      dup1\n      revert\n    tag_56:\n      pop\n      tag_57\n      0x04\n      dup1\n      calldatasize\n      sub\n      dup2\n      add\n      swap1\n      tag_58\n      swap2\n      swap1\n      tag_45\n      jump\t// in\n    tag_58:\n      tag_59\n      jump\t// in\n    tag_57:\n      mload(0x40)\n      tag_60\n      swap2\n      swap1\n      tag_61\n      jump\t// in\n    tag_60:\n      mload(0x40)\n      dup1\n      swap2\n      sub\n      swap1\n      return\n        /* \"src/Mediscan.sol\":902:983  mapping(bytes32 => mapping(address => uint256)) public balanceForTokenForFaceHash */\n    tag_7:\n      callvalue\n      dup1\n      iszero\n      tag_62\n      jumpi\n      0x00\n      dup1\n      revert\n    tag_62:\n      pop\n      tag_63\n      0x04\n      dup1\n      calldatasize\n      sub\n      dup2\n      add\n      swap1\n      tag_64\n      swap2\n      swap1\n      tag_65\n      jump\t// in\n    tag_64:\n      tag_66\n      jump\t// in\n    tag_63:\n      mload(0x40)\n      tag_67\n      swap2\n      swap1\n      tag_68\n      jump\t// in\n    tag_67:\n      mload(0x40)\n      dup1\n      swap2\n      sub\n      swap1\n      return\n        /* \"@openzeppelin/contracts/access/AccessControl.sol\":4226:4362  function grantRole(bytes32 role, address account) public virtual onlyRole(getRoleAdmin(role)) {... */\n    tag_8:\n      callvalue\n      dup1\n      iszero\n      tag_69\n      jumpi\n      0x00\n      dup1\n      revert\n    tag_69:\n      pop\n      tag_70\n      0x04\n      dup1\n      calldatasize\n      sub\n      dup2\n      add\n      swap1\n      tag_71\n      swap2\n      swap1\n      tag_65\n      jump\t// in\n    tag_71:\n      tag_72\n      jump\t// in\n    tag_70:\n      stop\n        /* \"src/Mediscan.sol\":843:895  mapping(bytes32 => bool) public registeredFaceHashes */\n    tag_9:\n      callvalue\n      dup1\n      iszero\n      tag_73\n      jumpi\n      0x00\n      dup1\n      revert\n    tag_73:\n      pop\n      tag_74\n      0x04\n      dup1\n      calldatasize\n      sub\n      dup2\n      add\n      swap1\n      tag_75\n      swap2\n      swap1\n      tag_45\n      jump\t// in\n    tag_75:\n      tag_76\n      jump\t// in\n    tag_74:\n      mload(0x40)\n      tag_77\n      swap2\n      swap1\n      tag_41\n      jump\t// in\n    tag_77:\n      mload(0x40)\n      dup1\n      swap2\n      sub\n      swap1\n      return\n        /* \"@openzeppelin/contracts/access/AccessControl.sol\":5328:5573  function renounceRole(bytes32 role, address callerConfirmation) public virtual {... */\n    tag_10:\n      callvalue\n      dup1\n      iszero\n      tag_78\n      jumpi\n      0x00\n      dup1\n      revert\n    tag_78:\n      pop\n      tag_79\n      0x04\n      dup1\n      calldatasize\n      sub\n      dup2\n      add\n      swap1\n      tag_80\n      swap2\n      swap1\n      tag_65\n      jump\t// in\n    tag_80:\n      tag_81\n      jump\t// in\n    tag_79:\n      stop\n        /* \"src/Mediscan.sol\":3422:3871  function payoutTokenForFaceHash(bytes32 _faceHash, address _token,  address _account) external onlyPaymentAdmin {... */\n    tag_11:\n      callvalue\n      dup1\n      iszero\n      tag_82\n      jumpi\n      0x00\n      dup1\n      revert\n    tag_82:\n      pop\n      tag_83\n      0x04\n      dup1\n      calldatasize\n      sub\n      dup2\n      add\n      swap1\n      tag_84\n      swap2\n      swap1\n      tag_85\n      jump\t// in\n    tag_84:\n      tag_86\n      jump\t// in\n    tag_83:\n      stop\n        /* \"src/Mediscan.sol\":4860:5378  function verifyHealthWorker(address _account, uint256 _accessLevel) external onlyAdmin {... */\n    tag_12:\n      callvalue\n      dup1\n      iszero\n      tag_87\n      jumpi\n      0x00\n      dup1\n      revert\n    tag_87:\n      pop\n      tag_88\n      0x04\n      dup1\n      calldatasize\n      sub\n      dup2\n      add\n      swap1\n      tag_89\n      swap2\n      swap1\n      tag_90\n      jump\t// in\n    tag_89:\n      tag_91\n      jump\t// in\n    tag_88:\n      stop\n        /* \"src/Mediscan.sol\":2211:2612  function getAccessLevelForAddress(address _address) external view returns (uint256) {... */\n    tag_13:\n      callvalue\n      dup1\n      iszero\n      tag_92\n      jumpi\n      0x00\n      dup1\n      revert\n    tag_92:\n      pop\n      tag_93\n      0x04\n      dup1\n      calldatasize\n      sub\n      dup2\n      add\n      swap1\n      tag_94\n      swap2\n      swap1\n      tag_95\n      jump\t// in\n    tag_94:\n      tag_96\n      jump\t// in\n    tag_93:\n      mload(0x40)\n      tag_97\n      swap2\n      swap1\n      tag_68\n      jump\t// in\n    tag_97:\n      mload(0x40)\n      dup1\n      swap2\n      sub\n      swap1\n      return\n        /* \"src/Mediscan.sol\":3877:4358  function payoutChainBaseTokenToFaceHash(bytes32 _faceHash, address _account) external onlyPaymentAdmin {... */\n    tag_14:\n      callvalue\n      dup1\n      iszero\n      tag_98\n      jumpi\n      0x00\n      dup1\n      revert\n    tag_98:\n      pop\n      tag_99\n      0x04\n      dup1\n      calldatasize\n      sub\n      dup2\n      add\n      swap1\n      tag_100\n      swap2\n      swap1\n      tag_65\n      jump\t// in\n    tag_100:\n      tag_101\n      jump\t// in\n    tag_99:\n      stop\n        /* \"src/Mediscan.sol\":732:836  bytes32 constant public HEALTH_PROFESSIONAL_LOW = keccak256(abi.encodePacked(\"HEALTH_PROFESSIONAL_LOW\")) */\n    tag_15:\n      callvalue\n      dup1\n      iszero\n      tag_102\n      jumpi\n      0x00\n      dup1\n      revert\n    tag_102:\n      pop\n      tag_103\n      tag_104\n      jump\t// in\n    tag_103:\n      mload(0x40)\n      tag_105\n      swap2\n      swap1\n      tag_61\n      jump\t// in\n    tag_105:\n      mload(0x40)\n      dup1\n      swap2\n      sub\n      swap1\n      return\n        /* \"src/Mediscan.sol\":4606:4725  function addPaymentAdmin(address _account) external onlyAdmin {... */\n    tag_16:\n      callvalue\n      dup1\n      iszero\n      tag_106\n      jumpi\n      0x00\n      dup1\n      revert\n    tag_106:\n      pop\n      tag_107\n      0x04\n      dup1\n      calldatasize\n      sub\n      dup2\n      add\n      swap1\n      tag_108\n      swap2\n      swap1\n      tag_95\n      jump\t// in\n    tag_108:\n      tag_109\n      jump\t// in\n    tag_107:\n      stop\n        /* \"@openzeppelin/contracts/access/AccessControl.sol\":2854:2990  function hasRole(bytes32 role, address account) public view virtual returns (bool) {... */\n    tag_17:\n      callvalue\n      dup1\n      iszero\n      tag_110\n      jumpi\n      0x00\n      dup1\n      revert\n    tag_110:\n      pop\n      tag_111\n      0x04\n      dup1\n      calldatasize\n      sub\n      dup2\n      add\n      swap1\n      tag_112\n      swap2\n      swap1\n      tag_65\n      jump\t// in\n    tag_112:\n      tag_113\n      jump\t// in\n    tag_111:\n      mload(0x40)\n      tag_114\n      swap2\n      swap1\n      tag_41\n      jump\t// in\n    tag_114:\n      mload(0x40)\n      dup1\n      swap2\n      sub\n      swap1\n      return\n        /* \"@openzeppelin/contracts/access/AccessControl.sol\":2187:2236  bytes32 public constant DEFAULT_ADMIN_ROLE = 0x00 */\n    tag_18:\n      callvalue\n      dup1\n      iszero\n      tag_115\n      jumpi\n      0x00\n      dup1\n      revert\n    tag_115:\n      pop\n      tag_116\n      tag_117\n      jump\t// in\n    tag_116:\n      mload(0x40)\n      tag_118\n      swap2\n      swap1\n      tag_61\n      jump\t// in\n    tag_118:\n      mload(0x40)\n      dup1\n      swap2\n      sub\n      swap1\n      return\n        /* \"src/Mediscan.sol\":410:504  bytes32 constant public PAYMENT_ADMIN_ROLE = keccak256(abi.encodePacked(\"PAYMENT_ADMIN_ROLE\")) */\n    tag_19:\n      callvalue\n      dup1\n      iszero\n      tag_119\n      jumpi\n      0x00\n      dup1\n      revert\n    tag_119:\n      pop\n      tag_120\n      tag_121\n      jump\t// in\n    tag_120:\n      mload(0x40)\n      tag_122\n      swap2\n      swap1\n      tag_61\n      jump\t// in\n    tag_122:\n      mload(0x40)\n      dup1\n      swap2\n      sub\n      swap1\n      return\n        /* \"src/Mediscan.sol\":4364:4477  function addUserAdmin(address _account) external onlyAdmin {... */\n    tag_20:\n      callvalue\n      dup1\n      iszero\n      tag_123\n      jumpi\n      0x00\n      dup1\n      revert\n    tag_123:\n      pop\n      tag_124\n      0x04\n      dup1\n      calldatasize\n      sub\n      dup2\n      add\n      swap1\n      tag_125\n      swap2\n      swap1\n      tag_95\n      jump\t// in\n    tag_125:\n      tag_126\n      jump\t// in\n    tag_124:\n      stop\n        /* \"@openzeppelin/contracts/access/AccessControl.sol\":4642:4780  function revokeRole(bytes32 role, address account) public virtual onlyRole(getRoleAdmin(role)) {... */\n    tag_21:\n      callvalue\n      dup1\n      iszero\n      tag_127\n      jumpi\n      0x00\n      dup1\n      revert\n    tag_127:\n      pop\n      tag_128\n      0x04\n      dup1\n      calldatasize\n      sub\n      dup2\n      add\n      swap1\n      tag_129\n      swap2\n      swap1\n      tag_65\n      jump\t// in\n    tag_129:\n      tag_130\n      jump\t// in\n    tag_128:\n      stop\n        /* \"src/Mediscan.sol\":622:726  bytes32 constant public HEALTH_PROFESSIONAL_MID = keccak256(abi.encodePacked(\"HEALTH_PROFESSIONAL_MID\")) */\n    tag_22:\n      callvalue\n      dup1\n      iszero\n      tag_131\n      jumpi\n      0x00\n      dup1\n      revert\n    tag_131:\n      pop\n      tag_132\n      tag_133\n      jump\t// in\n    tag_132:\n      mload(0x40)\n      tag_134\n      swap2\n      swap1\n      tag_61\n      jump\t// in\n    tag_134:\n      mload(0x40)\n      dup1\n      swap2\n      sub\n      swap1\n      return\n        /* \"src/Mediscan.sol\":4731:4854  function removePaymentAdmin(address _account) external onlyAdmin {... */\n    tag_23:\n      callvalue\n      dup1\n      iszero\n      tag_135\n      jumpi\n      0x00\n      dup1\n      revert\n    tag_135:\n      pop\n      tag_136\n      0x04\n      dup1\n      calldatasize\n      sub\n      dup2\n      add\n      swap1\n      tag_137\n      swap2\n      swap1\n      tag_95\n      jump\t// in\n    tag_137:\n      tag_138\n      jump\t// in\n    tag_136:\n      stop\n        /* \"src/Mediscan.sol\":5384:5549  function registerFaceHash(bytes32 _faceHash) external onlyUserAdmin {... */\n    tag_24:\n      callvalue\n      dup1\n      iszero\n      tag_139\n      jumpi\n      0x00\n      dup1\n      revert\n    tag_139:\n      pop\n      tag_140\n      0x04\n      dup1\n      calldatasize\n      sub\n      dup2\n      add\n      swap1\n      tag_141\n      swap2\n      swap1\n      tag_45\n      jump\t// in\n    tag_141:\n      tag_142\n      jump\t// in\n    tag_140:\n      stop\n        /* \"src/Mediscan.sol\":4483:4600  function removeUserAdmin(address _account) external onlyAdmin {... */\n    tag_25:\n      callvalue\n      dup1\n      iszero\n      tag_143\n      jumpi\n      0x00\n      dup1\n      revert\n    tag_143:\n      pop\n      tag_144\n      0x04\n      dup1\n      calldatasize\n      sub\n      dup2\n      add\n      swap1\n      tag_145\n      swap2\n      swap1\n      tag_95\n      jump\t// in\n    tag_145:\n      tag_146\n      jump\t// in\n    tag_144:\n      stop\n        /* \"src/Mediscan.sol\":989:1051  mapping(bytes32 => uint256) public baseTokenBalanceForFaceHash */\n    tag_26:\n      callvalue\n      dup1\n      iszero\n      tag_147\n      jumpi\n      0x00\n      dup1\n      revert\n    tag_147:\n      pop\n      tag_148\n      0x04\n      dup1\n      calldatasize\n      sub\n      dup2\n      add\n      swap1\n      tag_149\n      swap2\n      swap1\n      tag_45\n      jump\t// in\n    tag_149:\n      tag_150\n      jump\t// in\n    tag_148:\n      mload(0x40)\n      tag_151\n      swap2\n      swap1\n      tag_68\n      jump\t// in\n    tag_151:\n      mload(0x40)\n      dup1\n      swap2\n      sub\n      swap1\n      return\n        /* \"src/Mediscan.sol\":510:616  bytes32 constant public HEALTH_PROFESSIONAL_FULL = keccak256(abi.encodePacked(\"HEALTH_PROFESSIONAL_FULL\")) */\n    tag_27:\n      callvalue\n      dup1\n      iszero\n      tag_152\n      jumpi\n      0x00\n      dup1\n      revert\n    tag_152:\n      pop\n      tag_153\n      tag_154\n      jump\t// in\n    tag_153:\n      mload(0x40)\n      tag_155\n      swap2\n      swap1\n      tag_61\n      jump\t// in\n    tag_155:\n      mload(0x40)\n      dup1\n      swap2\n      sub\n      swap1\n      return\n        /* \"src/Mediscan.sol\":316:404  bytes32 constant public USER_ADMIN_ROLE = keccak256(abi.encodePacked(\"USER_ADMIN_ROLE\")) */\n    tag_28:\n      callvalue\n      dup1\n      iszero\n      tag_156\n      jumpi\n      0x00\n      dup1\n      revert\n    tag_156:\n      pop\n      tag_157\n      tag_158\n      jump\t// in\n    tag_157:\n      mload(0x40)\n      tag_159\n      swap2\n      swap1\n      tag_61\n      jump\t// in\n    tag_159:\n      mload(0x40)\n      dup1\n      swap2\n      sub\n      swap1\n      return\n        /* \"@openzeppelin/contracts/access/AccessControl.sol\":2565:2767  function supportsInterface(bytes4 interfaceId) public view virtual override returns (bool) {... */\n    tag_39:\n        /* \"@openzeppelin/contracts/access/AccessControl.sol\":2650:2654  bool */\n      0x00\n        /* \"@openzeppelin/contracts/access/AccessControl.sol\":2688:2720  type(IAccessControl).interfaceId */\n      0x7965db0b00000000000000000000000000000000000000000000000000000000\n        /* \"@openzeppelin/contracts/access/AccessControl.sol\":2673:2720  interfaceId == type(IAccessControl).interfaceId */\n      not(0xffffffffffffffffffffffffffffffffffffffffffffffffffffffff)\n      and\n        /* \"@openzeppelin/contracts/access/AccessControl.sol\":2673:2684  interfaceId */\n      dup3\n        /* \"@openzeppelin/contracts/access/AccessControl.sol\":2673:2720  interfaceId == type(IAccessControl).interfaceId */\n      not(0xffffffffffffffffffffffffffffffffffffffffffffffffffffffff)\n      and\n      eq\n        /* \"@openzeppelin/contracts/access/AccessControl.sol\":2673:2760  interfaceId == type(IAccessControl).interfaceId || super.supportsInterface(interfaceId) */\n      dup1\n      tag_161\n      jumpi\n      pop\n        /* \"@openzeppelin/contracts/access/AccessControl.sol\":2724:2760  super.supportsInterface(interfaceId) */\n      tag_162\n        /* \"@openzeppelin/contracts/access/AccessControl.sol\":2748:2759  interfaceId */\n      dup3\n        /* \"@openzeppelin/contracts/access/AccessControl.sol\":2724:2747  super.supportsInterface */\n      tag_163\n        /* \"@openzeppelin/contracts/access/AccessControl.sol\":2724:2760  super.supportsInterface(interfaceId) */\n      jump\t// in\n    tag_162:\n        /* \"@openzeppelin/contracts/access/AccessControl.sol\":2673:2760  interfaceId == type(IAccessControl).interfaceId || super.supportsInterface(interfaceId) */\n    tag_161:\n        /* \"@openzeppelin/contracts/access/AccessControl.sol\":2666:2760  return interfaceId == type(IAccessControl).interfaceId || super.supportsInterface(interfaceId) */\n      swap1\n      pop\n        /* \"@openzeppelin/contracts/access/AccessControl.sol\":2565:2767  function supportsInterface(bytes4 interfaceId) public view virtual override returns (bool) {... */\n      swap2\n      swap1\n      pop\n      jump\t// out\n        /* \"src/Mediscan.sol\":2618:2743  function isFaceHashRegistered(bytes32 _hash) external view returns (bool) {... */\n    tag_46:\n        /* \"src/Mediscan.sol\":2686:2690  bool */\n      0x00\n        /* \"src/Mediscan.sol\":2709:2729  registeredFaceHashes */\n      0x01\n        /* \"src/Mediscan.sol\":2709:2736  registeredFaceHashes[_hash] */\n      0x00\n        /* \"src/Mediscan.sol\":2730:2735  _hash */\n      dup4\n        /* \"src/Mediscan.sol\":2709:2736  registeredFaceHashes[_hash] */\n      dup2\n      mstore\n      0x20\n      add\n      swap1\n      dup2\n      mstore\n      0x20\n      add\n      0x00\n      keccak256\n      0x00\n      swap1\n      sload\n      swap1\n      0x0100\n      exp\n      swap1\n      div\n      0xff\n      and\n        /* \"src/Mediscan.sol\":2702:2736  return registeredFaceHashes[_hash] */\n      swap1\n      pop\n        /* \"src/Mediscan.sol\":2618:2743  function isFaceHashRegistered(bytes32 _hash) external view returns (bool) {... */\n      swap2\n      swap1\n      pop\n      jump\t// out\n        /* \"src/Mediscan.sol\":2749:3125  function sendTokenToFaceHash(bytes32 _faceHash, address _token, uint256 _amount) external {... */\n    tag_52:\n        /* \"src/Mediscan.sol\":2857:2877  registeredFaceHashes */\n      0x01\n        /* \"src/Mediscan.sol\":2857:2888  registeredFaceHashes[_faceHash] */\n      0x00\n        /* \"src/Mediscan.sol\":2878:2887  _faceHash */\n      dup5\n        /* \"src/Mediscan.sol\":2857:2888  registeredFaceHashes[_faceHash] */\n      dup2\n      mstore\n      0x20\n      add\n      swap1\n      dup2\n      mstore\n      0x20\n      add\n      0x00\n      keccak256\n      0x00\n      swap1\n      sload\n      swap1\n      0x0100\n      exp\n      swap1\n      div\n      0xff\n      and\n        /* \"src/Mediscan.sol\":2849:2917  require(registeredFaceHashes[_faceHash], \"Face hash not registered\") */\n      tag_166\n      jumpi\n      mload(0x40)\n      0x08c379a000000000000000000000000000000000000000000000000000000000\n      dup2\n      mstore\n      0x04\n      add\n      tag_167\n      swap1\n      tag_168\n      jump\t// in\n    tag_167:\n      mload(0x40)\n      dup1\n      swap2\n      sub\n      swap1\n      revert\n    tag_166:\n        /* \"src/Mediscan.sol\":2934:2940  _token */\n      dup2\n        /* \"src/Mediscan.sol\":2927:2954  IERC20(_token).transferFrom */\n      0xffffffffffffffffffffffffffffffffffffffff\n      and\n      0x23b872dd\n        /* \"src/Mediscan.sol\":2955:2965  msg.sender */\n      caller\n        /* \"src/Mediscan.sol\":2975:2979  this */\n      address\n        /* \"src/Mediscan.sol\":2982:2989  _amount */\n      dup5\n        /* \"src/Mediscan.sol\":2927:2990  IERC20(_token).transferFrom(msg.sender, address(this), _amount) */\n      mload(0x40)\n      dup5\n      0xffffffff\n      and\n      0xe0\n      shl\n      dup2\n      mstore\n      0x04\n      add\n      tag_169\n      swap4\n      swap3\n      swap2\n      swap1\n      tag_170\n      jump\t// in\n    tag_169:\n      0x20\n      mload(0x40)\n      dup1\n      dup4\n      sub\n      dup2\n      0x00\n      dup8\n      gas\n      call\n      iszero\n      dup1\n      iszero\n      tag_172\n      jumpi\n      returndatasize\n      0x00\n      dup1\n      returndatacopy\n      revert(0x00, returndatasize)\n    tag_172:\n      pop\n      pop\n      pop\n      pop\n      mload(0x40)\n      returndatasize\n      not(0x1f)\n      0x1f\n      dup3\n      add\n      and\n      dup3\n      add\n      dup1\n      0x40\n      mstore\n      pop\n      dup2\n      add\n      swap1\n      tag_173\n      swap2\n      swap1\n      tag_174\n      jump\t// in\n    tag_173:\n      pop\n        /* \"src/Mediscan.sol\":3049:3056  _amount */\n      dup1\n        /* \"src/Mediscan.sol\":3000:3026  balanceForTokenForFaceHash */\n      0x02\n        /* \"src/Mediscan.sol\":3000:3037  balanceForTokenForFaceHash[_faceHash] */\n      0x00\n        /* \"src/Mediscan.sol\":3027:3036  _faceHash */\n      dup6\n        /* \"src/Mediscan.sol\":3000:3037  balanceForTokenForFaceHash[_faceHash] */\n      dup2\n      mstore\n      0x20\n      add\n      swap1\n      dup2\n      mstore\n      0x20\n      add\n      0x00\n      keccak256\n        /* \"src/Mediscan.sol\":3000:3045  balanceForTokenForFaceHash[_faceHash][_token] */\n      0x00\n        /* \"src/Mediscan.sol\":3038:3044  _token */\n      dup5\n        /* \"src/Mediscan.sol\":3000:3045  balanceForTokenForFaceHash[_faceHash][_token] */\n      0xffffffffffffffffffffffffffffffffffffffff\n      and\n      0xffffffffffffffffffffffffffffffffffffffff\n      and\n      dup2\n      mstore\n      0x20\n      add\n      swap1\n      dup2\n      mstore\n      0x20\n      add\n      0x00\n      keccak256\n      0x00\n        /* \"src/Mediscan.sol\":3000:3056  balanceForTokenForFaceHash[_faceHash][_token] += _amount */\n      dup3\n      dup3\n      sload\n      tag_175\n      swap2\n      swap1\n      tag_176\n      jump\t// in\n    tag_175:\n      swap3\n      pop\n      pop\n      dup2\n      swap1\n      sstore\n      pop\n        /* \"src/Mediscan.sol\":3110:3117  _amount */\n      dup1\n        /* \"src/Mediscan.sol\":3102:3108  _token */\n      dup3\n        /* \"src/Mediscan.sol\":3071:3118  SendTokenToFaceHash(_faceHash, _token, _amount) */\n      0xffffffffffffffffffffffffffffffffffffffff\n      and\n        /* \"src/Mediscan.sol\":3091:3100  _faceHash */\n      dup5\n        /* \"src/Mediscan.sol\":3071:3118  SendTokenToFaceHash(_faceHash, _token, _amount) */\n      0x7a143568e7a2e32f33c2ab85bb8cb9ff7e78d00e650d6973c8873bbdc075e811\n      mload(0x40)\n      mload(0x40)\n      dup1\n      swap2\n      sub\n      swap1\n      log4\n        /* \"src/Mediscan.sol\":2749:3125  function sendTokenToFaceHash(bytes32 _faceHash, address _token, uint256 _amount) external {... */\n      pop\n      pop\n      pop\n      jump\t// out\n        /* \"src/Mediscan.sol\":3131:3416  function sendChainBaseTokenToFaceHash(bytes32 _faceHash) external payable {... */\n    tag_55:\n        /* \"src/Mediscan.sol\":3223:3243  registeredFaceHashes */\n      0x01\n        /* \"src/Mediscan.sol\":3223:3254  registeredFaceHashes[_faceHash] */\n      0x00\n        /* \"src/Mediscan.sol\":3244:3253  _faceHash */\n      dup3\n        /* \"src/Mediscan.sol\":3223:3254  registeredFaceHashes[_faceHash] */\n      dup2\n      mstore\n      0x20\n      add\n      swap1\n      dup2\n      mstore\n      0x20\n      add\n      0x00\n      keccak256\n      0x00\n      swap1\n      sload\n      swap1\n      0x0100\n      exp\n      swap1\n      div\n      0xff\n      and\n        /* \"src/Mediscan.sol\":3215:3283  require(registeredFaceHashes[_faceHash], \"Face hash not registered\") */\n      tag_178\n      jumpi\n      mload(0x40)\n      0x08c379a000000000000000000000000000000000000000000000000000000000\n      dup2\n      mstore\n      0x04\n      add\n      tag_179\n      swap1\n      tag_168\n      jump\t// in\n    tag_179:\n      mload(0x40)\n      dup1\n      swap2\n      sub\n      swap1\n      revert\n    tag_178:\n        /* \"src/Mediscan.sol\":3335:3344  msg.value */\n      callvalue\n        /* \"src/Mediscan.sol\":3293:3320  baseTokenBalanceForFaceHash */\n      0x03\n        /* \"src/Mediscan.sol\":3293:3331  baseTokenBalanceForFaceHash[_faceHash] */\n      0x00\n        /* \"src/Mediscan.sol\":3321:3330  _faceHash */\n      dup4\n        /* \"src/Mediscan.sol\":3293:3331  baseTokenBalanceForFaceHash[_faceHash] */\n      dup2\n      mstore\n      0x20\n      add\n      swap1\n      dup2\n      mstore\n      0x20\n      add\n      0x00\n      keccak256\n      0x00\n        /* \"src/Mediscan.sol\":3293:3344  baseTokenBalanceForFaceHash[_faceHash] += msg.value */\n      dup3\n      dup3\n      sload\n      tag_180\n      swap2\n      swap1\n      tag_176\n      jump\t// in\n    tag_180:\n      swap3\n      pop\n      pop\n      dup2\n      swap1\n      sstore\n      pop\n        /* \"src/Mediscan.sol\":3399:3408  msg.value */\n      callvalue\n        /* \"src/Mediscan.sol\":3388:3397  _faceHash */\n      dup2\n        /* \"src/Mediscan.sol\":3359:3409  SendChainBaseTokenToFaceHash(_faceHash, msg.value) */\n      0xacc0fd4b3527d0953abdce4ac9a5f786e3d780a3b4bbefefb360a8642429e0f6\n      mload(0x40)\n      mload(0x40)\n      dup1\n      swap2\n      sub\n      swap1\n      log3\n        /* \"src/Mediscan.sol\":3131:3416  function sendChainBaseTokenToFaceHash(bytes32 _faceHash) external payable {... */\n      pop\n      jump\t// out\n        /* \"@openzeppelin/contracts/access/AccessControl.sol\":3810:3930  function getRoleAdmin(bytes32 role) public view virtual returns (bytes32) {... */\n    tag_59:\n        /* \"@openzeppelin/contracts/access/AccessControl.sol\":3875:3882  bytes32 */\n      0x00\n        /* \"@openzeppelin/contracts/access/AccessControl.sol\":3901:3907  _roles */\n      dup1\n        /* \"@openzeppelin/contracts/access/AccessControl.sol\":3901:3913  _roles[role] */\n      0x00\n        /* \"@openzeppelin/contracts/access/AccessControl.sol\":3908:3912  role */\n      dup4\n        /* \"@openzeppelin/contracts/access/AccessControl.sol\":3901:3913  _roles[role] */\n      dup2\n      mstore\n      0x20\n      add\n      swap1\n      dup2\n      mstore\n      0x20\n      add\n      0x00\n      keccak256\n        /* \"@openzeppelin/contracts/access/AccessControl.sol\":3901:3923  _roles[role].adminRole */\n      0x01\n      add\n      sload\n        /* \"@openzeppelin/contracts/access/AccessControl.sol\":3894:3923  return _roles[role].adminRole */\n      swap1\n      pop\n        /* \"@openzeppelin/contracts/access/AccessControl.sol\":3810:3930  function getRoleAdmin(bytes32 role) public view virtual returns (bytes32) {... */\n      swap2\n      swap1\n      pop\n      jump\t// out\n        /* \"src/Mediscan.sol\":902:983  mapping(bytes32 => mapping(address => uint256)) public balanceForTokenForFaceHash */\n    tag_66:\n      mstore(0x20, 0x02)\n      dup2\n      0x00\n      mstore\n      mstore(0x20, keccak256(0x00, 0x40))\n      dup1\n      0x00\n      mstore\n      keccak256(0x00, 0x40)\n      0x00\n      swap2\n      pop\n      swap2\n      pop\n      pop\n      sload\n      dup2\n      jump\t// out\n        /* \"@openzeppelin/contracts/access/AccessControl.sol\":4226:4362  function grantRole(bytes32 role, address account) public virtual onlyRole(getRoleAdmin(role)) {... */\n    tag_72:\n        /* \"@openzeppelin/contracts/access/AccessControl.sol\":4300:4318  getRoleAdmin(role) */\n      tag_182\n        /* \"@openzeppelin/contracts/access/AccessControl.sol\":4313:4317  role */\n      dup3\n        /* \"@openzeppelin/contracts/access/AccessControl.sol\":4300:4312  getRoleAdmin */\n      tag_59\n        /* \"@openzeppelin/contracts/access/AccessControl.sol\":4300:4318  getRoleAdmin(role) */\n      jump\t// in\n    tag_182:\n        /* \"@openzeppelin/contracts/access/AccessControl.sol\":2464:2480  _checkRole(role) */\n      tag_184\n        /* \"@openzeppelin/contracts/access/AccessControl.sol\":2475:2479  role */\n      dup2\n        /* \"@openzeppelin/contracts/access/AccessControl.sol\":2464:2474  _checkRole */\n      tag_185\n        /* \"@openzeppelin/contracts/access/AccessControl.sol\":2464:2480  _checkRole(role) */\n      jump\t// in\n    tag_184:\n        /* \"@openzeppelin/contracts/access/AccessControl.sol\":4330:4355  _grantRole(role, account) */\n      tag_187\n        /* \"@openzeppelin/contracts/access/AccessControl.sol\":4341:4345  role */\n      dup4\n        /* \"@openzeppelin/contracts/access/AccessControl.sol\":4347:4354  account */\n      dup4\n        /* \"@openzeppelin/contracts/access/AccessControl.sol\":4330:4340  _grantRole */\n      tag_188\n        /* \"@openzeppelin/contracts/access/AccessControl.sol\":4330:4355  _grantRole(role, account) */\n      jump\t// in\n    tag_187:\n      pop\n        /* \"@openzeppelin/contracts/access/AccessControl.sol\":4226:4362  function grantRole(bytes32 role, address account) public virtual onlyRole(getRoleAdmin(role)) {... */\n      pop\n      pop\n      pop\n      jump\t// out\n        /* \"src/Mediscan.sol\":843:895  mapping(bytes32 => bool) public registeredFaceHashes */\n    tag_76:\n      mstore(0x20, 0x01)\n      dup1\n      0x00\n      mstore\n      keccak256(0x00, 0x40)\n      0x00\n      swap2\n      pop\n      sload\n      swap1\n      0x0100\n      exp\n      swap1\n      div\n      0xff\n      and\n      dup2\n      jump\t// out\n        /* \"@openzeppelin/contracts/access/AccessControl.sol\":5328:5573  function renounceRole(bytes32 role, address callerConfirmation) public virtual {... */\n    tag_81:\n        /* \"@openzeppelin/contracts/access/AccessControl.sol\":5443:5455  _msgSender() */\n      tag_190\n        /* \"@openzeppelin/contracts/access/AccessControl.sol\":5443:5453  _msgSender */\n      tag_191\n        /* \"@openzeppelin/contracts/access/AccessControl.sol\":5443:5455  _msgSender() */\n      jump\t// in\n    tag_190:\n        /* \"@openzeppelin/contracts/access/AccessControl.sol\":5421:5455  callerConfirmation != _msgSender() */\n      0xffffffffffffffffffffffffffffffffffffffff\n      and\n        /* \"@openzeppelin/contracts/access/AccessControl.sol\":5421:5439  callerConfirmation */\n      dup2\n        /* \"@openzeppelin/contracts/access/AccessControl.sol\":5421:5455  callerConfirmation != _msgSender() */\n      0xffffffffffffffffffffffffffffffffffffffff\n      and\n      eq\n        /* \"@openzeppelin/contracts/access/AccessControl.sol\":5417:5519  if (callerConfirmation != _msgSender()) {... */\n      tag_192\n      jumpi\n        /* \"@openzeppelin/contracts/access/AccessControl.sol\":5478:5508  AccessControlBadConfirmation() */\n      mload(0x40)\n      0x6697b23200000000000000000000000000000000000000000000000000000000\n      dup2\n      mstore\n      0x04\n      add\n      mload(0x40)\n      dup1\n      swap2\n      sub\n      swap1\n      revert\n        /* \"@openzeppelin/contracts/access/AccessControl.sol\":5417:5519  if (callerConfirmation != _msgSender()) {... */\n    tag_192:\n        /* \"@openzeppelin/contracts/access/AccessControl.sol\":5529:5566  _revokeRole(role, callerConfirmation) */\n      tag_193\n        /* \"@openzeppelin/contracts/access/AccessControl.sol\":5541:5545  role */\n      dup3\n        /* \"@openzeppelin/contracts/access/AccessControl.sol\":5547:5565  callerConfirmation */\n      dup3\n        /* \"@openzeppelin/contracts/access/AccessControl.sol\":5529:5540  _revokeRole */\n      tag_194\n        /* \"@openzeppelin/contracts/access/AccessControl.sol\":5529:5566  _revokeRole(role, callerConfirmation) */\n      jump\t// in\n    tag_193:\n      pop\n        /* \"@openzeppelin/contracts/access/AccessControl.sol\":5328:5573  function renounceRole(bytes32 role, address callerConfirmation) public virtual {... */\n      pop\n      pop\n      jump\t// out\n        /* \"src/Mediscan.sol\":3422:3871  function payoutTokenForFaceHash(bytes32 _faceHash, address _token,  address _account) external onlyPaymentAdmin {... */\n    tag_86:\n        /* \"src/Mediscan.sol\":1813:1843  _checkRole(PAYMENT_ADMIN_ROLE) */\n      tag_196\n        /* \"src/Mediscan.sol\":465:503  abi.encodePacked(\"PAYMENT_ADMIN_ROLE\") */\n      add(0x20, mload(0x40))\n      tag_197\n      swap1\n      tag_198\n      jump\t// in\n    tag_197:\n      mload(0x40)\n      0x20\n      dup2\n      dup4\n      sub\n      sub\n      dup2\n      mstore\n      swap1\n      0x40\n      mstore\n        /* \"src/Mediscan.sol\":455:504  keccak256(abi.encodePacked(\"PAYMENT_ADMIN_ROLE\")) */\n      dup1\n      mload\n      swap1\n      0x20\n      add\n      keccak256\n        /* \"src/Mediscan.sol\":1813:1823  _checkRole */\n      tag_185\n        /* \"src/Mediscan.sol\":1813:1843  _checkRole(PAYMENT_ADMIN_ROLE) */\n      jump\t// in\n    tag_196:\n        /* \"src/Mediscan.sol\":3552:3572  registeredFaceHashes */\n      0x01\n        /* \"src/Mediscan.sol\":3552:3583  registeredFaceHashes[_faceHash] */\n      0x00\n        /* \"src/Mediscan.sol\":3573:3582  _faceHash */\n      dup5\n        /* \"src/Mediscan.sol\":3552:3583  registeredFaceHashes[_faceHash] */\n      dup2\n      mstore\n      0x20\n      add\n      swap1\n      dup2\n      mstore\n      0x20\n      add\n      0x00\n      keccak256\n      0x00\n      swap1\n      sload\n      swap1\n      0x0100\n      exp\n      swap1\n      div\n      0xff\n      and\n        /* \"src/Mediscan.sol\":3544:3612  require(registeredFaceHashes[_faceHash], \"Face hash not registered\") */\n      tag_200\n      jumpi\n      mload(0x40)\n      0x08c379a000000000000000000000000000000000000000000000000000000000\n      dup2\n      mstore\n      0x04\n      add\n      tag_201\n      swap1\n      tag_168\n      jump\t// in\n    tag_201:\n      mload(0x40)\n      dup1\n      swap2\n      sub\n      swap1\n      revert\n    tag_200:\n        /* \"src/Mediscan.sol\":3622:3636  uint256 amount */\n      0x00\n        /* \"src/Mediscan.sol\":3639:3665  balanceForTokenForFaceHash */\n      0x02\n        /* \"src/Mediscan.sol\":3639:3676  balanceForTokenForFaceHash[_faceHash] */\n      0x00\n        /* \"src/Mediscan.sol\":3666:3675  _faceHash */\n      dup6\n        /* \"src/Mediscan.sol\":3639:3676  balanceForTokenForFaceHash[_faceHash] */\n      dup2\n      mstore\n      0x20\n      add\n      swap1\n      dup2\n      mstore\n      0x20\n      add\n      0x00\n      keccak256\n        /* \"src/Mediscan.sol\":3639:3684  balanceForTokenForFaceHash[_faceHash][_token] */\n      0x00\n        /* \"src/Mediscan.sol\":3677:3683  _token */\n      dup5\n        /* \"src/Mediscan.sol\":3639:3684  balanceForTokenForFaceHash[_faceHash][_token] */\n      0xffffffffffffffffffffffffffffffffffffffff\n      and\n      0xffffffffffffffffffffffffffffffffffffffff\n      and\n      dup2\n      mstore\n      0x20\n      add\n      swap1\n      dup2\n      mstore\n      0x20\n      add\n      0x00\n      keccak256\n      sload\n        /* \"src/Mediscan.sol\":3622:3684  uint256 amount = balanceForTokenForFaceHash[_faceHash][_token] */\n      swap1\n      pop\n        /* \"src/Mediscan.sol\":3701:3707  _token */\n      dup3\n        /* \"src/Mediscan.sol\":3694:3717  IERC20(_token).transfer */\n      0xffffffffffffffffffffffffffffffffffffffff\n      and\n      0xa9059cbb\n        /* \"src/Mediscan.sol\":3718:3726  _account */\n      dup4\n        /* \"src/Mediscan.sol\":3728:3734  amount */\n      dup4\n        /* \"src/Mediscan.sol\":3694:3735  IERC20(_token).transfer(_account, amount) */\n      mload(0x40)\n      dup4\n      0xffffffff\n      and\n      0xe0\n      shl\n      dup2\n      mstore\n      0x04\n      add\n      tag_202\n      swap3\n      swap2\n      swap1\n      tag_203\n      jump\t// in\n    tag_202:\n      0x20\n      mload(0x40)\n      dup1\n      dup4\n      sub\n      dup2\n      0x00\n      dup8\n      gas\n      call\n      iszero\n      dup1\n      iszero\n      tag_205\n      jumpi\n      returndatasize\n      0x00\n      dup1\n      returndatacopy\n      revert(0x00, returndatasize)\n    tag_205:\n      pop\n      pop\n      pop\n      pop\n      mload(0x40)\n      returndatasize\n      not(0x1f)\n      0x1f\n      dup3\n      add\n      and\n      dup3\n      add\n      dup1\n      0x40\n      mstore\n      pop\n      dup2\n      add\n      swap1\n      tag_206\n      swap2\n      swap1\n      tag_174\n      jump\t// in\n    tag_206:\n      pop\n        /* \"src/Mediscan.sol\":3794:3800  amount */\n      dup1\n        /* \"src/Mediscan.sol\":3745:3771  balanceForTokenForFaceHash */\n      0x02\n        /* \"src/Mediscan.sol\":3745:3782  balanceForTokenForFaceHash[_faceHash] */\n      0x00\n        /* \"src/Mediscan.sol\":3772:3781  _faceHash */\n      dup7\n        /* \"src/Mediscan.sol\":3745:3782  balanceForTokenForFaceHash[_faceHash] */\n      dup2\n      mstore\n      0x20\n      add\n      swap1\n      dup2\n      mstore\n      0x20\n      add\n      0x00\n      keccak256\n        /* \"src/Mediscan.sol\":3745:3790  balanceForTokenForFaceHash[_faceHash][_token] */\n      0x00\n        /* \"src/Mediscan.sol\":3783:3789  _token */\n      dup6\n        /* \"src/Mediscan.sol\":3745:3790  balanceForTokenForFaceHash[_faceHash][_token] */\n      0xffffffffffffffffffffffffffffffffffffffff\n      and\n      0xffffffffffffffffffffffffffffffffffffffff\n      and\n      dup2\n      mstore\n      0x20\n      add\n      swap1\n      dup2\n      mstore\n      0x20\n      add\n      0x00\n      keccak256\n      0x00\n        /* \"src/Mediscan.sol\":3745:3800  balanceForTokenForFaceHash[_faceHash][_token] -= amount */\n      dup3\n      dup3\n      sload\n      tag_207\n      swap2\n      swap1\n      tag_208\n      jump\t// in\n    tag_207:\n      swap3\n      pop\n      pop\n      dup2\n      swap1\n      sstore\n      pop\n        /* \"src/Mediscan.sol\":3857:3863  amount */\n      dup1\n        /* \"src/Mediscan.sol\":3849:3855  _token */\n      dup4\n        /* \"src/Mediscan.sol\":3815:3864  PayoutTokenForFaceHash(_faceHash, _token, amount) */\n      0xffffffffffffffffffffffffffffffffffffffff\n      and\n        /* \"src/Mediscan.sol\":3838:3847  _faceHash */\n      dup6\n        /* \"src/Mediscan.sol\":3815:3864  PayoutTokenForFaceHash(_faceHash, _token, amount) */\n      0x434adbd1794f49ffeb1ea04de9ad62fb01cc18179124cda3ce5eee58f010f969\n      mload(0x40)\n      mload(0x40)\n      dup1\n      swap2\n      sub\n      swap1\n      log4\n        /* \"src/Mediscan.sol\":3534:3871  {... */\n      pop\n        /* \"src/Mediscan.sol\":3422:3871  function payoutTokenForFaceHash(bytes32 _faceHash, address _token,  address _account) external onlyPaymentAdmin {... */\n      pop\n      pop\n      pop\n      jump\t// out\n        /* \"src/Mediscan.sol\":4860:5378  function verifyHealthWorker(address _account, uint256 _accessLevel) external onlyAdmin {... */\n    tag_91:\n        /* \"src/Mediscan.sol\":1635:1665  _checkRole(DEFAULT_ADMIN_ROLE) */\n      tag_210\n        /* \"@openzeppelin/contracts/access/AccessControl.sol\":2232:2236  0x00 */\n      0x00\n        /* \"src/Mediscan.sol\":1646:1664  DEFAULT_ADMIN_ROLE */\n      dup1\n      shl\n        /* \"src/Mediscan.sol\":1635:1645  _checkRole */\n      tag_185\n        /* \"src/Mediscan.sol\":1635:1665  _checkRole(DEFAULT_ADMIN_ROLE) */\n      jump\t// in\n    tag_210:\n        /* \"src/Mediscan.sol\":4977:4978  0 */\n      0x00\n        /* \"src/Mediscan.sol\":4961:4973  _accessLevel */\n      dup2\n        /* \"src/Mediscan.sol\":4961:4978  _accessLevel == 0 */\n      sub\n        /* \"src/Mediscan.sol\":4957:5315  if (_accessLevel == 0) {... */\n      tag_212\n      jumpi\n        /* \"src/Mediscan.sol\":4994:5040  _grantRole(HEALTH_PROFESSIONAL_FULL, _account) */\n      tag_213\n        /* \"src/Mediscan.sol\":571:615  abi.encodePacked(\"HEALTH_PROFESSIONAL_FULL\") */\n      add(0x20, mload(0x40))\n      tag_214\n      swap1\n      tag_215\n      jump\t// in\n    tag_214:\n      mload(0x40)\n      0x20\n      dup2\n      dup4\n      sub\n      sub\n      dup2\n      mstore\n      swap1\n      0x40\n      mstore\n        /* \"src/Mediscan.sol\":561:616  keccak256(abi.encodePacked(\"HEALTH_PROFESSIONAL_FULL\")) */\n      dup1\n      mload\n      swap1\n      0x20\n      add\n      keccak256\n        /* \"src/Mediscan.sol\":5031:5039  _account */\n      dup4\n        /* \"src/Mediscan.sol\":4994:5004  _grantRole */\n      tag_188\n        /* \"src/Mediscan.sol\":4994:5040  _grantRole(HEALTH_PROFESSIONAL_FULL, _account) */\n      jump\t// in\n    tag_213:\n      pop\n        /* \"src/Mediscan.sol\":4957:5315  if (_accessLevel == 0) {... */\n      jump(tag_216)\n    tag_212:\n        /* \"src/Mediscan.sol\":5077:5078  1 */\n      0x01\n        /* \"src/Mediscan.sol\":5061:5073  _accessLevel */\n      dup2\n        /* \"src/Mediscan.sol\":5061:5078  _accessLevel == 1 */\n      sub\n        /* \"src/Mediscan.sol\":5057:5315  if (_accessLevel == 1) {... */\n      tag_217\n      jumpi\n        /* \"src/Mediscan.sol\":5094:5139  _grantRole(HEALTH_PROFESSIONAL_MID, _account) */\n      tag_218\n        /* \"src/Mediscan.sol\":682:725  abi.encodePacked(\"HEALTH_PROFESSIONAL_MID\") */\n      add(0x20, mload(0x40))\n      tag_219\n      swap1\n      tag_220\n      jump\t// in\n    tag_219:\n      mload(0x40)\n      0x20\n      dup2\n      dup4\n      sub\n      sub\n      dup2\n      mstore\n      swap1\n      0x40\n      mstore\n        /* \"src/Mediscan.sol\":672:726  keccak256(abi.encodePacked(\"HEALTH_PROFESSIONAL_MID\")) */\n      dup1\n      mload\n      swap1\n      0x20\n      add\n      keccak256\n        /* \"src/Mediscan.sol\":5130:5138  _account */\n      dup4\n        /* \"src/Mediscan.sol\":5094:5104  _grantRole */\n      tag_188\n        /* \"src/Mediscan.sol\":5094:5139  _grantRole(HEALTH_PROFESSIONAL_MID, _account) */\n      jump\t// in\n    tag_218:\n      pop\n        /* \"src/Mediscan.sol\":5057:5315  if (_accessLevel == 1) {... */\n      jump(tag_221)\n    tag_217:\n        /* \"src/Mediscan.sol\":5176:5177  2 */\n      0x02\n        /* \"src/Mediscan.sol\":5160:5172  _accessLevel */\n      dup2\n        /* \"src/Mediscan.sol\":5160:5177  _accessLevel == 2 */\n      sub\n        /* \"src/Mediscan.sol\":5156:5315  if (_accessLevel == 2) {... */\n      tag_222\n      jumpi\n        /* \"src/Mediscan.sol\":5193:5238  _grantRole(HEALTH_PROFESSIONAL_LOW, _account) */\n      tag_223\n        /* \"src/Mediscan.sol\":792:835  abi.encodePacked(\"HEALTH_PROFESSIONAL_LOW\") */\n      add(0x20, mload(0x40))\n      tag_224\n      swap1\n      tag_225\n      jump\t// in\n    tag_224:\n      mload(0x40)\n      0x20\n      dup2\n      dup4\n      sub\n      sub\n      dup2\n      mstore\n      swap1\n      0x40\n      mstore\n        /* \"src/Mediscan.sol\":782:836  keccak256(abi.encodePacked(\"HEALTH_PROFESSIONAL_LOW\")) */\n      dup1\n      mload\n      swap1\n      0x20\n      add\n      keccak256\n        /* \"src/Mediscan.sol\":5229:5237  _account */\n      dup4\n        /* \"src/Mediscan.sol\":5193:5203  _grantRole */\n      tag_188\n        /* \"src/Mediscan.sol\":5193:5238  _grantRole(HEALTH_PROFESSIONAL_LOW, _account) */\n      jump\t// in\n    tag_223:\n      pop\n        /* \"src/Mediscan.sol\":5156:5315  if (_accessLevel == 2) {... */\n      jump(tag_226)\n    tag_222:\n        /* \"src/Mediscan.sol\":5269:5304  revert(\"Unrecognized access level\") */\n      mload(0x40)\n      0x08c379a000000000000000000000000000000000000000000000000000000000\n      dup2\n      mstore\n      0x04\n      add\n      tag_227\n      swap1\n      tag_228\n      jump\t// in\n    tag_227:\n      mload(0x40)\n      dup1\n      swap2\n      sub\n      swap1\n      revert\n        /* \"src/Mediscan.sol\":5156:5315  if (_accessLevel == 2) {... */\n    tag_226:\n        /* \"src/Mediscan.sol\":5057:5315  if (_accessLevel == 1) {... */\n    tag_221:\n        /* \"src/Mediscan.sol\":4957:5315  if (_accessLevel == 0) {... */\n    tag_216:\n        /* \"src/Mediscan.sol\":5358:5370  _accessLevel */\n      dup1\n        /* \"src/Mediscan.sol\":5348:5356  _account */\n      dup3\n        /* \"src/Mediscan.sol\":5329:5371  VerifyHealthWorker(_account, _accessLevel) */\n      0xffffffffffffffffffffffffffffffffffffffff\n      and\n      0x2224b7dff324f24f810cf3bb4055085a9fd09db933a221dea091e176f4d16c8c\n      mload(0x40)\n      mload(0x40)\n      dup1\n      swap2\n      sub\n      swap1\n      log3\n        /* \"src/Mediscan.sol\":4860:5378  function verifyHealthWorker(address _account, uint256 _accessLevel) external onlyAdmin {... */\n      pop\n      pop\n      jump\t// out\n        /* \"src/Mediscan.sol\":2211:2612  function getAccessLevelForAddress(address _address) external view returns (uint256) {... */\n    tag_96:\n        /* \"src/Mediscan.sol\":2286:2293  uint256 */\n      0x00\n        /* \"src/Mediscan.sol\":2309:2352  hasRole(HEALTH_PROFESSIONAL_FULL, _address) */\n      tag_230\n        /* \"src/Mediscan.sol\":571:615  abi.encodePacked(\"HEALTH_PROFESSIONAL_FULL\") */\n      add(0x20, mload(0x40))\n      tag_231\n      swap1\n      tag_215\n      jump\t// in\n    tag_231:\n      mload(0x40)\n      0x20\n      dup2\n      dup4\n      sub\n      sub\n      dup2\n      mstore\n      swap1\n      0x40\n      mstore\n        /* \"src/Mediscan.sol\":561:616  keccak256(abi.encodePacked(\"HEALTH_PROFESSIONAL_FULL\")) */\n      dup1\n      mload\n      swap1\n      0x20\n      add\n      keccak256\n        /* \"src/Mediscan.sol\":2343:2351  _address */\n      dup4\n        /* \"src/Mediscan.sol\":2309:2316  hasRole */\n      tag_113\n        /* \"src/Mediscan.sol\":2309:2352  hasRole(HEALTH_PROFESSIONAL_FULL, _address) */\n      jump\t// in\n    tag_230:\n        /* \"src/Mediscan.sol\":2305:2606  if (hasRole(HEALTH_PROFESSIONAL_FULL, _address)) {... */\n      iszero\n      tag_232\n      jumpi\n        /* \"src/Mediscan.sol\":2375:2376  0 */\n      0x00\n        /* \"src/Mediscan.sol\":2368:2376  return 0 */\n      swap1\n      pop\n      jump(tag_229)\n        /* \"src/Mediscan.sol\":2305:2606  if (hasRole(HEALTH_PROFESSIONAL_FULL, _address)) {... */\n    tag_232:\n        /* \"src/Mediscan.sol\":2397:2439  hasRole(HEALTH_PROFESSIONAL_MID, _address) */\n      tag_234\n        /* \"src/Mediscan.sol\":682:725  abi.encodePacked(\"HEALTH_PROFESSIONAL_MID\") */\n      add(0x20, mload(0x40))\n      tag_235\n      swap1\n      tag_220\n      jump\t// in\n    tag_235:\n      mload(0x40)\n      0x20\n      dup2\n      dup4\n      sub\n      sub\n      dup2\n      mstore\n      swap1\n      0x40\n      mstore\n        /* \"src/Mediscan.sol\":672:726  keccak256(abi.encodePacked(\"HEALTH_PROFESSIONAL_MID\")) */\n      dup1\n      mload\n      swap1\n      0x20\n      add\n      keccak256\n        /* \"src/Mediscan.sol\":2430:2438  _address */\n      dup4\n        /* \"src/Mediscan.sol\":2397:2404  hasRole */\n      tag_113\n        /* \"src/Mediscan.sol\":2397:2439  hasRole(HEALTH_PROFESSIONAL_MID, _address) */\n      jump\t// in\n    tag_234:\n        /* \"src/Mediscan.sol\":2393:2606  if (hasRole(HEALTH_PROFESSIONAL_MID, _address)) {... */\n      iszero\n      tag_236\n      jumpi\n        /* \"src/Mediscan.sol\":2462:2463  1 */\n      0x01\n        /* \"src/Mediscan.sol\":2455:2463  return 1 */\n      swap1\n      pop\n      jump(tag_229)\n        /* \"src/Mediscan.sol\":2393:2606  if (hasRole(HEALTH_PROFESSIONAL_MID, _address)) {... */\n    tag_236:\n        /* \"src/Mediscan.sol\":2484:2526  hasRole(HEALTH_PROFESSIONAL_LOW, _address) */\n      tag_238\n        /* \"src/Mediscan.sol\":792:835  abi.encodePacked(\"HEALTH_PROFESSIONAL_LOW\") */\n      add(0x20, mload(0x40))\n      tag_239\n      swap1\n      tag_225\n      jump\t// in\n    tag_239:\n      mload(0x40)\n      0x20\n      dup2\n      dup4\n      sub\n      sub\n      dup2\n      mstore\n      swap1\n      0x40\n      mstore\n        /* \"src/Mediscan.sol\":782:836  keccak256(abi.encodePacked(\"HEALTH_PROFESSIONAL_LOW\")) */\n      dup1\n      mload\n      swap1\n      0x20\n      add\n      keccak256\n        /* \"src/Mediscan.sol\":2517:2525  _address */\n      dup4\n        /* \"src/Mediscan.sol\":2484:2491  hasRole */\n      tag_113\n        /* \"src/Mediscan.sol\":2484:2526  hasRole(HEALTH_PROFESSIONAL_LOW, _address) */\n      jump\t// in\n    tag_238:\n        /* \"src/Mediscan.sol\":2480:2606  if (hasRole(HEALTH_PROFESSIONAL_LOW, _address)) {... */\n      iszero\n      tag_240\n      jumpi\n        /* \"src/Mediscan.sol\":2549:2550  2 */\n      0x02\n        /* \"src/Mediscan.sol\":2542:2550  return 2 */\n      swap1\n      pop\n      jump(tag_229)\n        /* \"src/Mediscan.sol\":2480:2606  if (hasRole(HEALTH_PROFESSIONAL_LOW, _address)) {... */\n    tag_240:\n        /* \"src/Mediscan.sol\":299:309  2**256 - 1 */\n      0xffffffffffffffffffffffffffffffffffffffffffffffffffffffffffffffff\n        /* \"src/Mediscan.sol\":2581:2595  return MAX_INT */\n      swap1\n      pop\n        /* \"src/Mediscan.sol\":2211:2612  function getAccessLevelForAddress(address _address) external view returns (uint256) {... */\n    tag_229:\n      swap2\n      swap1\n      pop\n      jump\t// out\n        /* \"src/Mediscan.sol\":3877:4358  function payoutChainBaseTokenToFaceHash(bytes32 _faceHash, address _account) external onlyPaymentAdmin {... */\n    tag_101:\n        /* \"src/Mediscan.sol\":1813:1843  _checkRole(PAYMENT_ADMIN_ROLE) */\n      tag_243\n        /* \"src/Mediscan.sol\":465:503  abi.encodePacked(\"PAYMENT_ADMIN_ROLE\") */\n      add(0x20, mload(0x40))\n      tag_244\n      swap1\n      tag_198\n      jump\t// in\n    tag_244:\n      mload(0x40)\n      0x20\n      dup2\n      dup4\n      sub\n      sub\n      dup2\n      mstore\n      swap1\n      0x40\n      mstore\n        /* \"src/Mediscan.sol\":455:504  keccak256(abi.encodePacked(\"PAYMENT_ADMIN_ROLE\")) */\n      dup1\n      mload\n      swap1\n      0x20\n      add\n      keccak256\n        /* \"src/Mediscan.sol\":1813:1823  _checkRole */\n      tag_185\n        /* \"src/Mediscan.sol\":1813:1843  _checkRole(PAYMENT_ADMIN_ROLE) */\n      jump\t// in\n    tag_243:\n        /* \"src/Mediscan.sol\":3998:4018  registeredFaceHashes */\n      0x01\n        /* \"src/Mediscan.sol\":3998:4029  registeredFaceHashes[_faceHash] */\n      0x00\n        /* \"src/Mediscan.sol\":4019:4028  _faceHash */\n      dup4\n        /* \"src/Mediscan.sol\":3998:4029  registeredFaceHashes[_faceHash] */\n      dup2\n      mstore\n      0x20\n      add\n      swap1\n      dup2\n      mstore\n      0x20\n      add\n      0x00\n      keccak256\n      0x00\n      swap1\n      sload\n      swap1\n      0x0100\n      exp\n      swap1\n      div\n      0xff\n      and\n        /* \"src/Mediscan.sol\":3990:4058  require(registeredFaceHashes[_faceHash], \"Face hash not registered\") */\n      tag_246\n      jumpi\n      mload(0x40)\n      0x08c379a000000000000000000000000000000000000000000000000000000000\n      dup2\n      mstore\n      0x04\n      add\n      tag_247\n      swap1\n      tag_168\n      jump\t// in\n    tag_247:\n      mload(0x40)\n      dup1\n      swap2\n      sub\n      swap1\n      revert\n    tag_246:\n        /* \"src/Mediscan.sol\":4068:4082  uint256 amount */\n      0x00\n        /* \"src/Mediscan.sol\":4085:4112  baseTokenBalanceForFaceHash */\n      0x03\n        /* \"src/Mediscan.sol\":4085:4123  baseTokenBalanceForFaceHash[_faceHash] */\n      0x00\n        /* \"src/Mediscan.sol\":4113:4122  _faceHash */\n      dup5\n        /* \"src/Mediscan.sol\":4085:4123  baseTokenBalanceForFaceHash[_faceHash] */\n      dup2\n      mstore\n      0x20\n      add\n      swap1\n      dup2\n      mstore\n      0x20\n      add\n      0x00\n      keccak256\n      sload\n        /* \"src/Mediscan.sol\":4068:4123  uint256 amount = baseTokenBalanceForFaceHash[_faceHash] */\n      swap1\n      pop\n        /* \"src/Mediscan.sol\":4134:4146  bool success */\n      0x00\n        /* \"src/Mediscan.sol\":4152:4160  _account */\n      dup3\n        /* \"src/Mediscan.sol\":4152:4165  _account.call */\n      0xffffffffffffffffffffffffffffffffffffffff\n      and\n        /* \"src/Mediscan.sol\":4173:4179  amount */\n      dup3\n        /* \"src/Mediscan.sol\":4152:4184  _account.call{value: amount}(\"\") */\n      mload(0x40)\n      tag_248\n      swap1\n      tag_249\n      jump\t// in\n    tag_248:\n      0x00\n      mload(0x40)\n      dup1\n      dup4\n      sub\n      dup2\n      dup6\n      dup8\n      gas\n      call\n      swap3\n      pop\n      pop\n      pop\n      returndatasize\n      dup1\n      0x00\n      dup2\n      eq\n      tag_252\n      jumpi\n      mload(0x40)\n      swap2\n      pop\n      and(add(returndatasize, 0x3f), not(0x1f))\n      dup3\n      add\n      0x40\n      mstore\n      returndatasize\n      dup3\n      mstore\n      returndatasize\n      0x00\n      0x20\n      dup5\n      add\n      returndatacopy\n      jump(tag_251)\n    tag_252:\n      0x60\n      swap2\n      pop\n    tag_251:\n      pop\n        /* \"src/Mediscan.sol\":4133:4184  (bool success, ) = _account.call{value: amount}(\"\") */\n      pop\n      swap1\n      pop\n        /* \"src/Mediscan.sol\":4202:4209  success */\n      dup1\n        /* \"src/Mediscan.sol\":4194:4227  require(success, \"Payout failed\") */\n      tag_253\n      jumpi\n      mload(0x40)\n      0x08c379a000000000000000000000000000000000000000000000000000000000\n      dup2\n      mstore\n      0x04\n      add\n      tag_254\n      swap1\n      tag_255\n      jump\t// in\n    tag_254:\n      mload(0x40)\n      dup1\n      swap2\n      sub\n      swap1\n      revert\n    tag_253:\n        /* \"src/Mediscan.sol\":4279:4285  amount */\n      dup2\n        /* \"src/Mediscan.sol\":4237:4264  baseTokenBalanceForFaceHash */\n      0x03\n        /* \"src/Mediscan.sol\":4237:4275  baseTokenBalanceForFaceHash[_faceHash] */\n      0x00\n        /* \"src/Mediscan.sol\":4265:4274  _faceHash */\n      dup7\n        /* \"src/Mediscan.sol\":4237:4275  baseTokenBalanceForFaceHash[_faceHash] */\n      dup2\n      mstore\n      0x20\n      add\n      swap1\n      dup2\n      mstore\n      0x20\n      add\n      0x00\n      keccak256\n      0x00\n        /* \"src/Mediscan.sol\":4237:4285  baseTokenBalanceForFaceHash[_faceHash] -= amount */\n      dup3\n      dup3\n      sload\n      tag_256\n      swap2\n      swap1\n      tag_208\n      jump\t// in\n    tag_256:\n      swap3\n      pop\n      pop\n      dup2\n      swap1\n      sstore\n      pop\n        /* \"src/Mediscan.sol\":4342:4350  _account */\n      dup3\n        /* \"src/Mediscan.sol\":4300:4351  PayoutChainBaseTokenToFaceHash(_faceHash, _account) */\n      0xffffffffffffffffffffffffffffffffffffffff\n      and\n        /* \"src/Mediscan.sol\":4331:4340  _faceHash */\n      dup5\n        /* \"src/Mediscan.sol\":4300:4351  PayoutChainBaseTokenToFaceHash(_faceHash, _account) */\n      0xfd1d4f59cf1013ee232282cac3356b455525c6d4d04d18bed8216b7b6c2beb60\n      mload(0x40)\n      mload(0x40)\n      dup1\n      swap2\n      sub\n      swap1\n      log3\n        /* \"src/Mediscan.sol\":3980:4358  {... */\n      pop\n      pop\n        /* \"src/Mediscan.sol\":3877:4358  function payoutChainBaseTokenToFaceHash(bytes32 _faceHash, address _account) external onlyPaymentAdmin {... */\n      pop\n      pop\n      jump\t// out\n        /* \"src/Mediscan.sol\":732:836  bytes32 constant public HEALTH_PROFESSIONAL_LOW = keccak256(abi.encodePacked(\"HEALTH_PROFESSIONAL_LOW\")) */\n    tag_104:\n        /* \"src/Mediscan.sol\":792:835  abi.encodePacked(\"HEALTH_PROFESSIONAL_LOW\") */\n      add(0x20, mload(0x40))\n      tag_257\n      swap1\n      tag_225\n      jump\t// in\n    tag_257:\n      mload(0x40)\n      0x20\n      dup2\n      dup4\n      sub\n      sub\n      dup2\n      mstore\n      swap1\n      0x40\n      mstore\n        /* \"src/Mediscan.sol\":782:836  keccak256(abi.encodePacked(\"HEALTH_PROFESSIONAL_LOW\")) */\n      dup1\n      mload\n      swap1\n      0x20\n      add\n      keccak256\n        /* \"src/Mediscan.sol\":732:836  bytes32 constant public HEALTH_PROFESSIONAL_LOW = keccak256(abi.encodePacked(\"HEALTH_PROFESSIONAL_LOW\")) */\n      dup2\n      jump\t// out\n        /* \"src/Mediscan.sol\":4606:4725  function addPaymentAdmin(address _account) external onlyAdmin {... */\n    tag_109:\n        /* \"src/Mediscan.sol\":1635:1665  _checkRole(DEFAULT_ADMIN_ROLE) */\n      tag_259\n        /* \"@openzeppelin/contracts/access/AccessControl.sol\":2232:2236  0x00 */\n      0x00\n        /* \"src/Mediscan.sol\":1646:1664  DEFAULT_ADMIN_ROLE */\n      dup1\n      shl\n        /* \"src/Mediscan.sol\":1635:1645  _checkRole */\n      tag_185\n        /* \"src/Mediscan.sol\":1635:1665  _checkRole(DEFAULT_ADMIN_ROLE) */\n      jump\t// in\n    tag_259:\n        /* \"src/Mediscan.sol\":4678:4718  _grantRole(PAYMENT_ADMIN_ROLE, _account) */\n      tag_261\n        /* \"src/Mediscan.sol\":465:503  abi.encodePacked(\"PAYMENT_ADMIN_ROLE\") */\n      add(0x20, mload(0x40))\n      tag_262\n      swap1\n      tag_198\n      jump\t// in\n    tag_262:\n      mload(0x40)\n      0x20\n      dup2\n      dup4\n      sub\n      sub\n      dup2\n      mstore\n      swap1\n      0x40\n      mstore\n        /* \"src/Mediscan.sol\":455:504  keccak256(abi.encodePacked(\"PAYMENT_ADMIN_ROLE\")) */\n      dup1\n      mload\n      swap1\n      0x20\n      add\n      keccak256\n        /* \"src/Mediscan.sol\":4709:4717  _account */\n      dup3\n        /* \"src/Mediscan.sol\":4678:4688  _grantRole */\n      tag_188\n        /* \"src/Mediscan.sol\":4678:4718  _grantRole(PAYMENT_ADMIN_ROLE, _account) */\n      jump\t// in\n    tag_261:\n      pop\n        /* \"src/Mediscan.sol\":4606:4725  function addPaymentAdmin(address _account) external onlyAdmin {... */\n      pop\n      jump\t// out\n        /* \"@openzeppelin/contracts/access/AccessControl.sol\":2854:2990  function hasRole(bytes32 role, address account) public view virtual returns (bool) {... */\n    tag_113:\n        /* \"@openzeppelin/contracts/access/AccessControl.sol\":2931:2935  bool */\n      0x00\n        /* \"@openzeppelin/contracts/access/AccessControl.sol\":2954:2960  _roles */\n      dup1\n        /* \"@openzeppelin/contracts/access/AccessControl.sol\":2954:2966  _roles[role] */\n      0x00\n        /* \"@openzeppelin/contracts/access/AccessControl.sol\":2961:2965  role */\n      dup5\n        /* \"@openzeppelin/contracts/access/AccessControl.sol\":2954:2966  _roles[role] */\n      dup2\n      mstore\n      0x20\n      add\n      swap1\n      dup2\n      mstore\n      0x20\n      add\n      0x00\n      keccak256\n        /* \"@openzeppelin/contracts/access/AccessControl.sol\":2954:2974  _roles[role].hasRole */\n      0x00\n      add\n        /* \"@openzeppelin/contracts/access/AccessControl.sol\":2954:2983  _roles[role].hasRole[account] */\n      0x00\n        /* \"@openzeppelin/contracts/access/AccessControl.sol\":2975:2982  account */\n      dup4\n        /* \"@openzeppelin/contracts/access/AccessControl.sol\":2954:2983  _roles[role].hasRole[account] */\n      0xffffffffffffffffffffffffffffffffffffffff\n      and\n      0xffffffffffffffffffffffffffffffffffffffff\n      and\n      dup2\n      mstore\n      0x20\n      add\n      swap1\n      dup2\n      mstore\n      0x20\n      add\n      0x00\n      keccak256\n      0x00\n      swap1\n      sload\n      swap1\n      0x0100\n      exp\n      swap1\n      div\n      0xff\n      and\n        /* \"@openzeppelin/contracts/access/AccessControl.sol\":2947:2983  return _roles[role].hasRole[account] */\n      swap1\n      pop\n        /* \"@openzeppelin/contracts/access/AccessControl.sol\":2854:2990  function hasRole(bytes32 role, address account) public view virtual returns (bool) {... */\n      swap3\n      swap2\n      pop\n      pop\n      jump\t// out\n        /* \"@openzeppelin/contracts/access/AccessControl.sol\":2187:2236  bytes32 public constant DEFAULT_ADMIN_ROLE = 0x00 */\n    tag_117:\n        /* \"@openzeppelin/contracts/access/AccessControl.sol\":2232:2236  0x00 */\n      0x00\n        /* \"@openzeppelin/contracts/access/AccessControl.sol\":2187:2236  bytes32 public constant DEFAULT_ADMIN_ROLE = 0x00 */\n      dup1\n      shl\n      dup2\n      jump\t// out\n        /* \"src/Mediscan.sol\":410:504  bytes32 constant public PAYMENT_ADMIN_ROLE = keccak256(abi.encodePacked(\"PAYMENT_ADMIN_ROLE\")) */\n    tag_121:\n        /* \"src/Mediscan.sol\":465:503  abi.encodePacked(\"PAYMENT_ADMIN_ROLE\") */\n      add(0x20, mload(0x40))\n      tag_264\n      swap1\n      tag_198\n      jump\t// in\n    tag_264:\n      mload(0x40)\n      0x20\n      dup2\n      dup4\n      sub\n      sub\n      dup2\n      mstore\n      swap1\n      0x40\n      mstore\n        /* \"src/Mediscan.sol\":455:504  keccak256(abi.encodePacked(\"PAYMENT_ADMIN_ROLE\")) */\n      dup1\n      mload\n      swap1\n      0x20\n      add\n      keccak256\n        /* \"src/Mediscan.sol\":410:504  bytes32 constant public PAYMENT_ADMIN_ROLE = keccak256(abi.encodePacked(\"PAYMENT_ADMIN_ROLE\")) */\n      dup2\n      jump\t// out\n        /* \"src/Mediscan.sol\":4364:4477  function addUserAdmin(address _account) external onlyAdmin {... */\n    tag_126:\n        /* \"src/Mediscan.sol\":1635:1665  _checkRole(DEFAULT_ADMIN_ROLE) */\n      tag_266\n        /* \"@openzeppelin/contracts/access/AccessControl.sol\":2232:2236  0x00 */\n      0x00\n        /* \"src/Mediscan.sol\":1646:1664  DEFAULT_ADMIN_ROLE */\n      dup1\n      shl\n        /* \"src/Mediscan.sol\":1635:1645  _checkRole */\n      tag_185\n        /* \"src/Mediscan.sol\":1635:1665  _checkRole(DEFAULT_ADMIN_ROLE) */\n      jump\t// in\n    tag_266:\n        /* \"src/Mediscan.sol\":4433:4470  _grantRole(USER_ADMIN_ROLE, _account) */\n      tag_268\n        /* \"src/Mediscan.sol\":368:403  abi.encodePacked(\"USER_ADMIN_ROLE\") */\n      add(0x20, mload(0x40))\n      tag_269\n      swap1\n      tag_270\n      jump\t// in\n    tag_269:\n      mload(0x40)\n      0x20\n      dup2\n      dup4\n      sub\n      sub\n      dup2\n      mstore\n      swap1\n      0x40\n      mstore\n        /* \"src/Mediscan.sol\":358:404  keccak256(abi.encodePacked(\"USER_ADMIN_ROLE\")) */\n      dup1\n      mload\n      swap1\n      0x20\n      add\n      keccak256\n        /* \"src/Mediscan.sol\":4461:4469  _account */\n      dup3\n        /* \"src/Mediscan.sol\":4433:4443  _grantRole */\n      tag_188\n        /* \"src/Mediscan.sol\":4433:4470  _grantRole(USER_ADMIN_ROLE, _account) */\n      jump\t// in\n    tag_268:\n      pop\n        /* \"src/Mediscan.sol\":4364:4477  function addUserAdmin(address _account) external onlyAdmin {... */\n      pop\n      jump\t// out\n        /* \"@openzeppelin/contracts/access/AccessControl.sol\":4642:4780  function revokeRole(bytes32 role, address account) public virtual onlyRole(getRoleAdmin(role)) {... */\n    tag_130:\n        /* \"@openzeppelin/contracts/access/AccessControl.sol\":4717:4735  getRoleAdmin(role) */\n      tag_271\n        /* \"@openzeppelin/contracts/access/AccessControl.sol\":4730:4734  role */\n      dup3\n        /* \"@openzeppelin/contracts/access/AccessControl.sol\":4717:4729  getRoleAdmin */\n      tag_59\n        /* \"@openzeppelin/contracts/access/AccessControl.sol\":4717:4735  getRoleAdmin(role) */\n      jump\t// in\n    tag_271:\n        /* \"@openzeppelin/contracts/access/AccessControl.sol\":2464:2480  _checkRole(role) */\n      tag_273\n        /* \"@openzeppelin/contracts/access/AccessControl.sol\":2475:2479  role */\n      dup2\n        /* \"@openzeppelin/contracts/access/AccessControl.sol\":2464:2474  _checkRole */\n      tag_185\n        /* \"@openzeppelin/contracts/access/AccessControl.sol\":2464:2480  _checkRole(role) */\n      jump\t// in\n    tag_273:\n        /* \"@openzeppelin/contracts/access/AccessControl.sol\":4747:4773  _revokeRole(role, account) */\n      tag_275\n        /* \"@openzeppelin/contracts/access/AccessControl.sol\":4759:4763  role */\n      dup4\n        /* \"@openzeppelin/contracts/access/AccessControl.sol\":4765:4772  account */\n      dup4\n        /* \"@openzeppelin/contracts/access/AccessControl.sol\":4747:4758  _revokeRole */\n      tag_194\n        /* \"@openzeppelin/contracts/access/AccessControl.sol\":4747:4773  _revokeRole(role, account) */\n      jump\t// in\n    tag_275:\n      pop\n        /* \"@openzeppelin/contracts/access/AccessControl.sol\":4642:4780  function revokeRole(bytes32 role, address account) public virtual onlyRole(getRoleAdmin(role)) {... */\n      pop\n      pop\n      pop\n      jump\t// out\n        /* \"src/Mediscan.sol\":622:726  bytes32 constant public HEALTH_PROFESSIONAL_MID = keccak256(abi.encodePacked(\"HEALTH_PROFESSIONAL_MID\")) */\n    tag_133:\n        /* \"src/Mediscan.sol\":682:725  abi.encodePacked(\"HEALTH_PROFESSIONAL_MID\") */\n      add(0x20, mload(0x40))\n      tag_276\n      swap1\n      tag_220\n      jump\t// in\n    tag_276:\n      mload(0x40)\n      0x20\n      dup2\n      dup4\n      sub\n      sub\n      dup2\n      mstore\n      swap1\n      0x40\n      mstore\n        /* \"src/Mediscan.sol\":672:726  keccak256(abi.encodePacked(\"HEALTH_PROFESSIONAL_MID\")) */\n      dup1\n      mload\n      swap1\n      0x20\n      add\n      keccak256\n        /* \"src/Mediscan.sol\":622:726  bytes32 constant public HEALTH_PROFESSIONAL_MID = keccak256(abi.encodePacked(\"HEALTH_PROFESSIONAL_MID\")) */\n      dup2\n      jump\t// out\n        /* \"src/Mediscan.sol\":4731:4854  function removePaymentAdmin(address _account) external onlyAdmin {... */\n    tag_138:\n        /* \"src/Mediscan.sol\":1635:1665  _checkRole(DEFAULT_ADMIN_ROLE) */\n      tag_278\n        /* \"@openzeppelin/contracts/access/AccessControl.sol\":2232:2236  0x00 */\n      0x00\n        /* \"src/Mediscan.sol\":1646:1664  DEFAULT_ADMIN_ROLE */\n      dup1\n      shl\n        /* \"src/Mediscan.sol\":1635:1645  _checkRole */\n      tag_185\n        /* \"src/Mediscan.sol\":1635:1665  _checkRole(DEFAULT_ADMIN_ROLE) */\n      jump\t// in\n    tag_278:\n        /* \"src/Mediscan.sol\":4806:4847  _revokeRole(PAYMENT_ADMIN_ROLE, _account) */\n      tag_280\n        /* \"src/Mediscan.sol\":465:503  abi.encodePacked(\"PAYMENT_ADMIN_ROLE\") */\n      add(0x20, mload(0x40))\n      tag_281\n      swap1\n      tag_198\n      jump\t// in\n    tag_281:\n      mload(0x40)\n      0x20\n      dup2\n      dup4\n      sub\n      sub\n      dup2\n      mstore\n      swap1\n      0x40\n      mstore\n        /* \"src/Mediscan.sol\":455:504  keccak256(abi.encodePacked(\"PAYMENT_ADMIN_ROLE\")) */\n      dup1\n      mload\n      swap1\n      0x20\n      add\n      keccak256\n        /* \"src/Mediscan.sol\":4838:4846  _account */\n      dup3\n        /* \"src/Mediscan.sol\":4806:4817  _revokeRole */\n      tag_194\n        /* \"src/Mediscan.sol\":4806:4847  _revokeRole(PAYMENT_ADMIN_ROLE, _account) */\n      jump\t// in\n    tag_280:\n      pop\n        /* \"src/Mediscan.sol\":4731:4854  function removePaymentAdmin(address _account) external onlyAdmin {... */\n      pop\n      jump\t// out\n        /* \"src/Mediscan.sol\":5384:5549  function registerFaceHash(bytes32 _faceHash) external onlyUserAdmin {... */\n    tag_142:\n        /* \"src/Mediscan.sol\":1724:1751  _checkRole(USER_ADMIN_ROLE) */\n      tag_283\n        /* \"src/Mediscan.sol\":368:403  abi.encodePacked(\"USER_ADMIN_ROLE\") */\n      add(0x20, mload(0x40))\n      tag_284\n      swap1\n      tag_270\n      jump\t// in\n    tag_284:\n      mload(0x40)\n      0x20\n      dup2\n      dup4\n      sub\n      sub\n      dup2\n      mstore\n      swap1\n      0x40\n      mstore\n        /* \"src/Mediscan.sol\":358:404  keccak256(abi.encodePacked(\"USER_ADMIN_ROLE\")) */\n      dup1\n      mload\n      swap1\n      0x20\n      add\n      keccak256\n        /* \"src/Mediscan.sol\":1724:1734  _checkRole */\n      tag_185\n        /* \"src/Mediscan.sol\":1724:1751  _checkRole(USER_ADMIN_ROLE) */\n      jump\t// in\n    tag_283:\n        /* \"src/Mediscan.sol\":5496:5500  true */\n      0x01\n        /* \"src/Mediscan.sol\":5462:5482  registeredFaceHashes */\n      dup1\n        /* \"src/Mediscan.sol\":5462:5493  registeredFaceHashes[_faceHash] */\n      0x00\n        /* \"src/Mediscan.sol\":5483:5492  _faceHash */\n      dup4\n        /* \"src/Mediscan.sol\":5462:5493  registeredFaceHashes[_faceHash] */\n      dup2\n      mstore\n      0x20\n      add\n      swap1\n      dup2\n      mstore\n      0x20\n      add\n      0x00\n      keccak256\n      0x00\n        /* \"src/Mediscan.sol\":5462:5500  registeredFaceHashes[_faceHash] = true */\n      0x0100\n      exp\n      dup2\n      sload\n      dup2\n      0xff\n      mul\n      not\n      and\n      swap1\n      dup4\n      iszero\n      iszero\n      mul\n      or\n      swap1\n      sstore\n      pop\n        /* \"src/Mediscan.sol\":5532:5541  _faceHash */\n      dup1\n        /* \"src/Mediscan.sol\":5515:5542  RegisterFaceHash(_faceHash) */\n      0xfa9941fd9436b8f798d8da6c4747847bf053207fe545c37222588db50a6742f8\n      mload(0x40)\n      mload(0x40)\n      dup1\n      swap2\n      sub\n      swap1\n      log2\n        /* \"src/Mediscan.sol\":5384:5549  function registerFaceHash(bytes32 _faceHash) external onlyUserAdmin {... */\n      pop\n      jump\t// out\n        /* \"src/Mediscan.sol\":4483:4600  function removeUserAdmin(address _account) external onlyAdmin {... */\n    tag_146:\n        /* \"src/Mediscan.sol\":1635:1665  _checkRole(DEFAULT_ADMIN_ROLE) */\n      tag_287\n        /* \"@openzeppelin/contracts/access/AccessControl.sol\":2232:2236  0x00 */\n      0x00\n        /* \"src/Mediscan.sol\":1646:1664  DEFAULT_ADMIN_ROLE */\n      dup1\n      shl\n        /* \"src/Mediscan.sol\":1635:1645  _checkRole */\n      tag_185\n        /* \"src/Mediscan.sol\":1635:1665  _checkRole(DEFAULT_ADMIN_ROLE) */\n      jump\t// in\n    tag_287:\n        /* \"src/Mediscan.sol\":4555:4593  _revokeRole(USER_ADMIN_ROLE, _account) */\n      tag_289\n        /* \"src/Mediscan.sol\":368:403  abi.encodePacked(\"USER_ADMIN_ROLE\") */\n      add(0x20, mload(0x40))\n      tag_290\n      swap1\n      tag_270\n      jump\t// in\n    tag_290:\n      mload(0x40)\n      0x20\n      dup2\n      dup4\n      sub\n      sub\n      dup2\n      mstore\n      swap1\n      0x40\n      mstore\n        /* \"src/Mediscan.sol\":358:404  keccak256(abi.encodePacked(\"USER_ADMIN_ROLE\")) */\n      dup1\n      mload\n      swap1\n      0x20\n      add\n      keccak256\n        /* \"src/Mediscan.sol\":4584:4592  _account */\n      dup3\n        /* \"src/Mediscan.sol\":4555:4566  _revokeRole */\n      tag_194\n        /* \"src/Mediscan.sol\":4555:4593  _revokeRole(USER_ADMIN_ROLE, _account) */\n      jump\t// in\n    tag_289:\n      pop\n        /* \"src/Mediscan.sol\":4483:4600  function removeUserAdmin(address _account) external onlyAdmin {... */\n      pop\n      jump\t// out\n        /* \"src/Mediscan.sol\":989:1051  mapping(bytes32 => uint256) public baseTokenBalanceForFaceHash */\n    tag_150:\n      mstore(0x20, 0x03)\n      dup1\n      0x00\n      mstore\n      keccak256(0x00, 0x40)\n      0x00\n      swap2\n      pop\n      swap1\n      pop\n      sload\n      dup2\n      jump\t// out\n        /* \"src/Mediscan.sol\":510:616  bytes32 constant public HEALTH_PROFESSIONAL_FULL = keccak256(abi.encodePacked(\"HEALTH_PROFESSIONAL_FULL\")) */\n    tag_154:\n        /* \"src/Mediscan.sol\":571:615  abi.encodePacked(\"HEALTH_PROFESSIONAL_FULL\") */\n      add(0x20, mload(0x40))\n      tag_291\n      swap1\n      tag_215\n      jump\t// in\n    tag_291:\n      mload(0x40)\n      0x20\n      dup2\n      dup4\n      sub\n      sub\n      dup2\n      mstore\n      swap1\n      0x40\n      mstore\n        /* \"src/Mediscan.sol\":561:616  keccak256(abi.encodePacked(\"HEALTH_PROFESSIONAL_FULL\")) */\n      dup1\n      mload\n      swap1\n      0x20\n      add\n      keccak256\n        /* \"src/Mediscan.sol\":510:616  bytes32 constant public HEALTH_PROFESSIONAL_FULL = keccak256(abi.encodePacked(\"HEALTH_PROFESSIONAL_FULL\")) */\n      dup2\n      jump\t// out\n        /* \"src/Mediscan.sol\":316:404  bytes32 constant public USER_ADMIN_ROLE = keccak256(abi.encodePacked(\"USER_ADMIN_ROLE\")) */\n    tag_158:\n        /* \"src/Mediscan.sol\":368:403  abi.encodePacked(\"USER_ADMIN_ROLE\") */\n      add(0x20, mload(0x40))\n      tag_292\n      swap1\n      tag_270\n      jump\t// in\n    tag_292:\n      mload(0x40)\n      0x20\n      dup2\n      dup4\n      sub\n      sub\n      dup2\n      mstore\n      swap1\n      0x40\n      mstore\n        /* \"src/Mediscan.sol\":358:404  keccak256(abi.encodePacked(\"USER_ADMIN_ROLE\")) */\n      dup1\n      mload\n      swap1\n      0x20\n      add\n      keccak256\n        /* \"src/Mediscan.sol\":316:404  bytes32 constant public USER_ADMIN_ROLE = keccak256(abi.encodePacked(\"USER_ADMIN_ROLE\")) */\n      dup2\n      jump\t// out\n        /* \"@openzeppelin/contracts/utils/introspection/ERC165.sol\":762:908  function supportsInterface(bytes4 interfaceId) public view virtual returns (bool) {... */\n    tag_163:\n        /* \"@openzeppelin/contracts/utils/introspection/ERC165.sol\":838:842  bool */\n      0x00\n        /* \"@openzeppelin/contracts/utils/introspection/ERC165.sol\":876:901  type(IERC165).interfaceId */\n      0x01ffc9a700000000000000000000000000000000000000000000000000000000\n        /* \"@openzeppelin/contracts/utils/introspection/ERC165.sol\":861:901  interfaceId == type(IERC165).interfaceId */\n      not(0xffffffffffffffffffffffffffffffffffffffffffffffffffffffff)\n      and\n        /* \"@openzeppelin/contracts/utils/introspection/ERC165.sol\":861:872  interfaceId */\n      dup3\n        /* \"@openzeppelin/contracts/utils/introspection/ERC165.sol\":861:901  interfaceId == type(IERC165).interfaceId */\n      not(0xffffffffffffffffffffffffffffffffffffffffffffffffffffffff)\n      and\n      eq\n        /* \"@openzeppelin/contracts/utils/introspection/ERC165.sol\":854:901  return interfaceId == type(IERC165).interfaceId */\n      swap1\n      pop\n        /* \"@openzeppelin/contracts/utils/introspection/ERC165.sol\":762:908  function supportsInterface(bytes4 interfaceId) public view virtual returns (bool) {... */\n      swap2\n      swap1\n      pop\n      jump\t// out\n        /* \"@openzeppelin/contracts/access/AccessControl.sol\":3199:3302  function _checkRole(bytes32 role) internal view virtual {... */\n    tag_185:\n        /* \"@openzeppelin/contracts/access/AccessControl.sol\":3265:3295  _checkRole(role, _msgSender()) */\n      tag_295\n        /* \"@openzeppelin/contracts/access/AccessControl.sol\":3276:3280  role */\n      dup2\n        /* \"@openzeppelin/contracts/access/AccessControl.sol\":3282:3294  _msgSender() */\n      tag_296\n        /* \"@openzeppelin/contracts/access/AccessControl.sol\":3282:3292  _msgSender */\n      tag_191\n        /* \"@openzeppelin/contracts/access/AccessControl.sol\":3282:3294  _msgSender() */\n      jump\t// in\n    tag_296:\n        /* \"@openzeppelin/contracts/access/AccessControl.sol\":3265:3275  _checkRole */\n      tag_297\n        /* \"@openzeppelin/contracts/access/AccessControl.sol\":3265:3295  _checkRole(role, _msgSender()) */\n      jump\t// in\n    tag_295:\n        /* \"@openzeppelin/contracts/access/AccessControl.sol\":3199:3302  function _checkRole(bytes32 role) internal view virtual {... */\n      pop\n      jump\t// out\n        /* \"@openzeppelin/contracts/access/AccessControl.sol\":6179:6495  function _grantRole(bytes32 role, address account) internal virtual returns (bool) {... */\n    tag_188:\n        /* \"@openzeppelin/contracts/access/AccessControl.sol\":6256:6260  bool */\n      0x00\n        /* \"@openzeppelin/contracts/access/AccessControl.sol\":6277:6299  hasRole(role, account) */\n      tag_299\n        /* \"@openzeppelin/contracts/access/AccessControl.sol\":6285:6289  role */\n      dup4\n        /* \"@openzeppelin/contracts/access/AccessControl.sol\":6291:6298  account */\n      dup4\n        /* \"@openzeppelin/contracts/access/AccessControl.sol\":6277:6284  hasRole */\n      tag_113\n        /* \"@openzeppelin/contracts/access/AccessControl.sol\":6277:6299  hasRole(role, account) */\n      jump\t// in\n    tag_299:\n        /* \"@openzeppelin/contracts/access/AccessControl.sol\":6272:6489  if (!hasRole(role, account)) {... */\n      tag_300\n      jumpi\n        /* \"@openzeppelin/contracts/access/AccessControl.sol\":6347:6351  true */\n      0x01\n        /* \"@openzeppelin/contracts/access/AccessControl.sol\":6315:6321  _roles */\n      0x00\n        /* \"@openzeppelin/contracts/access/AccessControl.sol\":6315:6327  _roles[role] */\n      dup1\n        /* \"@openzeppelin/contracts/access/AccessControl.sol\":6322:6326  role */\n      dup6\n        /* \"@openzeppelin/contracts/access/AccessControl.sol\":6315:6327  _roles[role] */\n      dup2\n      mstore\n      0x20\n      add\n      swap1\n      dup2\n      mstore\n      0x20\n      add\n      0x00\n      keccak256\n        /* \"@openzeppelin/contracts/access/AccessControl.sol\":6315:6335  _roles[role].hasRole */\n      0x00\n      add\n        /* \"@openzeppelin/contracts/access/AccessControl.sol\":6315:6344  _roles[role].hasRole[account] */\n      0x00\n        /* \"@openzeppelin/contracts/access/AccessControl.sol\":6336:6343  account */\n      dup5\n        /* \"@openzeppelin/contracts/access/AccessControl.sol\":6315:6344  _roles[role].hasRole[account] */\n      0xffffffffffffffffffffffffffffffffffffffff\n      and\n      0xffffffffffffffffffffffffffffffffffffffff\n      and\n      dup2\n      mstore\n      0x20\n      add\n      swap1\n      dup2\n      mstore\n      0x20\n      add\n      0x00\n      keccak256\n      0x00\n        /* \"@openzeppelin/contracts/access/AccessControl.sol\":6315:6351  _roles[role].hasRole[account] = true */\n      0x0100\n      exp\n      dup2\n      sload\n      dup2\n      0xff\n      mul\n      not\n      and\n      swap1\n      dup4\n      iszero\n      iszero\n      mul\n      or\n      swap1\n      sstore\n      pop\n        /* \"@openzeppelin/contracts/access/AccessControl.sol\":6397:6409  _msgSender() */\n      tag_301\n        /* \"@openzeppelin/contracts/access/AccessControl.sol\":6397:6407  _msgSender */\n      tag_191\n        /* \"@openzeppelin/contracts/access/AccessControl.sol\":6397:6409  _msgSender() */\n      jump\t// in\n    tag_301:\n        /* \"@openzeppelin/contracts/access/AccessControl.sol\":6370:6410  RoleGranted(role, account, _msgSender()) */\n      0xffffffffffffffffffffffffffffffffffffffff\n      and\n        /* \"@openzeppelin/contracts/access/AccessControl.sol\":6388:6395  account */\n      dup3\n        /* \"@openzeppelin/contracts/access/AccessControl.sol\":6370:6410  RoleGranted(role, account, _msgSender()) */\n      0xffffffffffffffffffffffffffffffffffffffff\n      and\n        /* \"@openzeppelin/contracts/access/AccessControl.sol\":6382:6386  role */\n      dup5\n        /* \"@openzeppelin/contracts/access/AccessControl.sol\":6370:6410  RoleGranted(role, account, _msgSender()) */\n      0x2f8788117e7eff1d82e926ec794901d17c78024a50270940304540a733656f0d\n      mload(0x40)\n      mload(0x40)\n      dup1\n      swap2\n      sub\n      swap1\n      log4\n        /* \"@openzeppelin/contracts/access/AccessControl.sol\":6431:6435  true */\n      0x01\n        /* \"@openzeppelin/contracts/access/AccessControl.sol\":6424:6435  return true */\n      swap1\n      pop\n      jump(tag_298)\n        /* \"@openzeppelin/contracts/access/AccessControl.sol\":6272:6489  if (!hasRole(role, account)) {... */\n    tag_300:\n        /* \"@openzeppelin/contracts/access/AccessControl.sol\":6473:6478  false */\n      0x00\n        /* \"@openzeppelin/contracts/access/AccessControl.sol\":6466:6478  return false */\n      swap1\n      pop\n        /* \"@openzeppelin/contracts/access/AccessControl.sol\":6179:6495  function _grantRole(bytes32 role, address account) internal virtual returns (bool) {... */\n    tag_298:\n      swap3\n      swap2\n      pop\n      pop\n      jump\t// out\n        /* \"@openzeppelin/contracts/utils/Context.sol\":656:752  function _msgSender() internal view virtual returns (address) {... */\n    tag_191:\n        /* \"@openzeppelin/contracts/utils/Context.sol\":709:716  address */\n      0x00\n        /* \"@openzeppelin/contracts/utils/Context.sol\":735:745  msg.sender */\n      caller\n        /* \"@openzeppelin/contracts/utils/Context.sol\":728:745  return msg.sender */\n      swap1\n      pop\n        /* \"@openzeppelin/contracts/utils/Context.sol\":656:752  function _msgSender() internal view virtual returns (address) {... */\n      swap1\n      jump\t// out\n        /* \"@openzeppelin/contracts/access/AccessControl.sol\":6730:7047  function _revokeRole(bytes32 role, address account) internal virtual returns (bool) {... */\n    tag_194:\n        /* \"@openzeppelin/contracts/access/AccessControl.sol\":6808:6812  bool */\n      0x00\n        /* \"@openzeppelin/contracts/access/AccessControl.sol\":6828:6850  hasRole(role, account) */\n      tag_305\n        /* \"@openzeppelin/contracts/access/AccessControl.sol\":6836:6840  role */\n      dup4\n        /* \"@openzeppelin/contracts/access/AccessControl.sol\":6842:6849  account */\n      dup4\n        /* \"@openzeppelin/contracts/access/AccessControl.sol\":6828:6835  hasRole */\n      tag_113\n        /* \"@openzeppelin/contracts/access/AccessControl.sol\":6828:6850  hasRole(role, account) */\n      jump\t// in\n    tag_305:\n        /* \"@openzeppelin/contracts/access/AccessControl.sol\":6824:7041  if (hasRole(role, account)) {... */\n      iszero\n      tag_306\n      jumpi\n        /* \"@openzeppelin/contracts/access/AccessControl.sol\":6898:6903  false */\n      0x00\n        /* \"@openzeppelin/contracts/access/AccessControl.sol\":6866:6872  _roles */\n      dup1\n        /* \"@openzeppelin/contracts/access/AccessControl.sol\":6866:6878  _roles[role] */\n      0x00\n        /* \"@openzeppelin/contracts/access/AccessControl.sol\":6873:6877  role */\n      dup6\n        /* \"@openzeppelin/contracts/access/AccessControl.sol\":6866:6878  _roles[role] */\n      dup2\n      mstore\n      0x20\n      add\n      swap1\n      dup2\n      mstore\n      0x20\n      add\n      0x00\n      keccak256\n        /* \"@openzeppelin/contracts/access/AccessControl.sol\":6866:6886  _roles[role].hasRole */\n      0x00\n      add\n        /* \"@openzeppelin/contracts/access/AccessControl.sol\":6866:6895  _roles[role].hasRole[account] */\n      0x00\n        /* \"@openzeppelin/contracts/access/AccessControl.sol\":6887:6894  account */\n      dup5\n        /* \"@openzeppelin/contracts/access/AccessControl.sol\":6866:6895  _roles[role].hasRole[account] */\n      0xffffffffffffffffffffffffffffffffffffffff\n      and\n      0xffffffffffffffffffffffffffffffffffffffff\n      and\n      dup2\n      mstore\n      0x20\n      add\n      swap1\n      dup2\n      mstore\n      0x20\n      add\n      0x00\n      keccak256\n      0x00\n        /* \"@openzeppelin/contracts/access/AccessControl.sol\":6866:6903  _roles[role].hasRole[account] = false */\n      0x0100\n      exp\n      dup2\n      sload\n      dup2\n      0xff\n      mul\n      not\n      and\n      swap1\n      dup4\n      iszero\n      iszero\n      mul\n      or\n      swap1\n      sstore\n      pop\n        /* \"@openzeppelin/contracts/access/AccessControl.sol\":6949:6961  _msgSender() */\n      tag_307\n        /* \"@openzeppelin/contracts/access/AccessControl.sol\":6949:6959  _msgSender */\n      tag_191\n        /* \"@openzeppelin/contracts/access/AccessControl.sol\":6949:6961  _msgSender() */\n      jump\t// in\n    tag_307:\n        /* \"@openzeppelin/contracts/access/AccessControl.sol\":6922:6962  RoleRevoked(role, account, _msgSender()) */\n      0xffffffffffffffffffffffffffffffffffffffff\n      and\n        /* \"@openzeppelin/contracts/access/AccessControl.sol\":6940:6947  account */\n      dup3\n        /* \"@openzeppelin/contracts/access/AccessControl.sol\":6922:6962  RoleRevoked(role, account, _msgSender()) */\n      0xffffffffffffffffffffffffffffffffffffffff\n      and\n        /* \"@openzeppelin/contracts/access/AccessControl.sol\":6934:6938  role */\n      dup5\n        /* \"@openzeppelin/contracts/access/AccessControl.sol\":6922:6962  RoleRevoked(role, account, _msgSender()) */\n      0xf6391f5c32d9c69d2a47ea670b442974b53935d1edc7fd64eb21e047a839171b\n      mload(0x40)\n      mload(0x40)\n      dup1\n      swap2\n      sub\n      swap1\n      log4\n        /* \"@openzeppelin/contracts/access/AccessControl.sol\":6983:6987  true */\n      0x01\n        /* \"@openzeppelin/contracts/access/AccessControl.sol\":6976:6987  return true */\n      swap1\n      pop\n      jump(tag_304)\n        /* \"@openzeppelin/contracts/access/AccessControl.sol\":6824:7041  if (hasRole(role, account)) {... */\n    tag_306:\n        /* \"@openzeppelin/contracts/access/AccessControl.sol\":7025:7030  false */\n      0x00\n        /* \"@openzeppelin/contracts/access/AccessControl.sol\":7018:7030  return false */\n      swap1\n      pop\n        /* \"@openzeppelin/contracts/access/AccessControl.sol\":6730:7047  function _revokeRole(bytes32 role, address account) internal virtual returns (bool) {... */\n    tag_304:\n      swap3\n      swap2\n      pop\n      pop\n      jump\t// out\n        /* \"@openzeppelin/contracts/access/AccessControl.sol\":3432:3629  function _checkRole(bytes32 role, address account) internal view virtual {... */\n    tag_297:\n        /* \"@openzeppelin/contracts/access/AccessControl.sol\":3520:3542  hasRole(role, account) */\n      tag_310\n        /* \"@openzeppelin/contracts/access/AccessControl.sol\":3528:3532  role */\n      dup3\n        /* \"@openzeppelin/contracts/access/AccessControl.sol\":3534:3541  account */\n      dup3\n        /* \"@openzeppelin/contracts/access/AccessControl.sol\":3520:3527  hasRole */\n      tag_113\n        /* \"@openzeppelin/contracts/access/AccessControl.sol\":3520:3542  hasRole(role, account) */\n      jump\t// in\n    tag_310:\n        /* \"@openzeppelin/contracts/access/AccessControl.sol\":3515:3623  if (!hasRole(role, account)) {... */\n      tag_311\n      jumpi\n        /* \"@openzeppelin/contracts/access/AccessControl.sol\":3598:3605  account */\n      dup1\n        /* \"@openzeppelin/contracts/access/AccessControl.sol\":3607:3611  role */\n      dup3\n        /* \"@openzeppelin/contracts/access/AccessControl.sol\":3565:3612  AccessControlUnauthorizedAccount(account, role) */\n      mload(0x40)\n      0xe2517d3f00000000000000000000000000000000000000000000000000000000\n      dup2\n      mstore\n      0x04\n      add\n      tag_312\n      swap3\n      swap2\n      swap1\n      tag_313\n      jump\t// in\n    tag_312:\n      mload(0x40)\n      dup1\n      swap2\n      sub\n      swap1\n      revert\n        /* \"@openzeppelin/contracts/access/AccessControl.sol\":3515:3623  if (!hasRole(role, account)) {... */\n    tag_311:\n        /* \"@openzeppelin/contracts/access/AccessControl.sol\":3432:3629  function _checkRole(bytes32 role, address account) internal view virtual {... */\n      pop\n      pop\n      jump\t// out\n        /* \"#utility.yul\":88:205   */\n    tag_315:\n        /* \"#utility.yul\":197:198   */\n      0x00\n        /* \"#utility.yul\":194:195   */\n      dup1\n        /* \"#utility.yul\":187:199   */\n      revert\n        /* \"#utility.yul\":334:483   */\n    tag_317:\n        /* \"#utility.yul\":370:377   */\n      0x00\n        /* \"#utility.yul\":410:476   */\n      0xffffffff00000000000000000000000000000000000000000000000000000000\n        /* \"#utility.yul\":403:408   */\n      dup3\n        /* \"#utility.yul\":399:477   */\n      and\n        /* \"#utility.yul\":388:477   */\n      swap1\n      pop\n        /* \"#utility.yul\":334:483   */\n      swap2\n      swap1\n      pop\n      jump\t// out\n        /* \"#utility.yul\":489:609   */\n    tag_318:\n        /* \"#utility.yul\":561:584   */\n      tag_365\n        /* \"#utility.yul\":578:583   */\n      dup2\n        /* \"#utility.yul\":561:584   */\n      tag_317\n      jump\t// in\n    tag_365:\n        /* \"#utility.yul\":554:559   */\n      dup2\n        /* \"#utility.yul\":551:585   */\n      eq\n        /* \"#utility.yul\":541:603   */\n      tag_366\n      jumpi\n        /* \"#utility.yul\":599:600   */\n      0x00\n        /* \"#utility.yul\":596:597   */\n      dup1\n        /* \"#utility.yul\":589:601   */\n      revert\n        /* \"#utility.yul\":541:603   */\n    tag_366:\n        /* \"#utility.yul\":489:609   */\n      pop\n      jump\t// out\n        /* \"#utility.yul\":615:752   */\n    tag_319:\n        /* \"#utility.yul\":660:665   */\n      0x00\n        /* \"#utility.yul\":698:704   */\n      dup2\n        /* \"#utility.yul\":685:705   */\n      calldataload\n        /* \"#utility.yul\":676:705   */\n      swap1\n      pop\n        /* \"#utility.yul\":714:746   */\n      tag_368\n        /* \"#utility.yul\":740:745   */\n      dup2\n        /* \"#utility.yul\":714:746   */\n      tag_318\n      jump\t// in\n    tag_368:\n        /* \"#utility.yul\":615:752   */\n      swap3\n      swap2\n      pop\n      pop\n      jump\t// out\n        /* \"#utility.yul\":758:1085   */\n    tag_38:\n        /* \"#utility.yul\":816:822   */\n      0x00\n        /* \"#utility.yul\":865:867   */\n      0x20\n        /* \"#utility.yul\":853:862   */\n      dup3\n        /* \"#utility.yul\":844:851   */\n      dup5\n        /* \"#utility.yul\":840:863   */\n      sub\n        /* \"#utility.yul\":836:868   */\n      slt\n        /* \"#utility.yul\":833:952   */\n      iszero\n      tag_370\n      jumpi\n        /* \"#utility.yul\":871:950   */\n      tag_371\n      tag_315\n      jump\t// in\n    tag_371:\n        /* \"#utility.yul\":833:952   */\n    tag_370:\n        /* \"#utility.yul\":991:992   */\n      0x00\n        /* \"#utility.yul\":1016:1068   */\n      tag_372\n        /* \"#utility.yul\":1060:1067   */\n      dup5\n        /* \"#utility.yul\":1051:1057   */\n      dup3\n        /* \"#utility.yul\":1040:1049   */\n      dup6\n        /* \"#utility.yul\":1036:1058   */\n      add\n        /* \"#utility.yul\":1016:1068   */\n      tag_319\n      jump\t// in\n    tag_372:\n        /* \"#utility.yul\":1006:1068   */\n      swap2\n      pop\n        /* \"#utility.yul\":962:1078   */\n      pop\n        /* \"#utility.yul\":758:1085   */\n      swap3\n      swap2\n      pop\n      pop\n      jump\t// out\n        /* \"#utility.yul\":1091:1181   */\n    tag_320:\n        /* \"#utility.yul\":1125:1132   */\n      0x00\n        /* \"#utility.yul\":1168:1173   */\n      dup2\n        /* \"#utility.yul\":1161:1174   */\n      iszero\n        /* \"#utility.yul\":1154:1175   */\n      iszero\n        /* \"#utility.yul\":1143:1175   */\n      swap1\n      pop\n        /* \"#utility.yul\":1091:1181   */\n      swap2\n      swap1\n      pop\n      jump\t// out\n        /* \"#utility.yul\":1187:1296   */\n    tag_321:\n        /* \"#utility.yul\":1268:1289   */\n      tag_375\n        /* \"#utility.yul\":1283:1288   */\n      dup2\n        /* \"#utility.yul\":1268:1289   */\n      tag_320\n      jump\t// in\n    tag_375:\n        /* \"#utility.yul\":1263:1266   */\n      dup3\n        /* \"#utility.yul\":1256:1290   */\n      mstore\n        /* \"#utility.yul\":1187:1296   */\n      pop\n      pop\n      jump\t// out\n        /* \"#utility.yul\":1302:1512   */\n    tag_41:\n        /* \"#utility.yul\":1389:1393   */\n      0x00\n        /* \"#utility.yul\":1427:1429   */\n      0x20\n        /* \"#utility.yul\":1416:1425   */\n      dup3\n        /* \"#utility.yul\":1412:1430   */\n      add\n        /* \"#utility.yul\":1404:1430   */\n      swap1\n      pop\n        /* \"#utility.yul\":1440:1505   */\n      tag_377\n        /* \"#utility.yul\":1502:1503   */\n      0x00\n        /* \"#utility.yul\":1491:1500   */\n      dup4\n        /* \"#utility.yul\":1487:1504   */\n      add\n        /* \"#utility.yul\":1478:1484   */\n      dup5\n        /* \"#utility.yul\":1440:1505   */\n      tag_321\n      jump\t// in\n    tag_377:\n        /* \"#utility.yul\":1302:1512   */\n      swap3\n      swap2\n      pop\n      pop\n      jump\t// out\n        /* \"#utility.yul\":1518:1595   */\n    tag_322:\n        /* \"#utility.yul\":1555:1562   */\n      0x00\n        /* \"#utility.yul\":1584:1589   */\n      dup2\n        /* \"#utility.yul\":1573:1589   */\n      swap1\n      pop\n        /* \"#utility.yul\":1518:1595   */\n      swap2\n      swap1\n      pop\n      jump\t// out\n        /* \"#utility.yul\":1601:1723   */\n    tag_323:\n        /* \"#utility.yul\":1674:1698   */\n      tag_380\n        /* \"#utility.yul\":1692:1697   */\n      dup2\n        /* \"#utility.yul\":1674:1698   */\n      tag_322\n      jump\t// in\n    tag_380:\n        /* \"#utility.yul\":1667:1672   */\n      dup2\n        /* \"#utility.yul\":1664:1699   */\n      eq\n        /* \"#utility.yul\":1654:1717   */\n      tag_381\n      jumpi\n        /* \"#utility.yul\":1713:1714   */\n      0x00\n        /* \"#utility.yul\":1710:1711   */\n      dup1\n        /* \"#utility.yul\":1703:1715   */\n      revert\n        /* \"#utility.yul\":1654:1717   */\n    tag_381:\n        /* \"#utility.yul\":1601:1723   */\n      pop\n      jump\t// out\n        /* \"#utility.yul\":1729:1868   */\n    tag_324:\n        /* \"#utility.yul\":1775:1780   */\n      0x00\n        /* \"#utility.yul\":1813:1819   */\n      dup2\n        /* \"#utility.yul\":1800:1820   */\n      calldataload\n        /* \"#utility.yul\":1791:1820   */\n      swap1\n      pop\n        /* \"#utility.yul\":1829:1862   */\n      tag_383\n        /* \"#utility.yul\":1856:1861   */\n      dup2\n        /* \"#utility.yul\":1829:1862   */\n      tag_323\n      jump\t// in\n    tag_383:\n        /* \"#utility.yul\":1729:1868   */\n      swap3\n      swap2\n      pop\n      pop\n      jump\t// out\n        /* \"#utility.yul\":1874:2203   */\n    tag_45:\n        /* \"#utility.yul\":1933:1939   */\n      0x00\n        /* \"#utility.yul\":1982:1984   */\n      0x20\n        /* \"#utility.yul\":1970:1979   */\n      dup3\n        /* \"#utility.yul\":1961:1968   */\n      dup5\n        /* \"#utility.yul\":1957:1980   */\n      sub\n        /* \"#utility.yul\":1953:1985   */\n      slt\n        /* \"#utility.yul\":1950:2069   */\n      iszero\n      tag_385\n      jumpi\n        /* \"#utility.yul\":1988:2067   */\n      tag_386\n      tag_315\n      jump\t// in\n    tag_386:\n        /* \"#utility.yul\":1950:2069   */\n    tag_385:\n        /* \"#utility.yul\":2108:2109   */\n      0x00\n        /* \"#utility.yul\":2133:2186   */\n      tag_387\n        /* \"#utility.yul\":2178:2185   */\n      dup5\n        /* \"#utility.yul\":2169:2175   */\n      dup3\n        /* \"#utility.yul\":2158:2167   */\n      dup6\n        /* \"#utility.yul\":2154:2176   */\n      add\n        /* \"#utility.yul\":2133:2186   */\n      tag_324\n      jump\t// in\n    tag_387:\n        /* \"#utility.yul\":2123:2186   */\n      swap2\n      pop\n        /* \"#utility.yul\":2079:2196   */\n      pop\n        /* \"#utility.yul\":1874:2203   */\n      swap3\n      swap2\n      pop\n      pop\n      jump\t// out\n        /* \"#utility.yul\":2209:2335   */\n    tag_325:\n        /* \"#utility.yul\":2246:2253   */\n      0x00\n        /* \"#utility.yul\":2286:2328   */\n      0xffffffffffffffffffffffffffffffffffffffff\n        /* \"#utility.yul\":2279:2284   */\n      dup3\n        /* \"#utility.yul\":2275:2329   */\n      and\n        /* \"#utility.yul\":2264:2329   */\n      swap1\n      pop\n        /* \"#utility.yul\":2209:2335   */\n      swap2\n      swap1\n      pop\n      jump\t// out\n        /* \"#utility.yul\":2341:2437   */\n    tag_326:\n        /* \"#utility.yul\":2378:2385   */\n      0x00\n        /* \"#utility.yul\":2407:2431   */\n      tag_390\n        /* \"#utility.yul\":2425:2430   */\n      dup3\n        /* \"#utility.yul\":2407:2431   */\n      tag_325\n      jump\t// in\n    tag_390:\n        /* \"#utility.yul\":2396:2431   */\n      swap1\n      pop\n        /* \"#utility.yul\":2341:2437   */\n      swap2\n      swap1\n      pop\n      jump\t// out\n        /* \"#utility.yul\":2443:2565   */\n    tag_327:\n        /* \"#utility.yul\":2516:2540   */\n      tag_392\n        /* \"#utility.yul\":2534:2539   */\n      dup2\n        /* \"#utility.yul\":2516:2540   */\n      tag_326\n      jump\t// in\n    tag_392:\n        /* \"#utility.yul\":2509:2514   */\n      dup2\n        /* \"#utility.yul\":2506:2541   */\n      eq\n        /* \"#utility.yul\":2496:2559   */\n      tag_393\n      jumpi\n        /* \"#utility.yul\":2555:2556   */\n      0x00\n        /* \"#utility.yul\":2552:2553   */\n      dup1\n        /* \"#utility.yul\":2545:2557   */\n      revert\n        /* \"#utility.yul\":2496:2559   */\n    tag_393:\n        /* \"#utility.yul\":2443:2565   */\n      pop\n      jump\t// out\n        /* \"#utility.yul\":2571:2710   */\n    tag_328:\n        /* \"#utility.yul\":2617:2622   */\n      0x00\n        /* \"#utility.yul\":2655:2661   */\n      dup2\n        /* \"#utility.yul\":2642:2662   */\n      calldataload\n        /* \"#utility.yul\":2633:2662   */\n      swap1\n      pop\n        /* \"#utility.yul\":2671:2704   */\n      tag_395\n        /* \"#utility.yul\":2698:2703   */\n      dup2\n        /* \"#utility.yul\":2671:2704   */\n      tag_327\n      jump\t// in\n    tag_395:\n        /* \"#utility.yul\":2571:2710   */\n      swap3\n      swap2\n      pop\n      pop\n      jump\t// out\n        /* \"#utility.yul\":2716:2793   */\n    tag_329:\n        /* \"#utility.yul\":2753:2760   */\n      0x00\n        /* \"#utility.yul\":2782:2787   */\n      dup2\n        /* \"#utility.yul\":2771:2787   */\n      swap1\n      pop\n        /* \"#utility.yul\":2716:2793   */\n      swap2\n      swap1\n      pop\n      jump\t// out\n        /* \"#utility.yul\":2799:2921   */\n    tag_330:\n        /* \"#utility.yul\":2872:2896   */\n      tag_398\n        /* \"#utility.yul\":2890:2895   */\n      dup2\n        /* \"#utility.yul\":2872:2896   */\n      tag_329\n      jump\t// in\n    tag_398:\n        /* \"#utility.yul\":2865:2870   */\n      dup2\n        /* \"#utility.yul\":2862:2897   */\n      eq\n        /* \"#utility.yul\":2852:2915   */\n      tag_399\n      jumpi\n        /* \"#utility.yul\":2911:2912   */\n      0x00\n        /* \"#utility.yul\":2908:2909   */\n      dup1\n        /* \"#utility.yul\":2901:2913   */\n      revert\n        /* \"#utility.yul\":2852:2915   */\n    tag_399:\n        /* \"#utility.yul\":2799:2921   */\n      pop\n      jump\t// out\n        /* \"#utility.yul\":2927:3066   */\n    tag_331:\n        /* \"#utility.yul\":2973:2978   */\n      0x00\n        /* \"#utility.yul\":3011:3017   */\n      dup2\n        /* \"#utility.yul\":2998:3018   */\n      calldataload\n        /* \"#utility.yul\":2989:3018   */\n      swap1\n      pop\n        /* \"#utility.yul\":3027:3060   */\n      tag_401\n        /* \"#utility.yul\":3054:3059   */\n      dup2\n        /* \"#utility.yul\":3027:3060   */\n      tag_330\n      jump\t// in\n    tag_401:\n        /* \"#utility.yul\":2927:3066   */\n      swap3\n      swap2\n      pop\n      pop\n      jump\t// out\n        /* \"#utility.yul\":3072:3691   */\n    tag_51:\n        /* \"#utility.yul\":3149:3155   */\n      0x00\n        /* \"#utility.yul\":3157:3163   */\n      dup1\n        /* \"#utility.yul\":3165:3171   */\n      0x00\n        /* \"#utility.yul\":3214:3216   */\n      0x60\n        /* \"#utility.yul\":3202:3211   */\n      dup5\n        /* \"#utility.yul\":3193:3200   */\n      dup7\n        /* \"#utility.yul\":3189:3212   */\n      sub\n        /* \"#utility.yul\":3185:3217   */\n      slt\n        /* \"#utility.yul\":3182:3301   */\n      iszero\n      tag_403\n      jumpi\n        /* \"#utility.yul\":3220:3299   */\n      tag_404\n      tag_315\n      jump\t// in\n    tag_404:\n        /* \"#utility.yul\":3182:3301   */\n    tag_403:\n        /* \"#utility.yul\":3340:3341   */\n      0x00\n        /* \"#utility.yul\":3365:3418   */\n      tag_405\n        /* \"#utility.yul\":3410:3417   */\n      dup7\n        /* \"#utility.yul\":3401:3407   */\n      dup3\n        /* \"#utility.yul\":3390:3399   */\n      dup8\n        /* \"#utility.yul\":3386:3408   */\n      add\n        /* \"#utility.yul\":3365:3418   */\n      tag_324\n      jump\t// in\n    tag_405:\n        /* \"#utility.yul\":3355:3418   */\n      swap4\n      pop\n        /* \"#utility.yul\":3311:3428   */\n      pop\n        /* \"#utility.yul\":3467:3469   */\n      0x20\n        /* \"#utility.yul\":3493:3546   */\n      tag_406\n        /* \"#utility.yul\":3538:3545   */\n      dup7\n        /* \"#utility.yul\":3529:3535   */\n      dup3\n        /* \"#utility.yul\":3518:3527   */\n      dup8\n        /* \"#utility.yul\":3514:3536   */\n      add\n        /* \"#utility.yul\":3493:3546   */\n      tag_328\n      jump\t// in\n    tag_406:\n        /* \"#utility.yul\":3483:3546   */\n      swap3\n      pop\n        /* \"#utility.yul\":3438:3556   */\n      pop\n        /* \"#utility.yul\":3595:3597   */\n      0x40\n        /* \"#utility.yul\":3621:3674   */\n      tag_407\n        /* \"#utility.yul\":3666:3673   */\n      dup7\n        /* \"#utility.yul\":3657:3663   */\n      dup3\n        /* \"#utility.yul\":3646:3655   */\n      dup8\n        /* \"#utility.yul\":3642:3664   */\n      add\n        /* \"#utility.yul\":3621:3674   */\n      tag_331\n      jump\t// in\n    tag_407:\n        /* \"#utility.yul\":3611:3674   */\n      swap2\n      pop\n        /* \"#utility.yul\":3566:3684   */\n      pop\n        /* \"#utility.yul\":3072:3691   */\n      swap3\n      pop\n      swap3\n      pop\n      swap3\n      jump\t// out\n        /* \"#utility.yul\":3697:3815   */\n    tag_332:\n        /* \"#utility.yul\":3784:3808   */\n      tag_409\n        /* \"#utility.yul\":3802:3807   */\n      dup2\n        /* \"#utility.yul\":3784:3808   */\n      tag_322\n      jump\t// in\n    tag_409:\n        /* \"#utility.yul\":3779:3782   */\n      dup3\n        /* \"#utility.yul\":3772:3809   */\n      mstore\n        /* \"#utility.yul\":3697:3815   */\n      pop\n      pop\n      jump\t// out\n        /* \"#utility.yul\":3821:4043   */\n    tag_61:\n        /* \"#utility.yul\":3914:3918   */\n      0x00\n        /* \"#utility.yul\":3952:3954   */\n      0x20\n        /* \"#utility.yul\":3941:3950   */\n      dup3\n        /* \"#utility.yul\":3937:3955   */\n      add\n        /* \"#utility.yul\":3929:3955   */\n      swap1\n      pop\n        /* \"#utility.yul\":3965:4036   */\n      tag_411\n        /* \"#utility.yul\":4033:4034   */\n      0x00\n        /* \"#utility.yul\":4022:4031   */\n      dup4\n        /* \"#utility.yul\":4018:4035   */\n      add\n        /* \"#utility.yul\":4009:4015   */\n      dup5\n        /* \"#utility.yul\":3965:4036   */\n      tag_332\n      jump\t// in\n    tag_411:\n        /* \"#utility.yul\":3821:4043   */\n      swap3\n      swap2\n      pop\n      pop\n      jump\t// out\n        /* \"#utility.yul\":4049:4523   */\n    tag_65:\n        /* \"#utility.yul\":4117:4123   */\n      0x00\n        /* \"#utility.yul\":4125:4131   */\n      dup1\n        /* \"#utility.yul\":4174:4176   */\n      0x40\n        /* \"#utility.yul\":4162:4171   */\n      dup4\n        /* \"#utility.yul\":4153:4160   */\n      dup6\n        /* \"#utility.yul\":4149:4172   */\n      sub\n        /* \"#utility.yul\":4145:4177   */\n      slt\n        /* \"#utility.yul\":4142:4261   */\n      iszero\n      tag_413\n      jumpi\n        /* \"#utility.yul\":4180:4259   */\n      tag_414\n      tag_315\n      jump\t// in\n    tag_414:\n        /* \"#utility.yul\":4142:4261   */\n    tag_413:\n        /* \"#utility.yul\":4300:4301   */\n      0x00\n        /* \"#utility.yul\":4325:4378   */\n      tag_415\n        /* \"#utility.yul\":4370:4377   */\n      dup6\n        /* \"#utility.yul\":4361:4367   */\n      dup3\n        /* \"#utility.yul\":4350:4359   */\n      dup7\n        /* \"#utility.yul\":4346:4368   */\n      add\n        /* \"#utility.yul\":4325:4378   */\n      tag_324\n      jump\t// in\n    tag_415:\n        /* \"#utility.yul\":4315:4378   */\n      swap3\n      pop\n        /* \"#utility.yul\":4271:4388   */\n      pop\n        /* \"#utility.yul\":4427:4429   */\n      0x20\n        /* \"#utility.yul\":4453:4506   */\n      tag_416\n        /* \"#utility.yul\":4498:4505   */\n      dup6\n        /* \"#utility.yul\":4489:4495   */\n      dup3\n        /* \"#utility.yul\":4478:4487   */\n      dup7\n        /* \"#utility.yul\":4474:4496   */\n      add\n        /* \"#utility.yul\":4453:4506   */\n      tag_328\n      jump\t// in\n    tag_416:\n        /* \"#utility.yul\":4443:4506   */\n      swap2\n      pop\n        /* \"#utility.yul\":4398:4516   */\n      pop\n        /* \"#utility.yul\":4049:4523   */\n      swap3\n      pop\n      swap3\n      swap1\n      pop\n      jump\t// out\n        /* \"#utility.yul\":4529:4647   */\n    tag_333:\n        /* \"#utility.yul\":4616:4640   */\n      tag_418\n        /* \"#utility.yul\":4634:4639   */\n      dup2\n        /* \"#utility.yul\":4616:4640   */\n      tag_329\n      jump\t// in\n    tag_418:\n        /* \"#utility.yul\":4611:4614   */\n      dup3\n        /* \"#utility.yul\":4604:4641   */\n      mstore\n        /* \"#utility.yul\":4529:4647   */\n      pop\n      pop\n      jump\t// out\n        /* \"#utility.yul\":4653:4875   */\n    tag_68:\n        /* \"#utility.yul\":4746:4750   */\n      0x00\n        /* \"#utility.yul\":4784:4786   */\n      0x20\n        /* \"#utility.yul\":4773:4782   */\n      dup3\n        /* \"#utility.yul\":4769:4787   */\n      add\n        /* \"#utility.yul\":4761:4787   */\n      swap1\n      pop\n        /* \"#utility.yul\":4797:4868   */\n      tag_420\n        /* \"#utility.yul\":4865:4866   */\n      0x00\n        /* \"#utility.yul\":4854:4863   */\n      dup4\n        /* \"#utility.yul\":4850:4867   */\n      add\n        /* \"#utility.yul\":4841:4847   */\n      dup5\n        /* \"#utility.yul\":4797:4868   */\n      tag_333\n      jump\t// in\n    tag_420:\n        /* \"#utility.yul\":4653:4875   */\n      swap3\n      swap2\n      pop\n      pop\n      jump\t// out\n        /* \"#utility.yul\":4881:5500   */\n    tag_85:\n        /* \"#utility.yul\":4958:4964   */\n      0x00\n        /* \"#utility.yul\":4966:4972   */\n      dup1\n        /* \"#utility.yul\":4974:4980   */\n      0x00\n        /* \"#utility.yul\":5023:5025   */\n      0x60\n        /* \"#utility.yul\":5011:5020   */\n      dup5\n        /* \"#utility.yul\":5002:5009   */\n      dup7\n        /* \"#utility.yul\":4998:5021   */\n      sub\n        /* \"#utility.yul\":4994:5026   */\n      slt\n        /* \"#utility.yul\":4991:5110   */\n      iszero\n      tag_422\n      jumpi\n        /* \"#utility.yul\":5029:5108   */\n      tag_423\n      tag_315\n      jump\t// in\n    tag_423:\n        /* \"#utility.yul\":4991:5110   */\n    tag_422:\n        /* \"#utility.yul\":5149:5150   */\n      0x00\n        /* \"#utility.yul\":5174:5227   */\n      tag_424\n        /* \"#utility.yul\":5219:5226   */\n      dup7\n        /* \"#utility.yul\":5210:5216   */\n      dup3\n        /* \"#utility.yul\":5199:5208   */\n      dup8\n        /* \"#utility.yul\":5195:5217   */\n      add\n        /* \"#utility.yul\":5174:5227   */\n      tag_324\n      jump\t// in\n    tag_424:\n        /* \"#utility.yul\":5164:5227   */\n      swap4\n      pop\n        /* \"#utility.yul\":5120:5237   */\n      pop\n        /* \"#utility.yul\":5276:5278   */\n      0x20\n        /* \"#utility.yul\":5302:5355   */\n      tag_425\n        /* \"#utility.yul\":5347:5354   */\n      dup7\n        /* \"#utility.yul\":5338:5344   */\n      dup3\n        /* \"#utility.yul\":5327:5336   */\n      dup8\n        /* \"#utility.yul\":5323:5345   */\n      add\n        /* \"#utility.yul\":5302:5355   */\n      tag_328\n      jump\t// in\n    tag_425:\n        /* \"#utility.yul\":5292:5355   */\n      swap3\n      pop\n        /* \"#utility.yul\":5247:5365   */\n      pop\n        /* \"#utility.yul\":5404:5406   */\n      0x40\n        /* \"#utility.yul\":5430:5483   */\n      tag_426\n        /* \"#utility.yul\":5475:5482   */\n      dup7\n        /* \"#utility.yul\":5466:5472   */\n      dup3\n        /* \"#utility.yul\":5455:5464   */\n      dup8\n        /* \"#utility.yul\":5451:5473   */\n      add\n        /* \"#utility.yul\":5430:5483   */\n      tag_328\n      jump\t// in\n    tag_426:\n        /* \"#utility.yul\":5420:5483   */\n      swap2\n      pop\n        /* \"#utility.yul\":5375:5493   */\n      pop\n        /* \"#utility.yul\":4881:5500   */\n      swap3\n      pop\n      swap3\n      pop\n      swap3\n      jump\t// out\n        /* \"#utility.yul\":5506:5980   */\n    tag_90:\n        /* \"#utility.yul\":5574:5580   */\n      0x00\n        /* \"#utility.yul\":5582:5588   */\n      dup1\n        /* \"#utility.yul\":5631:5633   */\n      0x40\n        /* \"#utility.yul\":5619:5628   */\n      dup4\n        /* \"#utility.yul\":5610:5617   */\n      dup6\n        /* \"#utility.yul\":5606:5629   */\n      sub\n        /* \"#utility.yul\":5602:5634   */\n      slt\n        /* \"#utility.yul\":5599:5718   */\n      iszero\n      tag_428\n      jumpi\n        /* \"#utility.yul\":5637:5716   */\n      tag_429\n      tag_315\n      jump\t// in\n    tag_429:\n        /* \"#utility.yul\":5599:5718   */\n    tag_428:\n        /* \"#utility.yul\":5757:5758   */\n      0x00\n        /* \"#utility.yul\":5782:5835   */\n      tag_430\n        /* \"#utility.yul\":5827:5834   */\n      dup6\n        /* \"#utility.yul\":5818:5824   */\n      dup3\n        /* \"#utility.yul\":5807:5816   */\n      dup7\n        /* \"#utility.yul\":5803:5825   */\n      add\n        /* \"#utility.yul\":5782:5835   */\n      tag_328\n      jump\t// in\n    tag_430:\n        /* \"#utility.yul\":5772:5835   */\n      swap3\n      pop\n        /* \"#utility.yul\":5728:5845   */\n      pop\n        /* \"#utility.yul\":5884:5886   */\n      0x20\n        /* \"#utility.yul\":5910:5963   */\n      tag_431\n        /* \"#utility.yul\":5955:5962   */\n      dup6\n        /* \"#utility.yul\":5946:5952   */\n      dup3\n        /* \"#utility.yul\":5935:5944   */\n      dup7\n        /* \"#utility.yul\":5931:5953   */\n      add\n        /* \"#utility.yul\":5910:5963   */\n      tag_331\n      jump\t// in\n    tag_431:\n        /* \"#utility.yul\":5900:5963   */\n      swap2\n      pop\n        /* \"#utility.yul\":5855:5973   */\n      pop\n        /* \"#utility.yul\":5506:5980   */\n      swap3\n      pop\n      swap3\n      swap1\n      pop\n      jump\t// out\n        /* \"#utility.yul\":5986:6315   */\n    tag_95:\n        /* \"#utility.yul\":6045:6051   */\n      0x00\n        /* \"#utility.yul\":6094:6096   */\n      0x20\n        /* \"#utility.yul\":6082:6091   */\n      dup3\n        /* \"#utility.yul\":6073:6080   */\n      dup5\n        /* \"#utility.yul\":6069:6092   */\n      sub\n        /* \"#utility.yul\":6065:6097   */\n      slt\n        /* \"#utility.yul\":6062:6181   */\n      iszero\n      tag_433\n      jumpi\n        /* \"#utility.yul\":6100:6179   */\n      tag_434\n      tag_315\n      jump\t// in\n    tag_434:\n        /* \"#utility.yul\":6062:6181   */\n    tag_433:\n        /* \"#utility.yul\":6220:6221   */\n      0x00\n        /* \"#utility.yul\":6245:6298   */\n      tag_435\n        /* \"#utility.yul\":6290:6297   */\n      dup5\n        /* \"#utility.yul\":6281:6287   */\n      dup3\n        /* \"#utility.yul\":6270:6279   */\n      dup6\n        /* \"#utility.yul\":6266:6288   */\n      add\n        /* \"#utility.yul\":6245:6298   */\n      tag_328\n      jump\t// in\n    tag_435:\n        /* \"#utility.yul\":6235:6298   */\n      swap2\n      pop\n        /* \"#utility.yul\":6191:6308   */\n      pop\n        /* \"#utility.yul\":5986:6315   */\n      swap3\n      swap2\n      pop\n      pop\n      jump\t// out\n        /* \"#utility.yul\":6321:6490   */\n    tag_334:\n        /* \"#utility.yul\":6405:6416   */\n      0x00\n        /* \"#utility.yul\":6439:6445   */\n      dup3\n        /* \"#utility.yul\":6434:6437   */\n      dup3\n        /* \"#utility.yul\":6427:6446   */\n      mstore\n        /* \"#utility.yul\":6479:6483   */\n      0x20\n        /* \"#utility.yul\":6474:6477   */\n      dup3\n        /* \"#utility.yul\":6470:6484   */\n      add\n        /* \"#utility.yul\":6455:6484   */\n      swap1\n      pop\n        /* \"#utility.yul\":6321:6490   */\n      swap3\n      swap2\n      pop\n      pop\n      jump\t// out\n        /* \"#utility.yul\":6496:6670   */\n    tag_335:\n        /* \"#utility.yul\":6636:6662   */\n      0x466163652068617368206e6f7420726567697374657265640000000000000000\n        /* \"#utility.yul\":6632:6633   */\n      0x00\n        /* \"#utility.yul\":6624:6630   */\n      dup3\n        /* \"#utility.yul\":6620:6634   */\n      add\n        /* \"#utility.yul\":6613:6663   */\n      mstore\n        /* \"#utility.yul\":6496:6670   */\n      pop\n      jump\t// out\n        /* \"#utility.yul\":6676:7042   */\n    tag_336:\n        /* \"#utility.yul\":6818:6821   */\n      0x00\n        /* \"#utility.yul\":6839:6906   */\n      tag_439\n        /* \"#utility.yul\":6903:6905   */\n      0x18\n        /* \"#utility.yul\":6898:6901   */\n      dup4\n        /* \"#utility.yul\":6839:6906   */\n      tag_334\n      jump\t// in\n    tag_439:\n        /* \"#utility.yul\":6832:6906   */\n      swap2\n      pop\n        /* \"#utility.yul\":6915:7008   */\n      tag_440\n        /* \"#utility.yul\":7004:7007   */\n      dup3\n        /* \"#utility.yul\":6915:7008   */\n      tag_335\n      jump\t// in\n    tag_440:\n        /* \"#utility.yul\":7033:7035   */\n      0x20\n        /* \"#utility.yul\":7028:7031   */\n      dup3\n        /* \"#utility.yul\":7024:7036   */\n      add\n        /* \"#utility.yul\":7017:7036   */\n      swap1\n      pop\n        /* \"#utility.yul\":6676:7042   */\n      swap2\n      swap1\n      pop\n      jump\t// out\n        /* \"#utility.yul\":7048:7467   */\n    tag_168:\n        /* \"#utility.yul\":7214:7218   */\n      0x00\n        /* \"#utility.yul\":7252:7254   */\n      0x20\n        /* \"#utility.yul\":7241:7250   */\n      dup3\n        /* \"#utility.yul\":7237:7255   */\n      add\n        /* \"#utility.yul\":7229:7255   */\n      swap1\n      pop\n        /* \"#utility.yul\":7301:7310   */\n      dup2\n        /* \"#utility.yul\":7295:7299   */\n      dup2\n        /* \"#utility.yul\":7291:7311   */\n      sub\n        /* \"#utility.yul\":7287:7288   */\n      0x00\n        /* \"#utility.yul\":7276:7285   */\n      dup4\n        /* \"#utility.yul\":7272:7289   */\n      add\n        /* \"#utility.yul\":7265:7312   */\n      mstore\n        /* \"#utility.yul\":7329:7460   */\n      tag_442\n        /* \"#utility.yul\":7455:7459   */\n      dup2\n        /* \"#utility.yul\":7329:7460   */\n      tag_336\n      jump\t// in\n    tag_442:\n        /* \"#utility.yul\":7321:7460   */\n      swap1\n      pop\n        /* \"#utility.yul\":7048:7467   */\n      swap2\n      swap1\n      pop\n      jump\t// out\n        /* \"#utility.yul\":7473:7591   */\n    tag_337:\n        /* \"#utility.yul\":7560:7584   */\n      tag_444\n        /* \"#utility.yul\":7578:7583   */\n      dup2\n        /* \"#utility.yul\":7560:7584   */\n      tag_326\n      jump\t// in\n    tag_444:\n        /* \"#utility.yul\":7555:7558   */\n      dup3\n        /* \"#utility.yul\":7548:7585   */\n      mstore\n        /* \"#utility.yul\":7473:7591   */\n      pop\n      pop\n      jump\t// out\n        /* \"#utility.yul\":7597:8039   */\n    tag_170:\n        /* \"#utility.yul\":7746:7750   */\n      0x00\n        /* \"#utility.yul\":7784:7786   */\n      0x60\n        /* \"#utility.yul\":7773:7782   */\n      dup3\n        /* \"#utility.yul\":7769:7787   */\n      add\n        /* \"#utility.yul\":7761:7787   */\n      swap1\n      pop\n        /* \"#utility.yul\":7797:7868   */\n      tag_446\n        /* \"#utility.yul\":7865:7866   */\n      0x00\n        /* \"#utility.yul\":7854:7863   */\n      dup4\n        /* \"#utility.yul\":7850:7867   */\n      add\n        /* \"#utility.yul\":7841:7847   */\n      dup7\n        /* \"#utility.yul\":7797:7868   */\n      tag_337\n      jump\t// in\n    tag_446:\n        /* \"#utility.yul\":7878:7950   */\n      tag_447\n        /* \"#utility.yul\":7946:7948   */\n      0x20\n        /* \"#utility.yul\":7935:7944   */\n      dup4\n        /* \"#utility.yul\":7931:7949   */\n      add\n        /* \"#utility.yul\":7922:7928   */\n      dup6\n        /* \"#utility.yul\":7878:7950   */\n      tag_337\n      jump\t// in\n    tag_447:\n        /* \"#utility.yul\":7960:8032   */\n      tag_448\n        /* \"#utility.yul\":8028:8030   */\n      0x40\n        /* \"#utility.yul\":8017:8026   */\n      dup4\n        /* \"#utility.yul\":8013:8031   */\n      add\n        /* \"#utility.yul\":8004:8010   */\n      dup5\n        /* \"#utility.yul\":7960:8032   */\n      tag_333\n      jump\t// in\n    tag_448:\n        /* \"#utility.yul\":7597:8039   */\n      swap5\n      swap4\n      pop\n      pop\n      pop\n      pop\n      jump\t// out\n        /* \"#utility.yul\":8045:8161   */\n    tag_338:\n        /* \"#utility.yul\":8115:8136   */\n      tag_450\n        /* \"#utility.yul\":8130:8135   */\n      dup2\n        /* \"#utility.yul\":8115:8136   */\n      tag_320\n      jump\t// in\n    tag_450:\n        /* \"#utility.yul\":8108:8113   */\n      dup2\n        /* \"#utility.yul\":8105:8137   */\n      eq\n        /* \"#utility.yul\":8095:8155   */\n      tag_451\n      jumpi\n        /* \"#utility.yul\":8151:8152   */\n      0x00\n        /* \"#utility.yul\":8148:8149   */\n      dup1\n        /* \"#utility.yul\":8141:8153   */\n      revert\n        /* \"#utility.yul\":8095:8155   */\n    tag_451:\n        /* \"#utility.yul\":8045:8161   */\n      pop\n      jump\t// out\n        /* \"#utility.yul\":8167:8304   */\n    tag_339:\n        /* \"#utility.yul\":8221:8226   */\n      0x00\n        /* \"#utility.yul\":8252:8258   */\n      dup2\n        /* \"#utility.yul\":8246:8259   */\n      mload\n        /* \"#utility.yul\":8237:8259   */\n      swap1\n      pop\n        /* \"#utility.yul\":8268:8298   */\n      tag_453\n        /* \"#utility.yul\":8292:8297   */\n      dup2\n        /* \"#utility.yul\":8268:8298   */\n      tag_338\n      jump\t// in\n    tag_453:\n        /* \"#utility.yul\":8167:8304   */\n      swap3\n      swap2\n      pop\n      pop\n      jump\t// out\n        /* \"#utility.yul\":8310:8655   */\n    tag_174:\n        /* \"#utility.yul\":8377:8383   */\n      0x00\n        /* \"#utility.yul\":8426:8428   */\n      0x20\n        /* \"#utility.yul\":8414:8423   */\n      dup3\n        /* \"#utility.yul\":8405:8412   */\n      dup5\n        /* \"#utility.yul\":8401:8424   */\n      sub\n        /* \"#utility.yul\":8397:8429   */\n      slt\n        /* \"#utility.yul\":8394:8513   */\n      iszero\n      tag_455\n      jumpi\n        /* \"#utility.yul\":8432:8511   */\n      tag_456\n      tag_315\n      jump\t// in\n    tag_456:\n        /* \"#utility.yul\":8394:8513   */\n    tag_455:\n        /* \"#utility.yul\":8552:8553   */\n      0x00\n        /* \"#utility.yul\":8577:8638   */\n      tag_457\n        /* \"#utility.yul\":8630:8637   */\n      dup5\n        /* \"#utility.yul\":8621:8627   */\n      dup3\n        /* \"#utility.yul\":8610:8619   */\n      dup6\n        /* \"#utility.yul\":8606:8628   */\n      add\n        /* \"#utility.yul\":8577:8638   */\n      tag_339\n      jump\t// in\n    tag_457:\n        /* \"#utility.yul\":8567:8638   */\n      swap2\n      pop\n        /* \"#utility.yul\":8523:8648   */\n      pop\n        /* \"#utility.yul\":8310:8655   */\n      swap3\n      swap2\n      pop\n      pop\n      jump\t// out\n        /* \"#utility.yul\":8661:8841   */\n    tag_340:\n        /* \"#utility.yul\":8709:8786   */\n      0x4e487b7100000000000000000000000000000000000000000000000000000000\n        /* \"#utility.yul\":8706:8707   */\n      0x00\n        /* \"#utility.yul\":8699:8787   */\n      mstore\n        /* \"#utility.yul\":8806:8810   */\n      0x11\n        /* \"#utility.yul\":8803:8804   */\n      0x04\n        /* \"#utility.yul\":8796:8811   */\n      mstore\n        /* \"#utility.yul\":8830:8834   */\n      0x24\n        /* \"#utility.yul\":8827:8828   */\n      0x00\n        /* \"#utility.yul\":8820:8835   */\n      revert\n        /* \"#utility.yul\":8847:9038   */\n    tag_176:\n        /* \"#utility.yul\":8887:8890   */\n      0x00\n        /* \"#utility.yul\":8906:8926   */\n      tag_460\n        /* \"#utility.yul\":8924:8925   */\n      dup3\n        /* \"#utility.yul\":8906:8926   */\n      tag_329\n      jump\t// in\n    tag_460:\n        /* \"#utility.yul\":8901:8926   */\n      swap2\n      pop\n        /* \"#utility.yul\":8940:8960   */\n      tag_461\n        /* \"#utility.yul\":8958:8959   */\n      dup4\n        /* \"#utility.yul\":8940:8960   */\n      tag_329\n      jump\t// in\n    tag_461:\n        /* \"#utility.yul\":8935:8960   */\n      swap3\n      pop\n        /* \"#utility.yul\":8983:8984   */\n      dup3\n        /* \"#utility.yul\":8980:8981   */\n      dup3\n        /* \"#utility.yul\":8976:8985   */\n      add\n        /* \"#utility.yul\":8969:8985   */\n      swap1\n      pop\n        /* \"#utility.yul\":9004:9007   */\n      dup1\n        /* \"#utility.yul\":9001:9002   */\n      dup3\n        /* \"#utility.yul\":8998:9008   */\n      gt\n        /* \"#utility.yul\":8995:9031   */\n      iszero\n      tag_462\n      jumpi\n        /* \"#utility.yul\":9011:9029   */\n      tag_463\n      tag_340\n      jump\t// in\n    tag_463:\n        /* \"#utility.yul\":8995:9031   */\n    tag_462:\n        /* \"#utility.yul\":8847:9038   */\n      swap3\n      swap2\n      pop\n      pop\n      jump\t// out\n        /* \"#utility.yul\":9044:9192   */\n    tag_341:\n        /* \"#utility.yul\":9146:9157   */\n      0x00\n        /* \"#utility.yul\":9183:9186   */\n      dup2\n        /* \"#utility.yul\":9168:9186   */\n      swap1\n      pop\n        /* \"#utility.yul\":9044:9192   */\n      swap3\n      swap2\n      pop\n      pop\n      jump\t// out\n        /* \"#utility.yul\":9198:9366   */\n    tag_342:\n        /* \"#utility.yul\":9338:9358   */\n      0x5041594d454e545f41444d494e5f524f4c450000000000000000000000000000\n        /* \"#utility.yul\":9334:9335   */\n      0x00\n        /* \"#utility.yul\":9326:9332   */\n      dup3\n        /* \"#utility.yul\":9322:9336   */\n      add\n        /* \"#utility.yul\":9315:9359   */\n      mstore\n        /* \"#utility.yul\":9198:9366   */\n      pop\n      jump\t// out\n        /* \"#utility.yul\":9372:9774   */\n    tag_343:\n        /* \"#utility.yul\":9532:9535   */\n      0x00\n        /* \"#utility.yul\":9553:9638   */\n      tag_467\n        /* \"#utility.yul\":9635:9637   */\n      0x12\n        /* \"#utility.yul\":9630:9633   */\n      dup4\n        /* \"#utility.yul\":9553:9638   */\n      tag_341\n      jump\t// in\n    tag_467:\n        /* \"#utility.yul\":9546:9638   */\n      swap2\n      pop\n        /* \"#utility.yul\":9647:9740   */\n      tag_468\n        /* \"#utility.yul\":9736:9739   */\n      dup3\n        /* \"#utility.yul\":9647:9740   */\n      tag_342\n      jump\t// in\n    tag_468:\n        /* \"#utility.yul\":9765:9767   */\n      0x12\n        /* \"#utility.yul\":9760:9763   */\n      dup3\n        /* \"#utility.yul\":9756:9768   */\n      add\n        /* \"#utility.yul\":9749:9768   */\n      swap1\n      pop\n        /* \"#utility.yul\":9372:9774   */\n      swap2\n      swap1\n      pop\n      jump\t// out\n        /* \"#utility.yul\":9780:10161   */\n    tag_198:\n        /* \"#utility.yul\":9965:9968   */\n      0x00\n        /* \"#utility.yul\":9987:10135   */\n      tag_470\n        /* \"#utility.yul\":10131:10134   */\n      dup3\n        /* \"#utility.yul\":9987:10135   */\n      tag_343\n      jump\t// in\n    tag_470:\n        /* \"#utility.yul\":9980:10135   */\n      swap2\n      pop\n        /* \"#utility.yul\":10152:10155   */\n      dup2\n        /* \"#utility.yul\":10145:10155   */\n      swap1\n      pop\n        /* \"#utility.yul\":9780:10161   */\n      swap2\n      swap1\n      pop\n      jump\t// out\n        /* \"#utility.yul\":10167:10499   */\n    tag_203:\n        /* \"#utility.yul\":10288:10292   */\n      0x00\n        /* \"#utility.yul\":10326:10328   */\n      0x40\n        /* \"#utility.yul\":10315:10324   */\n      dup3\n        /* \"#utility.yul\":10311:10329   */\n      add\n        /* \"#utility.yul\":10303:10329   */\n      swap1\n      pop\n        /* \"#utility.yul\":10339:10410   */\n      tag_472\n        /* \"#utility.yul\":10407:10408   */\n      0x00\n        /* \"#utility.yul\":10396:10405   */\n      dup4\n        /* \"#utility.yul\":10392:10409   */\n      add\n        /* \"#utility.yul\":10383:10389   */\n      dup6\n        /* \"#utility.yul\":10339:10410   */\n      tag_337\n      jump\t// in\n    tag_472:\n        /* \"#utility.yul\":10420:10492   */\n      tag_473\n        /* \"#utility.yul\":10488:10490   */\n      0x20\n        /* \"#utility.yul\":10477:10486   */\n      dup4\n        /* \"#utility.yul\":10473:10491   */\n      add\n        /* \"#utility.yul\":10464:10470   */\n      dup5\n        /* \"#utility.yul\":10420:10492   */\n      tag_333\n      jump\t// in\n    tag_473:\n        /* \"#utility.yul\":10167:10499   */\n      swap4\n      swap3\n      pop\n      pop\n      pop\n      jump\t// out\n        /* \"#utility.yul\":10505:10699   */\n    tag_208:\n        /* \"#utility.yul\":10545:10549   */\n      0x00\n        /* \"#utility.yul\":10565:10585   */\n      tag_475\n        /* \"#utility.yul\":10583:10584   */\n      dup3\n        /* \"#utility.yul\":10565:10585   */\n      tag_329\n      jump\t// in\n    tag_475:\n        /* \"#utility.yul\":10560:10585   */\n      swap2\n      pop\n        /* \"#utility.yul\":10599:10619   */\n      tag_476\n        /* \"#utility.yul\":10617:10618   */\n      dup4\n        /* \"#utility.yul\":10599:10619   */\n      tag_329\n      jump\t// in\n    tag_476:\n        /* \"#utility.yul\":10594:10619   */\n      swap3\n      pop\n        /* \"#utility.yul\":10643:10644   */\n      dup3\n        /* \"#utility.yul\":10640:10641   */\n      dup3\n        /* \"#utility.yul\":10636:10645   */\n      sub\n        /* \"#utility.yul\":10628:10645   */\n      swap1\n      pop\n        /* \"#utility.yul\":10667:10668   */\n      dup2\n        /* \"#utility.yul\":10661:10665   */\n      dup2\n        /* \"#utility.yul\":10658:10669   */\n      gt\n        /* \"#utility.yul\":10655:10692   */\n      iszero\n      tag_477\n      jumpi\n        /* \"#utility.yul\":10672:10690   */\n      tag_478\n      tag_340\n      jump\t// in\n    tag_478:\n        /* \"#utility.yul\":10655:10692   */\n    tag_477:\n        /* \"#utility.yul\":10505:10699   */\n      swap3\n      swap2\n      pop\n      pop\n      jump\t// out\n        /* \"#utility.yul\":10705:10879   */\n    tag_344:\n        /* \"#utility.yul\":10845:10871   */\n      0x4845414c54485f50524f46455353494f4e414c5f46554c4c0000000000000000\n        /* \"#utility.yul\":10841:10842   */\n      0x00\n        /* \"#utility.yul\":10833:10839   */\n      dup3\n        /* \"#utility.yul\":10829:10843   */\n      add\n        /* \"#utility.yul\":10822:10872   */\n      mstore\n        /* \"#utility.yul\":10705:10879   */\n      pop\n      jump\t// out\n        /* \"#utility.yul\":10885:11287   */\n    tag_345:\n        /* \"#utility.yul\":11045:11048   */\n      0x00\n        /* \"#utility.yul\":11066:11151   */\n      tag_481\n        /* \"#utility.yul\":11148:11150   */\n      0x18\n        /* \"#utility.yul\":11143:11146   */\n      dup4\n        /* \"#utility.yul\":11066:11151   */\n      tag_341\n      jump\t// in\n    tag_481:\n        /* \"#utility.yul\":11059:11151   */\n      swap2\n      pop\n        /* \"#utility.yul\":11160:11253   */\n      tag_482\n        /* \"#utility.yul\":11249:11252   */\n      dup3\n        /* \"#utility.yul\":11160:11253   */\n      tag_344\n      jump\t// in\n    tag_482:\n        /* \"#utility.yul\":11278:11280   */\n      0x18\n        /* \"#utility.yul\":11273:11276   */\n      dup3\n        /* \"#utility.yul\":11269:11281   */\n      add\n        /* \"#utility.yul\":11262:11281   */\n      swap1\n      pop\n        /* \"#utility.yul\":10885:11287   */\n      swap2\n      swap1\n      pop\n      jump\t// out\n        /* \"#utility.yul\":11293:11674   */\n    tag_215:\n        /* \"#utility.yul\":11478:11481   */\n      0x00\n        /* \"#utility.yul\":11500:11648   */\n      tag_484\n        /* \"#utility.yul\":11644:11647   */\n      dup3\n        /* \"#utility.yul\":11500:11648   */\n      tag_345\n      jump\t// in\n    tag_484:\n        /* \"#utility.yul\":11493:11648   */\n      swap2\n      pop\n        /* \"#utility.yul\":11665:11668   */\n      dup2\n        /* \"#utility.yul\":11658:11668   */\n      swap1\n      pop\n        /* \"#utility.yul\":11293:11674   */\n      swap2\n      swap1\n      pop\n      jump\t// out\n        /* \"#utility.yul\":11680:11853   */\n    tag_346:\n        /* \"#utility.yul\":11820:11845   */\n      0x4845414c54485f50524f46455353494f4e414c5f4d4944000000000000000000\n        /* \"#utility.yul\":11816:11817   */\n      0x00\n        /* \"#utility.yul\":11808:11814   */\n      dup3\n        /* \"#utility.yul\":11804:11818   */\n      add\n        /* \"#utility.yul\":11797:11846   */\n      mstore\n        /* \"#utility.yul\":11680:11853   */\n      pop\n      jump\t// out\n        /* \"#utility.yul\":11859:12261   */\n    tag_347:\n        /* \"#utility.yul\":12019:12022   */\n      0x00\n        /* \"#utility.yul\":12040:12125   */\n      tag_487\n        /* \"#utility.yul\":12122:12124   */\n      0x17\n        /* \"#utility.yul\":12117:12120   */\n      dup4\n        /* \"#utility.yul\":12040:12125   */\n      tag_341\n      jump\t// in\n    tag_487:\n        /* \"#utility.yul\":12033:12125   */\n      swap2\n      pop\n        /* \"#utility.yul\":12134:12227   */\n      tag_488\n        /* \"#utility.yul\":12223:12226   */\n      dup3\n        /* \"#utility.yul\":12134:12227   */\n      tag_346\n      jump\t// in\n    tag_488:\n        /* \"#utility.yul\":12252:12254   */\n      0x17\n        /* \"#utility.yul\":12247:12250   */\n      dup3\n        /* \"#utility.yul\":12243:12255   */\n      add\n        /* \"#utility.yul\":12236:12255   */\n      swap1\n      pop\n        /* \"#utility.yul\":11859:12261   */\n      swap2\n      swap1\n      pop\n      jump\t// out\n        /* \"#utility.yul\":12267:12648   */\n    tag_220:\n        /* \"#utility.yul\":12452:12455   */\n      0x00\n        /* \"#utility.yul\":12474:12622   */\n      tag_490\n        /* \"#utility.yul\":12618:12621   */\n      dup3\n        /* \"#utility.yul\":12474:12622   */\n      tag_347\n      jump\t// in\n    tag_490:\n        /* \"#utility.yul\":12467:12622   */\n      swap2\n      pop\n        /* \"#utility.yul\":12639:12642   */\n      dup2\n        /* \"#utility.yul\":12632:12642   */\n      swap1\n      pop\n        /* \"#utility.yul\":12267:12648   */\n      swap2\n      swap1\n      pop\n      jump\t// out\n        /* \"#utility.yul\":12654:12827   */\n    tag_348:\n        /* \"#utility.yul\":12794:12819   */\n      0x4845414c54485f50524f46455353494f4e414c5f4c4f57000000000000000000\n        /* \"#utility.yul\":12790:12791   */\n      0x00\n        /* \"#utility.yul\":12782:12788   */\n      dup3\n        /* \"#utility.yul\":12778:12792   */\n      add\n        /* \"#utility.yul\":12771:12820   */\n      mstore\n        /* \"#utility.yul\":12654:12827   */\n      pop\n      jump\t// out\n        /* \"#utility.yul\":12833:13235   */\n    tag_349:\n        /* \"#utility.yul\":12993:12996   */\n      0x00\n        /* \"#utility.yul\":13014:13099   */\n      tag_493\n        /* \"#utility.yul\":13096:13098   */\n      0x17\n        /* \"#utility.yul\":13091:13094   */\n      dup4\n        /* \"#utility.yul\":13014:13099   */\n      tag_341\n      jump\t// in\n    tag_493:\n        /* \"#utility.yul\":13007:13099   */\n      swap2\n      pop\n        /* \"#utility.yul\":13108:13201   */\n      tag_494\n        /* \"#utility.yul\":13197:13200   */\n      dup3\n        /* \"#utility.yul\":13108:13201   */\n      tag_348\n      jump\t// in\n    tag_494:\n        /* \"#utility.yul\":13226:13228   */\n      0x17\n        /* \"#utility.yul\":13221:13224   */\n      dup3\n        /* \"#utility.yul\":13217:13229   */\n      add\n        /* \"#utility.yul\":13210:13229   */\n      swap1\n      pop\n        /* \"#utility.yul\":12833:13235   */\n      swap2\n      swap1\n      pop\n      jump\t// out\n        /* \"#utility.yul\":13241:13622   */\n    tag_225:\n        /* \"#utility.yul\":13426:13429   */\n      0x00\n        /* \"#utility.yul\":13448:13596   */\n      tag_496\n        /* \"#utility.yul\":13592:13595   */\n      dup3\n        /* \"#utility.yul\":13448:13596   */\n      tag_349\n      jump\t// in\n    tag_496:\n        /* \"#utility.yul\":13441:13596   */\n      swap2\n      pop\n        /* \"#utility.yul\":13613:13616   */\n      dup2\n        /* \"#utility.yul\":13606:13616   */\n      swap1\n      pop\n        /* \"#utility.yul\":13241:13622   */\n      swap2\n      swap1\n      pop\n      jump\t// out\n        /* \"#utility.yul\":13628:13803   */\n    tag_350:\n        /* \"#utility.yul\":13768:13795   */\n      0x556e7265636f676e697a656420616363657373206c6576656c00000000000000\n        /* \"#utility.yul\":13764:13765   */\n      0x00\n        /* \"#utility.yul\":13756:13762   */\n      dup3\n        /* \"#utility.yul\":13752:13766   */\n      add\n        /* \"#utility.yul\":13745:13796   */\n      mstore\n        /* \"#utility.yul\":13628:13803   */\n      pop\n      jump\t// out\n        /* \"#utility.yul\":13809:14175   */\n    tag_351:\n        /* \"#utility.yul\":13951:13954   */\n      0x00\n        /* \"#utility.yul\":13972:14039   */\n      tag_499\n        /* \"#utility.yul\":14036:14038   */\n      0x19\n        /* \"#utility.yul\":14031:14034   */\n      dup4\n        /* \"#utility.yul\":13972:14039   */\n      tag_334\n      jump\t// in\n    tag_499:\n        /* \"#utility.yul\":13965:14039   */\n      swap2\n      pop\n        /* \"#utility.yul\":14048:14141   */\n      tag_500\n        /* \"#utility.yul\":14137:14140   */\n      dup3\n        /* \"#utility.yul\":14048:14141   */\n      tag_350\n      jump\t// in\n    tag_500:\n        /* \"#utility.yul\":14166:14168   */\n      0x20\n        /* \"#utility.yul\":14161:14164   */\n      dup3\n        /* \"#utility.yul\":14157:14169   */\n      add\n        /* \"#utility.yul\":14150:14169   */\n      swap1\n      pop\n        /* \"#utility.yul\":13809:14175   */\n      swap2\n      swap1\n      pop\n      jump\t// out\n        /* \"#utility.yul\":14181:14600   */\n    tag_228:\n        /* \"#utility.yul\":14347:14351   */\n      0x00\n        /* \"#utility.yul\":14385:14387   */\n      0x20\n        /* \"#utility.yul\":14374:14383   */\n      dup3\n        /* \"#utility.yul\":14370:14388   */\n      add\n        /* \"#utility.yul\":14362:14388   */\n      swap1\n      pop\n        /* \"#utility.yul\":14434:14443   */\n      dup2\n        /* \"#utility.yul\":14428:14432   */\n      dup2\n        /* \"#utility.yul\":14424:14444   */\n      sub\n        /* \"#utility.yul\":14420:14421   */\n      0x00\n        /* \"#utility.yul\":14409:14418   */\n      dup4\n        /* \"#utility.yul\":14405:14422   */\n      add\n        /* \"#utility.yul\":14398:14445   */\n      mstore\n        /* \"#utility.yul\":14462:14593   */\n      tag_502\n        /* \"#utility.yul\":14588:14592   */\n      dup2\n        /* \"#utility.yul\":14462:14593   */\n      tag_351\n      jump\t// in\n    tag_502:\n        /* \"#utility.yul\":14454:14593   */\n      swap1\n      pop\n        /* \"#utility.yul\":14181:14600   */\n      swap2\n      swap1\n      pop\n      jump\t// out\n        /* \"#utility.yul\":14606:14753   */\n    tag_352:\n        /* \"#utility.yul\":14707:14718   */\n      0x00\n        /* \"#utility.yul\":14744:14747   */\n      dup2\n        /* \"#utility.yul\":14729:14747   */\n      swap1\n      pop\n        /* \"#utility.yul\":14606:14753   */\n      swap3\n      swap2\n      pop\n      pop\n      jump\t// out\n        /* \"#utility.yul\":14759:14873   */\n    tag_353:\n      pop\n      jump\t// out\n        /* \"#utility.yul\":14879:15277   */\n    tag_354:\n        /* \"#utility.yul\":15038:15041   */\n      0x00\n        /* \"#utility.yul\":15059:15142   */\n      tag_506\n        /* \"#utility.yul\":15140:15141   */\n      0x00\n        /* \"#utility.yul\":15135:15138   */\n      dup4\n        /* \"#utility.yul\":15059:15142   */\n      tag_352\n      jump\t// in\n    tag_506:\n        /* \"#utility.yul\":15052:15142   */\n      swap2\n      pop\n        /* \"#utility.yul\":15151:15244   */\n      tag_507\n        /* \"#utility.yul\":15240:15243   */\n      dup3\n        /* \"#utility.yul\":15151:15244   */\n      tag_353\n      jump\t// in\n    tag_507:\n        /* \"#utility.yul\":15269:15270   */\n      0x00\n        /* \"#utility.yul\":15264:15267   */\n      dup3\n        /* \"#utility.yul\":15260:15271   */\n      add\n        /* \"#utility.yul\":15253:15271   */\n      swap1\n      pop\n        /* \"#utility.yul\":14879:15277   */\n      swap2\n      swap1\n      pop\n      jump\t// out\n        /* \"#utility.yul\":15283:15662   */\n    tag_249:\n        /* \"#utility.yul\":15467:15470   */\n      0x00\n        /* \"#utility.yul\":15489:15636   */\n      tag_509\n        /* \"#utility.yul\":15632:15635   */\n      dup3\n        /* \"#utility.yul\":15489:15636   */\n      tag_354\n      jump\t// in\n    tag_509:\n        /* \"#utility.yul\":15482:15636   */\n      swap2\n      pop\n        /* \"#utility.yul\":15653:15656   */\n      dup2\n        /* \"#utility.yul\":15646:15656   */\n      swap1\n      pop\n        /* \"#utility.yul\":15283:15662   */\n      swap2\n      swap1\n      pop\n      jump\t// out\n        /* \"#utility.yul\":15668:15831   */\n    tag_355:\n        /* \"#utility.yul\":15808:15823   */\n      0x5061796f7574206661696c656400000000000000000000000000000000000000\n        /* \"#utility.yul\":15804:15805   */\n      0x00\n        /* \"#utility.yul\":15796:15802   */\n      dup3\n        /* \"#utility.yul\":15792:15806   */\n      add\n        /* \"#utility.yul\":15785:15824   */\n      mstore\n        /* \"#utility.yul\":15668:15831   */\n      pop\n      jump\t// out\n        /* \"#utility.yul\":15837:16203   */\n    tag_356:\n        /* \"#utility.yul\":15979:15982   */\n      0x00\n        /* \"#utility.yul\":16000:16067   */\n      tag_512\n        /* \"#utility.yul\":16064:16066   */\n      0x0d\n        /* \"#utility.yul\":16059:16062   */\n      dup4\n        /* \"#utility.yul\":16000:16067   */\n      tag_334\n      jump\t// in\n    tag_512:\n        /* \"#utility.yul\":15993:16067   */\n      swap2\n      pop\n        /* \"#utility.yul\":16076:16169   */\n      tag_513\n        /* \"#utility.yul\":16165:16168   */\n      dup3\n        /* \"#utility.yul\":16076:16169   */\n      tag_355\n      jump\t// in\n    tag_513:\n        /* \"#utility.yul\":16194:16196   */\n      0x20\n        /* \"#utility.yul\":16189:16192   */\n      dup3\n        /* \"#utility.yul\":16185:16197   */\n      add\n        /* \"#utility.yul\":16178:16197   */\n      swap1\n      pop\n        /* \"#utility.yul\":15837:16203   */\n      swap2\n      swap1\n      pop\n      jump\t// out\n        /* \"#utility.yul\":16209:16628   */\n    tag_255:\n        /* \"#utility.yul\":16375:16379   */\n      0x00\n        /* \"#utility.yul\":16413:16415   */\n      0x20\n        /* \"#utility.yul\":16402:16411   */\n      dup3\n        /* \"#utility.yul\":16398:16416   */\n      add\n        /* \"#utility.yul\":16390:16416   */\n      swap1\n      pop\n        /* \"#utility.yul\":16462:16471   */\n      dup2\n        /* \"#utility.yul\":16456:16460   */\n      dup2\n        /* \"#utility.yul\":16452:16472   */\n      sub\n        /* \"#utility.yul\":16448:16449   */\n      0x00\n        /* \"#utility.yul\":16437:16446   */\n      dup4\n        /* \"#utility.yul\":16433:16450   */\n      add\n        /* \"#utility.yul\":16426:16473   */\n      mstore\n        /* \"#utility.yul\":16490:16621   */\n      tag_515\n        /* \"#utility.yul\":16616:16620   */\n      dup2\n        /* \"#utility.yul\":16490:16621   */\n      tag_356\n      jump\t// in\n    tag_515:\n        /* \"#utility.yul\":16482:16621   */\n      swap1\n      pop\n        /* \"#utility.yul\":16209:16628   */\n      swap2\n      swap1\n      pop\n      jump\t// out\n        /* \"#utility.yul\":16634:16799   */\n    tag_357:\n        /* \"#utility.yul\":16774:16791   */\n      0x555345525f41444d494e5f524f4c450000000000000000000000000000000000\n        /* \"#utility.yul\":16770:16771   */\n      0x00\n        /* \"#utility.yul\":16762:16768   */\n      dup3\n        /* \"#utility.yul\":16758:16772   */\n      add\n        /* \"#utility.yul\":16751:16792   */\n      mstore\n        /* \"#utility.yul\":16634:16799   */\n      pop\n      jump\t// out\n        /* \"#utility.yul\":16805:17207   */\n    tag_358:\n        /* \"#utility.yul\":16965:16968   */\n      0x00\n        /* \"#utility.yul\":16986:17071   */\n      tag_518\n        /* \"#utility.yul\":17068:17070   */\n      0x0f\n        /* \"#utility.yul\":17063:17066   */\n      dup4\n        /* \"#utility.yul\":16986:17071   */\n      tag_341\n      jump\t// in\n    tag_518:\n        /* \"#utility.yul\":16979:17071   */\n      swap2\n      pop\n        /* \"#utility.yul\":17080:17173   */\n      tag_519\n        /* \"#utility.yul\":17169:17172   */\n      dup3\n        /* \"#utility.yul\":17080:17173   */\n      tag_357\n      jump\t// in\n    tag_519:\n        /* \"#utility.yul\":17198:17200   */\n      0x0f\n        /* \"#utility.yul\":17193:17196   */\n      dup3\n        /* \"#utility.yul\":17189:17201   */\n      add\n        /* \"#utility.yul\":17182:17201   */\n      swap1\n      pop\n        /* \"#utility.yul\":16805:17207   */\n      swap2\n      swap1\n      pop\n      jump\t// out\n        /* \"#utility.yul\":17213:17594   */\n    tag_270:\n        /* \"#utility.yul\":17398:17401   */\n      0x00\n        /* \"#utility.yul\":17420:17568   */\n      tag_521\n        /* \"#utility.yul\":17564:17567   */\n      dup3\n        /* \"#utility.yul\":17420:17568   */\n      tag_358\n      jump\t// in\n    tag_521:\n        /* \"#utility.yul\":17413:17568   */\n      swap2\n      pop\n        /* \"#utility.yul\":17585:17588   */\n      dup2\n        /* \"#utility.yul\":17578:17588   */\n      swap1\n      pop\n        /* \"#utility.yul\":17213:17594   */\n      swap2\n      swap1\n      pop\n      jump\t// out\n        /* \"#utility.yul\":17600:17932   */\n    tag_313:\n        /* \"#utility.yul\":17721:17725   */\n      0x00\n        /* \"#utility.yul\":17759:17761   */\n      0x40\n        /* \"#utility.yul\":17748:17757   */\n      dup3\n        /* \"#utility.yul\":17744:17762   */\n      add\n        /* \"#utility.yul\":17736:17762   */\n      swap1\n      pop\n        /* \"#utility.yul\":17772:17843   */\n      tag_523\n        /* \"#utility.yul\":17840:17841   */\n      0x00\n        /* \"#utility.yul\":17829:17838   */\n      dup4\n        /* \"#utility.yul\":17825:17842   */\n      add\n        /* \"#utility.yul\":17816:17822   */\n      dup6\n        /* \"#utility.yul\":17772:17843   */\n      tag_337\n      jump\t// in\n    tag_523:\n        /* \"#utility.yul\":17853:17925   */\n      tag_524\n        /* \"#utility.yul\":17921:17923   */\n      0x20\n        /* \"#utility.yul\":17910:17919   */\n      dup4\n        /* \"#utility.yul\":17906:17924   */\n      add\n        /* \"#utility.yul\":17897:17903   */\n      dup5\n        /* \"#utility.yul\":17853:17925   */\n      tag_332\n      jump\t// in\n    tag_524:\n        /* \"#utility.yul\":17600:17932   */\n      swap4\n      swap3\n      pop\n      pop\n      pop\n      jump\t// out\n\n    auxdata: 0xa264697066735822122004b321d229cdeea078bf583c0be70c7711c9d446b731d92a5f048ad9ee6a33c964736f6c63430008160033\n}\n",
				"bytecode": {
					"linkReferences": {},
					"object": "608060405234801562000010575f80fd5b50620000255f801b336200011460201b60201c565b50620000606040516020016200003b906200034d565b604051602081830303815290604052805190602001205f801b6200020f60201b60201c565b6200009a6040516020016200007590620003b1565b604051602081830303815290604052805190602001205f801b6200020f60201b60201c565b620000d4604051602001620000af9062000415565b604051602081830303815290604052805190602001205f801b6200020f60201b60201c565b6200010e604051602001620000e99062000479565b604051602081830303815290604052805190602001205f801b6200020f60201b60201c565b6200048f565b5f6200012783836200026f60201b60201c565b620002055760015f808581526020019081526020015f205f015f8473ffffffffffffffffffffffffffffffffffffffff1673ffffffffffffffffffffffffffffffffffffffff1681526020019081526020015f205f6101000a81548160ff021916908315150217905550620001a1620002d260201b60201c565b73ffffffffffffffffffffffffffffffffffffffff168273ffffffffffffffffffffffffffffffffffffffff16847f2f8788117e7eff1d82e926ec794901d17c78024a50270940304540a733656f0d60405160405180910390a46001905062000209565b5f90505b92915050565b5f6200022183620002d960201b60201c565b9050815f808581526020019081526020015f20600101819055508181847fbd79b86ffe0ab8e8776151514217cd7cacd52c909f66475c3af44e129f0b00ff60405160405180910390a4505050565b5f805f8481526020019081526020015f205f015f8373ffffffffffffffffffffffffffffffffffffffff1673ffffffffffffffffffffffffffffffffffffffff1681526020019081526020015f205f9054906101000a900460ff16905092915050565b5f33905090565b5f805f8381526020019081526020015f20600101549050919050565b5f81905092915050565b7f555345525f41444d494e5f524f4c4500000000000000000000000000000000005f82015250565b5f62000335600f83620002f5565b91506200034282620002ff565b600f82019050919050565b5f620003598262000327565b9150819050919050565b7f4845414c54485f50524f46455353494f4e414c5f46554c4c00000000000000005f82015250565b5f62000399601883620002f5565b9150620003a68262000363565b601882019050919050565b5f620003bd826200038b565b9150819050919050565b7f4845414c54485f50524f46455353494f4e414c5f4d49440000000000000000005f82015250565b5f620003fd601783620002f5565b91506200040a82620003c7565b601782019050919050565b5f6200042182620003ef565b9150819050919050565b7f4845414c54485f50524f46455353494f4e414c5f4c4f570000000000000000005f82015250565b5f62000461601783620002f5565b91506200046e826200042b565b601782019050919050565b5f620004858262000453565b9150819050919050565b611dfd806200049d5f395ff3fe60806040526004361061019b575f3560e01c8063585f4c49116100eb578063d677052211610089578063e096cfed11610063578063e096cfed146105bf578063e6d6384a146105e7578063f0f7af4d14610623578063f2c800891461064d5761019b565b8063d677052214610545578063d7b8a07a1461056f578063dd65ab1f146105975761019b565b8063a217fddf116100c5578063a217fddf146104a1578063b24b56b0146104cb578063b89f9ac1146104f5578063d547741f1461051d5761019b565b8063585f4c49146104135780635ea06a9c1461043d57806391d14854146104655761019b565b80632f2ff15d116101585780633fd2c4f1116101325780633fd2c4f11461035f57806348570ee61461038757806351fea917146103af57806355f93e6e146103eb5761019b565b80632f2ff15d146102d35780632f432261146102fb57806336568abe146103375761019b565b806301ffc9a71461019f57806309c19362146101db5780630adbbdd3146102175780630fa750ff1461023f578063248a9ca31461025b57806324ccc1a614610297575b5f80fd5b3480156101aa575f80fd5b506101c560048036038101906101c09190611604565b610677565b6040516101d29190611649565b60405180910390f35b3480156101e6575f80fd5b5061020160048036038101906101fc9190611695565b6106f0565b60405161020e9190611649565b60405180910390f35b348015610222575f80fd5b5061023d6004803603810190610238919061174d565b610716565b005b61025960048036038101906102549190611695565b61089d565b005b348015610266575f80fd5b50610281600480360381019061027c9190611695565b610952565b60405161028e91906117ac565b60405180910390f35b3480156102a2575f80fd5b506102bd60048036038101906102b891906117c5565b61096e565b6040516102ca9190611812565b60405180910390f35b3480156102de575f80fd5b506102f960048036038101906102f491906117c5565b61098e565b005b348015610306575f80fd5b50610321600480360381019061031c9190611695565b6109b0565b60405161032e9190611649565b60405180910390f35b348015610342575f80fd5b5061035d600480360381019061035891906117c5565b6109cd565b005b34801561036a575f80fd5b506103856004803603810190610380919061182b565b610a48565b005b348015610392575f80fd5b506103ad60048036038101906103a8919061187b565b610c4b565b005b3480156103ba575f80fd5b506103d560048036038101906103d091906118b9565b610d8e565b6040516103e29190611812565b60405180910390f35b3480156103f6575f80fd5b50610411600480360381019061040c91906117c5565b610e6b565b005b34801561041e575f80fd5b50610427611023565b60405161043491906117ac565b60405180910390f35b348015610448575f80fd5b50610463600480360381019061045e91906118b9565b61104b565b005b348015610470575f80fd5b5061048b600480360381019061048691906117c5565b611088565b6040516104989190611649565b60405180910390f35b3480156104ac575f80fd5b506104b56110eb565b6040516104c291906117ac565b60405180910390f35b3480156104d6575f80fd5b506104df6110f1565b6040516104ec91906117ac565b60405180910390f35b348015610500575f80fd5b5061051b600480360381019061051691906118b9565b611119565b005b348015610528575f80fd5b50610543600480360381019061053e91906117c5565b611156565b005b348015610550575f80fd5b50610559611178565b60405161056691906117ac565b60405180910390f35b34801561057a575f80fd5b50610595600480360381019061059091906118b9565b6111a0565b005b3480156105a2575f80fd5b506105bd60048036038101906105b89190611695565b6111dd565b005b3480156105ca575f80fd5b506105e560048036038101906105e091906118b9565b611262565b005b3480156105f2575f80fd5b5061060d60048036038101906106089190611695565b61129f565b60405161061a9190611812565b60405180910390f35b34801561062e575f80fd5b506106376112b4565b60405161064491906117ac565b60405180910390f35b348015610658575f80fd5b506106616112dc565b60405161066e91906117ac565b60405180910390f35b5f7f7965db0b000000000000000000000000000000000000000000000000000000007bffffffffffffffffffffffffffffffffffffffffffffffffffffffff1916827bffffffffffffffffffffffffffffffffffffffffffffffffffffffff191614806106e957506106e882611304565b5b9050919050565b5f60015f8381526020019081526020015f205f9054906101000a900460ff169050919050565b60015f8481526020019081526020015f205f9054906101000a900460ff16610773576040517f08c379a000000000000000000000000000000000000000000000000000000000815260040161076a9061193e565b60405180910390fd5b8173ffffffffffffffffffffffffffffffffffffffff166323b872dd3330846040518463ffffffff1660e01b81526004016107b09392919061196b565b6020604051808303815f875af11580156107cc573d5f803e3d5ffd5b505050506040513d601f19601f820116820180604052508101906107f091906119ca565b508060025f8581526020019081526020015f205f8473ffffffffffffffffffffffffffffffffffffffff1673ffffffffffffffffffffffffffffffffffffffff1681526020019081526020015f205f82825461084c9190611a22565b92505081905550808273ffffffffffffffffffffffffffffffffffffffff16847f7a143568e7a2e32f33c2ab85bb8cb9ff7e78d00e650d6973c8873bbdc075e81160405160405180910390a4505050565b60015f8281526020019081526020015f205f9054906101000a900460ff166108fa576040517f08c379a00000000000000000000000000000000000000000000000000000000081526004016108f19061193e565b60405180910390fd5b3460035f8381526020019081526020015f205f82825461091a9190611a22565b9250508190555034817facc0fd4b3527d0953abdce4ac9a5f786e3d780a3b4bbefefb360a8642429e0f660405160405180910390a350565b5f805f8381526020019081526020015f20600101549050919050565b6002602052815f5260405f20602052805f5260405f205f91509150505481565b61099782610952565b6109a08161136d565b6109aa8383611381565b50505050565b6001602052805f5260405f205f915054906101000a900460ff1681565b6109d561146a565b73ffffffffffffffffffffffffffffffffffffffff168173ffffffffffffffffffffffffffffffffffffffff1614610a39576040517f6697b23200000000000000000000000000000000000000000000000000000000815260040160405180910390fd5b610a438282611471565b505050565b610a75604051602001610a5a90611aa9565b6040516020818303038152906040528051906020012061136d565b60015f8481526020019081526020015f205f9054906101000a900460ff16610ad2576040517f08c379a0000000000000000000000000000000000000000000000000000000008152600401610ac99061193e565b60405180910390fd5b5f60025f8581526020019081526020015f205f8473ffffffffffffffffffffffffffffffffffffffff1673ffffffffffffffffffffffffffffffffffffffff1681526020019081526020015f205490508273ffffffffffffffffffffffffffffffffffffffff1663a9059cbb83836040518363ffffffff1660e01b8152600401610b5d929190611abd565b6020604051808303815f875af1158015610b79573d5f803e3d5ffd5b505050506040513d601f19601f82011682018060405250810190610b9d91906119ca565b508060025f8681526020019081526020015f205f8573ffffffffffffffffffffffffffffffffffffffff1673ffffffffffffffffffffffffffffffffffffffff1681526020019081526020015f205f828254610bf99190611ae4565b92505081905550808373ffffffffffffffffffffffffffffffffffffffff16857f434adbd1794f49ffeb1ea04de9ad62fb01cc18179124cda3ce5eee58f010f96960405160405180910390a450505050565b610c565f801b61136d565b5f8103610c9157610c8b604051602001610c6f90611b61565b6040516020818303038152906040528051906020012083611381565b50610d46565b60018103610ccd57610cc7604051602001610cab90611bbf565b6040516020818303038152906040528051906020012083611381565b50610d45565b60028103610d0957610d03604051602001610ce790611c1d565b6040516020818303038152906040528051906020012083611381565b50610d44565b6040517f08c379a0000000000000000000000000000000000000000000000000000000008152600401610d3b90611c7b565b60405180910390fd5b5b5b808273ffffffffffffffffffffffffffffffffffffffff167f2224b7dff324f24f810cf3bb4055085a9fd09db933a221dea091e176f4d16c8c60405160405180910390a35050565b5f610dbd604051602001610da190611b61565b6040516020818303038152906040528051906020012083611088565b15610dca575f9050610e66565b610df8604051602001610ddc90611bbf565b6040516020818303038152906040528051906020012083611088565b15610e065760019050610e66565b610e34604051602001610e1890611c1d565b6040516020818303038152906040528051906020012083611088565b15610e425760029050610e66565b7fffffffffffffffffffffffffffffffffffffffffffffffffffffffffffffffff90505b919050565b610e98604051602001610e7d90611aa9565b6040516020818303038152906040528051906020012061136d565b60015f8381526020019081526020015f205f9054906101000a900460ff16610ef5576040517f08c379a0000000000000000000000000000000000000000000000000000000008152600401610eec9061193e565b60405180910390fd5b5f60035f8481526020019081526020015f205490505f8273ffffffffffffffffffffffffffffffffffffffff1682604051610f2f90611cc6565b5f6040518083038185875af1925050503d805f8114610f69576040519150601f19603f3d011682016040523d82523d5f602084013e610f6e565b606091505b5050905080610fb2576040517f08c379a0000000000000000000000000000000000000000000000000000000008152600401610fa990611d24565b60405180910390fd5b8160035f8681526020019081526020015f205f828254610fd29190611ae4565b925050819055508273ffffffffffffffffffffffffffffffffffffffff16847ffd1d4f59cf1013ee232282cac3356b455525c6d4d04d18bed8216b7b6c2beb6060405160405180910390a350505050565b60405160200161103290611c1d565b6040516020818303038152906040528051906020012081565b6110565f801b61136d565b61108460405160200161106890611aa9565b6040516020818303038152906040528051906020012082611381565b5050565b5f805f8481526020019081526020015f205f015f8373ffffffffffffffffffffffffffffffffffffffff1673ffffffffffffffffffffffffffffffffffffffff1681526020019081526020015f205f9054906101000a900460ff16905092915050565b5f801b81565b60405160200161110090611aa9565b6040516020818303038152906040528051906020012081565b6111245f801b61136d565b61115260405160200161113690611d8c565b6040516020818303038152906040528051906020012082611381565b5050565b61115f82610952565b6111688161136d565b6111728383611471565b50505050565b60405160200161118790611bbf565b6040516020818303038152906040528051906020012081565b6111ab5f801b61136d565b6111d96040516020016111bd90611aa9565b6040516020818303038152906040528051906020012082611471565b5050565b61120a6040516020016111ef90611d8c565b6040516020818303038152906040528051906020012061136d565b6001805f8381526020019081526020015f205f6101000a81548160ff021916908315150217905550807ffa9941fd9436b8f798d8da6c4747847bf053207fe545c37222588db50a6742f860405160405180910390a250565b61126d5f801b61136d565b61129b60405160200161127f90611d8c565b6040516020818303038152906040528051906020012082611471565b5050565b6003602052805f5260405f205f915090505481565b6040516020016112c390611b61565b6040516020818303038152906040528051906020012081565b6040516020016112eb90611d8c565b6040516020818303038152906040528051906020012081565b5f7f01ffc9a7000000000000000000000000000000000000000000000000000000007bffffffffffffffffffffffffffffffffffffffffffffffffffffffff1916827bffffffffffffffffffffffffffffffffffffffffffffffffffffffff1916149050919050565b61137e8161137961146a565b61155a565b50565b5f61138c8383611088565b6114605760015f808581526020019081526020015f205f015f8473ffffffffffffffffffffffffffffffffffffffff1673ffffffffffffffffffffffffffffffffffffffff1681526020019081526020015f205f6101000a81548160ff0219169083151502179055506113fd61146a565b73ffffffffffffffffffffffffffffffffffffffff168273ffffffffffffffffffffffffffffffffffffffff16847f2f8788117e7eff1d82e926ec794901d17c78024a50270940304540a733656f0d60405160405180910390a460019050611464565b5f90505b92915050565b5f33905090565b5f61147c8383611088565b15611550575f805f8581526020019081526020015f205f015f8473ffffffffffffffffffffffffffffffffffffffff1673ffffffffffffffffffffffffffffffffffffffff1681526020019081526020015f205f6101000a81548160ff0219169083151502179055506114ed61146a565b73ffffffffffffffffffffffffffffffffffffffff168273ffffffffffffffffffffffffffffffffffffffff16847ff6391f5c32d9c69d2a47ea670b442974b53935d1edc7fd64eb21e047a839171b60405160405180910390a460019050611554565b5f90505b92915050565b6115648282611088565b6115a75780826040517fe2517d3f00000000000000000000000000000000000000000000000000000000815260040161159e929190611da0565b60405180910390fd5b5050565b5f80fd5b5f7fffffffff0000000000000000000000000000000000000000000000000000000082169050919050565b6115e3816115af565b81146115ed575f80fd5b50565b5f813590506115fe816115da565b92915050565b5f60208284031215611619576116186115ab565b5b5f611626848285016115f0565b91505092915050565b5f8115159050919050565b6116438161162f565b82525050565b5f60208201905061165c5f83018461163a565b92915050565b5f819050919050565b61167481611662565b811461167e575f80fd5b50565b5f8135905061168f8161166b565b92915050565b5f602082840312156116aa576116a96115ab565b5b5f6116b784828501611681565b91505092915050565b5f73ffffffffffffffffffffffffffffffffffffffff82169050919050565b5f6116e9826116c0565b9050919050565b6116f9816116df565b8114611703575f80fd5b50565b5f81359050611714816116f0565b92915050565b5f819050919050565b61172c8161171a565b8114611736575f80fd5b50565b5f8135905061174781611723565b92915050565b5f805f60608486031215611764576117636115ab565b5b5f61177186828701611681565b935050602061178286828701611706565b925050604061179386828701611739565b9150509250925092565b6117a681611662565b82525050565b5f6020820190506117bf5f83018461179d565b92915050565b5f80604083850312156117db576117da6115ab565b5b5f6117e885828601611681565b92505060206117f985828601611706565b9150509250929050565b61180c8161171a565b82525050565b5f6020820190506118255f830184611803565b92915050565b5f805f60608486031215611842576118416115ab565b5b5f61184f86828701611681565b935050602061186086828701611706565b925050604061187186828701611706565b9150509250925092565b5f8060408385031215611891576118906115ab565b5b5f61189e85828601611706565b92505060206118af85828601611739565b9150509250929050565b5f602082840312156118ce576118cd6115ab565b5b5f6118db84828501611706565b91505092915050565b5f82825260208201905092915050565b7f466163652068617368206e6f74207265676973746572656400000000000000005f82015250565b5f6119286018836118e4565b9150611933826118f4565b602082019050919050565b5f6020820190508181035f8301526119558161191c565b9050919050565b611965816116df565b82525050565b5f60608201905061197e5f83018661195c565b61198b602083018561195c565b6119986040830184611803565b949350505050565b6119a98161162f565b81146119b3575f80fd5b50565b5f815190506119c4816119a0565b92915050565b5f602082840312156119df576119de6115ab565b5b5f6119ec848285016119b6565b91505092915050565b7f4e487b71000000000000000000000000000000000000000000000000000000005f52601160045260245ffd5b5f611a2c8261171a565b9150611a378361171a565b9250828201905080821115611a4f57611a4e6119f5565b5b92915050565b5f81905092915050565b7f5041594d454e545f41444d494e5f524f4c4500000000000000000000000000005f82015250565b5f611a93601283611a55565b9150611a9e82611a5f565b601282019050919050565b5f611ab382611a87565b9150819050919050565b5f604082019050611ad05f83018561195c565b611add6020830184611803565b9392505050565b5f611aee8261171a565b9150611af98361171a565b9250828203905081811115611b1157611b106119f5565b5b92915050565b7f4845414c54485f50524f46455353494f4e414c5f46554c4c00000000000000005f82015250565b5f611b4b601883611a55565b9150611b5682611b17565b601882019050919050565b5f611b6b82611b3f565b9150819050919050565b7f4845414c54485f50524f46455353494f4e414c5f4d49440000000000000000005f82015250565b5f611ba9601783611a55565b9150611bb482611b75565b601782019050919050565b5f611bc982611b9d565b9150819050919050565b7f4845414c54485f50524f46455353494f4e414c5f4c4f570000000000000000005f82015250565b5f611c07601783611a55565b9150611c1282611bd3565b601782019050919050565b5f611c2782611bfb565b9150819050919050565b7f556e7265636f676e697a656420616363657373206c6576656c000000000000005f82015250565b5f611c656019836118e4565b9150611c7082611c31565b602082019050919050565b5f6020820190508181035f830152611c9281611c59565b9050919050565b5f81905092915050565b50565b5f611cb15f83611c99565b9150611cbc82611ca3565b5f82019050919050565b5f611cd082611ca6565b9150819050919050565b7f5061796f7574206661696c6564000000000000000000000000000000000000005f82015250565b5f611d0e600d836118e4565b9150611d1982611cda565b602082019050919050565b5f6020820190508181035f830152611d3b81611d02565b9050919050565b7f555345525f41444d494e5f524f4c4500000000000000000000000000000000005f82015250565b5f611d76600f83611a55565b9150611d8182611d42565b600f82019050919050565b5f611d9682611d6a565b9150819050919050565b5f604082019050611db35f83018561195c565b611dc0602083018461179d565b939250505056fea264697066735822122004b321d229cdeea078bf583c0be70c7711c9d446b731d92a5f048ad9ee6a33c964736f6c63430008160033",
					"opcodes": "PUSH1 0x80 PUSH1 0x40 MSTORE CALLVALUE DUP1 ISZERO PUSH3 0x10 JUMPI PUSH0 DUP1 REVERT JUMPDEST POP PUSH3 0x25 PUSH0 DUP1 SHL CALLER PUSH3 0x114 PUSH1 0x20 SHL PUSH1 0x20 SHR JUMP JUMPDEST POP PUSH3 0x60 PUSH1 0x40 MLOAD PUSH1 0x20 ADD PUSH3 0x3B SWAP1 PUSH3 0x34D JUMP JUMPDEST PUSH1 0x40 MLOAD PUSH1 0x20 DUP2 DUP4 SUB SUB DUP2 MSTORE SWAP1 PUSH1 0x40 MSTORE DUP1 MLOAD SWAP1 PUSH1 0x20 ADD KECCAK256 PUSH0 DUP1 SHL PUSH3 0x20F PUSH1 0x20 SHL PUSH1 0x20 SHR JUMP JUMPDEST PUSH3 0x9A PUSH1 0x40 MLOAD PUSH1 0x20 ADD PUSH3 0x75 SWAP1 PUSH3 0x3B1 JUMP JUMPDEST PUSH1 0x40 MLOAD PUSH1 0x20 DUP2 DUP4 SUB SUB DUP2 MSTORE SWAP1 PUSH1 0x40 MSTORE DUP1 MLOAD SWAP1 PUSH1 0x20 ADD KECCAK256 PUSH0 DUP1 SHL PUSH3 0x20F PUSH1 0x20 SHL PUSH1 0x20 SHR JUMP JUMPDEST PUSH3 0xD4 PUSH1 0x40 MLOAD PUSH1 0x20 ADD PUSH3 0xAF SWAP1 PUSH3 0x415 JUMP JUMPDEST PUSH1 0x40 MLOAD PUSH1 0x20 DUP2 DUP4 SUB SUB DUP2 MSTORE SWAP1 PUSH1 0x40 MSTORE DUP1 MLOAD SWAP1 PUSH1 0x20 ADD KECCAK256 PUSH0 DUP1 SHL PUSH3 0x20F PUSH1 0x20 SHL PUSH1 0x20 SHR JUMP JUMPDEST PUSH3 0x10E PUSH1 0x40 MLOAD PUSH1 0x20 ADD PUSH3 0xE9 SWAP1 PUSH3 0x479 JUMP JUMPDEST PUSH1 0x40 MLOAD PUSH1 0x20 DUP2 DUP4 SUB SUB DUP2 MSTORE SWAP1 PUSH1 0x40 MSTORE DUP1 MLOAD SWAP1 PUSH1 0x20 ADD KECCAK256 PUSH0 DUP1 SHL PUSH3 0x20F PUSH1 0x20 SHL PUSH1 0x20 SHR JUMP JUMPDEST PUSH3 0x48F JUMP JUMPDEST PUSH0 PUSH3 0x127 DUP4 DUP4 PUSH3 0x26F PUSH1 0x20 SHL PUSH1 0x20 SHR JUMP JUMPDEST PUSH3 0x205 JUMPI PUSH1 0x1 PUSH0 DUP1 DUP6 DUP2 MSTORE PUSH1 0x20 ADD SWAP1 DUP2 MSTORE PUSH1 0x20 ADD PUSH0 KECCAK256 PUSH0 ADD PUSH0 DUP5 PUSH20 0xFFFFFFFFFFFFFFFFFFFFFFFFFFFFFFFFFFFFFFFF AND PUSH20 0xFFFFFFFFFFFFFFFFFFFFFFFFFFFFFFFFFFFFFFFF AND DUP2 MSTORE PUSH1 0x20 ADD SWAP1 DUP2 MSTORE PUSH1 0x20 ADD PUSH0 KECCAK256 PUSH0 PUSH2 0x100 EXP DUP2 SLOAD DUP2 PUSH1 0xFF MUL NOT AND SWAP1 DUP4 ISZERO ISZERO MUL OR SWAP1 SSTORE POP PUSH3 0x1A1 PUSH3 0x2D2 PUSH1 0x20 SHL PUSH1 0x20 SHR JUMP JUMPDEST PUSH20 0xFFFFFFFFFFFFFFFFFFFFFFFFFFFFFFFFFFFFFFFF AND DUP3 PUSH20 0xFFFFFFFFFFFFFFFFFFFFFFFFFFFFFFFFFFFFFFFF AND DUP5 PUSH32 0x2F8788117E7EFF1D82E926EC794901D17C78024A50270940304540A733656F0D PUSH1 0x40 MLOAD PUSH1 0x40 MLOAD DUP1 SWAP2 SUB SWAP1 LOG4 PUSH1 0x1 SWAP1 POP PUSH3 0x209 JUMP JUMPDEST PUSH0 SWAP1 POP JUMPDEST SWAP3 SWAP2 POP POP JUMP JUMPDEST PUSH0 PUSH3 0x221 DUP4 PUSH3 0x2D9 PUSH1 0x20 SHL PUSH1 0x20 SHR JUMP JUMPDEST SWAP1 POP DUP2 PUSH0 DUP1 DUP6 DUP2 MSTORE PUSH1 0x20 ADD SWAP1 DUP2 MSTORE PUSH1 0x20 ADD PUSH0 KECCAK256 PUSH1 0x1 ADD DUP2 SWAP1 SSTORE POP DUP2 DUP2 DUP5 PUSH32 0xBD79B86FFE0AB8E8776151514217CD7CACD52C909F66475C3AF44E129F0B00FF PUSH1 0x40 MLOAD PUSH1 0x40 MLOAD DUP1 SWAP2 SUB SWAP1 LOG4 POP POP POP JUMP JUMPDEST PUSH0 DUP1 PUSH0 DUP5 DUP2 MSTORE PUSH1 0x20 ADD SWAP1 DUP2 MSTORE PUSH1 0x20 ADD PUSH0 KECCAK256 PUSH0 ADD PUSH0 DUP4 PUSH20 0xFFFFFFFFFFFFFFFFFFFFFFFFFFFFFFFFFFFFFFFF AND PUSH20 0xFFFFFFFFFFFFFFFFFFFFFFFFFFFFFFFFFFFFFFFF AND DUP2 MSTORE PUSH1 0x20 ADD SWAP1 DUP2 MSTORE PUSH1 0x20 ADD PUSH0 KECCAK256 PUSH0 SWAP1 SLOAD SWAP1 PUSH2 0x100 EXP SWAP1 DIV PUSH1 0xFF AND SWAP1 POP SWAP3 SWAP2 POP POP JUMP JUMPDEST PUSH0 CALLER SWAP1 POP SWAP1 JUMP JUMPDEST PUSH0 DUP1 PUSH0 DUP4 DUP2 MSTORE PUSH1 0x20 ADD SWAP1 DUP2 MSTORE PUSH1 0x20 ADD PUSH0 KECCAK256 PUSH1 0x1 ADD SLOAD SWAP1 POP SWAP2 SWAP1 POP JUMP JUMPDEST PUSH0 DUP2 SWAP1 POP SWAP3 SWAP2 POP POP JUMP JUMPDEST PUSH32 0x555345525F41444D494E5F524F4C450000000000000000000000000000000000 PUSH0 DUP3 ADD MSTORE POP JUMP JUMPDEST PUSH0 PUSH3 0x335 PUSH1 0xF DUP4 PUSH3 0x2F5 JUMP JUMPDEST SWAP2 POP PUSH3 0x342 DUP3 PUSH3 0x2FF JUMP JUMPDEST PUSH1 0xF DUP3 ADD SWAP1 POP SWAP2 SWAP1 POP JUMP JUMPDEST PUSH0 PUSH3 0x359 DUP3 PUSH3 0x327 JUMP JUMPDEST SWAP2 POP DUP2 SWAP1 POP SWAP2 SWAP1 POP JUMP JUMPDEST PUSH32 0x4845414C54485F50524F46455353494F4E414C5F46554C4C0000000000000000 PUSH0 DUP3 ADD MSTORE POP JUMP JUMPDEST PUSH0 PUSH3 0x399 PUSH1 0x18 DUP4 PUSH3 0x2F5 JUMP JUMPDEST SWAP2 POP PUSH3 0x3A6 DUP3 PUSH3 0x363 JUMP JUMPDEST PUSH1 0x18 DUP3 ADD SWAP1 POP SWAP2 SWAP1 POP JUMP JUMPDEST PUSH0 PUSH3 0x3BD DUP3 PUSH3 0x38B JUMP JUMPDEST SWAP2 POP DUP2 SWAP1 POP SWAP2 SWAP1 POP JUMP JUMPDEST PUSH32 0x4845414C54485F50524F46455353494F4E414C5F4D4944000000000000000000 PUSH0 DUP3 ADD MSTORE POP JUMP JUMPDEST PUSH0 PUSH3 0x3FD PUSH1 0x17 DUP4 PUSH3 0x2F5 JUMP JUMPDEST SWAP2 POP PUSH3 0x40A DUP3 PUSH3 0x3C7 JUMP JUMPDEST PUSH1 0x17 DUP3 ADD SWAP1 POP SWAP2 SWAP1 POP JUMP JUMPDEST PUSH0 PUSH3 0x421 DUP3 PUSH3 0x3EF JUMP JUMPDEST SWAP2 POP DUP2 SWAP1 POP SWAP2 SWAP1 POP JUMP JUMPDEST PUSH32 0x4845414C54485F50524F46455353494F4E414C5F4C4F57000000000000000000 PUSH0 DUP3 ADD MSTORE POP JUMP JUMPDEST PUSH0 PUSH3 0x461 PUSH1 0x17 DUP4 PUSH3 0x2F5 JUMP JUMPDEST SWAP2 POP PUSH3 0x46E DUP3 PUSH3 0x42B JUMP JUMPDEST PUSH1 0x17 DUP3 ADD SWAP1 POP SWAP2 SWAP1 POP JUMP JUMPDEST PUSH0 PUSH3 0x485 DUP3 PUSH3 0x453 JUMP JUMPDEST SWAP2 POP DUP2 SWAP1 POP SWAP2 SWAP1 POP JUMP JUMPDEST PUSH2 0x1DFD DUP1 PUSH3 0x49D PUSH0 CODECOPY PUSH0 RETURN INVALID PUSH1 0x80 PUSH1 0x40 MSTORE PUSH1 0x4 CALLDATASIZE LT PUSH2 0x19B JUMPI PUSH0 CALLDATALOAD PUSH1 0xE0 SHR DUP1 PUSH4 0x585F4C49 GT PUSH2 0xEB JUMPI DUP1 PUSH4 0xD6770522 GT PUSH2 0x89 JUMPI DUP1 PUSH4 0xE096CFED GT PUSH2 0x63 JUMPI DUP1 PUSH4 0xE096CFED EQ PUSH2 0x5BF JUMPI DUP1 PUSH4 0xE6D6384A EQ PUSH2 0x5E7 JUMPI DUP1 PUSH4 0xF0F7AF4D EQ PUSH2 0x623 JUMPI DUP1 PUSH4 0xF2C80089 EQ PUSH2 0x64D JUMPI PUSH2 0x19B JUMP JUMPDEST DUP1 PUSH4 0xD6770522 EQ PUSH2 0x545 JUMPI DUP1 PUSH4 0xD7B8A07A EQ PUSH2 0x56F JUMPI DUP1 PUSH4 0xDD65AB1F EQ PUSH2 0x597 JUMPI PUSH2 0x19B JUMP JUMPDEST DUP1 PUSH4 0xA217FDDF GT PUSH2 0xC5 JUMPI DUP1 PUSH4 0xA217FDDF EQ PUSH2 0x4A1 JUMPI DUP1 PUSH4 0xB24B56B0 EQ PUSH2 0x4CB JUMPI DUP1 PUSH4 0xB89F9AC1 EQ PUSH2 0x4F5 JUMPI DUP1 PUSH4 0xD547741F EQ PUSH2 0x51D JUMPI PUSH2 0x19B JUMP JUMPDEST DUP1 PUSH4 0x585F4C49 EQ PUSH2 0x413 JUMPI DUP1 PUSH4 0x5EA06A9C EQ PUSH2 0x43D JUMPI DUP1 PUSH4 0x91D14854 EQ PUSH2 0x465 JUMPI PUSH2 0x19B JUMP JUMPDEST DUP1 PUSH4 0x2F2FF15D GT PUSH2 0x158 JUMPI DUP1 PUSH4 0x3FD2C4F1 GT PUSH2 0x132 JUMPI DUP1 PUSH4 0x3FD2C4F1 EQ PUSH2 0x35F JUMPI DUP1 PUSH4 0x48570EE6 EQ PUSH2 0x387 JUMPI DUP1 PUSH4 0x51FEA917 EQ PUSH2 0x3AF JUMPI DUP1 PUSH4 0x55F93E6E EQ PUSH2 0x3EB JUMPI PUSH2 0x19B JUMP JUMPDEST DUP1 PUSH4 0x2F2FF15D EQ PUSH2 0x2D3 JUMPI DUP1 PUSH4 0x2F432261 EQ PUSH2 0x2FB JUMPI DUP1 PUSH4 0x36568ABE EQ PUSH2 0x337 JUMPI PUSH2 0x19B JUMP JUMPDEST DUP1 PUSH4 0x1FFC9A7 EQ PUSH2 0x19F JUMPI DUP1 PUSH4 0x9C19362 EQ PUSH2 0x1DB JUMPI DUP1 PUSH4 0xADBBDD3 EQ PUSH2 0x217 JUMPI DUP1 PUSH4 0xFA750FF EQ PUSH2 0x23F JUMPI DUP1 PUSH4 0x248A9CA3 EQ PUSH2 0x25B JUMPI DUP1 PUSH4 0x24CCC1A6 EQ PUSH2 0x297 JUMPI JUMPDEST PUSH0 DUP1 REVERT JUMPDEST CALLVALUE DUP1 ISZERO PUSH2 0x1AA JUMPI PUSH0 DUP1 REVERT JUMPDEST POP PUSH2 0x1C5 PUSH1 0x4 DUP1 CALLDATASIZE SUB DUP2 ADD SWAP1 PUSH2 0x1C0 SWAP2 SWAP1 PUSH2 0x1604 JUMP JUMPDEST PUSH2 0x677 JUMP JUMPDEST PUSH1 0x40 MLOAD PUSH2 0x1D2 SWAP2 SWAP1 PUSH2 0x1649 JUMP JUMPDEST PUSH1 0x40 MLOAD DUP1 SWAP2 SUB SWAP1 RETURN JUMPDEST CALLVALUE DUP1 ISZERO PUSH2 0x1E6 JUMPI PUSH0 DUP1 REVERT JUMPDEST POP PUSH2 0x201 PUSH1 0x4 DUP1 CALLDATASIZE SUB DUP2 ADD SWAP1 PUSH2 0x1FC SWAP2 SWAP1 PUSH2 0x1695 JUMP JUMPDEST PUSH2 0x6F0 JUMP JUMPDEST PUSH1 0x40 MLOAD PUSH2 0x20E SWAP2 SWAP1 PUSH2 0x1649 JUMP JUMPDEST PUSH1 0x40 MLOAD DUP1 SWAP2 SUB SWAP1 RETURN JUMPDEST CALLVALUE DUP1 ISZERO PUSH2 0x222 JUMPI PUSH0 DUP1 REVERT JUMPDEST POP PUSH2 0x23D PUSH1 0x4 DUP1 CALLDATASIZE SUB DUP2 ADD SWAP1 PUSH2 0x238 SWAP2 SWAP1 PUSH2 0x174D JUMP JUMPDEST PUSH2 0x716 JUMP JUMPDEST STOP JUMPDEST PUSH2 0x259 PUSH1 0x4 DUP1 CALLDATASIZE SUB DUP2 ADD SWAP1 PUSH2 0x254 SWAP2 SWAP1 PUSH2 0x1695 JUMP JUMPDEST PUSH2 0x89D JUMP JUMPDEST STOP JUMPDEST CALLVALUE DUP1 ISZERO PUSH2 0x266 JUMPI PUSH0 DUP1 REVERT JUMPDEST POP PUSH2 0x281 PUSH1 0x4 DUP1 CALLDATASIZE SUB DUP2 ADD SWAP1 PUSH2 0x27C SWAP2 SWAP1 PUSH2 0x1695 JUMP JUMPDEST PUSH2 0x952 JUMP JUMPDEST PUSH1 0x40 MLOAD PUSH2 0x28E SWAP2 SWAP1 PUSH2 0x17AC JUMP JUMPDEST PUSH1 0x40 MLOAD DUP1 SWAP2 SUB SWAP1 RETURN JUMPDEST CALLVALUE DUP1 ISZERO PUSH2 0x2A2 JUMPI PUSH0 DUP1 REVERT JUMPDEST POP PUSH2 0x2BD PUSH1 0x4 DUP1 CALLDATASIZE SUB DUP2 ADD SWAP1 PUSH2 0x2B8 SWAP2 SWAP1 PUSH2 0x17C5 JUMP JUMPDEST PUSH2 0x96E JUMP JUMPDEST PUSH1 0x40 MLOAD PUSH2 0x2CA SWAP2 SWAP1 PUSH2 0x1812 JUMP JUMPDEST PUSH1 0x40 MLOAD DUP1 SWAP2 SUB SWAP1 RETURN JUMPDEST CALLVALUE DUP1 ISZERO PUSH2 0x2DE JUMPI PUSH0 DUP1 REVERT JUMPDEST POP PUSH2 0x2F9 PUSH1 0x4 DUP1 CALLDATASIZE SUB DUP2 ADD SWAP1 PUSH2 0x2F4 SWAP2 SWAP1 PUSH2 0x17C5 JUMP JUMPDEST PUSH2 0x98E JUMP JUMPDEST STOP JUMPDEST CALLVALUE DUP1 ISZERO PUSH2 0x306 JUMPI PUSH0 DUP1 REVERT JUMPDEST POP PUSH2 0x321 PUSH1 0x4 DUP1 CALLDATASIZE SUB DUP2 ADD SWAP1 PUSH2 0x31C SWAP2 SWAP1 PUSH2 0x1695 JUMP JUMPDEST PUSH2 0x9B0 JUMP JUMPDEST PUSH1 0x40 MLOAD PUSH2 0x32E SWAP2 SWAP1 PUSH2 0x1649 JUMP JUMPDEST PUSH1 0x40 MLOAD DUP1 SWAP2 SUB SWAP1 RETURN JUMPDEST CALLVALUE DUP1 ISZERO PUSH2 0x342 JUMPI PUSH0 DUP1 REVERT JUMPDEST POP PUSH2 0x35D PUSH1 0x4 DUP1 CALLDATASIZE SUB DUP2 ADD SWAP1 PUSH2 0x358 SWAP2 SWAP1 PUSH2 0x17C5 JUMP JUMPDEST PUSH2 0x9CD JUMP JUMPDEST STOP JUMPDEST CALLVALUE DUP1 ISZERO PUSH2 0x36A JUMPI PUSH0 DUP1 REVERT JUMPDEST POP PUSH2 0x385 PUSH1 0x4 DUP1 CALLDATASIZE SUB DUP2 ADD SWAP1 PUSH2 0x380 SWAP2 SWAP1 PUSH2 0x182B JUMP JUMPDEST PUSH2 0xA48 JUMP JUMPDEST STOP JUMPDEST CALLVALUE DUP1 ISZERO PUSH2 0x392 JUMPI PUSH0 DUP1 REVERT JUMPDEST POP PUSH2 0x3AD PUSH1 0x4 DUP1 CALLDATASIZE SUB DUP2 ADD SWAP1 PUSH2 0x3A8 SWAP2 SWAP1 PUSH2 0x187B JUMP JUMPDEST PUSH2 0xC4B JUMP JUMPDEST STOP JUMPDEST CALLVALUE DUP1 ISZERO PUSH2 0x3BA JUMPI PUSH0 DUP1 REVERT JUMPDEST POP PUSH2 0x3D5 PUSH1 0x4 DUP1 CALLDATASIZE SUB DUP2 ADD SWAP1 PUSH2 0x3D0 SWAP2 SWAP1 PUSH2 0x18B9 JUMP JUMPDEST PUSH2 0xD8E JUMP JUMPDEST PUSH1 0x40 MLOAD PUSH2 0x3E2 SWAP2 SWAP1 PUSH2 0x1812 JUMP JUMPDEST PUSH1 0x40 MLOAD DUP1 SWAP2 SUB SWAP1 RETURN JUMPDEST CALLVALUE DUP1 ISZERO PUSH2 0x3F6 JUMPI PUSH0 DUP1 REVERT JUMPDEST POP PUSH2 0x411 PUSH1 0x4 DUP1 CALLDATASIZE SUB DUP2 ADD SWAP1 PUSH2 0x40C SWAP2 SWAP1 PUSH2 0x17C5 JUMP JUMPDEST PUSH2 0xE6B JUMP JUMPDEST STOP JUMPDEST CALLVALUE DUP1 ISZERO PUSH2 0x41E JUMPI PUSH0 DUP1 REVERT JUMPDEST POP PUSH2 0x427 PUSH2 0x1023 JUMP JUMPDEST PUSH1 0x40 MLOAD PUSH2 0x434 SWAP2 SWAP1 PUSH2 0x17AC JUMP JUMPDEST PUSH1 0x40 MLOAD DUP1 SWAP2 SUB SWAP1 RETURN JUMPDEST CALLVALUE DUP1 ISZERO PUSH2 0x448 JUMPI PUSH0 DUP1 REVERT JUMPDEST POP PUSH2 0x463 PUSH1 0x4 DUP1 CALLDATASIZE SUB DUP2 ADD SWAP1 PUSH2 0x45E SWAP2 SWAP1 PUSH2 0x18B9 JUMP JUMPDEST PUSH2 0x104B JUMP JUMPDEST STOP JUMPDEST CALLVALUE DUP1 ISZERO PUSH2 0x470 JUMPI PUSH0 DUP1 REVERT JUMPDEST POP PUSH2 0x48B PUSH1 0x4 DUP1 CALLDATASIZE SUB DUP2 ADD SWAP1 PUSH2 0x486 SWAP2 SWAP1 PUSH2 0x17C5 JUMP JUMPDEST PUSH2 0x1088 JUMP JUMPDEST PUSH1 0x40 MLOAD PUSH2 0x498 SWAP2 SWAP1 PUSH2 0x1649 JUMP JUMPDEST PUSH1 0x40 MLOAD DUP1 SWAP2 SUB SWAP1 RETURN JUMPDEST CALLVALUE DUP1 ISZERO PUSH2 0x4AC JUMPI PUSH0 DUP1 REVERT JUMPDEST POP PUSH2 0x4B5 PUSH2 0x10EB JUMP JUMPDEST PUSH1 0x40 MLOAD PUSH2 0x4C2 SWAP2 SWAP1 PUSH2 0x17AC JUMP JUMPDEST PUSH1 0x40 MLOAD DUP1 SWAP2 SUB SWAP1 RETURN JUMPDEST CALLVALUE DUP1 ISZERO PUSH2 0x4D6 JUMPI PUSH0 DUP1 REVERT JUMPDEST POP PUSH2 0x4DF PUSH2 0x10F1 JUMP JUMPDEST PUSH1 0x40 MLOAD PUSH2 0x4EC SWAP2 SWAP1 PUSH2 0x17AC JUMP JUMPDEST PUSH1 0x40 MLOAD DUP1 SWAP2 SUB SWAP1 RETURN JUMPDEST CALLVALUE DUP1 ISZERO PUSH2 0x500 JUMPI PUSH0 DUP1 REVERT JUMPDEST POP PUSH2 0x51B PUSH1 0x4 DUP1 CALLDATASIZE SUB DUP2 ADD SWAP1 PUSH2 0x516 SWAP2 SWAP1 PUSH2 0x18B9 JUMP JUMPDEST PUSH2 0x1119 JUMP JUMPDEST STOP JUMPDEST CALLVALUE DUP1 ISZERO PUSH2 0x528 JUMPI PUSH0 DUP1 REVERT JUMPDEST POP PUSH2 0x543 PUSH1 0x4 DUP1 CALLDATASIZE SUB DUP2 ADD SWAP1 PUSH2 0x53E SWAP2 SWAP1 PUSH2 0x17C5 JUMP JUMPDEST PUSH2 0x1156 JUMP JUMPDEST STOP JUMPDEST CALLVALUE DUP1 ISZERO PUSH2 0x550 JUMPI PUSH0 DUP1 REVERT JUMPDEST POP PUSH2 0x559 PUSH2 0x1178 JUMP JUMPDEST PUSH1 0x40 MLOAD PUSH2 0x566 SWAP2 SWAP1 PUSH2 0x17AC JUMP JUMPDEST PUSH1 0x40 MLOAD DUP1 SWAP2 SUB SWAP1 RETURN JUMPDEST CALLVALUE DUP1 ISZERO PUSH2 0x57A JUMPI PUSH0 DUP1 REVERT JUMPDEST POP PUSH2 0x595 PUSH1 0x4 DUP1 CALLDATASIZE SUB DUP2 ADD SWAP1 PUSH2 0x590 SWAP2 SWAP1 PUSH2 0x18B9 JUMP JUMPDEST PUSH2 0x11A0 JUMP JUMPDEST STOP JUMPDEST CALLVALUE DUP1 ISZERO PUSH2 0x5A2 JUMPI PUSH0 DUP1 REVERT JUMPDEST POP PUSH2 0x5BD PUSH1 0x4 DUP1 CALLDATASIZE SUB DUP2 ADD SWAP1 PUSH2 0x5B8 SWAP2 SWAP1 PUSH2 0x1695 JUMP JUMPDEST PUSH2 0x11DD JUMP JUMPDEST STOP JUMPDEST CALLVALUE DUP1 ISZERO PUSH2 0x5CA JUMPI PUSH0 DUP1 REVERT JUMPDEST POP PUSH2 0x5E5 PUSH1 0x4 DUP1 CALLDATASIZE SUB DUP2 ADD SWAP1 PUSH2 0x5E0 SWAP2 SWAP1 PUSH2 0x18B9 JUMP JUMPDEST PUSH2 0x1262 JUMP JUMPDEST STOP JUMPDEST CALLVALUE DUP1 ISZERO PUSH2 0x5F2 JUMPI PUSH0 DUP1 REVERT JUMPDEST POP PUSH2 0x60D PUSH1 0x4 DUP1 CALLDATASIZE SUB DUP2 ADD SWAP1 PUSH2 0x608 SWAP2 SWAP1 PUSH2 0x1695 JUMP JUMPDEST PUSH2 0x129F JUMP JUMPDEST PUSH1 0x40 MLOAD PUSH2 0x61A SWAP2 SWAP1 PUSH2 0x1812 JUMP JUMPDEST PUSH1 0x40 MLOAD DUP1 SWAP2 SUB SWAP1 RETURN JUMPDEST CALLVALUE DUP1 ISZERO PUSH2 0x62E JUMPI PUSH0 DUP1 REVERT JUMPDEST POP PUSH2 0x637 PUSH2 0x12B4 JUMP JUMPDEST PUSH1 0x40 MLOAD PUSH2 0x644 SWAP2 SWAP1 PUSH2 0x17AC JUMP JUMPDEST PUSH1 0x40 MLOAD DUP1 SWAP2 SUB SWAP1 RETURN JUMPDEST CALLVALUE DUP1 ISZERO PUSH2 0x658 JUMPI PUSH0 DUP1 REVERT JUMPDEST POP PUSH2 0x661 PUSH2 0x12DC JUMP JUMPDEST PUSH1 0x40 MLOAD PUSH2 0x66E SWAP2 SWAP1 PUSH2 0x17AC JUMP JUMPDEST PUSH1 0x40 MLOAD DUP1 SWAP2 SUB SWAP1 RETURN JUMPDEST PUSH0 PUSH32 0x7965DB0B00000000000000000000000000000000000000000000000000000000 PUSH28 0xFFFFFFFFFFFFFFFFFFFFFFFFFFFFFFFFFFFFFFFFFFFFFFFFFFFFFFFF NOT AND DUP3 PUSH28 0xFFFFFFFFFFFFFFFFFFFFFFFFFFFFFFFFFFFFFFFFFFFFFFFFFFFFFFFF NOT AND EQ DUP1 PUSH2 0x6E9 JUMPI POP PUSH2 0x6E8 DUP3 PUSH2 0x1304 JUMP JUMPDEST JUMPDEST SWAP1 POP SWAP2 SWAP1 POP JUMP JUMPDEST PUSH0 PUSH1 0x1 PUSH0 DUP4 DUP2 MSTORE PUSH1 0x20 ADD SWAP1 DUP2 MSTORE PUSH1 0x20 ADD PUSH0 KECCAK256 PUSH0 SWAP1 SLOAD SWAP1 PUSH2 0x100 EXP SWAP1 DIV PUSH1 0xFF AND SWAP1 POP SWAP2 SWAP1 POP JUMP JUMPDEST PUSH1 0x1 PUSH0 DUP5 DUP2 MSTORE PUSH1 0x20 ADD SWAP1 DUP2 MSTORE PUSH1 0x20 ADD PUSH0 KECCAK256 PUSH0 SWAP1 SLOAD SWAP1 PUSH2 0x100 EXP SWAP1 DIV PUSH1 0xFF AND PUSH2 0x773 JUMPI PUSH1 0x40 MLOAD PUSH32 0x8C379A000000000000000000000000000000000000000000000000000000000 DUP2 MSTORE PUSH1 0x4 ADD PUSH2 0x76A SWAP1 PUSH2 0x193E JUMP JUMPDEST PUSH1 0x40 MLOAD DUP1 SWAP2 SUB SWAP1 REVERT JUMPDEST DUP2 PUSH20 0xFFFFFFFFFFFFFFFFFFFFFFFFFFFFFFFFFFFFFFFF AND PUSH4 0x23B872DD CALLER ADDRESS DUP5 PUSH1 0x40 MLOAD DUP5 PUSH4 0xFFFFFFFF AND PUSH1 0xE0 SHL DUP2 MSTORE PUSH1 0x4 ADD PUSH2 0x7B0 SWAP4 SWAP3 SWAP2 SWAP1 PUSH2 0x196B JUMP JUMPDEST PUSH1 0x20 PUSH1 0x40 MLOAD DUP1 DUP4 SUB DUP2 PUSH0 DUP8 GAS CALL ISZERO DUP1 ISZERO PUSH2 0x7CC JUMPI RETURNDATASIZE PUSH0 DUP1 RETURNDATACOPY RETURNDATASIZE PUSH0 REVERT JUMPDEST POP POP POP POP PUSH1 0x40 MLOAD RETURNDATASIZE PUSH1 0x1F NOT PUSH1 0x1F DUP3 ADD AND DUP3 ADD DUP1 PUSH1 0x40 MSTORE POP DUP2 ADD SWAP1 PUSH2 0x7F0 SWAP2 SWAP1 PUSH2 0x19CA JUMP JUMPDEST POP DUP1 PUSH1 0x2 PUSH0 DUP6 DUP2 MSTORE PUSH1 0x20 ADD SWAP1 DUP2 MSTORE PUSH1 0x20 ADD PUSH0 KECCAK256 PUSH0 DUP5 PUSH20 0xFFFFFFFFFFFFFFFFFFFFFFFFFFFFFFFFFFFFFFFF AND PUSH20 0xFFFFFFFFFFFFFFFFFFFFFFFFFFFFFFFFFFFFFFFF AND DUP2 MSTORE PUSH1 0x20 ADD SWAP1 DUP2 MSTORE PUSH1 0x20 ADD PUSH0 KECCAK256 PUSH0 DUP3 DUP3 SLOAD PUSH2 0x84C SWAP2 SWAP1 PUSH2 0x1A22 JUMP JUMPDEST SWAP3 POP POP DUP2 SWAP1 SSTORE POP DUP1 DUP3 PUSH20 0xFFFFFFFFFFFFFFFFFFFFFFFFFFFFFFFFFFFFFFFF AND DUP5 PUSH32 0x7A143568E7A2E32F33C2AB85BB8CB9FF7E78D00E650D6973C8873BBDC075E811 PUSH1 0x40 MLOAD PUSH1 0x40 MLOAD DUP1 SWAP2 SUB SWAP1 LOG4 POP POP POP JUMP JUMPDEST PUSH1 0x1 PUSH0 DUP3 DUP2 MSTORE PUSH1 0x20 ADD SWAP1 DUP2 MSTORE PUSH1 0x20 ADD PUSH0 KECCAK256 PUSH0 SWAP1 SLOAD SWAP1 PUSH2 0x100 EXP SWAP1 DIV PUSH1 0xFF AND PUSH2 0x8FA JUMPI PUSH1 0x40 MLOAD PUSH32 0x8C379A000000000000000000000000000000000000000000000000000000000 DUP2 MSTORE PUSH1 0x4 ADD PUSH2 0x8F1 SWAP1 PUSH2 0x193E JUMP JUMPDEST PUSH1 0x40 MLOAD DUP1 SWAP2 SUB SWAP1 REVERT JUMPDEST CALLVALUE PUSH1 0x3 PUSH0 DUP4 DUP2 MSTORE PUSH1 0x20 ADD SWAP1 DUP2 MSTORE PUSH1 0x20 ADD PUSH0 KECCAK256 PUSH0 DUP3 DUP3 SLOAD PUSH2 0x91A SWAP2 SWAP1 PUSH2 0x1A22 JUMP JUMPDEST SWAP3 POP POP DUP2 SWAP1 SSTORE POP CALLVALUE DUP2 PUSH32 0xACC0FD4B3527D0953ABDCE4AC9A5F786E3D780A3B4BBEFEFB360A8642429E0F6 PUSH1 0x40 MLOAD PUSH1 0x40 MLOAD DUP1 SWAP2 SUB SWAP1 LOG3 POP JUMP JUMPDEST PUSH0 DUP1 PUSH0 DUP4 DUP2 MSTORE PUSH1 0x20 ADD SWAP1 DUP2 MSTORE PUSH1 0x20 ADD PUSH0 KECCAK256 PUSH1 0x1 ADD SLOAD SWAP1 POP SWAP2 SWAP1 POP JUMP JUMPDEST PUSH1 0x2 PUSH1 0x20 MSTORE DUP2 PUSH0 MSTORE PUSH1 0x40 PUSH0 KECCAK256 PUSH1 0x20 MSTORE DUP1 PUSH0 MSTORE PUSH1 0x40 PUSH0 KECCAK256 PUSH0 SWAP2 POP SWAP2 POP POP SLOAD DUP2 JUMP JUMPDEST PUSH2 0x997 DUP3 PUSH2 0x952 JUMP JUMPDEST PUSH2 0x9A0 DUP2 PUSH2 0x136D JUMP JUMPDEST PUSH2 0x9AA DUP4 DUP4 PUSH2 0x1381 JUMP JUMPDEST POP POP POP POP JUMP JUMPDEST PUSH1 0x1 PUSH1 0x20 MSTORE DUP1 PUSH0 MSTORE PUSH1 0x40 PUSH0 KECCAK256 PUSH0 SWAP2 POP SLOAD SWAP1 PUSH2 0x100 EXP SWAP1 DIV PUSH1 0xFF AND DUP2 JUMP JUMPDEST PUSH2 0x9D5 PUSH2 0x146A JUMP JUMPDEST PUSH20 0xFFFFFFFFFFFFFFFFFFFFFFFFFFFFFFFFFFFFFFFF AND DUP2 PUSH20 0xFFFFFFFFFFFFFFFFFFFFFFFFFFFFFFFFFFFFFFFF AND EQ PUSH2 0xA39 JUMPI PUSH1 0x40 MLOAD PUSH32 0x6697B23200000000000000000000000000000000000000000000000000000000 DUP2 MSTORE PUSH1 0x4 ADD PUSH1 0x40 MLOAD DUP1 SWAP2 SUB SWAP1 REVERT JUMPDEST PUSH2 0xA43 DUP3 DUP3 PUSH2 0x1471 JUMP JUMPDEST POP POP POP JUMP JUMPDEST PUSH2 0xA75 PUSH1 0x40 MLOAD PUSH1 0x20 ADD PUSH2 0xA5A SWAP1 PUSH2 0x1AA9 JUMP JUMPDEST PUSH1 0x40 MLOAD PUSH1 0x20 DUP2 DUP4 SUB SUB DUP2 MSTORE SWAP1 PUSH1 0x40 MSTORE DUP1 MLOAD SWAP1 PUSH1 0x20 ADD KECCAK256 PUSH2 0x136D JUMP JUMPDEST PUSH1 0x1 PUSH0 DUP5 DUP2 MSTORE PUSH1 0x20 ADD SWAP1 DUP2 MSTORE PUSH1 0x20 ADD PUSH0 KECCAK256 PUSH0 SWAP1 SLOAD SWAP1 PUSH2 0x100 EXP SWAP1 DIV PUSH1 0xFF AND PUSH2 0xAD2 JUMPI PUSH1 0x40 MLOAD PUSH32 0x8C379A000000000000000000000000000000000000000000000000000000000 DUP2 MSTORE PUSH1 0x4 ADD PUSH2 0xAC9 SWAP1 PUSH2 0x193E JUMP JUMPDEST PUSH1 0x40 MLOAD DUP1 SWAP2 SUB SWAP1 REVERT JUMPDEST PUSH0 PUSH1 0x2 PUSH0 DUP6 DUP2 MSTORE PUSH1 0x20 ADD SWAP1 DUP2 MSTORE PUSH1 0x20 ADD PUSH0 KECCAK256 PUSH0 DUP5 PUSH20 0xFFFFFFFFFFFFFFFFFFFFFFFFFFFFFFFFFFFFFFFF AND PUSH20 0xFFFFFFFFFFFFFFFFFFFFFFFFFFFFFFFFFFFFFFFF AND DUP2 MSTORE PUSH1 0x20 ADD SWAP1 DUP2 MSTORE PUSH1 0x20 ADD PUSH0 KECCAK256 SLOAD SWAP1 POP DUP3 PUSH20 0xFFFFFFFFFFFFFFFFFFFFFFFFFFFFFFFFFFFFFFFF AND PUSH4 0xA9059CBB DUP4 DUP4 PUSH1 0x40 MLOAD DUP4 PUSH4 0xFFFFFFFF AND PUSH1 0xE0 SHL DUP2 MSTORE PUSH1 0x4 ADD PUSH2 0xB5D SWAP3 SWAP2 SWAP1 PUSH2 0x1ABD JUMP JUMPDEST PUSH1 0x20 PUSH1 0x40 MLOAD DUP1 DUP4 SUB DUP2 PUSH0 DUP8 GAS CALL ISZERO DUP1 ISZERO PUSH2 0xB79 JUMPI RETURNDATASIZE PUSH0 DUP1 RETURNDATACOPY RETURNDATASIZE PUSH0 REVERT JUMPDEST POP POP POP POP PUSH1 0x40 MLOAD RETURNDATASIZE PUSH1 0x1F NOT PUSH1 0x1F DUP3 ADD AND DUP3 ADD DUP1 PUSH1 0x40 MSTORE POP DUP2 ADD SWAP1 PUSH2 0xB9D SWAP2 SWAP1 PUSH2 0x19CA JUMP JUMPDEST POP DUP1 PUSH1 0x2 PUSH0 DUP7 DUP2 MSTORE PUSH1 0x20 ADD SWAP1 DUP2 MSTORE PUSH1 0x20 ADD PUSH0 KECCAK256 PUSH0 DUP6 PUSH20 0xFFFFFFFFFFFFFFFFFFFFFFFFFFFFFFFFFFFFFFFF AND PUSH20 0xFFFFFFFFFFFFFFFFFFFFFFFFFFFFFFFFFFFFFFFF AND DUP2 MSTORE PUSH1 0x20 ADD SWAP1 DUP2 MSTORE PUSH1 0x20 ADD PUSH0 KECCAK256 PUSH0 DUP3 DUP3 SLOAD PUSH2 0xBF9 SWAP2 SWAP1 PUSH2 0x1AE4 JUMP JUMPDEST SWAP3 POP POP DUP2 SWAP1 SSTORE POP DUP1 DUP4 PUSH20 0xFFFFFFFFFFFFFFFFFFFFFFFFFFFFFFFFFFFFFFFF AND DUP6 PUSH32 0x434ADBD1794F49FFEB1EA04DE9AD62FB01CC18179124CDA3CE5EEE58F010F969 PUSH1 0x40 MLOAD PUSH1 0x40 MLOAD DUP1 SWAP2 SUB SWAP1 LOG4 POP POP POP POP JUMP JUMPDEST PUSH2 0xC56 PUSH0 DUP1 SHL PUSH2 0x136D JUMP JUMPDEST PUSH0 DUP2 SUB PUSH2 0xC91 JUMPI PUSH2 0xC8B PUSH1 0x40 MLOAD PUSH1 0x20 ADD PUSH2 0xC6F SWAP1 PUSH2 0x1B61 JUMP JUMPDEST PUSH1 0x40 MLOAD PUSH1 0x20 DUP2 DUP4 SUB SUB DUP2 MSTORE SWAP1 PUSH1 0x40 MSTORE DUP1 MLOAD SWAP1 PUSH1 0x20 ADD KECCAK256 DUP4 PUSH2 0x1381 JUMP JUMPDEST POP PUSH2 0xD46 JUMP JUMPDEST PUSH1 0x1 DUP2 SUB PUSH2 0xCCD JUMPI PUSH2 0xCC7 PUSH1 0x40 MLOAD PUSH1 0x20 ADD PUSH2 0xCAB SWAP1 PUSH2 0x1BBF JUMP JUMPDEST PUSH1 0x40 MLOAD PUSH1 0x20 DUP2 DUP4 SUB SUB DUP2 MSTORE SWAP1 PUSH1 0x40 MSTORE DUP1 MLOAD SWAP1 PUSH1 0x20 ADD KECCAK256 DUP4 PUSH2 0x1381 JUMP JUMPDEST POP PUSH2 0xD45 JUMP JUMPDEST PUSH1 0x2 DUP2 SUB PUSH2 0xD09 JUMPI PUSH2 0xD03 PUSH1 0x40 MLOAD PUSH1 0x20 ADD PUSH2 0xCE7 SWAP1 PUSH2 0x1C1D JUMP JUMPDEST PUSH1 0x40 MLOAD PUSH1 0x20 DUP2 DUP4 SUB SUB DUP2 MSTORE SWAP1 PUSH1 0x40 MSTORE DUP1 MLOAD SWAP1 PUSH1 0x20 ADD KECCAK256 DUP4 PUSH2 0x1381 JUMP JUMPDEST POP PUSH2 0xD44 JUMP JUMPDEST PUSH1 0x40 MLOAD PUSH32 0x8C379A000000000000000000000000000000000000000000000000000000000 DUP2 MSTORE PUSH1 0x4 ADD PUSH2 0xD3B SWAP1 PUSH2 0x1C7B JUMP JUMPDEST PUSH1 0x40 MLOAD DUP1 SWAP2 SUB SWAP1 REVERT JUMPDEST JUMPDEST JUMPDEST DUP1 DUP3 PUSH20 0xFFFFFFFFFFFFFFFFFFFFFFFFFFFFFFFFFFFFFFFF AND PUSH32 0x2224B7DFF324F24F810CF3BB4055085A9FD09DB933A221DEA091E176F4D16C8C PUSH1 0x40 MLOAD PUSH1 0x40 MLOAD DUP1 SWAP2 SUB SWAP1 LOG3 POP POP JUMP JUMPDEST PUSH0 PUSH2 0xDBD PUSH1 0x40 MLOAD PUSH1 0x20 ADD PUSH2 0xDA1 SWAP1 PUSH2 0x1B61 JUMP JUMPDEST PUSH1 0x40 MLOAD PUSH1 0x20 DUP2 DUP4 SUB SUB DUP2 MSTORE SWAP1 PUSH1 0x40 MSTORE DUP1 MLOAD SWAP1 PUSH1 0x20 ADD KECCAK256 DUP4 PUSH2 0x1088 JUMP JUMPDEST ISZERO PUSH2 0xDCA JUMPI PUSH0 SWAP1 POP PUSH2 0xE66 JUMP JUMPDEST PUSH2 0xDF8 PUSH1 0x40 MLOAD PUSH1 0x20 ADD PUSH2 0xDDC SWAP1 PUSH2 0x1BBF JUMP JUMPDEST PUSH1 0x40 MLOAD PUSH1 0x20 DUP2 DUP4 SUB SUB DUP2 MSTORE SWAP1 PUSH1 0x40 MSTORE DUP1 MLOAD SWAP1 PUSH1 0x20 ADD KECCAK256 DUP4 PUSH2 0x1088 JUMP JUMPDEST ISZERO PUSH2 0xE06 JUMPI PUSH1 0x1 SWAP1 POP PUSH2 0xE66 JUMP JUMPDEST PUSH2 0xE34 PUSH1 0x40 MLOAD PUSH1 0x20 ADD PUSH2 0xE18 SWAP1 PUSH2 0x1C1D JUMP JUMPDEST PUSH1 0x40 MLOAD PUSH1 0x20 DUP2 DUP4 SUB SUB DUP2 MSTORE SWAP1 PUSH1 0x40 MSTORE DUP1 MLOAD SWAP1 PUSH1 0x20 ADD KECCAK256 DUP4 PUSH2 0x1088 JUMP JUMPDEST ISZERO PUSH2 0xE42 JUMPI PUSH1 0x2 SWAP1 POP PUSH2 0xE66 JUMP JUMPDEST PUSH32 0xFFFFFFFFFFFFFFFFFFFFFFFFFFFFFFFFFFFFFFFFFFFFFFFFFFFFFFFFFFFFFFFF SWAP1 POP JUMPDEST SWAP2 SWAP1 POP JUMP JUMPDEST PUSH2 0xE98 PUSH1 0x40 MLOAD PUSH1 0x20 ADD PUSH2 0xE7D SWAP1 PUSH2 0x1AA9 JUMP JUMPDEST PUSH1 0x40 MLOAD PUSH1 0x20 DUP2 DUP4 SUB SUB DUP2 MSTORE SWAP1 PUSH1 0x40 MSTORE DUP1 MLOAD SWAP1 PUSH1 0x20 ADD KECCAK256 PUSH2 0x136D JUMP JUMPDEST PUSH1 0x1 PUSH0 DUP4 DUP2 MSTORE PUSH1 0x20 ADD SWAP1 DUP2 MSTORE PUSH1 0x20 ADD PUSH0 KECCAK256 PUSH0 SWAP1 SLOAD SWAP1 PUSH2 0x100 EXP SWAP1 DIV PUSH1 0xFF AND PUSH2 0xEF5 JUMPI PUSH1 0x40 MLOAD PUSH32 0x8C379A000000000000000000000000000000000000000000000000000000000 DUP2 MSTORE PUSH1 0x4 ADD PUSH2 0xEEC SWAP1 PUSH2 0x193E JUMP JUMPDEST PUSH1 0x40 MLOAD DUP1 SWAP2 SUB SWAP1 REVERT JUMPDEST PUSH0 PUSH1 0x3 PUSH0 DUP5 DUP2 MSTORE PUSH1 0x20 ADD SWAP1 DUP2 MSTORE PUSH1 0x20 ADD PUSH0 KECCAK256 SLOAD SWAP1 POP PUSH0 DUP3 PUSH20 0xFFFFFFFFFFFFFFFFFFFFFFFFFFFFFFFFFFFFFFFF AND DUP3 PUSH1 0x40 MLOAD PUSH2 0xF2F SWAP1 PUSH2 0x1CC6 JUMP JUMPDEST PUSH0 PUSH1 0x40 MLOAD DUP1 DUP4 SUB DUP2 DUP6 DUP8 GAS CALL SWAP3 POP POP POP RETURNDATASIZE DUP1 PUSH0 DUP2 EQ PUSH2 0xF69 JUMPI PUSH1 0x40 MLOAD SWAP2 POP PUSH1 0x1F NOT PUSH1 0x3F RETURNDATASIZE ADD AND DUP3 ADD PUSH1 0x40 MSTORE RETURNDATASIZE DUP3 MSTORE RETURNDATASIZE PUSH0 PUSH1 0x20 DUP5 ADD RETURNDATACOPY PUSH2 0xF6E JUMP JUMPDEST PUSH1 0x60 SWAP2 POP JUMPDEST POP POP SWAP1 POP DUP1 PUSH2 0xFB2 JUMPI PUSH1 0x40 MLOAD PUSH32 0x8C379A000000000000000000000000000000000000000000000000000000000 DUP2 MSTORE PUSH1 0x4 ADD PUSH2 0xFA9 SWAP1 PUSH2 0x1D24 JUMP JUMPDEST PUSH1 0x40 MLOAD DUP1 SWAP2 SUB SWAP1 REVERT JUMPDEST DUP2 PUSH1 0x3 PUSH0 DUP7 DUP2 MSTORE PUSH1 0x20 ADD SWAP1 DUP2 MSTORE PUSH1 0x20 ADD PUSH0 KECCAK256 PUSH0 DUP3 DUP3 SLOAD PUSH2 0xFD2 SWAP2 SWAP1 PUSH2 0x1AE4 JUMP JUMPDEST SWAP3 POP POP DUP2 SWAP1 SSTORE POP DUP3 PUSH20 0xFFFFFFFFFFFFFFFFFFFFFFFFFFFFFFFFFFFFFFFF AND DUP5 PUSH32 0xFD1D4F59CF1013EE232282CAC3356B455525C6D4D04D18BED8216B7B6C2BEB60 PUSH1 0x40 MLOAD PUSH1 0x40 MLOAD DUP1 SWAP2 SUB SWAP1 LOG3 POP POP POP POP JUMP JUMPDEST PUSH1 0x40 MLOAD PUSH1 0x20 ADD PUSH2 0x1032 SWAP1 PUSH2 0x1C1D JUMP JUMPDEST PUSH1 0x40 MLOAD PUSH1 0x20 DUP2 DUP4 SUB SUB DUP2 MSTORE SWAP1 PUSH1 0x40 MSTORE DUP1 MLOAD SWAP1 PUSH1 0x20 ADD KECCAK256 DUP2 JUMP JUMPDEST PUSH2 0x1056 PUSH0 DUP1 SHL PUSH2 0x136D JUMP JUMPDEST PUSH2 0x1084 PUSH1 0x40 MLOAD PUSH1 0x20 ADD PUSH2 0x1068 SWAP1 PUSH2 0x1AA9 JUMP JUMPDEST PUSH1 0x40 MLOAD PUSH1 0x20 DUP2 DUP4 SUB SUB DUP2 MSTORE SWAP1 PUSH1 0x40 MSTORE DUP1 MLOAD SWAP1 PUSH1 0x20 ADD KECCAK256 DUP3 PUSH2 0x1381 JUMP JUMPDEST POP POP JUMP JUMPDEST PUSH0 DUP1 PUSH0 DUP5 DUP2 MSTORE PUSH1 0x20 ADD SWAP1 DUP2 MSTORE PUSH1 0x20 ADD PUSH0 KECCAK256 PUSH0 ADD PUSH0 DUP4 PUSH20 0xFFFFFFFFFFFFFFFFFFFFFFFFFFFFFFFFFFFFFFFF AND PUSH20 0xFFFFFFFFFFFFFFFFFFFFFFFFFFFFFFFFFFFFFFFF AND DUP2 MSTORE PUSH1 0x20 ADD SWAP1 DUP2 MSTORE PUSH1 0x20 ADD PUSH0 KECCAK256 PUSH0 SWAP1 SLOAD SWAP1 PUSH2 0x100 EXP SWAP1 DIV PUSH1 0xFF AND SWAP1 POP SWAP3 SWAP2 POP POP JUMP JUMPDEST PUSH0 DUP1 SHL DUP2 JUMP JUMPDEST PUSH1 0x40 MLOAD PUSH1 0x20 ADD PUSH2 0x1100 SWAP1 PUSH2 0x1AA9 JUMP JUMPDEST PUSH1 0x40 MLOAD PUSH1 0x20 DUP2 DUP4 SUB SUB DUP2 MSTORE SWAP1 PUSH1 0x40 MSTORE DUP1 MLOAD SWAP1 PUSH1 0x20 ADD KECCAK256 DUP2 JUMP JUMPDEST PUSH2 0x1124 PUSH0 DUP1 SHL PUSH2 0x136D JUMP JUMPDEST PUSH2 0x1152 PUSH1 0x40 MLOAD PUSH1 0x20 ADD PUSH2 0x1136 SWAP1 PUSH2 0x1D8C JUMP JUMPDEST PUSH1 0x40 MLOAD PUSH1 0x20 DUP2 DUP4 SUB SUB DUP2 MSTORE SWAP1 PUSH1 0x40 MSTORE DUP1 MLOAD SWAP1 PUSH1 0x20 ADD KECCAK256 DUP3 PUSH2 0x1381 JUMP JUMPDEST POP POP JUMP JUMPDEST PUSH2 0x115F DUP3 PUSH2 0x952 JUMP JUMPDEST PUSH2 0x1168 DUP2 PUSH2 0x136D JUMP JUMPDEST PUSH2 0x1172 DUP4 DUP4 PUSH2 0x1471 JUMP JUMPDEST POP POP POP POP JUMP JUMPDEST PUSH1 0x40 MLOAD PUSH1 0x20 ADD PUSH2 0x1187 SWAP1 PUSH2 0x1BBF JUMP JUMPDEST PUSH1 0x40 MLOAD PUSH1 0x20 DUP2 DUP4 SUB SUB DUP2 MSTORE SWAP1 PUSH1 0x40 MSTORE DUP1 MLOAD SWAP1 PUSH1 0x20 ADD KECCAK256 DUP2 JUMP JUMPDEST PUSH2 0x11AB PUSH0 DUP1 SHL PUSH2 0x136D JUMP JUMPDEST PUSH2 0x11D9 PUSH1 0x40 MLOAD PUSH1 0x20 ADD PUSH2 0x11BD SWAP1 PUSH2 0x1AA9 JUMP JUMPDEST PUSH1 0x40 MLOAD PUSH1 0x20 DUP2 DUP4 SUB SUB DUP2 MSTORE SWAP1 PUSH1 0x40 MSTORE DUP1 MLOAD SWAP1 PUSH1 0x20 ADD KECCAK256 DUP3 PUSH2 0x1471 JUMP JUMPDEST POP POP JUMP JUMPDEST PUSH2 0x120A PUSH1 0x40 MLOAD PUSH1 0x20 ADD PUSH2 0x11EF SWAP1 PUSH2 0x1D8C JUMP JUMPDEST PUSH1 0x40 MLOAD PUSH1 0x20 DUP2 DUP4 SUB SUB DUP2 MSTORE SWAP1 PUSH1 0x40 MSTORE DUP1 MLOAD SWAP1 PUSH1 0x20 ADD KECCAK256 PUSH2 0x136D JUMP JUMPDEST PUSH1 0x1 DUP1 PUSH0 DUP4 DUP2 MSTORE PUSH1 0x20 ADD SWAP1 DUP2 MSTORE PUSH1 0x20 ADD PUSH0 KECCAK256 PUSH0 PUSH2 0x100 EXP DUP2 SLOAD DUP2 PUSH1 0xFF MUL NOT AND SWAP1 DUP4 ISZERO ISZERO MUL OR SWAP1 SSTORE POP DUP1 PUSH32 0xFA9941FD9436B8F798D8DA6C4747847BF053207FE545C37222588DB50A6742F8 PUSH1 0x40 MLOAD PUSH1 0x40 MLOAD DUP1 SWAP2 SUB SWAP1 LOG2 POP JUMP JUMPDEST PUSH2 0x126D PUSH0 DUP1 SHL PUSH2 0x136D JUMP JUMPDEST PUSH2 0x129B PUSH1 0x40 MLOAD PUSH1 0x20 ADD PUSH2 0x127F SWAP1 PUSH2 0x1D8C JUMP JUMPDEST PUSH1 0x40 MLOAD PUSH1 0x20 DUP2 DUP4 SUB SUB DUP2 MSTORE SWAP1 PUSH1 0x40 MSTORE DUP1 MLOAD SWAP1 PUSH1 0x20 ADD KECCAK256 DUP3 PUSH2 0x1471 JUMP JUMPDEST POP POP JUMP JUMPDEST PUSH1 0x3 PUSH1 0x20 MSTORE DUP1 PUSH0 MSTORE PUSH1 0x40 PUSH0 KECCAK256 PUSH0 SWAP2 POP SWAP1 POP SLOAD DUP2 JUMP JUMPDEST PUSH1 0x40 MLOAD PUSH1 0x20 ADD PUSH2 0x12C3 SWAP1 PUSH2 0x1B61 JUMP JUMPDEST PUSH1 0x40 MLOAD PUSH1 0x20 DUP2 DUP4 SUB SUB DUP2 MSTORE SWAP1 PUSH1 0x40 MSTORE DUP1 MLOAD SWAP1 PUSH1 0x20 ADD KECCAK256 DUP2 JUMP JUMPDEST PUSH1 0x40 MLOAD PUSH1 0x20 ADD PUSH2 0x12EB SWAP1 PUSH2 0x1D8C JUMP JUMPDEST PUSH1 0x40 MLOAD PUSH1 0x20 DUP2 DUP4 SUB SUB DUP2 MSTORE SWAP1 PUSH1 0x40 MSTORE DUP1 MLOAD SWAP1 PUSH1 0x20 ADD KECCAK256 DUP2 JUMP JUMPDEST PUSH0 PUSH32 0x1FFC9A700000000000000000000000000000000000000000000000000000000 PUSH28 0xFFFFFFFFFFFFFFFFFFFFFFFFFFFFFFFFFFFFFFFFFFFFFFFFFFFFFFFF NOT AND DUP3 PUSH28 0xFFFFFFFFFFFFFFFFFFFFFFFFFFFFFFFFFFFFFFFFFFFFFFFFFFFFFFFF NOT AND EQ SWAP1 POP SWAP2 SWAP1 POP JUMP JUMPDEST PUSH2 0x137E DUP2 PUSH2 0x1379 PUSH2 0x146A JUMP JUMPDEST PUSH2 0x155A JUMP JUMPDEST POP JUMP JUMPDEST PUSH0 PUSH2 0x138C DUP4 DUP4 PUSH2 0x1088 JUMP JUMPDEST PUSH2 0x1460 JUMPI PUSH1 0x1 PUSH0 DUP1 DUP6 DUP2 MSTORE PUSH1 0x20 ADD SWAP1 DUP2 MSTORE PUSH1 0x20 ADD PUSH0 KECCAK256 PUSH0 ADD PUSH0 DUP5 PUSH20 0xFFFFFFFFFFFFFFFFFFFFFFFFFFFFFFFFFFFFFFFF AND PUSH20 0xFFFFFFFFFFFFFFFFFFFFFFFFFFFFFFFFFFFFFFFF AND DUP2 MSTORE PUSH1 0x20 ADD SWAP1 DUP2 MSTORE PUSH1 0x20 ADD PUSH0 KECCAK256 PUSH0 PUSH2 0x100 EXP DUP2 SLOAD DUP2 PUSH1 0xFF MUL NOT AND SWAP1 DUP4 ISZERO ISZERO MUL OR SWAP1 SSTORE POP PUSH2 0x13FD PUSH2 0x146A JUMP JUMPDEST PUSH20 0xFFFFFFFFFFFFFFFFFFFFFFFFFFFFFFFFFFFFFFFF AND DUP3 PUSH20 0xFFFFFFFFFFFFFFFFFFFFFFFFFFFFFFFFFFFFFFFF AND DUP5 PUSH32 0x2F8788117E7EFF1D82E926EC794901D17C78024A50270940304540A733656F0D PUSH1 0x40 MLOAD PUSH1 0x40 MLOAD DUP1 SWAP2 SUB SWAP1 LOG4 PUSH1 0x1 SWAP1 POP PUSH2 0x1464 JUMP JUMPDEST PUSH0 SWAP1 POP JUMPDEST SWAP3 SWAP2 POP POP JUMP JUMPDEST PUSH0 CALLER SWAP1 POP SWAP1 JUMP JUMPDEST PUSH0 PUSH2 0x147C DUP4 DUP4 PUSH2 0x1088 JUMP JUMPDEST ISZERO PUSH2 0x1550 JUMPI PUSH0 DUP1 PUSH0 DUP6 DUP2 MSTORE PUSH1 0x20 ADD SWAP1 DUP2 MSTORE PUSH1 0x20 ADD PUSH0 KECCAK256 PUSH0 ADD PUSH0 DUP5 PUSH20 0xFFFFFFFFFFFFFFFFFFFFFFFFFFFFFFFFFFFFFFFF AND PUSH20 0xFFFFFFFFFFFFFFFFFFFFFFFFFFFFFFFFFFFFFFFF AND DUP2 MSTORE PUSH1 0x20 ADD SWAP1 DUP2 MSTORE PUSH1 0x20 ADD PUSH0 KECCAK256 PUSH0 PUSH2 0x100 EXP DUP2 SLOAD DUP2 PUSH1 0xFF MUL NOT AND SWAP1 DUP4 ISZERO ISZERO MUL OR SWAP1 SSTORE POP PUSH2 0x14ED PUSH2 0x146A JUMP JUMPDEST PUSH20 0xFFFFFFFFFFFFFFFFFFFFFFFFFFFFFFFFFFFFFFFF AND DUP3 PUSH20 0xFFFFFFFFFFFFFFFFFFFFFFFFFFFFFFFFFFFFFFFF AND DUP5 PUSH32 0xF6391F5C32D9C69D2A47EA670B442974B53935D1EDC7FD64EB21E047A839171B PUSH1 0x40 MLOAD PUSH1 0x40 MLOAD DUP1 SWAP2 SUB SWAP1 LOG4 PUSH1 0x1 SWAP1 POP PUSH2 0x1554 JUMP JUMPDEST PUSH0 SWAP1 POP JUMPDEST SWAP3 SWAP2 POP POP JUMP JUMPDEST PUSH2 0x1564 DUP3 DUP3 PUSH2 0x1088 JUMP JUMPDEST PUSH2 0x15A7 JUMPI DUP1 DUP3 PUSH1 0x40 MLOAD PUSH32 0xE2517D3F00000000000000000000000000000000000000000000000000000000 DUP2 MSTORE PUSH1 0x4 ADD PUSH2 0x159E SWAP3 SWAP2 SWAP1 PUSH2 0x1DA0 JUMP JUMPDEST PUSH1 0x40 MLOAD DUP1 SWAP2 SUB SWAP1 REVERT JUMPDEST POP POP JUMP JUMPDEST PUSH0 DUP1 REVERT JUMPDEST PUSH0 PUSH32 0xFFFFFFFF00000000000000000000000000000000000000000000000000000000 DUP3 AND SWAP1 POP SWAP2 SWAP1 POP JUMP JUMPDEST PUSH2 0x15E3 DUP2 PUSH2 0x15AF JUMP JUMPDEST DUP2 EQ PUSH2 0x15ED JUMPI PUSH0 DUP1 REVERT JUMPDEST POP JUMP JUMPDEST PUSH0 DUP2 CALLDATALOAD SWAP1 POP PUSH2 0x15FE DUP2 PUSH2 0x15DA JUMP JUMPDEST SWAP3 SWAP2 POP POP JUMP JUMPDEST PUSH0 PUSH1 0x20 DUP3 DUP5 SUB SLT ISZERO PUSH2 0x1619 JUMPI PUSH2 0x1618 PUSH2 0x15AB JUMP JUMPDEST JUMPDEST PUSH0 PUSH2 0x1626 DUP5 DUP3 DUP6 ADD PUSH2 0x15F0 JUMP JUMPDEST SWAP2 POP POP SWAP3 SWAP2 POP POP JUMP JUMPDEST PUSH0 DUP2 ISZERO ISZERO SWAP1 POP SWAP2 SWAP1 POP JUMP JUMPDEST PUSH2 0x1643 DUP2 PUSH2 0x162F JUMP JUMPDEST DUP3 MSTORE POP POP JUMP JUMPDEST PUSH0 PUSH1 0x20 DUP3 ADD SWAP1 POP PUSH2 0x165C PUSH0 DUP4 ADD DUP5 PUSH2 0x163A JUMP JUMPDEST SWAP3 SWAP2 POP POP JUMP JUMPDEST PUSH0 DUP2 SWAP1 POP SWAP2 SWAP1 POP JUMP JUMPDEST PUSH2 0x1674 DUP2 PUSH2 0x1662 JUMP JUMPDEST DUP2 EQ PUSH2 0x167E JUMPI PUSH0 DUP1 REVERT JUMPDEST POP JUMP JUMPDEST PUSH0 DUP2 CALLDATALOAD SWAP1 POP PUSH2 0x168F DUP2 PUSH2 0x166B JUMP JUMPDEST SWAP3 SWAP2 POP POP JUMP JUMPDEST PUSH0 PUSH1 0x20 DUP3 DUP5 SUB SLT ISZERO PUSH2 0x16AA JUMPI PUSH2 0x16A9 PUSH2 0x15AB JUMP JUMPDEST JUMPDEST PUSH0 PUSH2 0x16B7 DUP5 DUP3 DUP6 ADD PUSH2 0x1681 JUMP JUMPDEST SWAP2 POP POP SWAP3 SWAP2 POP POP JUMP JUMPDEST PUSH0 PUSH20 0xFFFFFFFFFFFFFFFFFFFFFFFFFFFFFFFFFFFFFFFF DUP3 AND SWAP1 POP SWAP2 SWAP1 POP JUMP JUMPDEST PUSH0 PUSH2 0x16E9 DUP3 PUSH2 0x16C0 JUMP JUMPDEST SWAP1 POP SWAP2 SWAP1 POP JUMP JUMPDEST PUSH2 0x16F9 DUP2 PUSH2 0x16DF JUMP JUMPDEST DUP2 EQ PUSH2 0x1703 JUMPI PUSH0 DUP1 REVERT JUMPDEST POP JUMP JUMPDEST PUSH0 DUP2 CALLDATALOAD SWAP1 POP PUSH2 0x1714 DUP2 PUSH2 0x16F0 JUMP JUMPDEST SWAP3 SWAP2 POP POP JUMP JUMPDEST PUSH0 DUP2 SWAP1 POP SWAP2 SWAP1 POP JUMP JUMPDEST PUSH2 0x172C DUP2 PUSH2 0x171A JUMP JUMPDEST DUP2 EQ PUSH2 0x1736 JUMPI PUSH0 DUP1 REVERT JUMPDEST POP JUMP JUMPDEST PUSH0 DUP2 CALLDATALOAD SWAP1 POP PUSH2 0x1747 DUP2 PUSH2 0x1723 JUMP JUMPDEST SWAP3 SWAP2 POP POP JUMP JUMPDEST PUSH0 DUP1 PUSH0 PUSH1 0x60 DUP5 DUP7 SUB SLT ISZERO PUSH2 0x1764 JUMPI PUSH2 0x1763 PUSH2 0x15AB JUMP JUMPDEST JUMPDEST PUSH0 PUSH2 0x1771 DUP7 DUP3 DUP8 ADD PUSH2 0x1681 JUMP JUMPDEST SWAP4 POP POP PUSH1 0x20 PUSH2 0x1782 DUP7 DUP3 DUP8 ADD PUSH2 0x1706 JUMP JUMPDEST SWAP3 POP POP PUSH1 0x40 PUSH2 0x1793 DUP7 DUP3 DUP8 ADD PUSH2 0x1739 JUMP JUMPDEST SWAP2 POP POP SWAP3 POP SWAP3 POP SWAP3 JUMP JUMPDEST PUSH2 0x17A6 DUP2 PUSH2 0x1662 JUMP JUMPDEST DUP3 MSTORE POP POP JUMP JUMPDEST PUSH0 PUSH1 0x20 DUP3 ADD SWAP1 POP PUSH2 0x17BF PUSH0 DUP4 ADD DUP5 PUSH2 0x179D JUMP JUMPDEST SWAP3 SWAP2 POP POP JUMP JUMPDEST PUSH0 DUP1 PUSH1 0x40 DUP4 DUP6 SUB SLT ISZERO PUSH2 0x17DB JUMPI PUSH2 0x17DA PUSH2 0x15AB JUMP JUMPDEST JUMPDEST PUSH0 PUSH2 0x17E8 DUP6 DUP3 DUP7 ADD PUSH2 0x1681 JUMP JUMPDEST SWAP3 POP POP PUSH1 0x20 PUSH2 0x17F9 DUP6 DUP3 DUP7 ADD PUSH2 0x1706 JUMP JUMPDEST SWAP2 POP POP SWAP3 POP SWAP3 SWAP1 POP JUMP JUMPDEST PUSH2 0x180C DUP2 PUSH2 0x171A JUMP JUMPDEST DUP3 MSTORE POP POP JUMP JUMPDEST PUSH0 PUSH1 0x20 DUP3 ADD SWAP1 POP PUSH2 0x1825 PUSH0 DUP4 ADD DUP5 PUSH2 0x1803 JUMP JUMPDEST SWAP3 SWAP2 POP POP JUMP JUMPDEST PUSH0 DUP1 PUSH0 PUSH1 0x60 DUP5 DUP7 SUB SLT ISZERO PUSH2 0x1842 JUMPI PUSH2 0x1841 PUSH2 0x15AB JUMP JUMPDEST JUMPDEST PUSH0 PUSH2 0x184F DUP7 DUP3 DUP8 ADD PUSH2 0x1681 JUMP JUMPDEST SWAP4 POP POP PUSH1 0x20 PUSH2 0x1860 DUP7 DUP3 DUP8 ADD PUSH2 0x1706 JUMP JUMPDEST SWAP3 POP POP PUSH1 0x40 PUSH2 0x1871 DUP7 DUP3 DUP8 ADD PUSH2 0x1706 JUMP JUMPDEST SWAP2 POP POP SWAP3 POP SWAP3 POP SWAP3 JUMP JUMPDEST PUSH0 DUP1 PUSH1 0x40 DUP4 DUP6 SUB SLT ISZERO PUSH2 0x1891 JUMPI PUSH2 0x1890 PUSH2 0x15AB JUMP JUMPDEST JUMPDEST PUSH0 PUSH2 0x189E DUP6 DUP3 DUP7 ADD PUSH2 0x1706 JUMP JUMPDEST SWAP3 POP POP PUSH1 0x20 PUSH2 0x18AF DUP6 DUP3 DUP7 ADD PUSH2 0x1739 JUMP JUMPDEST SWAP2 POP POP SWAP3 POP SWAP3 SWAP1 POP JUMP JUMPDEST PUSH0 PUSH1 0x20 DUP3 DUP5 SUB SLT ISZERO PUSH2 0x18CE JUMPI PUSH2 0x18CD PUSH2 0x15AB JUMP JUMPDEST JUMPDEST PUSH0 PUSH2 0x18DB DUP5 DUP3 DUP6 ADD PUSH2 0x1706 JUMP JUMPDEST SWAP2 POP POP SWAP3 SWAP2 POP POP JUMP JUMPDEST PUSH0 DUP3 DUP3 MSTORE PUSH1 0x20 DUP3 ADD SWAP1 POP SWAP3 SWAP2 POP POP JUMP JUMPDEST PUSH32 0x466163652068617368206E6F7420726567697374657265640000000000000000 PUSH0 DUP3 ADD MSTORE POP JUMP JUMPDEST PUSH0 PUSH2 0x1928 PUSH1 0x18 DUP4 PUSH2 0x18E4 JUMP JUMPDEST SWAP2 POP PUSH2 0x1933 DUP3 PUSH2 0x18F4 JUMP JUMPDEST PUSH1 0x20 DUP3 ADD SWAP1 POP SWAP2 SWAP1 POP JUMP JUMPDEST PUSH0 PUSH1 0x20 DUP3 ADD SWAP1 POP DUP2 DUP2 SUB PUSH0 DUP4 ADD MSTORE PUSH2 0x1955 DUP2 PUSH2 0x191C JUMP JUMPDEST SWAP1 POP SWAP2 SWAP1 POP JUMP JUMPDEST PUSH2 0x1965 DUP2 PUSH2 0x16DF JUMP JUMPDEST DUP3 MSTORE POP POP JUMP JUMPDEST PUSH0 PUSH1 0x60 DUP3 ADD SWAP1 POP PUSH2 0x197E PUSH0 DUP4 ADD DUP7 PUSH2 0x195C JUMP JUMPDEST PUSH2 0x198B PUSH1 0x20 DUP4 ADD DUP6 PUSH2 0x195C JUMP JUMPDEST PUSH2 0x1998 PUSH1 0x40 DUP4 ADD DUP5 PUSH2 0x1803 JUMP JUMPDEST SWAP5 SWAP4 POP POP POP POP JUMP JUMPDEST PUSH2 0x19A9 DUP2 PUSH2 0x162F JUMP JUMPDEST DUP2 EQ PUSH2 0x19B3 JUMPI PUSH0 DUP1 REVERT JUMPDEST POP JUMP JUMPDEST PUSH0 DUP2 MLOAD SWAP1 POP PUSH2 0x19C4 DUP2 PUSH2 0x19A0 JUMP JUMPDEST SWAP3 SWAP2 POP POP JUMP JUMPDEST PUSH0 PUSH1 0x20 DUP3 DUP5 SUB SLT ISZERO PUSH2 0x19DF JUMPI PUSH2 0x19DE PUSH2 0x15AB JUMP JUMPDEST JUMPDEST PUSH0 PUSH2 0x19EC DUP5 DUP3 DUP6 ADD PUSH2 0x19B6 JUMP JUMPDEST SWAP2 POP POP SWAP3 SWAP2 POP POP JUMP JUMPDEST PUSH32 0x4E487B7100000000000000000000000000000000000000000000000000000000 PUSH0 MSTORE PUSH1 0x11 PUSH1 0x4 MSTORE PUSH1 0x24 PUSH0 REVERT JUMPDEST PUSH0 PUSH2 0x1A2C DUP3 PUSH2 0x171A JUMP JUMPDEST SWAP2 POP PUSH2 0x1A37 DUP4 PUSH2 0x171A JUMP JUMPDEST SWAP3 POP DUP3 DUP3 ADD SWAP1 POP DUP1 DUP3 GT ISZERO PUSH2 0x1A4F JUMPI PUSH2 0x1A4E PUSH2 0x19F5 JUMP JUMPDEST JUMPDEST SWAP3 SWAP2 POP POP JUMP JUMPDEST PUSH0 DUP2 SWAP1 POP SWAP3 SWAP2 POP POP JUMP JUMPDEST PUSH32 0x5041594D454E545F41444D494E5F524F4C450000000000000000000000000000 PUSH0 DUP3 ADD MSTORE POP JUMP JUMPDEST PUSH0 PUSH2 0x1A93 PUSH1 0x12 DUP4 PUSH2 0x1A55 JUMP JUMPDEST SWAP2 POP PUSH2 0x1A9E DUP3 PUSH2 0x1A5F JUMP JUMPDEST PUSH1 0x12 DUP3 ADD SWAP1 POP SWAP2 SWAP1 POP JUMP JUMPDEST PUSH0 PUSH2 0x1AB3 DUP3 PUSH2 0x1A87 JUMP JUMPDEST SWAP2 POP DUP2 SWAP1 POP SWAP2 SWAP1 POP JUMP JUMPDEST PUSH0 PUSH1 0x40 DUP3 ADD SWAP1 POP PUSH2 0x1AD0 PUSH0 DUP4 ADD DUP6 PUSH2 0x195C JUMP JUMPDEST PUSH2 0x1ADD PUSH1 0x20 DUP4 ADD DUP5 PUSH2 0x1803 JUMP JUMPDEST SWAP4 SWAP3 POP POP POP JUMP JUMPDEST PUSH0 PUSH2 0x1AEE DUP3 PUSH2 0x171A JUMP JUMPDEST SWAP2 POP PUSH2 0x1AF9 DUP4 PUSH2 0x171A JUMP JUMPDEST SWAP3 POP DUP3 DUP3 SUB SWAP1 POP DUP2 DUP2 GT ISZERO PUSH2 0x1B11 JUMPI PUSH2 0x1B10 PUSH2 0x19F5 JUMP JUMPDEST JUMPDEST SWAP3 SWAP2 POP POP JUMP JUMPDEST PUSH32 0x4845414C54485F50524F46455353494F4E414C5F46554C4C0000000000000000 PUSH0 DUP3 ADD MSTORE POP JUMP JUMPDEST PUSH0 PUSH2 0x1B4B PUSH1 0x18 DUP4 PUSH2 0x1A55 JUMP JUMPDEST SWAP2 POP PUSH2 0x1B56 DUP3 PUSH2 0x1B17 JUMP JUMPDEST PUSH1 0x18 DUP3 ADD SWAP1 POP SWAP2 SWAP1 POP JUMP JUMPDEST PUSH0 PUSH2 0x1B6B DUP3 PUSH2 0x1B3F JUMP JUMPDEST SWAP2 POP DUP2 SWAP1 POP SWAP2 SWAP1 POP JUMP JUMPDEST PUSH32 0x4845414C54485F50524F46455353494F4E414C5F4D4944000000000000000000 PUSH0 DUP3 ADD MSTORE POP JUMP JUMPDEST PUSH0 PUSH2 0x1BA9 PUSH1 0x17 DUP4 PUSH2 0x1A55 JUMP JUMPDEST SWAP2 POP PUSH2 0x1BB4 DUP3 PUSH2 0x1B75 JUMP JUMPDEST PUSH1 0x17 DUP3 ADD SWAP1 POP SWAP2 SWAP1 POP JUMP JUMPDEST PUSH0 PUSH2 0x1BC9 DUP3 PUSH2 0x1B9D JUMP JUMPDEST SWAP2 POP DUP2 SWAP1 POP SWAP2 SWAP1 POP JUMP JUMPDEST PUSH32 0x4845414C54485F50524F46455353494F4E414C5F4C4F57000000000000000000 PUSH0 DUP3 ADD MSTORE POP JUMP JUMPDEST PUSH0 PUSH2 0x1C07 PUSH1 0x17 DUP4 PUSH2 0x1A55 JUMP JUMPDEST SWAP2 POP PUSH2 0x1C12 DUP3 PUSH2 0x1BD3 JUMP JUMPDEST PUSH1 0x17 DUP3 ADD SWAP1 POP SWAP2 SWAP1 POP JUMP JUMPDEST PUSH0 PUSH2 0x1C27 DUP3 PUSH2 0x1BFB JUMP JUMPDEST SWAP2 POP DUP2 SWAP1 POP SWAP2 SWAP1 POP JUMP JUMPDEST PUSH32 0x556E7265636F676E697A656420616363657373206C6576656C00000000000000 PUSH0 DUP3 ADD MSTORE POP JUMP JUMPDEST PUSH0 PUSH2 0x1C65 PUSH1 0x19 DUP4 PUSH2 0x18E4 JUMP JUMPDEST SWAP2 POP PUSH2 0x1C70 DUP3 PUSH2 0x1C31 JUMP JUMPDEST PUSH1 0x20 DUP3 ADD SWAP1 POP SWAP2 SWAP1 POP JUMP JUMPDEST PUSH0 PUSH1 0x20 DUP3 ADD SWAP1 POP DUP2 DUP2 SUB PUSH0 DUP4 ADD MSTORE PUSH2 0x1C92 DUP2 PUSH2 0x1C59 JUMP JUMPDEST SWAP1 POP SWAP2 SWAP1 POP JUMP JUMPDEST PUSH0 DUP2 SWAP1 POP SWAP3 SWAP2 POP POP JUMP JUMPDEST POP JUMP JUMPDEST PUSH0 PUSH2 0x1CB1 PUSH0 DUP4 PUSH2 0x1C99 JUMP JUMPDEST SWAP2 POP PUSH2 0x1CBC DUP3 PUSH2 0x1CA3 JUMP JUMPDEST PUSH0 DUP3 ADD SWAP1 POP SWAP2 SWAP1 POP JUMP JUMPDEST PUSH0 PUSH2 0x1CD0 DUP3 PUSH2 0x1CA6 JUMP JUMPDEST SWAP2 POP DUP2 SWAP1 POP SWAP2 SWAP1 POP JUMP JUMPDEST PUSH32 0x5061796F7574206661696C656400000000000000000000000000000000000000 PUSH0 DUP3 ADD MSTORE POP JUMP JUMPDEST PUSH0 PUSH2 0x1D0E PUSH1 0xD DUP4 PUSH2 0x18E4 JUMP JUMPDEST SWAP2 POP PUSH2 0x1D19 DUP3 PUSH2 0x1CDA JUMP JUMPDEST PUSH1 0x20 DUP3 ADD SWAP1 POP SWAP2 SWAP1 POP JUMP JUMPDEST PUSH0 PUSH1 0x20 DUP3 ADD SWAP1 POP DUP2 DUP2 SUB PUSH0 DUP4 ADD MSTORE PUSH2 0x1D3B DUP2 PUSH2 0x1D02 JUMP JUMPDEST SWAP1 POP SWAP2 SWAP1 POP JUMP JUMPDEST PUSH32 0x555345525F41444D494E5F524F4C450000000000000000000000000000000000 PUSH0 DUP3 ADD MSTORE POP JUMP JUMPDEST PUSH0 PUSH2 0x1D76 PUSH1 0xF DUP4 PUSH2 0x1A55 JUMP JUMPDEST SWAP2 POP PUSH2 0x1D81 DUP3 PUSH2 0x1D42 JUMP JUMPDEST PUSH1 0xF DUP3 ADD SWAP1 POP SWAP2 SWAP1 POP JUMP JUMPDEST PUSH0 PUSH2 0x1D96 DUP3 PUSH2 0x1D6A JUMP JUMPDEST SWAP2 POP DUP2 SWAP1 POP SWAP2 SWAP1 POP JUMP JUMPDEST PUSH0 PUSH1 0x40 DUP3 ADD SWAP1 POP PUSH2 0x1DB3 PUSH0 DUP4 ADD DUP6 PUSH2 0x195C JUMP JUMPDEST PUSH2 0x1DC0 PUSH1 0x20 DUP4 ADD DUP5 PUSH2 0x179D JUMP JUMPDEST SWAP4 SWAP3 POP POP POP JUMP INVALID LOG2 PUSH5 0x6970667358 0x22 SLT KECCAK256 DIV 0xB3 0x21 0xD2 0x29 0xCD 0xEE LOG0 PUSH25 0xBF583C0BE70C7711C9D446B731D92A5F048AD9EE6A33C96473 PUSH16 0x6C634300081600330000000000000000 "
				},
				"gasEstimates": {
					"creation": {
						"codeDepositCost": "1535400",
						"executionCost": "infinite",
						"totalCost": "infinite"
					},
					"external": {
						"DEFAULT_ADMIN_ROLE()": "375",
						"HEALTH_PROFESSIONAL_FULL()": "714",
						"HEALTH_PROFESSIONAL_LOW()": "672",
						"HEALTH_PROFESSIONAL_MID()": "671",
						"PAYMENT_ADMIN_ROLE()": "693",
						"USER_ADMIN_ROLE()": "736",
						"addPaymentAdmin(address)": "infinite",
						"addUserAdmin(address)": "infinite",
						"balanceForTokenForFaceHash(bytes32,address)": "3168",
						"baseTokenBalanceForFaceHash(bytes32)": "2820",
						"getAccessLevelForAddress(address)": "infinite",
						"getRoleAdmin(bytes32)": "infinite",
						"grantRole(bytes32,address)": "infinite",
						"hasRole(bytes32,address)": "3212",
						"isFaceHashRegistered(bytes32)": "2856",
						"payoutChainBaseTokenToFaceHash(bytes32,address)": "infinite",
						"payoutTokenForFaceHash(bytes32,address,address)": "infinite",
						"registerFaceHash(bytes32)": "infinite",
						"registeredFaceHashes(bytes32)": "2853",
						"removePaymentAdmin(address)": "infinite",
						"removeUserAdmin(address)": "infinite",
						"renounceRole(bytes32,address)": "infinite",
						"revokeRole(bytes32,address)": "infinite",
						"sendChainBaseTokenToFaceHash(bytes32)": "infinite",
						"sendTokenToFaceHash(bytes32,address,uint256)": "infinite",
						"supportsInterface(bytes4)": "741",
						"verifyHealthWorker(address,uint256)": "infinite"
					}
				},
				"methodIdentifiers": {
					"DEFAULT_ADMIN_ROLE()": "a217fddf",
					"HEALTH_PROFESSIONAL_FULL()": "f0f7af4d",
					"HEALTH_PROFESSIONAL_LOW()": "585f4c49",
					"HEALTH_PROFESSIONAL_MID()": "d6770522",
					"PAYMENT_ADMIN_ROLE()": "b24b56b0",
					"USER_ADMIN_ROLE()": "f2c80089",
					"addPaymentAdmin(address)": "5ea06a9c",
					"addUserAdmin(address)": "b89f9ac1",
					"balanceForTokenForFaceHash(bytes32,address)": "24ccc1a6",
					"baseTokenBalanceForFaceHash(bytes32)": "e6d6384a",
					"getAccessLevelForAddress(address)": "51fea917",
					"getRoleAdmin(bytes32)": "248a9ca3",
					"grantRole(bytes32,address)": "2f2ff15d",
					"hasRole(bytes32,address)": "91d14854",
					"isFaceHashRegistered(bytes32)": "09c19362",
					"payoutChainBaseTokenToFaceHash(bytes32,address)": "55f93e6e",
					"payoutTokenForFaceHash(bytes32,address,address)": "3fd2c4f1",
					"registerFaceHash(bytes32)": "dd65ab1f",
					"registeredFaceHashes(bytes32)": "2f432261",
					"removePaymentAdmin(address)": "d7b8a07a",
					"removeUserAdmin(address)": "e096cfed",
					"renounceRole(bytes32,address)": "36568abe",
					"revokeRole(bytes32,address)": "d547741f",
					"sendChainBaseTokenToFaceHash(bytes32)": "0fa750ff",
					"sendTokenToFaceHash(bytes32,address,uint256)": "0adbbdd3",
					"supportsInterface(bytes4)": "01ffc9a7",
					"verifyHealthWorker(address,uint256)": "48570ee6"
				}
			},
			"storageLayout": {
				"storage": [
					{
						"astId": 26,
						"contract": "src/Mediscan.sol:Mediscan",
						"label": "_roles",
						"offset": 0,
						"slot": "0",
						"type": "t_mapping(t_bytes32,t_struct(RoleData)21_storage)"
					},
					{
						"astId": 1254,
						"contract": "src/Mediscan.sol:Mediscan",
						"label": "registeredFaceHashes",
						"offset": 0,
						"slot": "1",
						"type": "t_mapping(t_bytes32,t_bool)"
					},
					{
						"astId": 1260,
						"contract": "src/Mediscan.sol:Mediscan",
						"label": "balanceForTokenForFaceHash",
						"offset": 0,
						"slot": "2",
						"type": "t_mapping(t_bytes32,t_mapping(t_address,t_uint256))"
					},
					{
						"astId": 1264,
						"contract": "src/Mediscan.sol:Mediscan",
						"label": "baseTokenBalanceForFaceHash",
						"offset": 0,
						"slot": "3",
						"type": "t_mapping(t_bytes32,t_uint256)"
					}
				],
				"types": {
					"t_address": {
						"encoding": "inplace",
						"label": "address",
						"numberOfBytes": "20"
					},
					"t_bool": {
						"encoding": "inplace",
						"label": "bool",
						"numberOfBytes": "1"
					},
					"t_bytes32": {
						"encoding": "inplace",
						"label": "bytes32",
						"numberOfBytes": "32"
					},
					"t_mapping(t_address,t_bool)": {
						"encoding": "mapping",
						"key": "t_address",
						"label": "mapping(address => bool)",
						"numberOfBytes": "32",
						"value": "t_bool"
					},
					"t_mapping(t_address,t_uint256)": {
						"encoding": "mapping",
						"key": "t_address",
						"label": "mapping(address => uint256)",
						"numberOfBytes": "32",
						"value": "t_uint256"
					},
					"t_mapping(t_bytes32,t_bool)": {
						"encoding": "mapping",
						"key": "t_bytes32",
						"label": "mapping(bytes32 => bool)",
						"numberOfBytes": "32",
						"value": "t_bool"
					},
					"t_mapping(t_bytes32,t_mapping(t_address,t_uint256))": {
						"encoding": "mapping",
						"key": "t_bytes32",
						"label": "mapping(bytes32 => mapping(address => uint256))",
						"numberOfBytes": "32",
						"value": "t_mapping(t_address,t_uint256)"
					},
					"t_mapping(t_bytes32,t_struct(RoleData)21_storage)": {
						"encoding": "mapping",
						"key": "t_bytes32",
						"label": "mapping(bytes32 => struct AccessControl.RoleData)",
						"numberOfBytes": "32",
						"value": "t_struct(RoleData)21_storage"
					},
					"t_mapping(t_bytes32,t_uint256)": {
						"encoding": "mapping",
						"key": "t_bytes32",
						"label": "mapping(bytes32 => uint256)",
						"numberOfBytes": "32",
						"value": "t_uint256"
					},
					"t_struct(RoleData)21_storage": {
						"encoding": "inplace",
						"label": "struct AccessControl.RoleData",
						"members": [
							{
								"astId": 18,
								"contract": "src/Mediscan.sol:Mediscan",
								"label": "hasRole",
								"offset": 0,
								"slot": "0",
								"type": "t_mapping(t_address,t_bool)"
							},
							{
								"astId": 20,
								"contract": "src/Mediscan.sol:Mediscan",
								"label": "adminRole",
								"offset": 0,
								"slot": "1",
								"type": "t_bytes32"
							}
						],
						"numberOfBytes": "64"
					},
					"t_uint256": {
						"encoding": "inplace",
						"label": "uint256",
						"numberOfBytes": "32"
					}
				}
			},
			"userdoc": {
				"kind": "user",
				"methods": {},
				"version": 1
			}
		}
	}
}