{
	"data": {
		"bytecode": {
			"linkReferences": {},
			"object": "608060405234801562000010575f80fd5b50620000255f801b336200011460201b60201c565b50620000606040516020016200003b906200034d565b604051602081830303815290604052805190602001205f801b6200020f60201b60201c565b6200009a6040516020016200007590620003b1565b604051602081830303815290604052805190602001205f801b6200020f60201b60201c565b620000d4604051602001620000af9062000415565b604051602081830303815290604052805190602001205f801b6200020f60201b60201c565b6200010e604051602001620000e99062000479565b604051602081830303815290604052805190602001205f801b6200020f60201b60201c565b6200048f565b5f6200012783836200026f60201b60201c565b620002055760015f808581526020019081526020015f205f015f8473ffffffffffffffffffffffffffffffffffffffff1673ffffffffffffffffffffffffffffffffffffffff1681526020019081526020015f205f6101000a81548160ff021916908315150217905550620001a1620002d260201b60201c565b73ffffffffffffffffffffffffffffffffffffffff168273ffffffffffffffffffffffffffffffffffffffff16847f2f8788117e7eff1d82e926ec794901d17c78024a50270940304540a733656f0d60405160405180910390a46001905062000209565b5f90505b92915050565b5f6200022183620002d960201b60201c565b9050815f808581526020019081526020015f20600101819055508181847fbd79b86ffe0ab8e8776151514217cd7cacd52c909f66475c3af44e129f0b00ff60405160405180910390a4505050565b5f805f8481526020019081526020015f205f015f8373ffffffffffffffffffffffffffffffffffffffff1673ffffffffffffffffffffffffffffffffffffffff1681526020019081526020015f205f9054906101000a900460ff16905092915050565b5f33905090565b5f805f8381526020019081526020015f20600101549050919050565b5f81905092915050565b7f555345525f41444d494e5f524f4c4500000000000000000000000000000000005f82015250565b5f62000335600f83620002f5565b91506200034282620002ff565b600f82019050919050565b5f620003598262000327565b9150819050919050565b7f4845414c54485f50524f46455353494f4e414c5f46554c4c00000000000000005f82015250565b5f62000399601883620002f5565b9150620003a68262000363565b601882019050919050565b5f620003bd826200038b565b9150819050919050565b7f4845414c54485f50524f46455353494f4e414c5f4d49440000000000000000005f82015250565b5f620003fd601783620002f5565b91506200040a82620003c7565b601782019050919050565b5f6200042182620003ef565b9150819050919050565b7f4845414c54485f50524f46455353494f4e414c5f4c4f570000000000000000005f82015250565b5f62000461601783620002f5565b91506200046e826200042b565b601782019050919050565b5f620004858262000453565b9150819050919050565b611dfd806200049d5f395ff3fe60806040526004361061019b575f3560e01c8063585f4c49116100eb578063d677052211610089578063e096cfed11610063578063e096cfed146105bf578063e6d6384a146105e7578063f0f7af4d14610623578063f2c800891461064d5761019b565b8063d677052214610545578063d7b8a07a1461056f578063dd65ab1f146105975761019b565b8063a217fddf116100c5578063a217fddf146104a1578063b24b56b0146104cb578063b89f9ac1146104f5578063d547741f1461051d5761019b565b8063585f4c49146104135780635ea06a9c1461043d57806391d14854146104655761019b565b80632f2ff15d116101585780633fd2c4f1116101325780633fd2c4f11461035f57806348570ee61461038757806351fea917146103af57806355f93e6e146103eb5761019b565b80632f2ff15d146102d35780632f432261146102fb57806336568abe146103375761019b565b806301ffc9a71461019f57806309c19362146101db5780630adbbdd3146102175780630fa750ff1461023f578063248a9ca31461025b57806324ccc1a614610297575b5f80fd5b3480156101aa575f80fd5b506101c560048036038101906101c09190611604565b610677565b6040516101d29190611649565b60405180910390f35b3480156101e6575f80fd5b5061020160048036038101906101fc9190611695565b6106f0565b60405161020e9190611649565b60405180910390f35b348015610222575f80fd5b5061023d6004803603810190610238919061174d565b610716565b005b61025960048036038101906102549190611695565b61089d565b005b348015610266575f80fd5b50610281600480360381019061027c9190611695565b610952565b60405161028e91906117ac565b60405180910390f35b3480156102a2575f80fd5b506102bd60048036038101906102b891906117c5565b61096e565b6040516102ca9190611812565b60405180910390f35b3480156102de575f80fd5b506102f960048036038101906102f491906117c5565b61098e565b005b348015610306575f80fd5b50610321600480360381019061031c9190611695565b6109b0565b60405161032e9190611649565b60405180910390f35b348015610342575f80fd5b5061035d600480360381019061035891906117c5565b6109cd565b005b34801561036a575f80fd5b506103856004803603810190610380919061182b565b610a48565b005b348015610392575f80fd5b506103ad60048036038101906103a8919061187b565b610c4b565b005b3480156103ba575f80fd5b506103d560048036038101906103d091906118b9565b610d8e565b6040516103e29190611812565b60405180910390f35b3480156103f6575f80fd5b50610411600480360381019061040c91906117c5565b610e6b565b005b34801561041e575f80fd5b50610427611023565b60405161043491906117ac565b60405180910390f35b348015610448575f80fd5b50610463600480360381019061045e91906118b9565b61104b565b005b348015610470575f80fd5b5061048b600480360381019061048691906117c5565b611088565b6040516104989190611649565b60405180910390f35b3480156104ac575f80fd5b506104b56110eb565b6040516104c291906117ac565b60405180910390f35b3480156104d6575f80fd5b506104df6110f1565b6040516104ec91906117ac565b60405180910390f35b348015610500575f80fd5b5061051b600480360381019061051691906118b9565b611119565b005b348015610528575f80fd5b50610543600480360381019061053e91906117c5565b611156565b005b348015610550575f80fd5b50610559611178565b60405161056691906117ac565b60405180910390f35b34801561057a575f80fd5b50610595600480360381019061059091906118b9565b6111a0565b005b3480156105a2575f80fd5b506105bd60048036038101906105b89190611695565b6111dd565b005b3480156105ca575f80fd5b506105e560048036038101906105e091906118b9565b611262565b005b3480156105f2575f80fd5b5061060d60048036038101906106089190611695565b61129f565b60405161061a9190611812565b60405180910390f35b34801561062e575f80fd5b506106376112b4565b60405161064491906117ac565b60405180910390f35b348015610658575f80fd5b506106616112dc565b60405161066e91906117ac565b60405180910390f35b5f7f7965db0b000000000000000000000000000000000000000000000000000000007bffffffffffffffffffffffffffffffffffffffffffffffffffffffff1916827bffffffffffffffffffffffffffffffffffffffffffffffffffffffff191614806106e957506106e882611304565b5b9050919050565b5f60015f8381526020019081526020015f205f9054906101000a900460ff169050919050565b60015f8481526020019081526020015f205f9054906101000a900460ff16610773576040517f08c379a000000000000000000000000000000000000000000000000000000000815260040161076a9061193e565b60405180910390fd5b8173ffffffffffffffffffffffffffffffffffffffff166323b872dd3330846040518463ffffffff1660e01b81526004016107b09392919061196b565b6020604051808303815f875af11580156107cc573d5f803e3d5ffd5b505050506040513d601f19601f820116820180604052508101906107f091906119ca565b508060025f8581526020019081526020015f205f8473ffffffffffffffffffffffffffffffffffffffff1673ffffffffffffffffffffffffffffffffffffffff1681526020019081526020015f205f82825461084c9190611a22565b92505081905550808273ffffffffffffffffffffffffffffffffffffffff16847f7a143568e7a2e32f33c2ab85bb8cb9ff7e78d00e650d6973c8873bbdc075e81160405160405180910390a4505050565b60015f8281526020019081526020015f205f9054906101000a900460ff166108fa576040517f08c379a00000000000000000000000000000000000000000000000000000000081526004016108f19061193e565b60405180910390fd5b3460035f8381526020019081526020015f205f82825461091a9190611a22565b9250508190555034817facc0fd4b3527d0953abdce4ac9a5f786e3d780a3b4bbefefb360a8642429e0f660405160405180910390a350565b5f805f8381526020019081526020015f20600101549050919050565b6002602052815f5260405f20602052805f5260405f205f91509150505481565b61099782610952565b6109a08161136d565b6109aa8383611381565b50505050565b6001602052805f5260405f205f915054906101000a900460ff1681565b6109d561146a565b73ffffffffffffffffffffffffffffffffffffffff168173ffffffffffffffffffffffffffffffffffffffff1614610a39576040517f6697b23200000000000000000000000000000000000000000000000000000000815260040160405180910390fd5b610a438282611471565b505050565b610a75604051602001610a5a90611aa9565b6040516020818303038152906040528051906020012061136d565b60015f8481526020019081526020015f205f9054906101000a900460ff16610ad2576040517f08c379a0000000000000000000000000000000000000000000000000000000008152600401610ac99061193e565b60405180910390fd5b5f60025f8581526020019081526020015f205f8473ffffffffffffffffffffffffffffffffffffffff1673ffffffffffffffffffffffffffffffffffffffff1681526020019081526020015f205490508273ffffffffffffffffffffffffffffffffffffffff1663a9059cbb83836040518363ffffffff1660e01b8152600401610b5d929190611abd565b6020604051808303815f875af1158015610b79573d5f803e3d5ffd5b505050506040513d601f19601f82011682018060405250810190610b9d91906119ca565b508060025f8681526020019081526020015f205f8573ffffffffffffffffffffffffffffffffffffffff1673ffffffffffffffffffffffffffffffffffffffff1681526020019081526020015f205f828254610bf99190611ae4565b92505081905550808373ffffffffffffffffffffffffffffffffffffffff16857f434adbd1794f49ffeb1ea04de9ad62fb01cc18179124cda3ce5eee58f010f96960405160405180910390a450505050565b610c565f801b61136d565b5f8103610c9157610c8b604051602001610c6f90611b61565b6040516020818303038152906040528051906020012083611381565b50610d46565b60018103610ccd57610cc7604051602001610cab90611bbf565b6040516020818303038152906040528051906020012083611381565b50610d45565b60028103610d0957610d03604051602001610ce790611c1d565b6040516020818303038152906040528051906020012083611381565b50610d44565b6040517f08c379a0000000000000000000000000000000000000000000000000000000008152600401610d3b90611c7b565b60405180910390fd5b5b5b808273ffffffffffffffffffffffffffffffffffffffff167f2224b7dff324f24f810cf3bb4055085a9fd09db933a221dea091e176f4d16c8c60405160405180910390a35050565b5f610dbd604051602001610da190611b61565b6040516020818303038152906040528051906020012083611088565b15610dca575f9050610e66565b610df8604051602001610ddc90611bbf565b6040516020818303038152906040528051906020012083611088565b15610e065760019050610e66565b610e34604051602001610e1890611c1d565b6040516020818303038152906040528051906020012083611088565b15610e425760029050610e66565b7fffffffffffffffffffffffffffffffffffffffffffffffffffffffffffffffff90505b919050565b610e98604051602001610e7d90611aa9565b6040516020818303038152906040528051906020012061136d565b60015f8381526020019081526020015f205f9054906101000a900460ff16610ef5576040517f08c379a0000000000000000000000000000000000000000000000000000000008152600401610eec9061193e565b60405180910390fd5b5f60035f8481526020019081526020015f205490505f8273ffffffffffffffffffffffffffffffffffffffff1682604051610f2f90611cc6565b5f6040518083038185875af1925050503d805f8114610f69576040519150601f19603f3d011682016040523d82523d5f602084013e610f6e565b606091505b5050905080610fb2576040517f08c379a0000000000000000000000000000000000000000000000000000000008152600401610fa990611d24565b60405180910390fd5b8160035f8681526020019081526020015f205f828254610fd29190611ae4565b925050819055508273ffffffffffffffffffffffffffffffffffffffff16847ffd1d4f59cf1013ee232282cac3356b455525c6d4d04d18bed8216b7b6c2beb6060405160405180910390a350505050565b60405160200161103290611c1d565b6040516020818303038152906040528051906020012081565b6110565f801b61136d565b61108460405160200161106890611aa9565b6040516020818303038152906040528051906020012082611381565b5050565b5f805f8481526020019081526020015f205f015f8373ffffffffffffffffffffffffffffffffffffffff1673ffffffffffffffffffffffffffffffffffffffff1681526020019081526020015f205f9054906101000a900460ff16905092915050565b5f801b81565b60405160200161110090611aa9565b6040516020818303038152906040528051906020012081565b6111245f801b61136d565b61115260405160200161113690611d8c565b6040516020818303038152906040528051906020012082611381565b5050565b61115f82610952565b6111688161136d565b6111728383611471565b50505050565b60405160200161118790611bbf565b6040516020818303038152906040528051906020012081565b6111ab5f801b61136d565b6111d96040516020016111bd90611aa9565b6040516020818303038152906040528051906020012082611471565b5050565b61120a6040516020016111ef90611d8c565b6040516020818303038152906040528051906020012061136d565b6001805f8381526020019081526020015f205f6101000a81548160ff021916908315150217905550807ffa9941fd9436b8f798d8da6c4747847bf053207fe545c37222588db50a6742f860405160405180910390a250565b61126d5f801b61136d565b61129b60405160200161127f90611d8c565b6040516020818303038152906040528051906020012082611471565b5050565b6003602052805f5260405f205f915090505481565b6040516020016112c390611b61565b6040516020818303038152906040528051906020012081565b6040516020016112eb90611d8c565b6040516020818303038152906040528051906020012081565b5f7f01ffc9a7000000000000000000000000000000000000000000000000000000007bffffffffffffffffffffffffffffffffffffffffffffffffffffffff1916827bffffffffffffffffffffffffffffffffffffffffffffffffffffffff1916149050919050565b61137e8161137961146a565b61155a565b50565b5f61138c8383611088565b6114605760015f808581526020019081526020015f205f015f8473ffffffffffffffffffffffffffffffffffffffff1673ffffffffffffffffffffffffffffffffffffffff1681526020019081526020015f205f6101000a81548160ff0219169083151502179055506113fd61146a565b73ffffffffffffffffffffffffffffffffffffffff168273ffffffffffffffffffffffffffffffffffffffff16847f2f8788117e7eff1d82e926ec794901d17c78024a50270940304540a733656f0d60405160405180910390a460019050611464565b5f90505b92915050565b5f33905090565b5f61147c8383611088565b15611550575f805f8581526020019081526020015f205f015f8473ffffffffffffffffffffffffffffffffffffffff1673ffffffffffffffffffffffffffffffffffffffff1681526020019081526020015f205f6101000a81548160ff0219169083151502179055506114ed61146a565b73ffffffffffffffffffffffffffffffffffffffff168273ffffffffffffffffffffffffffffffffffffffff16847ff6391f5c32d9c69d2a47ea670b442974b53935d1edc7fd64eb21e047a839171b60405160405180910390a460019050611554565b5f90505b92915050565b6115648282611088565b6115a75780826040517fe2517d3f00000000000000000000000000000000000000000000000000000000815260040161159e929190611da0565b60405180910390fd5b5050565b5f80fd5b5f7fffffffff0000000000000000000000000000000000000000000000000000000082169050919050565b6115e3816115af565b81146115ed575f80fd5b50565b5f813590506115fe816115da565b92915050565b5f60208284031215611619576116186115ab565b5b5f611626848285016115f0565b91505092915050565b5f8115159050919050565b6116438161162f565b82525050565b5f60208201905061165c5f83018461163a565b92915050565b5f819050919050565b61167481611662565b811461167e575f80fd5b50565b5f8135905061168f8161166b565b92915050565b5f602082840312156116aa576116a96115ab565b5b5f6116b784828501611681565b91505092915050565b5f73ffffffffffffffffffffffffffffffffffffffff82169050919050565b5f6116e9826116c0565b9050919050565b6116f9816116df565b8114611703575f80fd5b50565b5f81359050611714816116f0565b92915050565b5f819050919050565b61172c8161171a565b8114611736575f80fd5b50565b5f8135905061174781611723565b92915050565b5f805f60608486031215611764576117636115ab565b5b5f61177186828701611681565b935050602061178286828701611706565b925050604061179386828701611739565b9150509250925092565b6117a681611662565b82525050565b5f6020820190506117bf5f83018461179d565b92915050565b5f80604083850312156117db576117da6115ab565b5b5f6117e885828601611681565b92505060206117f985828601611706565b9150509250929050565b61180c8161171a565b82525050565b5f6020820190506118255f830184611803565b92915050565b5f805f60608486031215611842576118416115ab565b5b5f61184f86828701611681565b935050602061186086828701611706565b925050604061187186828701611706565b9150509250925092565b5f8060408385031215611891576118906115ab565b5b5f61189e85828601611706565b92505060206118af85828601611739565b9150509250929050565b5f602082840312156118ce576118cd6115ab565b5b5f6118db84828501611706565b91505092915050565b5f82825260208201905092915050565b7f466163652068617368206e6f74207265676973746572656400000000000000005f82015250565b5f6119286018836118e4565b9150611933826118f4565b602082019050919050565b5f6020820190508181035f8301526119558161191c565b9050919050565b611965816116df565b82525050565b5f60608201905061197e5f83018661195c565b61198b602083018561195c565b6119986040830184611803565b949350505050565b6119a98161162f565b81146119b3575f80fd5b50565b5f815190506119c4816119a0565b92915050565b5f602082840312156119df576119de6115ab565b5b5f6119ec848285016119b6565b91505092915050565b7f4e487b71000000000000000000000000000000000000000000000000000000005f52601160045260245ffd5b5f611a2c8261171a565b9150611a378361171a565b9250828201905080821115611a4f57611a4e6119f5565b5b92915050565b5f81905092915050565b7f5041594d454e545f41444d494e5f524f4c4500000000000000000000000000005f82015250565b5f611a93601283611a55565b9150611a9e82611a5f565b601282019050919050565b5f611ab382611a87565b9150819050919050565b5f604082019050611ad05f83018561195c565b611add6020830184611803565b9392505050565b5f611aee8261171a565b9150611af98361171a565b9250828203905081811115611b1157611b106119f5565b5b92915050565b7f4845414c54485f50524f46455353494f4e414c5f46554c4c00000000000000005f82015250565b5f611b4b601883611a55565b9150611b5682611b17565b601882019050919050565b5f611b6b82611b3f565b9150819050919050565b7f4845414c54485f50524f46455353494f4e414c5f4d49440000000000000000005f82015250565b5f611ba9601783611a55565b9150611bb482611b75565b601782019050919050565b5f611bc982611b9d565b9150819050919050565b7f4845414c54485f50524f46455353494f4e414c5f4c4f570000000000000000005f82015250565b5f611c07601783611a55565b9150611c1282611bd3565b601782019050919050565b5f611c2782611bfb565b9150819050919050565b7f556e7265636f676e697a656420616363657373206c6576656c000000000000005f82015250565b5f611c656019836118e4565b9150611c7082611c31565b602082019050919050565b5f6020820190508181035f830152611c9281611c59565b9050919050565b5f81905092915050565b50565b5f611cb15f83611c99565b9150611cbc82611ca3565b5f82019050919050565b5f611cd082611ca6565b9150819050919050565b7f5061796f7574206661696c6564000000000000000000000000000000000000005f82015250565b5f611d0e600d836118e4565b9150611d1982611cda565b602082019050919050565b5f6020820190508181035f830152611d3b81611d02565b9050919050565b7f555345525f41444d494e5f524f4c4500000000000000000000000000000000005f82015250565b5f611d76600f83611a55565b9150611d8182611d42565b600f82019050919050565b5f611d9682611d6a565b9150819050919050565b5f604082019050611db35f83018561195c565b611dc0602083018461179d565b939250505056fea264697066735822122004b321d229cdeea078bf583c0be70c7711c9d446b731d92a5f048ad9ee6a33c964736f6c63430008160033",
			"opcodes": "PUSH1 0x80 PUSH1 0x40 MSTORE CALLVALUE DUP1 ISZERO PUSH3 0x10 JUMPI PUSH0 DUP1 REVERT JUMPDEST POP PUSH3 0x25 PUSH0 DUP1 SHL CALLER PUSH3 0x114 PUSH1 0x20 SHL PUSH1 0x20 SHR JUMP JUMPDEST POP PUSH3 0x60 PUSH1 0x40 MLOAD PUSH1 0x20 ADD PUSH3 0x3B SWAP1 PUSH3 0x34D JUMP JUMPDEST PUSH1 0x40 MLOAD PUSH1 0x20 DUP2 DUP4 SUB SUB DUP2 MSTORE SWAP1 PUSH1 0x40 MSTORE DUP1 MLOAD SWAP1 PUSH1 0x20 ADD KECCAK256 PUSH0 DUP1 SHL PUSH3 0x20F PUSH1 0x20 SHL PUSH1 0x20 SHR JUMP JUMPDEST PUSH3 0x9A PUSH1 0x40 MLOAD PUSH1 0x20 ADD PUSH3 0x75 SWAP1 PUSH3 0x3B1 JUMP JUMPDEST PUSH1 0x40 MLOAD PUSH1 0x20 DUP2 DUP4 SUB SUB DUP2 MSTORE SWAP1 PUSH1 0x40 MSTORE DUP1 MLOAD SWAP1 PUSH1 0x20 ADD KECCAK256 PUSH0 DUP1 SHL PUSH3 0x20F PUSH1 0x20 SHL PUSH1 0x20 SHR JUMP JUMPDEST PUSH3 0xD4 PUSH1 0x40 MLOAD PUSH1 0x20 ADD PUSH3 0xAF SWAP1 PUSH3 0x415 JUMP JUMPDEST PUSH1 0x40 MLOAD PUSH1 0x20 DUP2 DUP4 SUB SUB DUP2 MSTORE SWAP1 PUSH1 0x40 MSTORE DUP1 MLOAD SWAP1 PUSH1 0x20 ADD KECCAK256 PUSH0 DUP1 SHL PUSH3 0x20F PUSH1 0x20 SHL PUSH1 0x20 SHR JUMP JUMPDEST PUSH3 0x10E PUSH1 0x40 MLOAD PUSH1 0x20 ADD PUSH3 0xE9 SWAP1 PUSH3 0x479 JUMP JUMPDEST PUSH1 0x40 MLOAD PUSH1 0x20 DUP2 DUP4 SUB SUB DUP2 MSTORE SWAP1 PUSH1 0x40 MSTORE DUP1 MLOAD SWAP1 PUSH1 0x20 ADD KECCAK256 PUSH0 DUP1 SHL PUSH3 0x20F PUSH1 0x20 SHL PUSH1 0x20 SHR JUMP JUMPDEST PUSH3 0x48F JUMP JUMPDEST PUSH0 PUSH3 0x127 DUP4 DUP4 PUSH3 0x26F PUSH1 0x20 SHL PUSH1 0x20 SHR JUMP JUMPDEST PUSH3 0x205 JUMPI PUSH1 0x1 PUSH0 DUP1 DUP6 DUP2 MSTORE PUSH1 0x20 ADD SWAP1 DUP2 MSTORE PUSH1 0x20 ADD PUSH0 KECCAK256 PUSH0 ADD PUSH0 DUP5 PUSH20 0xFFFFFFFFFFFFFFFFFFFFFFFFFFFFFFFFFFFFFFFF AND PUSH20 0xFFFFFFFFFFFFFFFFFFFFFFFFFFFFFFFFFFFFFFFF AND DUP2 MSTORE PUSH1 0x20 ADD SWAP1 DUP2 MSTORE PUSH1 0x20 ADD PUSH0 KECCAK256 PUSH0 PUSH2 0x100 EXP DUP2 SLOAD DUP2 PUSH1 0xFF MUL NOT AND SWAP1 DUP4 ISZERO ISZERO MUL OR SWAP1 SSTORE POP PUSH3 0x1A1 PUSH3 0x2D2 PUSH1 0x20 SHL PUSH1 0x20 SHR JUMP JUMPDEST PUSH20 0xFFFFFFFFFFFFFFFFFFFFFFFFFFFFFFFFFFFFFFFF AND DUP3 PUSH20 0xFFFFFFFFFFFFFFFFFFFFFFFFFFFFFFFFFFFFFFFF AND DUP5 PUSH32 0x2F8788117E7EFF1D82E926EC794901D17C78024A50270940304540A733656F0D PUSH1 0x40 MLOAD PUSH1 0x40 MLOAD DUP1 SWAP2 SUB SWAP1 LOG4 PUSH1 0x1 SWAP1 POP PUSH3 0x209 JUMP JUMPDEST PUSH0 SWAP1 POP JUMPDEST SWAP3 SWAP2 POP POP JUMP JUMPDEST PUSH0 PUSH3 0x221 DUP4 PUSH3 0x2D9 PUSH1 0x20 SHL PUSH1 0x20 SHR JUMP JUMPDEST SWAP1 POP DUP2 PUSH0 DUP1 DUP6 DUP2 MSTORE PUSH1 0x20 ADD SWAP1 DUP2 MSTORE PUSH1 0x20 ADD PUSH0 KECCAK256 PUSH1 0x1 ADD DUP2 SWAP1 SSTORE POP DUP2 DUP2 DUP5 PUSH32 0xBD79B86FFE0AB8E8776151514217CD7CACD52C909F66475C3AF44E129F0B00FF PUSH1 0x40 MLOAD PUSH1 0x40 MLOAD DUP1 SWAP2 SUB SWAP1 LOG4 POP POP POP JUMP JUMPDEST PUSH0 DUP1 PUSH0 DUP5 DUP2 MSTORE PUSH1 0x20 ADD SWAP1 DUP2 MSTORE PUSH1 0x20 ADD PUSH0 KECCAK256 PUSH0 ADD PUSH0 DUP4 PUSH20 0xFFFFFFFFFFFFFFFFFFFFFFFFFFFFFFFFFFFFFFFF AND PUSH20 0xFFFFFFFFFFFFFFFFFFFFFFFFFFFFFFFFFFFFFFFF AND DUP2 MSTORE PUSH1 0x20 ADD SWAP1 DUP2 MSTORE PUSH1 0x20 ADD PUSH0 KECCAK256 PUSH0 SWAP1 SLOAD SWAP1 PUSH2 0x100 EXP SWAP1 DIV PUSH1 0xFF AND SWAP1 POP SWAP3 SWAP2 POP POP JUMP JUMPDEST PUSH0 CALLER SWAP1 POP SWAP1 JUMP JUMPDEST PUSH0 DUP1 PUSH0 DUP4 DUP2 MSTORE PUSH1 0x20 ADD SWAP1 DUP2 MSTORE PUSH1 0x20 ADD PUSH0 KECCAK256 PUSH1 0x1 ADD SLOAD SWAP1 POP SWAP2 SWAP1 POP JUMP JUMPDEST PUSH0 DUP2 SWAP1 POP SWAP3 SWAP2 POP POP JUMP JUMPDEST PUSH32 0x555345525F41444D494E5F524F4C450000000000000000000000000000000000 PUSH0 DUP3 ADD MSTORE POP JUMP JUMPDEST PUSH0 PUSH3 0x335 PUSH1 0xF DUP4 PUSH3 0x2F5 JUMP JUMPDEST SWAP2 POP PUSH3 0x342 DUP3 PUSH3 0x2FF JUMP JUMPDEST PUSH1 0xF DUP3 ADD SWAP1 POP SWAP2 SWAP1 POP JUMP JUMPDEST PUSH0 PUSH3 0x359 DUP3 PUSH3 0x327 JUMP JUMPDEST SWAP2 POP DUP2 SWAP1 POP SWAP2 SWAP1 POP JUMP JUMPDEST PUSH32 0x4845414C54485F50524F46455353494F4E414C5F46554C4C0000000000000000 PUSH0 DUP3 ADD MSTORE POP JUMP JUMPDEST PUSH0 PUSH3 0x399 PUSH1 0x18 DUP4 PUSH3 0x2F5 JUMP JUMPDEST SWAP2 POP PUSH3 0x3A6 DUP3 PUSH3 0x363 JUMP JUMPDEST PUSH1 0x18 DUP3 ADD SWAP1 POP SWAP2 SWAP1 POP JUMP JUMPDEST PUSH0 PUSH3 0x3BD DUP3 PUSH3 0x38B JUMP JUMPDEST SWAP2 POP DUP2 SWAP1 POP SWAP2 SWAP1 POP JUMP JUMPDEST PUSH32 0x4845414C54485F50524F46455353494F4E414C5F4D4944000000000000000000 PUSH0 DUP3 ADD MSTORE POP JUMP JUMPDEST PUSH0 PUSH3 0x3FD PUSH1 0x17 DUP4 PUSH3 0x2F5 JUMP JUMPDEST SWAP2 POP PUSH3 0x40A DUP3 PUSH3 0x3C7 JUMP JUMPDEST PUSH1 0x17 DUP3 ADD SWAP1 POP SWAP2 SWAP1 POP JUMP JUMPDEST PUSH0 PUSH3 0x421 DUP3 PUSH3 0x3EF JUMP JUMPDEST SWAP2 POP DUP2 SWAP1 POP SWAP2 SWAP1 POP JUMP JUMPDEST PUSH32 0x4845414C54485F50524F46455353494F4E414C5F4C4F57000000000000000000 PUSH0 DUP3 ADD MSTORE POP JUMP JUMPDEST PUSH0 PUSH3 0x461 PUSH1 0x17 DUP4 PUSH3 0x2F5 JUMP JUMPDEST SWAP2 POP PUSH3 0x46E DUP3 PUSH3 0x42B JUMP JUMPDEST PUSH1 0x17 DUP3 ADD SWAP1 POP SWAP2 SWAP1 POP JUMP JUMPDEST PUSH0 PUSH3 0x485 DUP3 PUSH3 0x453 JUMP JUMPDEST SWAP2 POP DUP2 SWAP1 POP SWAP2 SWAP1 POP JUMP JUMPDEST PUSH2 0x1DFD DUP1 PUSH3 0x49D PUSH0 CODECOPY PUSH0 RETURN INVALID PUSH1 0x80 PUSH1 0x40 MSTORE PUSH1 0x4 CALLDATASIZE LT PUSH2 0x19B JUMPI PUSH0 CALLDATALOAD PUSH1 0xE0 SHR DUP1 PUSH4 0x585F4C49 GT PUSH2 0xEB JUMPI DUP1 PUSH4 0xD6770522 GT PUSH2 0x89 JUMPI DUP1 PUSH4 0xE096CFED GT PUSH2 0x63 JUMPI DUP1 PUSH4 0xE096CFED EQ PUSH2 0x5BF JUMPI DUP1 PUSH4 0xE6D6384A EQ PUSH2 0x5E7 JUMPI DUP1 PUSH4 0xF0F7AF4D EQ PUSH2 0x623 JUMPI DUP1 PUSH4 0xF2C80089 EQ PUSH2 0x64D JUMPI PUSH2 0x19B JUMP JUMPDEST DUP1 PUSH4 0xD6770522 EQ PUSH2 0x545 JUMPI DUP1 PUSH4 0xD7B8A07A EQ PUSH2 0x56F JUMPI DUP1 PUSH4 0xDD65AB1F EQ PUSH2 0x597 JUMPI PUSH2 0x19B JUMP JUMPDEST DUP1 PUSH4 0xA217FDDF GT PUSH2 0xC5 JUMPI DUP1 PUSH4 0xA217FDDF EQ PUSH2 0x4A1 JUMPI DUP1 PUSH4 0xB24B56B0 EQ PUSH2 0x4CB JUMPI DUP1 PUSH4 0xB89F9AC1 EQ PUSH2 0x4F5 JUMPI DUP1 PUSH4 0xD547741F EQ PUSH2 0x51D JUMPI PUSH2 0x19B JUMP JUMPDEST DUP1 PUSH4 0x585F4C49 EQ PUSH2 0x413 JUMPI DUP1 PUSH4 0x5EA06A9C EQ PUSH2 0x43D JUMPI DUP1 PUSH4 0x91D14854 EQ PUSH2 0x465 JUMPI PUSH2 0x19B JUMP JUMPDEST DUP1 PUSH4 0x2F2FF15D GT PUSH2 0x158 JUMPI DUP1 PUSH4 0x3FD2C4F1 GT PUSH2 0x132 JUMPI DUP1 PUSH4 0x3FD2C4F1 EQ PUSH2 0x35F JUMPI DUP1 PUSH4 0x48570EE6 EQ PUSH2 0x387 JUMPI DUP1 PUSH4 0x51FEA917 EQ PUSH2 0x3AF JUMPI DUP1 PUSH4 0x55F93E6E EQ PUSH2 0x3EB JUMPI PUSH2 0x19B JUMP JUMPDEST DUP1 PUSH4 0x2F2FF15D EQ PUSH2 0x2D3 JUMPI DUP1 PUSH4 0x2F432261 EQ PUSH2 0x2FB JUMPI DUP1 PUSH4 0x36568ABE EQ PUSH2 0x337 JUMPI PUSH2 0x19B JUMP JUMPDEST DUP1 PUSH4 0x1FFC9A7 EQ PUSH2 0x19F JUMPI DUP1 PUSH4 0x9C19362 EQ PUSH2 0x1DB JUMPI DUP1 PUSH4 0xADBBDD3 EQ PUSH2 0x217 JUMPI DUP1 PUSH4 0xFA750FF EQ PUSH2 0x23F JUMPI DUP1 PUSH4 0x248A9CA3 EQ PUSH2 0x25B JUMPI DUP1 PUSH4 0x24CCC1A6 EQ PUSH2 0x297 JUMPI JUMPDEST PUSH0 DUP1 REVERT JUMPDEST CALLVALUE DUP1 ISZERO PUSH2 0x1AA JUMPI PUSH0 DUP1 REVERT JUMPDEST POP PUSH2 0x1C5 PUSH1 0x4 DUP1 CALLDATASIZE SUB DUP2 ADD SWAP1 PUSH2 0x1C0 SWAP2 SWAP1 PUSH2 0x1604 JUMP JUMPDEST PUSH2 0x677 JUMP JUMPDEST PUSH1 0x40 MLOAD PUSH2 0x1D2 SWAP2 SWAP1 PUSH2 0x1649 JUMP JUMPDEST PUSH1 0x40 MLOAD DUP1 SWAP2 SUB SWAP1 RETURN JUMPDEST CALLVALUE DUP1 ISZERO PUSH2 0x1E6 JUMPI PUSH0 DUP1 REVERT JUMPDEST POP PUSH2 0x201 PUSH1 0x4 DUP1 CALLDATASIZE SUB DUP2 ADD SWAP1 PUSH2 0x1FC SWAP2 SWAP1 PUSH2 0x1695 JUMP JUMPDEST PUSH2 0x6F0 JUMP JUMPDEST PUSH1 0x40 MLOAD PUSH2 0x20E SWAP2 SWAP1 PUSH2 0x1649 JUMP JUMPDEST PUSH1 0x40 MLOAD DUP1 SWAP2 SUB SWAP1 RETURN JUMPDEST CALLVALUE DUP1 ISZERO PUSH2 0x222 JUMPI PUSH0 DUP1 REVERT JUMPDEST POP PUSH2 0x23D PUSH1 0x4 DUP1 CALLDATASIZE SUB DUP2 ADD SWAP1 PUSH2 0x238 SWAP2 SWAP1 PUSH2 0x174D JUMP JUMPDEST PUSH2 0x716 JUMP JUMPDEST STOP JUMPDEST PUSH2 0x259 PUSH1 0x4 DUP1 CALLDATASIZE SUB DUP2 ADD SWAP1 PUSH2 0x254 SWAP2 SWAP1 PUSH2 0x1695 JUMP JUMPDEST PUSH2 0x89D JUMP JUMPDEST STOP JUMPDEST CALLVALUE DUP1 ISZERO PUSH2 0x266 JUMPI PUSH0 DUP1 REVERT JUMPDEST POP PUSH2 0x281 PUSH1 0x4 DUP1 CALLDATASIZE SUB DUP2 ADD SWAP1 PUSH2 0x27C SWAP2 SWAP1 PUSH2 0x1695 JUMP JUMPDEST PUSH2 0x952 JUMP JUMPDEST PUSH1 0x40 MLOAD PUSH2 0x28E SWAP2 SWAP1 PUSH2 0x17AC JUMP JUMPDEST PUSH1 0x40 MLOAD DUP1 SWAP2 SUB SWAP1 RETURN JUMPDEST CALLVALUE DUP1 ISZERO PUSH2 0x2A2 JUMPI PUSH0 DUP1 REVERT JUMPDEST POP PUSH2 0x2BD PUSH1 0x4 DUP1 CALLDATASIZE SUB DUP2 ADD SWAP1 PUSH2 0x2B8 SWAP2 SWAP1 PUSH2 0x17C5 JUMP JUMPDEST PUSH2 0x96E JUMP JUMPDEST PUSH1 0x40 MLOAD PUSH2 0x2CA SWAP2 SWAP1 PUSH2 0x1812 JUMP JUMPDEST PUSH1 0x40 MLOAD DUP1 SWAP2 SUB SWAP1 RETURN JUMPDEST CALLVALUE DUP1 ISZERO PUSH2 0x2DE JUMPI PUSH0 DUP1 REVERT JUMPDEST POP PUSH2 0x2F9 PUSH1 0x4 DUP1 CALLDATASIZE SUB DUP2 ADD SWAP1 PUSH2 0x2F4 SWAP2 SWAP1 PUSH2 0x17C5 JUMP JUMPDEST PUSH2 0x98E JUMP JUMPDEST STOP JUMPDEST CALLVALUE DUP1 ISZERO PUSH2 0x306 JUMPI PUSH0 DUP1 REVERT JUMPDEST POP PUSH2 0x321 PUSH1 0x4 DUP1 CALLDATASIZE SUB DUP2 ADD SWAP1 PUSH2 0x31C SWAP2 SWAP1 PUSH2 0x1695 JUMP JUMPDEST PUSH2 0x9B0 JUMP JUMPDEST PUSH1 0x40 MLOAD PUSH2 0x32E SWAP2 SWAP1 PUSH2 0x1649 JUMP JUMPDEST PUSH1 0x40 MLOAD DUP1 SWAP2 SUB SWAP1 RETURN JUMPDEST CALLVALUE DUP1 ISZERO PUSH2 0x342 JUMPI PUSH0 DUP1 REVERT JUMPDEST POP PUSH2 0x35D PUSH1 0x4 DUP1 CALLDATASIZE SUB DUP2 ADD SWAP1 PUSH2 0x358 SWAP2 SWAP1 PUSH2 0x17C5 JUMP JUMPDEST PUSH2 0x9CD JUMP JUMPDEST STOP JUMPDEST CALLVALUE DUP1 ISZERO PUSH2 0x36A JUMPI PUSH0 DUP1 REVERT JUMPDEST POP PUSH2 0x385 PUSH1 0x4 DUP1 CALLDATASIZE SUB DUP2 ADD SWAP1 PUSH2 0x380 SWAP2 SWAP1 PUSH2 0x182B JUMP JUMPDEST PUSH2 0xA48 JUMP JUMPDEST STOP JUMPDEST CALLVALUE DUP1 ISZERO PUSH2 0x392 JUMPI PUSH0 DUP1 REVERT JUMPDEST POP PUSH2 0x3AD PUSH1 0x4 DUP1 CALLDATASIZE SUB DUP2 ADD SWAP1 PUSH2 0x3A8 SWAP2 SWAP1 PUSH2 0x187B JUMP JUMPDEST PUSH2 0xC4B JUMP JUMPDEST STOP JUMPDEST CALLVALUE DUP1 ISZERO PUSH2 0x3BA JUMPI PUSH0 DUP1 REVERT JUMPDEST POP PUSH2 0x3D5 PUSH1 0x4 DUP1 CALLDATASIZE SUB DUP2 ADD SWAP1 PUSH2 0x3D0 SWAP2 SWAP1 PUSH2 0x18B9 JUMP JUMPDEST PUSH2 0xD8E JUMP JUMPDEST PUSH1 0x40 MLOAD PUSH2 0x3E2 SWAP2 SWAP1 PUSH2 0x1812 JUMP JUMPDEST PUSH1 0x40 MLOAD DUP1 SWAP2 SUB SWAP1 RETURN JUMPDEST CALLVALUE DUP1 ISZERO PUSH2 0x3F6 JUMPI PUSH0 DUP1 REVERT JUMPDEST POP PUSH2 0x411 PUSH1 0x4 DUP1 CALLDATASIZE SUB DUP2 ADD SWAP1 PUSH2 0x40C SWAP2 SWAP1 PUSH2 0x17C5 JUMP JUMPDEST PUSH2 0xE6B JUMP JUMPDEST STOP JUMPDEST CALLVALUE DUP1 ISZERO PUSH2 0x41E JUMPI PUSH0 DUP1 REVERT JUMPDEST POP PUSH2 0x427 PUSH2 0x1023 JUMP JUMPDEST PUSH1 0x40 MLOAD PUSH2 0x434 SWAP2 SWAP1 PUSH2 0x17AC JUMP JUMPDEST PUSH1 0x40 MLOAD DUP1 SWAP2 SUB SWAP1 RETURN JUMPDEST CALLVALUE DUP1 ISZERO PUSH2 0x448 JUMPI PUSH0 DUP1 REVERT JUMPDEST POP PUSH2 0x463 PUSH1 0x4 DUP1 CALLDATASIZE SUB DUP2 ADD SWAP1 PUSH2 0x45E SWAP2 SWAP1 PUSH2 0x18B9 JUMP JUMPDEST PUSH2 0x104B JUMP JUMPDEST STOP JUMPDEST CALLVALUE DUP1 ISZERO PUSH2 0x470 JUMPI PUSH0 DUP1 REVERT JUMPDEST POP PUSH2 0x48B PUSH1 0x4 DUP1 CALLDATASIZE SUB DUP2 ADD SWAP1 PUSH2 0x486 SWAP2 SWAP1 PUSH2 0x17C5 JUMP JUMPDEST PUSH2 0x1088 JUMP JUMPDEST PUSH1 0x40 MLOAD PUSH2 0x498 SWAP2 SWAP1 PUSH2 0x1649 JUMP JUMPDEST PUSH1 0x40 MLOAD DUP1 SWAP2 SUB SWAP1 RETURN JUMPDEST CALLVALUE DUP1 ISZERO PUSH2 0x4AC JUMPI PUSH0 DUP1 REVERT JUMPDEST POP PUSH2 0x4B5 PUSH2 0x10EB JUMP JUMPDEST PUSH1 0x40 MLOAD PUSH2 0x4C2 SWAP2 SWAP1 PUSH2 0x17AC JUMP JUMPDEST PUSH1 0x40 MLOAD DUP1 SWAP2 SUB SWAP1 RETURN JUMPDEST CALLVALUE DUP1 ISZERO PUSH2 0x4D6 JUMPI PUSH0 DUP1 REVERT JUMPDEST POP PUSH2 0x4DF PUSH2 0x10F1 JUMP JUMPDEST PUSH1 0x40 MLOAD PUSH2 0x4EC SWAP2 SWAP1 PUSH2 0x17AC JUMP JUMPDEST PUSH1 0x40 MLOAD DUP1 SWAP2 SUB SWAP1 RETURN JUMPDEST CALLVALUE DUP1 ISZERO PUSH2 0x500 JUMPI PUSH0 DUP1 REVERT JUMPDEST POP PUSH2 0x51B PUSH1 0x4 DUP1 CALLDATASIZE SUB DUP2 ADD SWAP1 PUSH2 0x516 SWAP2 SWAP1 PUSH2 0x18B9 JUMP JUMPDEST PUSH2 0x1119 JUMP JUMPDEST STOP JUMPDEST CALLVALUE DUP1 ISZERO PUSH2 0x528 JUMPI PUSH0 DUP1 REVERT JUMPDEST POP PUSH2 0x543 PUSH1 0x4 DUP1 CALLDATASIZE SUB DUP2 ADD SWAP1 PUSH2 0x53E SWAP2 SWAP1 PUSH2 0x17C5 JUMP JUMPDEST PUSH2 0x1156 JUMP JUMPDEST STOP JUMPDEST CALLVALUE DUP1 ISZERO PUSH2 0x550 JUMPI PUSH0 DUP1 REVERT JUMPDEST POP PUSH2 0x559 PUSH2 0x1178 JUMP JUMPDEST PUSH1 0x40 MLOAD PUSH2 0x566 SWAP2 SWAP1 PUSH2 0x17AC JUMP JUMPDEST PUSH1 0x40 MLOAD DUP1 SWAP2 SUB SWAP1 RETURN JUMPDEST CALLVALUE DUP1 ISZERO PUSH2 0x57A JUMPI PUSH0 DUP1 REVERT JUMPDEST POP PUSH2 0x595 PUSH1 0x4 DUP1 CALLDATASIZE SUB DUP2 ADD SWAP1 PUSH2 0x590 SWAP2 SWAP1 PUSH2 0x18B9 JUMP JUMPDEST PUSH2 0x11A0 JUMP JUMPDEST STOP JUMPDEST CALLVALUE DUP1 ISZERO PUSH2 0x5A2 JUMPI PUSH0 DUP1 REVERT JUMPDEST POP PUSH2 0x5BD PUSH1 0x4 DUP1 CALLDATASIZE SUB DUP2 ADD SWAP1 PUSH2 0x5B8 SWAP2 SWAP1 PUSH2 0x1695 JUMP JUMPDEST PUSH2 0x11DD JUMP JUMPDEST STOP JUMPDEST CALLVALUE DUP1 ISZERO PUSH2 0x5CA JUMPI PUSH0 DUP1 REVERT JUMPDEST POP PUSH2 0x5E5 PUSH1 0x4 DUP1 CALLDATASIZE SUB DUP2 ADD SWAP1 PUSH2 0x5E0 SWAP2 SWAP1 PUSH2 0x18B9 JUMP JUMPDEST PUSH2 0x1262 JUMP JUMPDEST STOP JUMPDEST CALLVALUE DUP1 ISZERO PUSH2 0x5F2 JUMPI PUSH0 DUP1 REVERT JUMPDEST POP PUSH2 0x60D PUSH1 0x4 DUP1 CALLDATASIZE SUB DUP2 ADD SWAP1 PUSH2 0x608 SWAP2 SWAP1 PUSH2 0x1695 JUMP JUMPDEST PUSH2 0x129F JUMP JUMPDEST PUSH1 0x40 MLOAD PUSH2 0x61A SWAP2 SWAP1 PUSH2 0x1812 JUMP JUMPDEST PUSH1 0x40 MLOAD DUP1 SWAP2 SUB SWAP1 RETURN JUMPDEST CALLVALUE DUP1 ISZERO PUSH2 0x62E JUMPI PUSH0 DUP1 REVERT JUMPDEST POP PUSH2 0x637 PUSH2 0x12B4 JUMP JUMPDEST PUSH1 0x40 MLOAD PUSH2 0x644 SWAP2 SWAP1 PUSH2 0x17AC JUMP JUMPDEST PUSH1 0x40 MLOAD DUP1 SWAP2 SUB SWAP1 RETURN JUMPDEST CALLVALUE DUP1 ISZERO PUSH2 0x658 JUMPI PUSH0 DUP1 REVERT JUMPDEST POP PUSH2 0x661 PUSH2 0x12DC JUMP JUMPDEST PUSH1 0x40 MLOAD PUSH2 0x66E SWAP2 SWAP1 PUSH2 0x17AC JUMP JUMPDEST PUSH1 0x40 MLOAD DUP1 SWAP2 SUB SWAP1 RETURN JUMPDEST PUSH0 PUSH32 0x7965DB0B00000000000000000000000000000000000000000000000000000000 PUSH28 0xFFFFFFFFFFFFFFFFFFFFFFFFFFFFFFFFFFFFFFFFFFFFFFFFFFFFFFFF NOT AND DUP3 PUSH28 0xFFFFFFFFFFFFFFFFFFFFFFFFFFFFFFFFFFFFFFFFFFFFFFFFFFFFFFFF NOT AND EQ DUP1 PUSH2 0x6E9 JUMPI POP PUSH2 0x6E8 DUP3 PUSH2 0x1304 JUMP JUMPDEST JUMPDEST SWAP1 POP SWAP2 SWAP1 POP JUMP JUMPDEST PUSH0 PUSH1 0x1 PUSH0 DUP4 DUP2 MSTORE PUSH1 0x20 ADD SWAP1 DUP2 MSTORE PUSH1 0x20 ADD PUSH0 KECCAK256 PUSH0 SWAP1 SLOAD SWAP1 PUSH2 0x100 EXP SWAP1 DIV PUSH1 0xFF AND SWAP1 POP SWAP2 SWAP1 POP JUMP JUMPDEST PUSH1 0x1 PUSH0 DUP5 DUP2 MSTORE PUSH1 0x20 ADD SWAP1 DUP2 MSTORE PUSH1 0x20 ADD PUSH0 KECCAK256 PUSH0 SWAP1 SLOAD SWAP1 PUSH2 0x100 EXP SWAP1 DIV PUSH1 0xFF AND PUSH2 0x773 JUMPI PUSH1 0x40 MLOAD PUSH32 0x8C379A000000000000000000000000000000000000000000000000000000000 DUP2 MSTORE PUSH1 0x4 ADD PUSH2 0x76A SWAP1 PUSH2 0x193E JUMP JUMPDEST PUSH1 0x40 MLOAD DUP1 SWAP2 SUB SWAP1 REVERT JUMPDEST DUP2 PUSH20 0xFFFFFFFFFFFFFFFFFFFFFFFFFFFFFFFFFFFFFFFF AND PUSH4 0x23B872DD CALLER ADDRESS DUP5 PUSH1 0x40 MLOAD DUP5 PUSH4 0xFFFFFFFF AND PUSH1 0xE0 SHL DUP2 MSTORE PUSH1 0x4 ADD PUSH2 0x7B0 SWAP4 SWAP3 SWAP2 SWAP1 PUSH2 0x196B JUMP JUMPDEST PUSH1 0x20 PUSH1 0x40 MLOAD DUP1 DUP4 SUB DUP2 PUSH0 DUP8 GAS CALL ISZERO DUP1 ISZERO PUSH2 0x7CC JUMPI RETURNDATASIZE PUSH0 DUP1 RETURNDATACOPY RETURNDATASIZE PUSH0 REVERT JUMPDEST POP POP POP POP PUSH1 0x40 MLOAD RETURNDATASIZE PUSH1 0x1F NOT PUSH1 0x1F DUP3 ADD AND DUP3 ADD DUP1 PUSH1 0x40 MSTORE POP DUP2 ADD SWAP1 PUSH2 0x7F0 SWAP2 SWAP1 PUSH2 0x19CA JUMP JUMPDEST POP DUP1 PUSH1 0x2 PUSH0 DUP6 DUP2 MSTORE PUSH1 0x20 ADD SWAP1 DUP2 MSTORE PUSH1 0x20 ADD PUSH0 KECCAK256 PUSH0 DUP5 PUSH20 0xFFFFFFFFFFFFFFFFFFFFFFFFFFFFFFFFFFFFFFFF AND PUSH20 0xFFFFFFFFFFFFFFFFFFFFFFFFFFFFFFFFFFFFFFFF AND DUP2 MSTORE PUSH1 0x20 ADD SWAP1 DUP2 MSTORE PUSH1 0x20 ADD PUSH0 KECCAK256 PUSH0 DUP3 DUP3 SLOAD PUSH2 0x84C SWAP2 SWAP1 PUSH2 0x1A22 JUMP JUMPDEST SWAP3 POP POP DUP2 SWAP1 SSTORE POP DUP1 DUP3 PUSH20 0xFFFFFFFFFFFFFFFFFFFFFFFFFFFFFFFFFFFFFFFF AND DUP5 PUSH32 0x7A143568E7A2E32F33C2AB85BB8CB9FF7E78D00E650D6973C8873BBDC075E811 PUSH1 0x40 MLOAD PUSH1 0x40 MLOAD DUP1 SWAP2 SUB SWAP1 LOG4 POP POP POP JUMP JUMPDEST PUSH1 0x1 PUSH0 DUP3 DUP2 MSTORE PUSH1 0x20 ADD SWAP1 DUP2 MSTORE PUSH1 0x20 ADD PUSH0 KECCAK256 PUSH0 SWAP1 SLOAD SWAP1 PUSH2 0x100 EXP SWAP1 DIV PUSH1 0xFF AND PUSH2 0x8FA JUMPI PUSH1 0x40 MLOAD PUSH32 0x8C379A000000000000000000000000000000000000000000000000000000000 DUP2 MSTORE PUSH1 0x4 ADD PUSH2 0x8F1 SWAP1 PUSH2 0x193E JUMP JUMPDEST PUSH1 0x40 MLOAD DUP1 SWAP2 SUB SWAP1 REVERT JUMPDEST CALLVALUE PUSH1 0x3 PUSH0 DUP4 DUP2 MSTORE PUSH1 0x20 ADD SWAP1 DUP2 MSTORE PUSH1 0x20 ADD PUSH0 KECCAK256 PUSH0 DUP3 DUP3 SLOAD PUSH2 0x91A SWAP2 SWAP1 PUSH2 0x1A22 JUMP JUMPDEST SWAP3 POP POP DUP2 SWAP1 SSTORE POP CALLVALUE DUP2 PUSH32 0xACC0FD4B3527D0953ABDCE4AC9A5F786E3D780A3B4BBEFEFB360A8642429E0F6 PUSH1 0x40 MLOAD PUSH1 0x40 MLOAD DUP1 SWAP2 SUB SWAP1 LOG3 POP JUMP JUMPDEST PUSH0 DUP1 PUSH0 DUP4 DUP2 MSTORE PUSH1 0x20 ADD SWAP1 DUP2 MSTORE PUSH1 0x20 ADD PUSH0 KECCAK256 PUSH1 0x1 ADD SLOAD SWAP1 POP SWAP2 SWAP1 POP JUMP JUMPDEST PUSH1 0x2 PUSH1 0x20 MSTORE DUP2 PUSH0 MSTORE PUSH1 0x40 PUSH0 KECCAK256 PUSH1 0x20 MSTORE DUP1 PUSH0 MSTORE PUSH1 0x40 PUSH0 KECCAK256 PUSH0 SWAP2 POP SWAP2 POP POP SLOAD DUP2 JUMP JUMPDEST PUSH2 0x997 DUP3 PUSH2 0x952 JUMP JUMPDEST PUSH2 0x9A0 DUP2 PUSH2 0x136D JUMP JUMPDEST PUSH2 0x9AA DUP4 DUP4 PUSH2 0x1381 JUMP JUMPDEST POP POP POP POP JUMP JUMPDEST PUSH1 0x1 PUSH1 0x20 MSTORE DUP1 PUSH0 MSTORE PUSH1 0x40 PUSH0 KECCAK256 PUSH0 SWAP2 POP SLOAD SWAP1 PUSH2 0x100 EXP SWAP1 DIV PUSH1 0xFF AND DUP2 JUMP JUMPDEST PUSH2 0x9D5 PUSH2 0x146A JUMP JUMPDEST PUSH20 0xFFFFFFFFFFFFFFFFFFFFFFFFFFFFFFFFFFFFFFFF AND DUP2 PUSH20 0xFFFFFFFFFFFFFFFFFFFFFFFFFFFFFFFFFFFFFFFF AND EQ PUSH2 0xA39 JUMPI PUSH1 0x40 MLOAD PUSH32 0x6697B23200000000000000000000000000000000000000000000000000000000 DUP2 MSTORE PUSH1 0x4 ADD PUSH1 0x40 MLOAD DUP1 SWAP2 SUB SWAP1 REVERT JUMPDEST PUSH2 0xA43 DUP3 DUP3 PUSH2 0x1471 JUMP JUMPDEST POP POP POP JUMP JUMPDEST PUSH2 0xA75 PUSH1 0x40 MLOAD PUSH1 0x20 ADD PUSH2 0xA5A SWAP1 PUSH2 0x1AA9 JUMP JUMPDEST PUSH1 0x40 MLOAD PUSH1 0x20 DUP2 DUP4 SUB SUB DUP2 MSTORE SWAP1 PUSH1 0x40 MSTORE DUP1 MLOAD SWAP1 PUSH1 0x20 ADD KECCAK256 PUSH2 0x136D JUMP JUMPDEST PUSH1 0x1 PUSH0 DUP5 DUP2 MSTORE PUSH1 0x20 ADD SWAP1 DUP2 MSTORE PUSH1 0x20 ADD PUSH0 KECCAK256 PUSH0 SWAP1 SLOAD SWAP1 PUSH2 0x100 EXP SWAP1 DIV PUSH1 0xFF AND PUSH2 0xAD2 JUMPI PUSH1 0x40 MLOAD PUSH32 0x8C379A000000000000000000000000000000000000000000000000000000000 DUP2 MSTORE PUSH1 0x4 ADD PUSH2 0xAC9 SWAP1 PUSH2 0x193E JUMP JUMPDEST PUSH1 0x40 MLOAD DUP1 SWAP2 SUB SWAP1 REVERT JUMPDEST PUSH0 PUSH1 0x2 PUSH0 DUP6 DUP2 MSTORE PUSH1 0x20 ADD SWAP1 DUP2 MSTORE PUSH1 0x20 ADD PUSH0 KECCAK256 PUSH0 DUP5 PUSH20 0xFFFFFFFFFFFFFFFFFFFFFFFFFFFFFFFFFFFFFFFF AND PUSH20 0xFFFFFFFFFFFFFFFFFFFFFFFFFFFFFFFFFFFFFFFF AND DUP2 MSTORE PUSH1 0x20 ADD SWAP1 DUP2 MSTORE PUSH1 0x20 ADD PUSH0 KECCAK256 SLOAD SWAP1 POP DUP3 PUSH20 0xFFFFFFFFFFFFFFFFFFFFFFFFFFFFFFFFFFFFFFFF AND PUSH4 0xA9059CBB DUP4 DUP4 PUSH1 0x40 MLOAD DUP4 PUSH4 0xFFFFFFFF AND PUSH1 0xE0 SHL DUP2 MSTORE PUSH1 0x4 ADD PUSH2 0xB5D SWAP3 SWAP2 SWAP1 PUSH2 0x1ABD JUMP JUMPDEST PUSH1 0x20 PUSH1 0x40 MLOAD DUP1 DUP4 SUB DUP2 PUSH0 DUP8 GAS CALL ISZERO DUP1 ISZERO PUSH2 0xB79 JUMPI RETURNDATASIZE PUSH0 DUP1 RETURNDATACOPY RETURNDATASIZE PUSH0 REVERT JUMPDEST POP POP POP POP PUSH1 0x40 MLOAD RETURNDATASIZE PUSH1 0x1F NOT PUSH1 0x1F DUP3 ADD AND DUP3 ADD DUP1 PUSH1 0x40 MSTORE POP DUP2 ADD SWAP1 PUSH2 0xB9D SWAP2 SWAP1 PUSH2 0x19CA JUMP JUMPDEST POP DUP1 PUSH1 0x2 PUSH0 DUP7 DUP2 MSTORE PUSH1 0x20 ADD SWAP1 DUP2 MSTORE PUSH1 0x20 ADD PUSH0 KECCAK256 PUSH0 DUP6 PUSH20 0xFFFFFFFFFFFFFFFFFFFFFFFFFFFFFFFFFFFFFFFF AND PUSH20 0xFFFFFFFFFFFFFFFFFFFFFFFFFFFFFFFFFFFFFFFF AND DUP2 MSTORE PUSH1 0x20 ADD SWAP1 DUP2 MSTORE PUSH1 0x20 ADD PUSH0 KECCAK256 PUSH0 DUP3 DUP3 SLOAD PUSH2 0xBF9 SWAP2 SWAP1 PUSH2 0x1AE4 JUMP JUMPDEST SWAP3 POP POP DUP2 SWAP1 SSTORE POP DUP1 DUP4 PUSH20 0xFFFFFFFFFFFFFFFFFFFFFFFFFFFFFFFFFFFFFFFF AND DUP6 PUSH32 0x434ADBD1794F49FFEB1EA04DE9AD62FB01CC18179124CDA3CE5EEE58F010F969 PUSH1 0x40 MLOAD PUSH1 0x40 MLOAD DUP1 SWAP2 SUB SWAP1 LOG4 POP POP POP POP JUMP JUMPDEST PUSH2 0xC56 PUSH0 DUP1 SHL PUSH2 0x136D JUMP JUMPDEST PUSH0 DUP2 SUB PUSH2 0xC91 JUMPI PUSH2 0xC8B PUSH1 0x40 MLOAD PUSH1 0x20 ADD PUSH2 0xC6F SWAP1 PUSH2 0x1B61 JUMP JUMPDEST PUSH1 0x40 MLOAD PUSH1 0x20 DUP2 DUP4 SUB SUB DUP2 MSTORE SWAP1 PUSH1 0x40 MSTORE DUP1 MLOAD SWAP1 PUSH1 0x20 ADD KECCAK256 DUP4 PUSH2 0x1381 JUMP JUMPDEST POP PUSH2 0xD46 JUMP JUMPDEST PUSH1 0x1 DUP2 SUB PUSH2 0xCCD JUMPI PUSH2 0xCC7 PUSH1 0x40 MLOAD PUSH1 0x20 ADD PUSH2 0xCAB SWAP1 PUSH2 0x1BBF JUMP JUMPDEST PUSH1 0x40 MLOAD PUSH1 0x20 DUP2 DUP4 SUB SUB DUP2 MSTORE SWAP1 PUSH1 0x40 MSTORE DUP1 MLOAD SWAP1 PUSH1 0x20 ADD KECCAK256 DUP4 PUSH2 0x1381 JUMP JUMPDEST POP PUSH2 0xD45 JUMP JUMPDEST PUSH1 0x2 DUP2 SUB PUSH2 0xD09 JUMPI PUSH2 0xD03 PUSH1 0x40 MLOAD PUSH1 0x20 ADD PUSH2 0xCE7 SWAP1 PUSH2 0x1C1D JUMP JUMPDEST PUSH1 0x40 MLOAD PUSH1 0x20 DUP2 DUP4 SUB SUB DUP2 MSTORE SWAP1 PUSH1 0x40 MSTORE DUP1 MLOAD SWAP1 PUSH1 0x20 ADD KECCAK256 DUP4 PUSH2 0x1381 JUMP JUMPDEST POP PUSH2 0xD44 JUMP JUMPDEST PUSH1 0x40 MLOAD PUSH32 0x8C379A000000000000000000000000000000000000000000000000000000000 DUP2 MSTORE PUSH1 0x4 ADD PUSH2 0xD3B SWAP1 PUSH2 0x1C7B JUMP JUMPDEST PUSH1 0x40 MLOAD DUP1 SWAP2 SUB SWAP1 REVERT JUMPDEST JUMPDEST JUMPDEST DUP1 DUP3 PUSH20 0xFFFFFFFFFFFFFFFFFFFFFFFFFFFFFFFFFFFFFFFF AND PUSH32 0x2224B7DFF324F24F810CF3BB4055085A9FD09DB933A221DEA091E176F4D16C8C PUSH1 0x40 MLOAD PUSH1 0x40 MLOAD DUP1 SWAP2 SUB SWAP1 LOG3 POP POP JUMP JUMPDEST PUSH0 PUSH2 0xDBD PUSH1 0x40 MLOAD PUSH1 0x20 ADD PUSH2 0xDA1 SWAP1 PUSH2 0x1B61 JUMP JUMPDEST PUSH1 0x40 MLOAD PUSH1 0x20 DUP2 DUP4 SUB SUB DUP2 MSTORE SWAP1 PUSH1 0x40 MSTORE DUP1 MLOAD SWAP1 PUSH1 0x20 ADD KECCAK256 DUP4 PUSH2 0x1088 JUMP JUMPDEST ISZERO PUSH2 0xDCA JUMPI PUSH0 SWAP1 POP PUSH2 0xE66 JUMP JUMPDEST PUSH2 0xDF8 PUSH1 0x40 MLOAD PUSH1 0x20 ADD PUSH2 0xDDC SWAP1 PUSH2 0x1BBF JUMP JUMPDEST PUSH1 0x40 MLOAD PUSH1 0x20 DUP2 DUP4 SUB SUB DUP2 MSTORE SWAP1 PUSH1 0x40 MSTORE DUP1 MLOAD SWAP1 PUSH1 0x20 ADD KECCAK256 DUP4 PUSH2 0x1088 JUMP JUMPDEST ISZERO PUSH2 0xE06 JUMPI PUSH1 0x1 SWAP1 POP PUSH2 0xE66 JUMP JUMPDEST PUSH2 0xE34 PUSH1 0x40 MLOAD PUSH1 0x20 ADD PUSH2 0xE18 SWAP1 PUSH2 0x1C1D JUMP JUMPDEST PUSH1 0x40 MLOAD PUSH1 0x20 DUP2 DUP4 SUB SUB DUP2 MSTORE SWAP1 PUSH1 0x40 MSTORE DUP1 MLOAD SWAP1 PUSH1 0x20 ADD KECCAK256 DUP4 PUSH2 0x1088 JUMP JUMPDEST ISZERO PUSH2 0xE42 JUMPI PUSH1 0x2 SWAP1 POP PUSH2 0xE66 JUMP JUMPDEST PUSH32 0xFFFFFFFFFFFFFFFFFFFFFFFFFFFFFFFFFFFFFFFFFFFFFFFFFFFFFFFFFFFFFFFF SWAP1 POP JUMPDEST SWAP2 SWAP1 POP JUMP JUMPDEST PUSH2 0xE98 PUSH1 0x40 MLOAD PUSH1 0x20 ADD PUSH2 0xE7D SWAP1 PUSH2 0x1AA9 JUMP JUMPDEST PUSH1 0x40 MLOAD PUSH1 0x20 DUP2 DUP4 SUB SUB DUP2 MSTORE SWAP1 PUSH1 0x40 MSTORE DUP1 MLOAD SWAP1 PUSH1 0x20 ADD KECCAK256 PUSH2 0x136D JUMP JUMPDEST PUSH1 0x1 PUSH0 DUP4 DUP2 MSTORE PUSH1 0x20 ADD SWAP1 DUP2 MSTORE PUSH1 0x20 ADD PUSH0 KECCAK256 PUSH0 SWAP1 SLOAD SWAP1 PUSH2 0x100 EXP SWAP1 DIV PUSH1 0xFF AND PUSH2 0xEF5 JUMPI PUSH1 0x40 MLOAD PUSH32 0x8C379A000000000000000000000000000000000000000000000000000000000 DUP2 MSTORE PUSH1 0x4 ADD PUSH2 0xEEC SWAP1 PUSH2 0x193E JUMP JUMPDEST PUSH1 0x40 MLOAD DUP1 SWAP2 SUB SWAP1 REVERT JUMPDEST PUSH0 PUSH1 0x3 PUSH0 DUP5 DUP2 MSTORE PUSH1 0x20 ADD SWAP1 DUP2 MSTORE PUSH1 0x20 ADD PUSH0 KECCAK256 SLOAD SWAP1 POP PUSH0 DUP3 PUSH20 0xFFFFFFFFFFFFFFFFFFFFFFFFFFFFFFFFFFFFFFFF AND DUP3 PUSH1 0x40 MLOAD PUSH2 0xF2F SWAP1 PUSH2 0x1CC6 JUMP JUMPDEST PUSH0 PUSH1 0x40 MLOAD DUP1 DUP4 SUB DUP2 DUP6 DUP8 GAS CALL SWAP3 POP POP POP RETURNDATASIZE DUP1 PUSH0 DUP2 EQ PUSH2 0xF69 JUMPI PUSH1 0x40 MLOAD SWAP2 POP PUSH1 0x1F NOT PUSH1 0x3F RETURNDATASIZE ADD AND DUP3 ADD PUSH1 0x40 MSTORE RETURNDATASIZE DUP3 MSTORE RETURNDATASIZE PUSH0 PUSH1 0x20 DUP5 ADD RETURNDATACOPY PUSH2 0xF6E JUMP JUMPDEST PUSH1 0x60 SWAP2 POP JUMPDEST POP POP SWAP1 POP DUP1 PUSH2 0xFB2 JUMPI PUSH1 0x40 MLOAD PUSH32 0x8C379A000000000000000000000000000000000000000000000000000000000 DUP2 MSTORE PUSH1 0x4 ADD PUSH2 0xFA9 SWAP1 PUSH2 0x1D24 JUMP JUMPDEST PUSH1 0x40 MLOAD DUP1 SWAP2 SUB SWAP1 REVERT JUMPDEST DUP2 PUSH1 0x3 PUSH0 DUP7 DUP2 MSTORE PUSH1 0x20 ADD SWAP1 DUP2 MSTORE PUSH1 0x20 ADD PUSH0 KECCAK256 PUSH0 DUP3 DUP3 SLOAD PUSH2 0xFD2 SWAP2 SWAP1 PUSH2 0x1AE4 JUMP JUMPDEST SWAP3 POP POP DUP2 SWAP1 SSTORE POP DUP3 PUSH20 0xFFFFFFFFFFFFFFFFFFFFFFFFFFFFFFFFFFFFFFFF AND DUP5 PUSH32 0xFD1D4F59CF1013EE232282CAC3356B455525C6D4D04D18BED8216B7B6C2BEB60 PUSH1 0x40 MLOAD PUSH1 0x40 MLOAD DUP1 SWAP2 SUB SWAP1 LOG3 POP POP POP POP JUMP JUMPDEST PUSH1 0x40 MLOAD PUSH1 0x20 ADD PUSH2 0x1032 SWAP1 PUSH2 0x1C1D JUMP JUMPDEST PUSH1 0x40 MLOAD PUSH1 0x20 DUP2 DUP4 SUB SUB DUP2 MSTORE SWAP1 PUSH1 0x40 MSTORE DUP1 MLOAD SWAP1 PUSH1 0x20 ADD KECCAK256 DUP2 JUMP JUMPDEST PUSH2 0x1056 PUSH0 DUP1 SHL PUSH2 0x136D JUMP JUMPDEST PUSH2 0x1084 PUSH1 0x40 MLOAD PUSH1 0x20 ADD PUSH2 0x1068 SWAP1 PUSH2 0x1AA9 JUMP JUMPDEST PUSH1 0x40 MLOAD PUSH1 0x20 DUP2 DUP4 SUB SUB DUP2 MSTORE SWAP1 PUSH1 0x40 MSTORE DUP1 MLOAD SWAP1 PUSH1 0x20 ADD KECCAK256 DUP3 PUSH2 0x1381 JUMP JUMPDEST POP POP JUMP JUMPDEST PUSH0 DUP1 PUSH0 DUP5 DUP2 MSTORE PUSH1 0x20 ADD SWAP1 DUP2 MSTORE PUSH1 0x20 ADD PUSH0 KECCAK256 PUSH0 ADD PUSH0 DUP4 PUSH20 0xFFFFFFFFFFFFFFFFFFFFFFFFFFFFFFFFFFFFFFFF AND PUSH20 0xFFFFFFFFFFFFFFFFFFFFFFFFFFFFFFFFFFFFFFFF AND DUP2 MSTORE PUSH1 0x20 ADD SWAP1 DUP2 MSTORE PUSH1 0x20 ADD PUSH0 KECCAK256 PUSH0 SWAP1 SLOAD SWAP1 PUSH2 0x100 EXP SWAP1 DIV PUSH1 0xFF AND SWAP1 POP SWAP3 SWAP2 POP POP JUMP JUMPDEST PUSH0 DUP1 SHL DUP2 JUMP JUMPDEST PUSH1 0x40 MLOAD PUSH1 0x20 ADD PUSH2 0x1100 SWAP1 PUSH2 0x1AA9 JUMP JUMPDEST PUSH1 0x40 MLOAD PUSH1 0x20 DUP2 DUP4 SUB SUB DUP2 MSTORE SWAP1 PUSH1 0x40 MSTORE DUP1 MLOAD SWAP1 PUSH1 0x20 ADD KECCAK256 DUP2 JUMP JUMPDEST PUSH2 0x1124 PUSH0 DUP1 SHL PUSH2 0x136D JUMP JUMPDEST PUSH2 0x1152 PUSH1 0x40 MLOAD PUSH1 0x20 ADD PUSH2 0x1136 SWAP1 PUSH2 0x1D8C JUMP JUMPDEST PUSH1 0x40 MLOAD PUSH1 0x20 DUP2 DUP4 SUB SUB DUP2 MSTORE SWAP1 PUSH1 0x40 MSTORE DUP1 MLOAD SWAP1 PUSH1 0x20 ADD KECCAK256 DUP3 PUSH2 0x1381 JUMP JUMPDEST POP POP JUMP JUMPDEST PUSH2 0x115F DUP3 PUSH2 0x952 JUMP JUMPDEST PUSH2 0x1168 DUP2 PUSH2 0x136D JUMP JUMPDEST PUSH2 0x1172 DUP4 DUP4 PUSH2 0x1471 JUMP JUMPDEST POP POP POP POP JUMP JUMPDEST PUSH1 0x40 MLOAD PUSH1 0x20 ADD PUSH2 0x1187 SWAP1 PUSH2 0x1BBF JUMP JUMPDEST PUSH1 0x40 MLOAD PUSH1 0x20 DUP2 DUP4 SUB SUB DUP2 MSTORE SWAP1 PUSH1 0x40 MSTORE DUP1 MLOAD SWAP1 PUSH1 0x20 ADD KECCAK256 DUP2 JUMP JUMPDEST PUSH2 0x11AB PUSH0 DUP1 SHL PUSH2 0x136D JUMP JUMPDEST PUSH2 0x11D9 PUSH1 0x40 MLOAD PUSH1 0x20 ADD PUSH2 0x11BD SWAP1 PUSH2 0x1AA9 JUMP JUMPDEST PUSH1 0x40 MLOAD PUSH1 0x20 DUP2 DUP4 SUB SUB DUP2 MSTORE SWAP1 PUSH1 0x40 MSTORE DUP1 MLOAD SWAP1 PUSH1 0x20 ADD KECCAK256 DUP3 PUSH2 0x1471 JUMP JUMPDEST POP POP JUMP JUMPDEST PUSH2 0x120A PUSH1 0x40 MLOAD PUSH1 0x20 ADD PUSH2 0x11EF SWAP1 PUSH2 0x1D8C JUMP JUMPDEST PUSH1 0x40 MLOAD PUSH1 0x20 DUP2 DUP4 SUB SUB DUP2 MSTORE SWAP1 PUSH1 0x40 MSTORE DUP1 MLOAD SWAP1 PUSH1 0x20 ADD KECCAK256 PUSH2 0x136D JUMP JUMPDEST PUSH1 0x1 DUP1 PUSH0 DUP4 DUP2 MSTORE PUSH1 0x20 ADD SWAP1 DUP2 MSTORE PUSH1 0x20 ADD PUSH0 KECCAK256 PUSH0 PUSH2 0x100 EXP DUP2 SLOAD DUP2 PUSH1 0xFF MUL NOT AND SWAP1 DUP4 ISZERO ISZERO MUL OR SWAP1 SSTORE POP DUP1 PUSH32 0xFA9941FD9436B8F798D8DA6C4747847BF053207FE545C37222588DB50A6742F8 PUSH1 0x40 MLOAD PUSH1 0x40 MLOAD DUP1 SWAP2 SUB SWAP1 LOG2 POP JUMP JUMPDEST PUSH2 0x126D PUSH0 DUP1 SHL PUSH2 0x136D JUMP JUMPDEST PUSH2 0x129B PUSH1 0x40 MLOAD PUSH1 0x20 ADD PUSH2 0x127F SWAP1 PUSH2 0x1D8C JUMP JUMPDEST PUSH1 0x40 MLOAD PUSH1 0x20 DUP2 DUP4 SUB SUB DUP2 MSTORE SWAP1 PUSH1 0x40 MSTORE DUP1 MLOAD SWAP1 PUSH1 0x20 ADD KECCAK256 DUP3 PUSH2 0x1471 JUMP JUMPDEST POP POP JUMP JUMPDEST PUSH1 0x3 PUSH1 0x20 MSTORE DUP1 PUSH0 MSTORE PUSH1 0x40 PUSH0 KECCAK256 PUSH0 SWAP2 POP SWAP1 POP SLOAD DUP2 JUMP JUMPDEST PUSH1 0x40 MLOAD PUSH1 0x20 ADD PUSH2 0x12C3 SWAP1 PUSH2 0x1B61 JUMP JUMPDEST PUSH1 0x40 MLOAD PUSH1 0x20 DUP2 DUP4 SUB SUB DUP2 MSTORE SWAP1 PUSH1 0x40 MSTORE DUP1 MLOAD SWAP1 PUSH1 0x20 ADD KECCAK256 DUP2 JUMP JUMPDEST PUSH1 0x40 MLOAD PUSH1 0x20 ADD PUSH2 0x12EB SWAP1 PUSH2 0x1D8C JUMP JUMPDEST PUSH1 0x40 MLOAD PUSH1 0x20 DUP2 DUP4 SUB SUB DUP2 MSTORE SWAP1 PUSH1 0x40 MSTORE DUP1 MLOAD SWAP1 PUSH1 0x20 ADD KECCAK256 DUP2 JUMP JUMPDEST PUSH0 PUSH32 0x1FFC9A700000000000000000000000000000000000000000000000000000000 PUSH28 0xFFFFFFFFFFFFFFFFFFFFFFFFFFFFFFFFFFFFFFFFFFFFFFFFFFFFFFFF NOT AND DUP3 PUSH28 0xFFFFFFFFFFFFFFFFFFFFFFFFFFFFFFFFFFFFFFFFFFFFFFFFFFFFFFFF NOT AND EQ SWAP1 POP SWAP2 SWAP1 POP JUMP JUMPDEST PUSH2 0x137E DUP2 PUSH2 0x1379 PUSH2 0x146A JUMP JUMPDEST PUSH2 0x155A JUMP JUMPDEST POP JUMP JUMPDEST PUSH0 PUSH2 0x138C DUP4 DUP4 PUSH2 0x1088 JUMP JUMPDEST PUSH2 0x1460 JUMPI PUSH1 0x1 PUSH0 DUP1 DUP6 DUP2 MSTORE PUSH1 0x20 ADD SWAP1 DUP2 MSTORE PUSH1 0x20 ADD PUSH0 KECCAK256 PUSH0 ADD PUSH0 DUP5 PUSH20 0xFFFFFFFFFFFFFFFFFFFFFFFFFFFFFFFFFFFFFFFF AND PUSH20 0xFFFFFFFFFFFFFFFFFFFFFFFFFFFFFFFFFFFFFFFF AND DUP2 MSTORE PUSH1 0x20 ADD SWAP1 DUP2 MSTORE PUSH1 0x20 ADD PUSH0 KECCAK256 PUSH0 PUSH2 0x100 EXP DUP2 SLOAD DUP2 PUSH1 0xFF MUL NOT AND SWAP1 DUP4 ISZERO ISZERO MUL OR SWAP1 SSTORE POP PUSH2 0x13FD PUSH2 0x146A JUMP JUMPDEST PUSH20 0xFFFFFFFFFFFFFFFFFFFFFFFFFFFFFFFFFFFFFFFF AND DUP3 PUSH20 0xFFFFFFFFFFFFFFFFFFFFFFFFFFFFFFFFFFFFFFFF AND DUP5 PUSH32 0x2F8788117E7EFF1D82E926EC794901D17C78024A50270940304540A733656F0D PUSH1 0x40 MLOAD PUSH1 0x40 MLOAD DUP1 SWAP2 SUB SWAP1 LOG4 PUSH1 0x1 SWAP1 POP PUSH2 0x1464 JUMP JUMPDEST PUSH0 SWAP1 POP JUMPDEST SWAP3 SWAP2 POP POP JUMP JUMPDEST PUSH0 CALLER SWAP1 POP SWAP1 JUMP JUMPDEST PUSH0 PUSH2 0x147C DUP4 DUP4 PUSH2 0x1088 JUMP JUMPDEST ISZERO PUSH2 0x1550 JUMPI PUSH0 DUP1 PUSH0 DUP6 DUP2 MSTORE PUSH1 0x20 ADD SWAP1 DUP2 MSTORE PUSH1 0x20 ADD PUSH0 KECCAK256 PUSH0 ADD PUSH0 DUP5 PUSH20 0xFFFFFFFFFFFFFFFFFFFFFFFFFFFFFFFFFFFFFFFF AND PUSH20 0xFFFFFFFFFFFFFFFFFFFFFFFFFFFFFFFFFFFFFFFF AND DUP2 MSTORE PUSH1 0x20 ADD SWAP1 DUP2 MSTORE PUSH1 0x20 ADD PUSH0 KECCAK256 PUSH0 PUSH2 0x100 EXP DUP2 SLOAD DUP2 PUSH1 0xFF MUL NOT AND SWAP1 DUP4 ISZERO ISZERO MUL OR SWAP1 SSTORE POP PUSH2 0x14ED PUSH2 0x146A JUMP JUMPDEST PUSH20 0xFFFFFFFFFFFFFFFFFFFFFFFFFFFFFFFFFFFFFFFF AND DUP3 PUSH20 0xFFFFFFFFFFFFFFFFFFFFFFFFFFFFFFFFFFFFFFFF AND DUP5 PUSH32 0xF6391F5C32D9C69D2A47EA670B442974B53935D1EDC7FD64EB21E047A839171B PUSH1 0x40 MLOAD PUSH1 0x40 MLOAD DUP1 SWAP2 SUB SWAP1 LOG4 PUSH1 0x1 SWAP1 POP PUSH2 0x1554 JUMP JUMPDEST PUSH0 SWAP1 POP JUMPDEST SWAP3 SWAP2 POP POP JUMP JUMPDEST PUSH2 0x1564 DUP3 DUP3 PUSH2 0x1088 JUMP JUMPDEST PUSH2 0x15A7 JUMPI DUP1 DUP3 PUSH1 0x40 MLOAD PUSH32 0xE2517D3F00000000000000000000000000000000000000000000000000000000 DUP2 MSTORE PUSH1 0x4 ADD PUSH2 0x159E SWAP3 SWAP2 SWAP1 PUSH2 0x1DA0 JUMP JUMPDEST PUSH1 0x40 MLOAD DUP1 SWAP2 SUB SWAP1 REVERT JUMPDEST POP POP JUMP JUMPDEST PUSH0 DUP1 REVERT JUMPDEST PUSH0 PUSH32 0xFFFFFFFF00000000000000000000000000000000000000000000000000000000 DUP3 AND SWAP1 POP SWAP2 SWAP1 POP JUMP JUMPDEST PUSH2 0x15E3 DUP2 PUSH2 0x15AF JUMP JUMPDEST DUP2 EQ PUSH2 0x15ED JUMPI PUSH0 DUP1 REVERT JUMPDEST POP JUMP JUMPDEST PUSH0 DUP2 CALLDATALOAD SWAP1 POP PUSH2 0x15FE DUP2 PUSH2 0x15DA JUMP JUMPDEST SWAP3 SWAP2 POP POP JUMP JUMPDEST PUSH0 PUSH1 0x20 DUP3 DUP5 SUB SLT ISZERO PUSH2 0x1619 JUMPI PUSH2 0x1618 PUSH2 0x15AB JUMP JUMPDEST JUMPDEST PUSH0 PUSH2 0x1626 DUP5 DUP3 DUP6 ADD PUSH2 0x15F0 JUMP JUMPDEST SWAP2 POP POP SWAP3 SWAP2 POP POP JUMP JUMPDEST PUSH0 DUP2 ISZERO ISZERO SWAP1 POP SWAP2 SWAP1 POP JUMP JUMPDEST PUSH2 0x1643 DUP2 PUSH2 0x162F JUMP JUMPDEST DUP3 MSTORE POP POP JUMP JUMPDEST PUSH0 PUSH1 0x20 DUP3 ADD SWAP1 POP PUSH2 0x165C PUSH0 DUP4 ADD DUP5 PUSH2 0x163A JUMP JUMPDEST SWAP3 SWAP2 POP POP JUMP JUMPDEST PUSH0 DUP2 SWAP1 POP SWAP2 SWAP1 POP JUMP JUMPDEST PUSH2 0x1674 DUP2 PUSH2 0x1662 JUMP JUMPDEST DUP2 EQ PUSH2 0x167E JUMPI PUSH0 DUP1 REVERT JUMPDEST POP JUMP JUMPDEST PUSH0 DUP2 CALLDATALOAD SWAP1 POP PUSH2 0x168F DUP2 PUSH2 0x166B JUMP JUMPDEST SWAP3 SWAP2 POP POP JUMP JUMPDEST PUSH0 PUSH1 0x20 DUP3 DUP5 SUB SLT ISZERO PUSH2 0x16AA JUMPI PUSH2 0x16A9 PUSH2 0x15AB JUMP JUMPDEST JUMPDEST PUSH0 PUSH2 0x16B7 DUP5 DUP3 DUP6 ADD PUSH2 0x1681 JUMP JUMPDEST SWAP2 POP POP SWAP3 SWAP2 POP POP JUMP JUMPDEST PUSH0 PUSH20 0xFFFFFFFFFFFFFFFFFFFFFFFFFFFFFFFFFFFFFFFF DUP3 AND SWAP1 POP SWAP2 SWAP1 POP JUMP JUMPDEST PUSH0 PUSH2 0x16E9 DUP3 PUSH2 0x16C0 JUMP JUMPDEST SWAP1 POP SWAP2 SWAP1 POP JUMP JUMPDEST PUSH2 0x16F9 DUP2 PUSH2 0x16DF JUMP JUMPDEST DUP2 EQ PUSH2 0x1703 JUMPI PUSH0 DUP1 REVERT JUMPDEST POP JUMP JUMPDEST PUSH0 DUP2 CALLDATALOAD SWAP1 POP PUSH2 0x1714 DUP2 PUSH2 0x16F0 JUMP JUMPDEST SWAP3 SWAP2 POP POP JUMP JUMPDEST PUSH0 DUP2 SWAP1 POP SWAP2 SWAP1 POP JUMP JUMPDEST PUSH2 0x172C DUP2 PUSH2 0x171A JUMP JUMPDEST DUP2 EQ PUSH2 0x1736 JUMPI PUSH0 DUP1 REVERT JUMPDEST POP JUMP JUMPDEST PUSH0 DUP2 CALLDATALOAD SWAP1 POP PUSH2 0x1747 DUP2 PUSH2 0x1723 JUMP JUMPDEST SWAP3 SWAP2 POP POP JUMP JUMPDEST PUSH0 DUP1 PUSH0 PUSH1 0x60 DUP5 DUP7 SUB SLT ISZERO PUSH2 0x1764 JUMPI PUSH2 0x1763 PUSH2 0x15AB JUMP JUMPDEST JUMPDEST PUSH0 PUSH2 0x1771 DUP7 DUP3 DUP8 ADD PUSH2 0x1681 JUMP JUMPDEST SWAP4 POP POP PUSH1 0x20 PUSH2 0x1782 DUP7 DUP3 DUP8 ADD PUSH2 0x1706 JUMP JUMPDEST SWAP3 POP POP PUSH1 0x40 PUSH2 0x1793 DUP7 DUP3 DUP8 ADD PUSH2 0x1739 JUMP JUMPDEST SWAP2 POP POP SWAP3 POP SWAP3 POP SWAP3 JUMP JUMPDEST PUSH2 0x17A6 DUP2 PUSH2 0x1662 JUMP JUMPDEST DUP3 MSTORE POP POP JUMP JUMPDEST PUSH0 PUSH1 0x20 DUP3 ADD SWAP1 POP PUSH2 0x17BF PUSH0 DUP4 ADD DUP5 PUSH2 0x179D JUMP JUMPDEST SWAP3 SWAP2 POP POP JUMP JUMPDEST PUSH0 DUP1 PUSH1 0x40 DUP4 DUP6 SUB SLT ISZERO PUSH2 0x17DB JUMPI PUSH2 0x17DA PUSH2 0x15AB JUMP JUMPDEST JUMPDEST PUSH0 PUSH2 0x17E8 DUP6 DUP3 DUP7 ADD PUSH2 0x1681 JUMP JUMPDEST SWAP3 POP POP PUSH1 0x20 PUSH2 0x17F9 DUP6 DUP3 DUP7 ADD PUSH2 0x1706 JUMP JUMPDEST SWAP2 POP POP SWAP3 POP SWAP3 SWAP1 POP JUMP JUMPDEST PUSH2 0x180C DUP2 PUSH2 0x171A JUMP JUMPDEST DUP3 MSTORE POP POP JUMP JUMPDEST PUSH0 PUSH1 0x20 DUP3 ADD SWAP1 POP PUSH2 0x1825 PUSH0 DUP4 ADD DUP5 PUSH2 0x1803 JUMP JUMPDEST SWAP3 SWAP2 POP POP JUMP JUMPDEST PUSH0 DUP1 PUSH0 PUSH1 0x60 DUP5 DUP7 SUB SLT ISZERO PUSH2 0x1842 JUMPI PUSH2 0x1841 PUSH2 0x15AB JUMP JUMPDEST JUMPDEST PUSH0 PUSH2 0x184F DUP7 DUP3 DUP8 ADD PUSH2 0x1681 JUMP JUMPDEST SWAP4 POP POP PUSH1 0x20 PUSH2 0x1860 DUP7 DUP3 DUP8 ADD PUSH2 0x1706 JUMP JUMPDEST SWAP3 POP POP PUSH1 0x40 PUSH2 0x1871 DUP7 DUP3 DUP8 ADD PUSH2 0x1706 JUMP JUMPDEST SWAP2 POP POP SWAP3 POP SWAP3 POP SWAP3 JUMP JUMPDEST PUSH0 DUP1 PUSH1 0x40 DUP4 DUP6 SUB SLT ISZERO PUSH2 0x1891 JUMPI PUSH2 0x1890 PUSH2 0x15AB JUMP JUMPDEST JUMPDEST PUSH0 PUSH2 0x189E DUP6 DUP3 DUP7 ADD PUSH2 0x1706 JUMP JUMPDEST SWAP3 POP POP PUSH1 0x20 PUSH2 0x18AF DUP6 DUP3 DUP7 ADD PUSH2 0x1739 JUMP JUMPDEST SWAP2 POP POP SWAP3 POP SWAP3 SWAP1 POP JUMP JUMPDEST PUSH0 PUSH1 0x20 DUP3 DUP5 SUB SLT ISZERO PUSH2 0x18CE JUMPI PUSH2 0x18CD PUSH2 0x15AB JUMP JUMPDEST JUMPDEST PUSH0 PUSH2 0x18DB DUP5 DUP3 DUP6 ADD PUSH2 0x1706 JUMP JUMPDEST SWAP2 POP POP SWAP3 SWAP2 POP POP JUMP JUMPDEST PUSH0 DUP3 DUP3 MSTORE PUSH1 0x20 DUP3 ADD SWAP1 POP SWAP3 SWAP2 POP POP JUMP JUMPDEST PUSH32 0x466163652068617368206E6F7420726567697374657265640000000000000000 PUSH0 DUP3 ADD MSTORE POP JUMP JUMPDEST PUSH0 PUSH2 0x1928 PUSH1 0x18 DUP4 PUSH2 0x18E4 JUMP JUMPDEST SWAP2 POP PUSH2 0x1933 DUP3 PUSH2 0x18F4 JUMP JUMPDEST PUSH1 0x20 DUP3 ADD SWAP1 POP SWAP2 SWAP1 POP JUMP JUMPDEST PUSH0 PUSH1 0x20 DUP3 ADD SWAP1 POP DUP2 DUP2 SUB PUSH0 DUP4 ADD MSTORE PUSH2 0x1955 DUP2 PUSH2 0x191C JUMP JUMPDEST SWAP1 POP SWAP2 SWAP1 POP JUMP JUMPDEST PUSH2 0x1965 DUP2 PUSH2 0x16DF JUMP JUMPDEST DUP3 MSTORE POP POP JUMP JUMPDEST PUSH0 PUSH1 0x60 DUP3 ADD SWAP1 POP PUSH2 0x197E PUSH0 DUP4 ADD DUP7 PUSH2 0x195C JUMP JUMPDEST PUSH2 0x198B PUSH1 0x20 DUP4 ADD DUP6 PUSH2 0x195C JUMP JUMPDEST PUSH2 0x1998 PUSH1 0x40 DUP4 ADD DUP5 PUSH2 0x1803 JUMP JUMPDEST SWAP5 SWAP4 POP POP POP POP JUMP JUMPDEST PUSH2 0x19A9 DUP2 PUSH2 0x162F JUMP JUMPDEST DUP2 EQ PUSH2 0x19B3 JUMPI PUSH0 DUP1 REVERT JUMPDEST POP JUMP JUMPDEST PUSH0 DUP2 MLOAD SWAP1 POP PUSH2 0x19C4 DUP2 PUSH2 0x19A0 JUMP JUMPDEST SWAP3 SWAP2 POP POP JUMP JUMPDEST PUSH0 PUSH1 0x20 DUP3 DUP5 SUB SLT ISZERO PUSH2 0x19DF JUMPI PUSH2 0x19DE PUSH2 0x15AB JUMP JUMPDEST JUMPDEST PUSH0 PUSH2 0x19EC DUP5 DUP3 DUP6 ADD PUSH2 0x19B6 JUMP JUMPDEST SWAP2 POP POP SWAP3 SWAP2 POP POP JUMP JUMPDEST PUSH32 0x4E487B7100000000000000000000000000000000000000000000000000000000 PUSH0 MSTORE PUSH1 0x11 PUSH1 0x4 MSTORE PUSH1 0x24 PUSH0 REVERT JUMPDEST PUSH0 PUSH2 0x1A2C DUP3 PUSH2 0x171A JUMP JUMPDEST SWAP2 POP PUSH2 0x1A37 DUP4 PUSH2 0x171A JUMP JUMPDEST SWAP3 POP DUP3 DUP3 ADD SWAP1 POP DUP1 DUP3 GT ISZERO PUSH2 0x1A4F JUMPI PUSH2 0x1A4E PUSH2 0x19F5 JUMP JUMPDEST JUMPDEST SWAP3 SWAP2 POP POP JUMP JUMPDEST PUSH0 DUP2 SWAP1 POP SWAP3 SWAP2 POP POP JUMP JUMPDEST PUSH32 0x5041594D454E545F41444D494E5F524F4C450000000000000000000000000000 PUSH0 DUP3 ADD MSTORE POP JUMP JUMPDEST PUSH0 PUSH2 0x1A93 PUSH1 0x12 DUP4 PUSH2 0x1A55 JUMP JUMPDEST SWAP2 POP PUSH2 0x1A9E DUP3 PUSH2 0x1A5F JUMP JUMPDEST PUSH1 0x12 DUP3 ADD SWAP1 POP SWAP2 SWAP1 POP JUMP JUMPDEST PUSH0 PUSH2 0x1AB3 DUP3 PUSH2 0x1A87 JUMP JUMPDEST SWAP2 POP DUP2 SWAP1 POP SWAP2 SWAP1 POP JUMP JUMPDEST PUSH0 PUSH1 0x40 DUP3 ADD SWAP1 POP PUSH2 0x1AD0 PUSH0 DUP4 ADD DUP6 PUSH2 0x195C JUMP JUMPDEST PUSH2 0x1ADD PUSH1 0x20 DUP4 ADD DUP5 PUSH2 0x1803 JUMP JUMPDEST SWAP4 SWAP3 POP POP POP JUMP JUMPDEST PUSH0 PUSH2 0x1AEE DUP3 PUSH2 0x171A JUMP JUMPDEST SWAP2 POP PUSH2 0x1AF9 DUP4 PUSH2 0x171A JUMP JUMPDEST SWAP3 POP DUP3 DUP3 SUB SWAP1 POP DUP2 DUP2 GT ISZERO PUSH2 0x1B11 JUMPI PUSH2 0x1B10 PUSH2 0x19F5 JUMP JUMPDEST JUMPDEST SWAP3 SWAP2 POP POP JUMP JUMPDEST PUSH32 0x4845414C54485F50524F46455353494F4E414C5F46554C4C0000000000000000 PUSH0 DUP3 ADD MSTORE POP JUMP JUMPDEST PUSH0 PUSH2 0x1B4B PUSH1 0x18 DUP4 PUSH2 0x1A55 JUMP JUMPDEST SWAP2 POP PUSH2 0x1B56 DUP3 PUSH2 0x1B17 JUMP JUMPDEST PUSH1 0x18 DUP3 ADD SWAP1 POP SWAP2 SWAP1 POP JUMP JUMPDEST PUSH0 PUSH2 0x1B6B DUP3 PUSH2 0x1B3F JUMP JUMPDEST SWAP2 POP DUP2 SWAP1 POP SWAP2 SWAP1 POP JUMP JUMPDEST PUSH32 0x4845414C54485F50524F46455353494F4E414C5F4D4944000000000000000000 PUSH0 DUP3 ADD MSTORE POP JUMP JUMPDEST PUSH0 PUSH2 0x1BA9 PUSH1 0x17 DUP4 PUSH2 0x1A55 JUMP JUMPDEST SWAP2 POP PUSH2 0x1BB4 DUP3 PUSH2 0x1B75 JUMP JUMPDEST PUSH1 0x17 DUP3 ADD SWAP1 POP SWAP2 SWAP1 POP JUMP JUMPDEST PUSH0 PUSH2 0x1BC9 DUP3 PUSH2 0x1B9D JUMP JUMPDEST SWAP2 POP DUP2 SWAP1 POP SWAP2 SWAP1 POP JUMP JUMPDEST PUSH32 0x4845414C54485F50524F46455353494F4E414C5F4C4F57000000000000000000 PUSH0 DUP3 ADD MSTORE POP JUMP JUMPDEST PUSH0 PUSH2 0x1C07 PUSH1 0x17 DUP4 PUSH2 0x1A55 JUMP JUMPDEST SWAP2 POP PUSH2 0x1C12 DUP3 PUSH2 0x1BD3 JUMP JUMPDEST PUSH1 0x17 DUP3 ADD SWAP1 POP SWAP2 SWAP1 POP JUMP JUMPDEST PUSH0 PUSH2 0x1C27 DUP3 PUSH2 0x1BFB JUMP JUMPDEST SWAP2 POP DUP2 SWAP1 POP SWAP2 SWAP1 POP JUMP JUMPDEST PUSH32 0x556E7265636F676E697A656420616363657373206C6576656C00000000000000 PUSH0 DUP3 ADD MSTORE POP JUMP JUMPDEST PUSH0 PUSH2 0x1C65 PUSH1 0x19 DUP4 PUSH2 0x18E4 JUMP JUMPDEST SWAP2 POP PUSH2 0x1C70 DUP3 PUSH2 0x1C31 JUMP JUMPDEST PUSH1 0x20 DUP3 ADD SWAP1 POP SWAP2 SWAP1 POP JUMP JUMPDEST PUSH0 PUSH1 0x20 DUP3 ADD SWAP1 POP DUP2 DUP2 SUB PUSH0 DUP4 ADD MSTORE PUSH2 0x1C92 DUP2 PUSH2 0x1C59 JUMP JUMPDEST SWAP1 POP SWAP2 SWAP1 POP JUMP JUMPDEST PUSH0 DUP2 SWAP1 POP SWAP3 SWAP2 POP POP JUMP JUMPDEST POP JUMP JUMPDEST PUSH0 PUSH2 0x1CB1 PUSH0 DUP4 PUSH2 0x1C99 JUMP JUMPDEST SWAP2 POP PUSH2 0x1CBC DUP3 PUSH2 0x1CA3 JUMP JUMPDEST PUSH0 DUP3 ADD SWAP1 POP SWAP2 SWAP1 POP JUMP JUMPDEST PUSH0 PUSH2 0x1CD0 DUP3 PUSH2 0x1CA6 JUMP JUMPDEST SWAP2 POP DUP2 SWAP1 POP SWAP2 SWAP1 POP JUMP JUMPDEST PUSH32 0x5061796F7574206661696C656400000000000000000000000000000000000000 PUSH0 DUP3 ADD MSTORE POP JUMP JUMPDEST PUSH0 PUSH2 0x1D0E PUSH1 0xD DUP4 PUSH2 0x18E4 JUMP JUMPDEST SWAP2 POP PUSH2 0x1D19 DUP3 PUSH2 0x1CDA JUMP JUMPDEST PUSH1 0x20 DUP3 ADD SWAP1 POP SWAP2 SWAP1 POP JUMP JUMPDEST PUSH0 PUSH1 0x20 DUP3 ADD SWAP1 POP DUP2 DUP2 SUB PUSH0 DUP4 ADD MSTORE PUSH2 0x1D3B DUP2 PUSH2 0x1D02 JUMP JUMPDEST SWAP1 POP SWAP2 SWAP1 POP JUMP JUMPDEST PUSH32 0x555345525F41444D494E5F524F4C450000000000000000000000000000000000 PUSH0 DUP3 ADD MSTORE POP JUMP JUMPDEST PUSH0 PUSH2 0x1D76 PUSH1 0xF DUP4 PUSH2 0x1A55 JUMP JUMPDEST SWAP2 POP PUSH2 0x1D81 DUP3 PUSH2 0x1D42 JUMP JUMPDEST PUSH1 0xF DUP3 ADD SWAP1 POP SWAP2 SWAP1 POP JUMP JUMPDEST PUSH0 PUSH2 0x1D96 DUP3 PUSH2 0x1D6A JUMP JUMPDEST SWAP2 POP DUP2 SWAP1 POP SWAP2 SWAP1 POP JUMP JUMPDEST PUSH0 PUSH1 0x40 DUP3 ADD SWAP1 POP PUSH2 0x1DB3 PUSH0 DUP4 ADD DUP6 PUSH2 0x195C JUMP JUMPDEST PUSH2 0x1DC0 PUSH1 0x20 DUP4 ADD DUP5 PUSH2 0x179D JUMP JUMPDEST SWAP4 SWAP3 POP POP POP JUMP INVALID LOG2 PUSH5 0x6970667358 0x22 SLT KECCAK256 DIV 0xB3 0x21 0xD2 0x29 0xCD 0xEE LOG0 PUSH25 0xBF583C0BE70C7711C9D446B731D92A5F048AD9EE6A33C96473 PUSH16 0x6C634300081600330000000000000000 "
		},
		"gasEstimates": {
			"creation": {
				"codeDepositCost": "1535400",
				"executionCost": "infinite",
				"totalCost": "infinite"
			},
			"external": {
				"DEFAULT_ADMIN_ROLE()": "375",
				"HEALTH_PROFESSIONAL_FULL()": "714",
				"HEALTH_PROFESSIONAL_LOW()": "672",
				"HEALTH_PROFESSIONAL_MID()": "671",
				"PAYMENT_ADMIN_ROLE()": "693",
				"USER_ADMIN_ROLE()": "736",
				"addPaymentAdmin(address)": "infinite",
				"addUserAdmin(address)": "infinite",
				"balanceForTokenForFaceHash(bytes32,address)": "3168",
				"baseTokenBalanceForFaceHash(bytes32)": "2820",
				"getAccessLevelForAddress(address)": "infinite",
				"getRoleAdmin(bytes32)": "infinite",
				"grantRole(bytes32,address)": "infinite",
				"hasRole(bytes32,address)": "3212",
				"isFaceHashRegistered(bytes32)": "2856",
				"payoutChainBaseTokenToFaceHash(bytes32,address)": "infinite",
				"payoutTokenForFaceHash(bytes32,address,address)": "infinite",
				"registerFaceHash(bytes32)": "infinite",
				"registeredFaceHashes(bytes32)": "2853",
				"removePaymentAdmin(address)": "infinite",
				"removeUserAdmin(address)": "infinite",
				"renounceRole(bytes32,address)": "infinite",
				"revokeRole(bytes32,address)": "infinite",
				"sendChainBaseTokenToFaceHash(bytes32)": "infinite",
				"sendTokenToFaceHash(bytes32,address,uint256)": "infinite",
				"supportsInterface(bytes4)": "741",
				"verifyHealthWorker(address,uint256)": "infinite"
			}
		},
		"methodIdentifiers": {
			"DEFAULT_ADMIN_ROLE()": "a217fddf",
			"HEALTH_PROFESSIONAL_FULL()": "f0f7af4d",
			"HEALTH_PROFESSIONAL_LOW()": "585f4c49",
			"HEALTH_PROFESSIONAL_MID()": "d6770522",
			"PAYMENT_ADMIN_ROLE()": "b24b56b0",
			"USER_ADMIN_ROLE()": "f2c80089",
			"addPaymentAdmin(address)": "5ea06a9c",
			"addUserAdmin(address)": "b89f9ac1",
			"balanceForTokenForFaceHash(bytes32,address)": "24ccc1a6",
			"baseTokenBalanceForFaceHash(bytes32)": "e6d6384a",
			"getAccessLevelForAddress(address)": "51fea917",
			"getRoleAdmin(bytes32)": "248a9ca3",
			"grantRole(bytes32,address)": "2f2ff15d",
			"hasRole(bytes32,address)": "91d14854",
			"isFaceHashRegistered(bytes32)": "09c19362",
			"payoutChainBaseTokenToFaceHash(bytes32,address)": "55f93e6e",
			"payoutTokenForFaceHash(bytes32,address,address)": "3fd2c4f1",
			"registerFaceHash(bytes32)": "dd65ab1f",
			"registeredFaceHashes(bytes32)": "2f432261",
			"removePaymentAdmin(address)": "d7b8a07a",
			"removeUserAdmin(address)": "e096cfed",
			"renounceRole(bytes32,address)": "36568abe",
			"revokeRole(bytes32,address)": "d547741f",
			"sendChainBaseTokenToFaceHash(bytes32)": "0fa750ff",
			"sendTokenToFaceHash(bytes32,address,uint256)": "0adbbdd3",
			"supportsInterface(bytes4)": "01ffc9a7",
			"verifyHealthWorker(address,uint256)": "48570ee6"
		}
	},
	"abi": [
		{
			"inputs": [],
			"stateMutability": "nonpayable",
			"type": "constructor"
		},
		{
			"inputs": [],
			"name": "AccessControlBadConfirmation",
			"type": "error"
		},
		{
			"inputs": [
				{
					"internalType": "address",
					"name": "account",
					"type": "address"
				},
				{
					"internalType": "bytes32",
					"name": "neededRole",
					"type": "bytes32"
				}
			],
			"name": "AccessControlUnauthorizedAccount",
			"type": "error"
		},
		{
			"anonymous": false,
			"inputs": [
				{
					"indexed": true,
					"internalType": "bytes32",
					"name": "_faceHash",
					"type": "bytes32"
				},
				{
					"indexed": true,
					"internalType": "address",
					"name": "_account",
					"type": "address"
				}
			],
			"name": "PayoutChainBaseTokenToFaceHash",
			"type": "event"
		},
		{
			"anonymous": false,
			"inputs": [
				{
					"indexed": true,
					"internalType": "bytes32",
					"name": "_faceHash",
					"type": "bytes32"
				},
				{
					"indexed": true,
					"internalType": "address",
					"name": "_token",
					"type": "address"
				},
				{
					"indexed": true,
					"internalType": "uint256",
					"name": "_amount",
					"type": "uint256"
				}
			],
			"name": "PayoutTokenForFaceHash",
			"type": "event"
		},
		{
			"anonymous": false,
			"inputs": [
				{
					"indexed": true,
					"internalType": "bytes32",
					"name": "_faceHash",
					"type": "bytes32"
				}
			],
			"name": "RegisterFaceHash",
			"type": "event"
		},
		{
			"anonymous": false,
			"inputs": [
				{
					"indexed": true,
					"internalType": "bytes32",
					"name": "role",
					"type": "bytes32"
				},
				{
					"indexed": true,
					"internalType": "bytes32",
					"name": "previousAdminRole",
					"type": "bytes32"
				},
				{
					"indexed": true,
					"internalType": "bytes32",
					"name": "newAdminRole",
					"type": "bytes32"
				}
			],
			"name": "RoleAdminChanged",
			"type": "event"
		},
		{
			"anonymous": false,
			"inputs": [
				{
					"indexed": true,
					"internalType": "bytes32",
					"name": "role",
					"type": "bytes32"
				},
				{
					"indexed": true,
					"internalType": "address",
					"name": "account",
					"type": "address"
				},
				{
					"indexed": true,
					"internalType": "address",
					"name": "sender",
					"type": "address"
				}
			],
			"name": "RoleGranted",
			"type": "event"
		},
		{
			"anonymous": false,
			"inputs": [
				{
					"indexed": true,
					"internalType": "bytes32",
					"name": "role",
					"type": "bytes32"
				},
				{
					"indexed": true,
					"internalType": "address",
					"name": "account",
					"type": "address"
				},
				{
					"indexed": true,
					"internalType": "address",
					"name": "sender",
					"type": "address"
				}
			],
			"name": "RoleRevoked",
			"type": "event"
		},
		{
			"anonymous": false,
			"inputs": [
				{
					"indexed": true,
					"internalType": "bytes32",
					"name": "_faceHash",
					"type": "bytes32"
				},
				{
					"indexed": true,
					"internalType": "uint256",
					"name": "_amount",
					"type": "uint256"
				}
			],
			"name": "SendChainBaseTokenToFaceHash",
			"type": "event"
		},
		{
			"anonymous": false,
			"inputs": [
				{
					"indexed": true,
					"internalType": "bytes32",
					"name": "_faceHash",
					"type": "bytes32"
				},
				{
					"indexed": true,
					"internalType": "address",
					"name": "_token",
					"type": "address"
				},
				{
					"indexed": true,
					"internalType": "uint256",
					"name": "_amount",
					"type": "uint256"
				}
			],
			"name": "SendTokenToFaceHash",
			"type": "event"
		},
		{
			"anonymous": false,
			"inputs": [
				{
					"indexed": true,
					"internalType": "address",
					"name": "_account",
					"type": "address"
				},
				{
					"indexed": true,
					"internalType": "uint256",
					"name": "_accessLevel",
					"type": "uint256"
				}
			],
			"name": "VerifyHealthWorker",
			"type": "event"
		},
		{
			"inputs": [],
			"name": "DEFAULT_ADMIN_ROLE",
			"outputs": [
				{
					"internalType": "bytes32",
					"name": "",
					"type": "bytes32"
				}
			],
			"stateMutability": "view",
			"type": "function"
		},
		{
			"inputs": [],
			"name": "HEALTH_PROFESSIONAL_FULL",
			"outputs": [
				{
					"internalType": "bytes32",
					"name": "",
					"type": "bytes32"
				}
			],
			"stateMutability": "view",
			"type": "function"
		},
		{
			"inputs": [],
			"name": "HEALTH_PROFESSIONAL_LOW",
			"outputs": [
				{
					"internalType": "bytes32",
					"name": "",
					"type": "bytes32"
				}
			],
			"stateMutability": "view",
			"type": "function"
		},
		{
			"inputs": [],
			"name": "HEALTH_PROFESSIONAL_MID",
			"outputs": [
				{
					"internalType": "bytes32",
					"name": "",
					"type": "bytes32"
				}
			],
			"stateMutability": "view",
			"type": "function"
		},
		{
			"inputs": [],
			"name": "PAYMENT_ADMIN_ROLE",
			"outputs": [
				{
					"internalType": "bytes32",
					"name": "",
					"type": "bytes32"
				}
			],
			"stateMutability": "view",
			"type": "function"
		},
		{
			"inputs": [],
			"name": "USER_ADMIN_ROLE",
			"outputs": [
				{
					"internalType": "bytes32",
					"name": "",
					"type": "bytes32"
				}
			],
			"stateMutability": "view",
			"type": "function"
		},
		{
			"inputs": [
				{
					"internalType": "address",
					"name": "_account",
					"type": "address"
				}
			],
			"name": "addPaymentAdmin",
			"outputs": [],
			"stateMutability": "nonpayable",
			"type": "function"
		},
		{
			"inputs": [
				{
					"internalType": "address",
					"name": "_account",
					"type": "address"
				}
			],
			"name": "addUserAdmin",
			"outputs": [],
			"stateMutability": "nonpayable",
			"type": "function"
		},
		{
			"inputs": [
				{
					"internalType": "bytes32",
					"name": "",
					"type": "bytes32"
				},
				{
					"internalType": "address",
					"name": "",
					"type": "address"
				}
			],
			"name": "balanceForTokenForFaceHash",
			"outputs": [
				{
					"internalType": "uint256",
					"name": "",
					"type": "uint256"
				}
			],
			"stateMutability": "view",
			"type": "function"
		},
		{
			"inputs": [
				{
					"internalType": "bytes32",
					"name": "",
					"type": "bytes32"
				}
			],
			"name": "baseTokenBalanceForFaceHash",
			"outputs": [
				{
					"internalType": "uint256",
					"name": "",
					"type": "uint256"
				}
			],
			"stateMutability": "view",
			"type": "function"
		},
		{
			"inputs": [
				{
					"internalType": "address",
					"name": "_address",
					"type": "address"
				}
			],
			"name": "getAccessLevelForAddress",
			"outputs": [
				{
					"internalType": "uint256",
					"name": "",
					"type": "uint256"
				}
			],
			"stateMutability": "view",
			"type": "function"
		},
		{
			"inputs": [
				{
					"internalType": "bytes32",
					"name": "role",
					"type": "bytes32"
				}
			],
			"name": "getRoleAdmin",
			"outputs": [
				{
					"internalType": "bytes32",
					"name": "",
					"type": "bytes32"
				}
			],
			"stateMutability": "view",
			"type": "function"
		},
		{
			"inputs": [
				{
					"internalType": "bytes32",
					"name": "role",
					"type": "bytes32"
				},
				{
					"internalType": "address",
					"name": "account",
					"type": "address"
				}
			],
			"name": "grantRole",
			"outputs": [],
			"stateMutability": "nonpayable",
			"type": "function"
		},
		{
			"inputs": [
				{
					"internalType": "bytes32",
					"name": "role",
					"type": "bytes32"
				},
				{
					"internalType": "address",
					"name": "account",
					"type": "address"
				}
			],
			"name": "hasRole",
			"outputs": [
				{
					"internalType": "bool",
					"name": "",
					"type": "bool"
				}
			],
			"stateMutability": "view",
			"type": "function"
		},
		{
			"inputs": [
				{
					"internalType": "bytes32",
					"name": "_hash",
					"type": "bytes32"
				}
			],
			"name": "isFaceHashRegistered",
			"outputs": [
				{
					"internalType": "bool",
					"name": "",
					"type": "bool"
				}
			],
			"stateMutability": "view",
			"type": "function"
		},
		{
			"inputs": [
				{
					"internalType": "bytes32",
					"name": "_faceHash",
					"type": "bytes32"
				},
				{
					"internalType": "address",
					"name": "_account",
					"type": "address"
				}
			],
			"name": "payoutChainBaseTokenToFaceHash",
			"outputs": [],
			"stateMutability": "nonpayable",
			"type": "function"
		},
		{
			"inputs": [
				{
					"internalType": "bytes32",
					"name": "_faceHash",
					"type": "bytes32"
				},
				{
					"internalType": "address",
					"name": "_token",
					"type": "address"
				},
				{
					"internalType": "address",
					"name": "_account",
					"type": "address"
				}
			],
			"name": "payoutTokenForFaceHash",
			"outputs": [],
			"stateMutability": "nonpayable",
			"type": "function"
		},
		{
			"inputs": [
				{
					"internalType": "bytes32",
					"name": "_faceHash",
					"type": "bytes32"
				}
			],
			"name": "registerFaceHash",
			"outputs": [],
			"stateMutability": "nonpayable",
			"type": "function"
		},
		{
			"inputs": [
				{
					"internalType": "bytes32",
					"name": "",
					"type": "bytes32"
				}
			],
			"name": "registeredFaceHashes",
			"outputs": [
				{
					"internalType": "bool",
					"name": "",
					"type": "bool"
				}
			],
			"stateMutability": "view",
			"type": "function"
		},
		{
			"inputs": [
				{
					"internalType": "address",
					"name": "_account",
					"type": "address"
				}
			],
			"name": "removePaymentAdmin",
			"outputs": [],
			"stateMutability": "nonpayable",
			"type": "function"
		},
		{
			"inputs": [
				{
					"internalType": "address",
					"name": "_account",
					"type": "address"
				}
			],
			"name": "removeUserAdmin",
			"outputs": [],
			"stateMutability": "nonpayable",
			"type": "function"
		},
		{
			"inputs": [
				{
					"internalType": "bytes32",
					"name": "role",
					"type": "bytes32"
				},
				{
					"internalType": "address",
					"name": "callerConfirmation",
					"type": "address"
				}
			],
			"name": "renounceRole",
			"outputs": [],
			"stateMutability": "nonpayable",
			"type": "function"
		},
		{
			"inputs": [
				{
					"internalType": "bytes32",
					"name": "role",
					"type": "bytes32"
				},
				{
					"internalType": "address",
					"name": "account",
					"type": "address"
				}
			],
			"name": "revokeRole",
			"outputs": [],
			"stateMutability": "nonpayable",
			"type": "function"
		},
		{
			"inputs": [
				{
					"internalType": "bytes32",
					"name": "_faceHash",
					"type": "bytes32"
				}
			],
			"name": "sendChainBaseTokenToFaceHash",
			"outputs": [],
			"stateMutability": "payable",
			"type": "function"
		},
		{
			"inputs": [
				{
					"internalType": "bytes32",
					"name": "_faceHash",
					"type": "bytes32"
				},
				{
					"internalType": "address",
					"name": "_token",
					"type": "address"
				},
				{
					"internalType": "uint256",
					"name": "_amount",
					"type": "uint256"
				}
			],
			"name": "sendTokenToFaceHash",
			"outputs": [],
			"stateMutability": "nonpayable",
			"type": "function"
		},
		{
			"inputs": [
				{
					"internalType": "bytes4",
					"name": "interfaceId",
					"type": "bytes4"
				}
			],
			"name": "supportsInterface",
			"outputs": [
				{
					"internalType": "bool",
					"name": "",
					"type": "bool"
				}
			],
			"stateMutability": "view",
			"type": "function"
		},
		{
			"inputs": [
				{
					"internalType": "address",
					"name": "_account",
					"type": "address"
				},
				{
					"internalType": "uint256",
					"name": "_accessLevel",
					"type": "uint256"
				}
			],
			"name": "verifyHealthWorker",
			"outputs": [],
			"stateMutability": "nonpayable",
			"type": "function"
		}
	]
}